{
	"contracts/Practice1.sol": {
		"simple": {
			"abi": [
				{
					"inputs": [
						{
							"internalType": "string",
							"name": "_newName",
							"type": "string"
						}
					],
					"name": "addName",
					"outputs": [],
					"stateMutability": "nonpayable",
					"type": "function"
				},
				{
					"inputs": [
						{
							"internalType": "string",
							"name": "_deleteName",
							"type": "string"
						}
					],
					"name": "deleteName",
					"outputs": [],
					"stateMutability": "payable",
					"type": "function"
				},
				{
					"inputs": [],
					"name": "getArr",
					"outputs": [
						{
							"internalType": "string[]",
							"name": "",
							"type": "string[]"
						}
					],
					"stateMutability": "view",
					"type": "function"
				},
				{
					"inputs": [
						{
							"internalType": "uint256",
							"name": "",
							"type": "uint256"
						}
					],
					"name": "row",
					"outputs": [
						{
							"internalType": "string",
							"name": "",
							"type": "string"
						}
					],
					"stateMutability": "view",
					"type": "function"
				}
			],
			"devdoc": {
				"kind": "dev",
				"methods": {},
				"version": 1
			},
			"evm": {
				"assembly": "    /* \"contracts/Practice1.sol\":62:666  contract simple {... */\n  mstore(0x40, 0x80)\n  callvalue\n  dup1\n  iszero\n  tag_1\n  jumpi\n  0x00\n  dup1\n  revert\ntag_1:\n  pop\n  dataSize(sub_0)\n  dup1\n  dataOffset(sub_0)\n  0x00\n  codecopy\n  0x00\n  return\nstop\n\nsub_0: assembly {\n        /* \"contracts/Practice1.sol\":62:666  contract simple {... */\n      mstore(0x40, 0x80)\n      jumpi(tag_1, lt(calldatasize, 0x04))\n      shr(0xe0, calldataload(0x00))\n      dup1\n      0x11456b47\n      eq\n      tag_2\n      jumpi\n      dup1\n      0x4f348b95\n      eq\n      tag_3\n      jumpi\n      dup1\n      0x53a98ea9\n      eq\n      tag_4\n      jumpi\n      dup1\n      0xfb8cbced\n      eq\n      tag_5\n      jumpi\n    tag_1:\n      0x00\n      dup1\n      revert\n        /* \"contracts/Practice1.sol\":113:198  function addName(string memory _newName) public {... */\n    tag_2:\n      callvalue\n      dup1\n      iszero\n      tag_6\n      jumpi\n      0x00\n      dup1\n      revert\n    tag_6:\n      pop\n      tag_7\n      0x04\n      dup1\n      calldatasize\n      sub\n      dup2\n      add\n      swap1\n      tag_8\n      swap2\n      swap1\n      tag_9\n      jump\t// in\n    tag_8:\n      tag_10\n      jump\t// in\n    tag_7:\n      stop\n        /* \"contracts/Practice1.sol\":85:104  string[] public row */\n    tag_3:\n      callvalue\n      dup1\n      iszero\n      tag_11\n      jumpi\n      0x00\n      dup1\n      revert\n    tag_11:\n      pop\n      tag_12\n      0x04\n      dup1\n      calldatasize\n      sub\n      dup2\n      add\n      swap1\n      tag_13\n      swap2\n      swap1\n      tag_14\n      jump\t// in\n    tag_13:\n      tag_15\n      jump\t// in\n    tag_12:\n      mload(0x40)\n      tag_16\n      swap2\n      swap1\n      tag_17\n      jump\t// in\n    tag_16:\n      mload(0x40)\n      dup1\n      swap2\n      sub\n      swap1\n      return\n        /* \"contracts/Practice1.sol\":206:570  function deleteName(string memory _deleteName) public payable {... */\n    tag_4:\n      tag_18\n      0x04\n      dup1\n      calldatasize\n      sub\n      dup2\n      add\n      swap1\n      tag_19\n      swap2\n      swap1\n      tag_9\n      jump\t// in\n    tag_19:\n      tag_20\n      jump\t// in\n    tag_18:\n      stop\n        /* \"contracts/Practice1.sol\":578:663  function getArr() public view returns (string[] memory) {... */\n    tag_5:\n      callvalue\n      dup1\n      iszero\n      tag_21\n      jumpi\n      0x00\n      dup1\n      revert\n    tag_21:\n      pop\n      tag_22\n      tag_23\n      jump\t// in\n    tag_22:\n      mload(0x40)\n      tag_24\n      swap2\n      swap1\n      tag_25\n      jump\t// in\n    tag_24:\n      mload(0x40)\n      dup1\n      swap2\n      sub\n      swap1\n      return\n        /* \"contracts/Practice1.sol\":113:198  function addName(string memory _newName) public {... */\n    tag_10:\n        /* \"contracts/Practice1.sol\":172:175  row */\n      0x00\n        /* \"contracts/Practice1.sol\":181:189  _newName */\n      dup2\n        /* \"contracts/Practice1.sol\":172:190  row.push(_newName) */\n      swap1\n      dup1\n      0x01\n      dup2\n      sload\n      add\n      dup1\n      dup3\n      sstore\n      dup1\n      swap2\n      pop\n      pop\n      0x01\n      swap1\n      sub\n      swap1\n      0x00\n      mstore\n      keccak256(0x00, 0x20)\n      add\n      0x00\n      swap1\n      swap2\n      swap1\n      swap2\n      swap1\n      swap2\n      pop\n      swap1\n      dup2\n      tag_28\n      swap2\n      swap1\n      tag_29\n      jump\t// in\n    tag_28:\n      pop\n        /* \"contracts/Practice1.sol\":113:198  function addName(string memory _newName) public {... */\n      pop\n      jump\t// out\n        /* \"contracts/Practice1.sol\":85:104  string[] public row */\n    tag_15:\n      0x00\n      dup2\n      dup2\n      sload\n      dup2\n      lt\n      tag_30\n      jumpi\n      0x00\n      dup1\n      revert\n    tag_30:\n      swap1\n      0x00\n      mstore\n      keccak256(0x00, 0x20)\n      add\n      0x00\n      swap2\n      pop\n      swap1\n      pop\n      dup1\n      sload\n      tag_32\n      swap1\n      tag_33\n      jump\t// in\n    tag_32:\n      dup1\n      0x1f\n      add\n      0x20\n      dup1\n      swap2\n      div\n      mul\n      0x20\n      add\n      mload(0x40)\n      swap1\n      dup2\n      add\n      0x40\n      mstore\n      dup1\n      swap3\n      swap2\n      swap1\n      dup2\n      dup2\n      mstore\n      0x20\n      add\n      dup3\n      dup1\n      sload\n      tag_34\n      swap1\n      tag_33\n      jump\t// in\n    tag_34:\n      dup1\n      iszero\n      tag_35\n      jumpi\n      dup1\n      0x1f\n      lt\n      tag_36\n      jumpi\n      0x0100\n      dup1\n      dup4\n      sload\n      div\n      mul\n      dup4\n      mstore\n      swap2\n      0x20\n      add\n      swap2\n      jump(tag_35)\n    tag_36:\n      dup3\n      add\n      swap2\n      swap1\n      0x00\n      mstore\n      keccak256(0x00, 0x20)\n      swap1\n    tag_37:\n      dup2\n      sload\n      dup2\n      mstore\n      swap1\n      0x01\n      add\n      swap1\n      0x20\n      add\n      dup1\n      dup4\n      gt\n      tag_37\n      jumpi\n      dup3\n      swap1\n      sub\n      0x1f\n      and\n      dup3\n      add\n      swap2\n    tag_35:\n      pop\n      pop\n      pop\n      pop\n      pop\n      dup2\n      jump\t// out\n        /* \"contracts/Practice1.sol\":206:570  function deleteName(string memory _deleteName) public payable {... */\n    tag_20:\n        /* \"contracts/Practice1.sol\":283:289  uint i */\n      0x00\n        /* \"contracts/Practice1.sol\":279:563  for(uint i = 0;i <= row.length; i++){... */\n    tag_39:\n        /* \"contracts/Practice1.sol\":299:302  row */\n      0x00\n        /* \"contracts/Practice1.sol\":299:309  row.length */\n      dup1\n      sload\n      swap1\n      pop\n        /* \"contracts/Practice1.sol\":294:295  i */\n      dup2\n        /* \"contracts/Practice1.sol\":294:309  i <= row.length */\n      gt\n        /* \"contracts/Practice1.sol\":279:563  for(uint i = 0;i <= row.length; i++){... */\n      tag_40\n      jumpi\n        /* \"contracts/Practice1.sol\":378:389  _deleteName */\n      dup2\n        /* \"contracts/Practice1.sol\":362:391  keccak256(bytes(_deleteName)) */\n      dup1\n      mload\n      swap1\n      0x20\n      add\n      keccak256\n        /* \"contracts/Practice1.sol\":350:353  row */\n      0x00\n        /* \"contracts/Practice1.sol\":354:355  i */\n      dup3\n        /* \"contracts/Practice1.sol\":350:356  row[i] */\n      dup2\n      sload\n      dup2\n      lt\n      tag_42\n      jumpi\n      tag_43\n      tag_44\n      jump\t// in\n    tag_43:\n    tag_42:\n      swap1\n      0x00\n      mstore\n      keccak256(0x00, 0x20)\n      add\n        /* \"contracts/Practice1.sol\":334:358  keccak256(bytes(row[i])) */\n      mload(0x40)\n      tag_46\n      swap2\n      swap1\n      tag_47\n      jump\t// in\n    tag_46:\n      mload(0x40)\n      dup1\n      swap2\n      sub\n      swap1\n      keccak256\n        /* \"contracts/Practice1.sol\":334:391  keccak256(bytes(row[i])) == keccak256(bytes(_deleteName)) */\n      sub\n        /* \"contracts/Practice1.sol\":330:552  if (keccak256(bytes(row[i])) == keccak256(bytes(_deleteName))){... */\n      tag_48\n      jumpi\n        /* \"contracts/Practice1.sol\":415:421  uint j */\n      0x00\n        /* \"contracts/Practice1.sol\":424:425  i */\n      dup2\n        /* \"contracts/Practice1.sol\":415:425  uint j = i */\n      swap1\n      pop\n        /* \"contracts/Practice1.sol\":411:509  for(uint j = i; j < row.length-1; j++){... */\n    tag_49:\n        /* \"contracts/Practice1.sol\":442:443  1 */\n      0x01\n        /* \"contracts/Practice1.sol\":431:434  row */\n      0x00\n        /* \"contracts/Practice1.sol\":431:441  row.length */\n      dup1\n      sload\n      swap1\n      pop\n        /* \"contracts/Practice1.sol\":431:443  row.length-1 */\n      tag_52\n      swap2\n      swap1\n      tag_53\n      jump\t// in\n    tag_52:\n        /* \"contracts/Practice1.sol\":427:428  j */\n      dup2\n        /* \"contracts/Practice1.sol\":427:443  j < row.length-1 */\n      lt\n        /* \"contracts/Practice1.sol\":411:509  for(uint j = i; j < row.length-1; j++){... */\n      iszero\n      tag_50\n      jumpi\n        /* \"contracts/Practice1.sol\":481:484  row */\n      0x00\n        /* \"contracts/Practice1.sol\":487:488  1 */\n      0x01\n        /* \"contracts/Practice1.sol\":485:486  j */\n      dup3\n        /* \"contracts/Practice1.sol\":485:488  j+1 */\n      tag_54\n      swap2\n      swap1\n      tag_55\n      jump\t// in\n    tag_54:\n        /* \"contracts/Practice1.sol\":481:489  row[j+1] */\n      dup2\n      sload\n      dup2\n      lt\n      tag_56\n      jumpi\n      tag_57\n      tag_44\n      jump\t// in\n    tag_57:\n    tag_56:\n      swap1\n      0x00\n      mstore\n      keccak256(0x00, 0x20)\n      add\n        /* \"contracts/Practice1.sol\":472:475  row */\n      0x00\n        /* \"contracts/Practice1.sol\":476:477  j */\n      dup3\n        /* \"contracts/Practice1.sol\":472:478  row[j] */\n      dup2\n      sload\n      dup2\n      lt\n      tag_59\n      jumpi\n      tag_60\n      tag_44\n      jump\t// in\n    tag_60:\n    tag_59:\n      swap1\n      0x00\n      mstore\n      keccak256(0x00, 0x20)\n      add\n        /* \"contracts/Practice1.sol\":472:489  row[j] = row[j+1] */\n      swap1\n      dup2\n      tag_62\n      swap2\n      swap1\n      tag_63\n      jump\t// in\n    tag_62:\n      pop\n        /* \"contracts/Practice1.sol\":445:448  j++ */\n      dup1\n      dup1\n      tag_64\n      swap1\n      tag_65\n      jump\t// in\n    tag_64:\n      swap2\n      pop\n      pop\n        /* \"contracts/Practice1.sol\":411:509  for(uint j = i; j < row.length-1; j++){... */\n      jump(tag_49)\n    tag_50:\n      pop\n        /* \"contracts/Practice1.sol\":527:530  row */\n      0x00\n        /* \"contracts/Practice1.sol\":527:536  row.pop() */\n      dup1\n      sload\n      dup1\n      tag_66\n      jumpi\n      tag_67\n      tag_68\n      jump\t// in\n    tag_67:\n    tag_66:\n      0x01\n      swap1\n      sub\n      dup2\n      dup2\n      swap1\n      0x00\n      mstore\n      keccak256(0x00, 0x20)\n      add\n      0x00\n      tag_70\n      swap2\n      swap1\n      tag_71\n      jump\t// in\n    tag_70:\n      swap1\n      sstore\n        /* \"contracts/Practice1.sol\":330:552  if (keccak256(bytes(row[i])) == keccak256(bytes(_deleteName))){... */\n    tag_48:\n        /* \"contracts/Practice1.sol\":311:314  i++ */\n      dup1\n      dup1\n      tag_72\n      swap1\n      tag_65\n      jump\t// in\n    tag_72:\n      swap2\n      pop\n      pop\n        /* \"contracts/Practice1.sol\":279:563  for(uint i = 0;i <= row.length; i++){... */\n      jump(tag_39)\n    tag_40:\n      pop\n        /* \"contracts/Practice1.sol\":206:570  function deleteName(string memory _deleteName) public payable {... */\n      pop\n      jump\t// out\n        /* \"contracts/Practice1.sol\":578:663  function getArr() public view returns (string[] memory) {... */\n    tag_23:\n        /* \"contracts/Practice1.sol\":617:632  string[] memory */\n      0x60\n        /* \"contracts/Practice1.sol\":652:655  row */\n      0x00\n        /* \"contracts/Practice1.sol\":645:655  return row */\n      dup1\n      sload\n      dup1\n      0x20\n      mul\n      0x20\n      add\n      mload(0x40)\n      swap1\n      dup2\n      add\n      0x40\n      mstore\n      dup1\n      swap3\n      swap2\n      swap1\n      dup2\n      dup2\n      mstore\n      0x20\n      add\n      0x00\n      swap1\n    tag_74:\n      dup3\n      dup3\n      lt\n      iszero\n      tag_75\n      jumpi\n      dup4\n      dup3\n      swap1\n      0x00\n      mstore\n      keccak256(0x00, 0x20)\n      add\n      dup1\n      sload\n      tag_77\n      swap1\n      tag_33\n      jump\t// in\n    tag_77:\n      dup1\n      0x1f\n      add\n      0x20\n      dup1\n      swap2\n      div\n      mul\n      0x20\n      add\n      mload(0x40)\n      swap1\n      dup2\n      add\n      0x40\n      mstore\n      dup1\n      swap3\n      swap2\n      swap1\n      dup2\n      dup2\n      mstore\n      0x20\n      add\n      dup3\n      dup1\n      sload\n      tag_78\n      swap1\n      tag_33\n      jump\t// in\n    tag_78:\n      dup1\n      iszero\n      tag_79\n      jumpi\n      dup1\n      0x1f\n      lt\n      tag_80\n      jumpi\n      0x0100\n      dup1\n      dup4\n      sload\n      div\n      mul\n      dup4\n      mstore\n      swap2\n      0x20\n      add\n      swap2\n      jump(tag_79)\n    tag_80:\n      dup3\n      add\n      swap2\n      swap1\n      0x00\n      mstore\n      keccak256(0x00, 0x20)\n      swap1\n    tag_81:\n      dup2\n      sload\n      dup2\n      mstore\n      swap1\n      0x01\n      add\n      swap1\n      0x20\n      add\n      dup1\n      dup4\n      gt\n      tag_81\n      jumpi\n      dup3\n      swap1\n      sub\n      0x1f\n      and\n      dup3\n      add\n      swap2\n    tag_79:\n      pop\n      pop\n      pop\n      pop\n      pop\n      dup2\n      mstore\n      0x20\n      add\n      swap1\n      0x01\n      add\n      swap1\n      jump(tag_74)\n    tag_75:\n      pop\n      pop\n      pop\n      pop\n      swap1\n      pop\n        /* \"contracts/Practice1.sol\":578:663  function getArr() public view returns (string[] memory) {... */\n      swap1\n      jump\t// out\n    tag_71:\n      pop\n      dup1\n      sload\n      tag_82\n      swap1\n      tag_33\n      jump\t// in\n    tag_82:\n      0x00\n      dup3\n      sstore\n      dup1\n      0x1f\n      lt\n      tag_84\n      jumpi\n      pop\n      jump(tag_83)\n    tag_84:\n      0x1f\n      add\n      0x20\n      swap1\n      div\n      swap1\n      0x00\n      mstore\n      keccak256(0x00, 0x20)\n      swap1\n      dup2\n      add\n      swap1\n      tag_85\n      swap2\n      swap1\n      tag_86\n      jump\t// in\n    tag_85:\n    tag_83:\n      pop\n      jump\t// out\n    tag_86:\n    tag_87:\n      dup1\n      dup3\n      gt\n      iszero\n      tag_88\n      jumpi\n      0x00\n      dup2\n      0x00\n      swap1\n      sstore\n      pop\n      0x01\n      add\n      jump(tag_87)\n    tag_88:\n      pop\n      swap1\n      jump\t// out\n        /* \"#utility.yul\":7:82   */\n    tag_89:\n        /* \"#utility.yul\":40:46   */\n      0x00\n        /* \"#utility.yul\":73:75   */\n      0x40\n        /* \"#utility.yul\":67:76   */\n      mload\n        /* \"#utility.yul\":57:76   */\n      swap1\n      pop\n        /* \"#utility.yul\":7:82   */\n      swap1\n      jump\t// out\n        /* \"#utility.yul\":88:205   */\n    tag_90:\n        /* \"#utility.yul\":197:198   */\n      0x00\n        /* \"#utility.yul\":194:195   */\n      dup1\n        /* \"#utility.yul\":187:199   */\n      revert\n        /* \"#utility.yul\":211:328   */\n    tag_91:\n        /* \"#utility.yul\":320:321   */\n      0x00\n        /* \"#utility.yul\":317:318   */\n      dup1\n        /* \"#utility.yul\":310:322   */\n      revert\n        /* \"#utility.yul\":334:451   */\n    tag_92:\n        /* \"#utility.yul\":443:444   */\n      0x00\n        /* \"#utility.yul\":440:441   */\n      dup1\n        /* \"#utility.yul\":433:445   */\n      revert\n        /* \"#utility.yul\":457:574   */\n    tag_93:\n        /* \"#utility.yul\":566:567   */\n      0x00\n        /* \"#utility.yul\":563:564   */\n      dup1\n        /* \"#utility.yul\":556:568   */\n      revert\n        /* \"#utility.yul\":580:682   */\n    tag_94:\n        /* \"#utility.yul\":621:627   */\n      0x00\n        /* \"#utility.yul\":672:674   */\n      0x1f\n        /* \"#utility.yul\":668:675   */\n      not\n        /* \"#utility.yul\":663:665   */\n      0x1f\n        /* \"#utility.yul\":656:661   */\n      dup4\n        /* \"#utility.yul\":652:666   */\n      add\n        /* \"#utility.yul\":648:676   */\n      and\n        /* \"#utility.yul\":638:676   */\n      swap1\n      pop\n        /* \"#utility.yul\":580:682   */\n      swap2\n      swap1\n      pop\n      jump\t// out\n        /* \"#utility.yul\":688:868   */\n    tag_95:\n        /* \"#utility.yul\":736:813   */\n      0x4e487b7100000000000000000000000000000000000000000000000000000000\n        /* \"#utility.yul\":733:734   */\n      0x00\n        /* \"#utility.yul\":726:814   */\n      mstore\n        /* \"#utility.yul\":833:837   */\n      0x41\n        /* \"#utility.yul\":830:831   */\n      0x04\n        /* \"#utility.yul\":823:838   */\n      mstore\n        /* \"#utility.yul\":857:861   */\n      0x24\n        /* \"#utility.yul\":854:855   */\n      0x00\n        /* \"#utility.yul\":847:862   */\n      revert\n        /* \"#utility.yul\":874:1155   */\n    tag_96:\n        /* \"#utility.yul\":957:984   */\n      tag_148\n        /* \"#utility.yul\":979:983   */\n      dup3\n        /* \"#utility.yul\":957:984   */\n      tag_94\n      jump\t// in\n    tag_148:\n        /* \"#utility.yul\":949:955   */\n      dup2\n        /* \"#utility.yul\":945:985   */\n      add\n        /* \"#utility.yul\":1087:1093   */\n      dup2\n        /* \"#utility.yul\":1075:1085   */\n      dup2\n        /* \"#utility.yul\":1072:1094   */\n      lt\n        /* \"#utility.yul\":1051:1069   */\n      0xffffffffffffffff\n        /* \"#utility.yul\":1039:1049   */\n      dup3\n        /* \"#utility.yul\":1036:1070   */\n      gt\n        /* \"#utility.yul\":1033:1095   */\n      or\n        /* \"#utility.yul\":1030:1118   */\n      iszero\n      tag_149\n      jumpi\n        /* \"#utility.yul\":1098:1116   */\n      tag_150\n      tag_95\n      jump\t// in\n    tag_150:\n        /* \"#utility.yul\":1030:1118   */\n    tag_149:\n        /* \"#utility.yul\":1138:1148   */\n      dup1\n        /* \"#utility.yul\":1134:1136   */\n      0x40\n        /* \"#utility.yul\":1127:1149   */\n      mstore\n        /* \"#utility.yul\":917:1155   */\n      pop\n        /* \"#utility.yul\":874:1155   */\n      pop\n      pop\n      jump\t// out\n        /* \"#utility.yul\":1161:1290   */\n    tag_97:\n        /* \"#utility.yul\":1195:1201   */\n      0x00\n        /* \"#utility.yul\":1222:1242   */\n      tag_152\n      tag_89\n      jump\t// in\n    tag_152:\n        /* \"#utility.yul\":1212:1242   */\n      swap1\n      pop\n        /* \"#utility.yul\":1251:1284   */\n      tag_153\n        /* \"#utility.yul\":1279:1283   */\n      dup3\n        /* \"#utility.yul\":1271:1277   */\n      dup3\n        /* \"#utility.yul\":1251:1284   */\n      tag_96\n      jump\t// in\n    tag_153:\n        /* \"#utility.yul\":1161:1290   */\n      swap2\n      swap1\n      pop\n      jump\t// out\n        /* \"#utility.yul\":1296:1604   */\n    tag_98:\n        /* \"#utility.yul\":1358:1362   */\n      0x00\n        /* \"#utility.yul\":1448:1466   */\n      0xffffffffffffffff\n        /* \"#utility.yul\":1440:1446   */\n      dup3\n        /* \"#utility.yul\":1437:1467   */\n      gt\n        /* \"#utility.yul\":1434:1490   */\n      iszero\n      tag_155\n      jumpi\n        /* \"#utility.yul\":1470:1488   */\n      tag_156\n      tag_95\n      jump\t// in\n    tag_156:\n        /* \"#utility.yul\":1434:1490   */\n    tag_155:\n        /* \"#utility.yul\":1508:1537   */\n      tag_157\n        /* \"#utility.yul\":1530:1536   */\n      dup3\n        /* \"#utility.yul\":1508:1537   */\n      tag_94\n      jump\t// in\n    tag_157:\n        /* \"#utility.yul\":1500:1537   */\n      swap1\n      pop\n        /* \"#utility.yul\":1592:1596   */\n      0x20\n        /* \"#utility.yul\":1586:1590   */\n      dup2\n        /* \"#utility.yul\":1582:1597   */\n      add\n        /* \"#utility.yul\":1574:1597   */\n      swap1\n      pop\n        /* \"#utility.yul\":1296:1604   */\n      swap2\n      swap1\n      pop\n      jump\t// out\n        /* \"#utility.yul\":1610:1756   */\n    tag_99:\n        /* \"#utility.yul\":1707:1713   */\n      dup3\n        /* \"#utility.yul\":1702:1705   */\n      dup2\n        /* \"#utility.yul\":1697:1700   */\n      dup4\n        /* \"#utility.yul\":1684:1714   */\n      calldatacopy\n        /* \"#utility.yul\":1748:1749   */\n      0x00\n        /* \"#utility.yul\":1739:1745   */\n      dup4\n        /* \"#utility.yul\":1734:1737   */\n      dup4\n        /* \"#utility.yul\":1730:1746   */\n      add\n        /* \"#utility.yul\":1723:1750   */\n      mstore\n        /* \"#utility.yul\":1610:1756   */\n      pop\n      pop\n      pop\n      jump\t// out\n        /* \"#utility.yul\":1762:2187   */\n    tag_100:\n        /* \"#utility.yul\":1840:1845   */\n      0x00\n        /* \"#utility.yul\":1865:1931   */\n      tag_160\n        /* \"#utility.yul\":1881:1930   */\n      tag_161\n        /* \"#utility.yul\":1923:1929   */\n      dup5\n        /* \"#utility.yul\":1881:1930   */\n      tag_98\n      jump\t// in\n    tag_161:\n        /* \"#utility.yul\":1865:1931   */\n      tag_97\n      jump\t// in\n    tag_160:\n        /* \"#utility.yul\":1856:1931   */\n      swap1\n      pop\n        /* \"#utility.yul\":1954:1960   */\n      dup3\n        /* \"#utility.yul\":1947:1952   */\n      dup2\n        /* \"#utility.yul\":1940:1961   */\n      mstore\n        /* \"#utility.yul\":1992:1996   */\n      0x20\n        /* \"#utility.yul\":1985:1990   */\n      dup2\n        /* \"#utility.yul\":1981:1997   */\n      add\n        /* \"#utility.yul\":2030:2033   */\n      dup5\n        /* \"#utility.yul\":2021:2027   */\n      dup5\n        /* \"#utility.yul\":2016:2019   */\n      dup5\n        /* \"#utility.yul\":2012:2028   */\n      add\n        /* \"#utility.yul\":2009:2034   */\n      gt\n        /* \"#utility.yul\":2006:2118   */\n      iszero\n      tag_162\n      jumpi\n        /* \"#utility.yul\":2037:2116   */\n      tag_163\n      tag_93\n      jump\t// in\n    tag_163:\n        /* \"#utility.yul\":2006:2118   */\n    tag_162:\n        /* \"#utility.yul\":2127:2181   */\n      tag_164\n        /* \"#utility.yul\":2174:2180   */\n      dup5\n        /* \"#utility.yul\":2169:2172   */\n      dup3\n        /* \"#utility.yul\":2164:2167   */\n      dup6\n        /* \"#utility.yul\":2127:2181   */\n      tag_99\n      jump\t// in\n    tag_164:\n        /* \"#utility.yul\":1846:2187   */\n      pop\n        /* \"#utility.yul\":1762:2187   */\n      swap4\n      swap3\n      pop\n      pop\n      pop\n      jump\t// out\n        /* \"#utility.yul\":2207:2547   */\n    tag_101:\n        /* \"#utility.yul\":2263:2268   */\n      0x00\n        /* \"#utility.yul\":2312:2315   */\n      dup3\n        /* \"#utility.yul\":2305:2309   */\n      0x1f\n        /* \"#utility.yul\":2297:2303   */\n      dup4\n        /* \"#utility.yul\":2293:2310   */\n      add\n        /* \"#utility.yul\":2289:2316   */\n      slt\n        /* \"#utility.yul\":2279:2401   */\n      tag_166\n      jumpi\n        /* \"#utility.yul\":2320:2399   */\n      tag_167\n      tag_92\n      jump\t// in\n    tag_167:\n        /* \"#utility.yul\":2279:2401   */\n    tag_166:\n        /* \"#utility.yul\":2437:2443   */\n      dup2\n        /* \"#utility.yul\":2424:2444   */\n      calldataload\n        /* \"#utility.yul\":2462:2541   */\n      tag_168\n        /* \"#utility.yul\":2537:2540   */\n      dup5\n        /* \"#utility.yul\":2529:2535   */\n      dup3\n        /* \"#utility.yul\":2522:2526   */\n      0x20\n        /* \"#utility.yul\":2514:2520   */\n      dup7\n        /* \"#utility.yul\":2510:2527   */\n      add\n        /* \"#utility.yul\":2462:2541   */\n      tag_100\n      jump\t// in\n    tag_168:\n        /* \"#utility.yul\":2453:2541   */\n      swap2\n      pop\n        /* \"#utility.yul\":2269:2547   */\n      pop\n        /* \"#utility.yul\":2207:2547   */\n      swap3\n      swap2\n      pop\n      pop\n      jump\t// out\n        /* \"#utility.yul\":2553:3062   */\n    tag_9:\n        /* \"#utility.yul\":2622:2628   */\n      0x00\n        /* \"#utility.yul\":2671:2673   */\n      0x20\n        /* \"#utility.yul\":2659:2668   */\n      dup3\n        /* \"#utility.yul\":2650:2657   */\n      dup5\n        /* \"#utility.yul\":2646:2669   */\n      sub\n        /* \"#utility.yul\":2642:2674   */\n      slt\n        /* \"#utility.yul\":2639:2758   */\n      iszero\n      tag_170\n      jumpi\n        /* \"#utility.yul\":2677:2756   */\n      tag_171\n      tag_90\n      jump\t// in\n    tag_171:\n        /* \"#utility.yul\":2639:2758   */\n    tag_170:\n        /* \"#utility.yul\":2825:2826   */\n      0x00\n        /* \"#utility.yul\":2814:2823   */\n      dup3\n        /* \"#utility.yul\":2810:2827   */\n      add\n        /* \"#utility.yul\":2797:2828   */\n      calldataload\n        /* \"#utility.yul\":2855:2873   */\n      0xffffffffffffffff\n        /* \"#utility.yul\":2847:2853   */\n      dup2\n        /* \"#utility.yul\":2844:2874   */\n      gt\n        /* \"#utility.yul\":2841:2958   */\n      iszero\n      tag_172\n      jumpi\n        /* \"#utility.yul\":2877:2956   */\n      tag_173\n      tag_91\n      jump\t// in\n    tag_173:\n        /* \"#utility.yul\":2841:2958   */\n    tag_172:\n        /* \"#utility.yul\":2982:3045   */\n      tag_174\n        /* \"#utility.yul\":3037:3044   */\n      dup5\n        /* \"#utility.yul\":3028:3034   */\n      dup3\n        /* \"#utility.yul\":3017:3026   */\n      dup6\n        /* \"#utility.yul\":3013:3035   */\n      add\n        /* \"#utility.yul\":2982:3045   */\n      tag_101\n      jump\t// in\n    tag_174:\n        /* \"#utility.yul\":2972:3045   */\n      swap2\n      pop\n        /* \"#utility.yul\":2768:3055   */\n      pop\n        /* \"#utility.yul\":2553:3062   */\n      swap3\n      swap2\n      pop\n      pop\n      jump\t// out\n        /* \"#utility.yul\":3068:3145   */\n    tag_102:\n        /* \"#utility.yul\":3105:3112   */\n      0x00\n        /* \"#utility.yul\":3134:3139   */\n      dup2\n        /* \"#utility.yul\":3123:3139   */\n      swap1\n      pop\n        /* \"#utility.yul\":3068:3145   */\n      swap2\n      swap1\n      pop\n      jump\t// out\n        /* \"#utility.yul\":3151:3273   */\n    tag_103:\n        /* \"#utility.yul\":3224:3248   */\n      tag_177\n        /* \"#utility.yul\":3242:3247   */\n      dup2\n        /* \"#utility.yul\":3224:3248   */\n      tag_102\n      jump\t// in\n    tag_177:\n        /* \"#utility.yul\":3217:3222   */\n      dup2\n        /* \"#utility.yul\":3214:3249   */\n      eq\n        /* \"#utility.yul\":3204:3267   */\n      tag_178\n      jumpi\n        /* \"#utility.yul\":3263:3264   */\n      0x00\n        /* \"#utility.yul\":3260:3261   */\n      dup1\n        /* \"#utility.yul\":3253:3265   */\n      revert\n        /* \"#utility.yul\":3204:3267   */\n    tag_178:\n        /* \"#utility.yul\":3151:3273   */\n      pop\n      jump\t// out\n        /* \"#utility.yul\":3279:3418   */\n    tag_104:\n        /* \"#utility.yul\":3325:3330   */\n      0x00\n        /* \"#utility.yul\":3363:3369   */\n      dup2\n        /* \"#utility.yul\":3350:3370   */\n      calldataload\n        /* \"#utility.yul\":3341:3370   */\n      swap1\n      pop\n        /* \"#utility.yul\":3379:3412   */\n      tag_180\n        /* \"#utility.yul\":3406:3411   */\n      dup2\n        /* \"#utility.yul\":3379:3412   */\n      tag_103\n      jump\t// in\n    tag_180:\n        /* \"#utility.yul\":3279:3418   */\n      swap3\n      swap2\n      pop\n      pop\n      jump\t// out\n        /* \"#utility.yul\":3424:3753   */\n    tag_14:\n        /* \"#utility.yul\":3483:3489   */\n      0x00\n        /* \"#utility.yul\":3532:3534   */\n      0x20\n        /* \"#utility.yul\":3520:3529   */\n      dup3\n        /* \"#utility.yul\":3511:3518   */\n      dup5\n        /* \"#utility.yul\":3507:3530   */\n      sub\n        /* \"#utility.yul\":3503:3535   */\n      slt\n        /* \"#utility.yul\":3500:3619   */\n      iszero\n      tag_182\n      jumpi\n        /* \"#utility.yul\":3538:3617   */\n      tag_183\n      tag_90\n      jump\t// in\n    tag_183:\n        /* \"#utility.yul\":3500:3619   */\n    tag_182:\n        /* \"#utility.yul\":3658:3659   */\n      0x00\n        /* \"#utility.yul\":3683:3736   */\n      tag_184\n        /* \"#utility.yul\":3728:3735   */\n      dup5\n        /* \"#utility.yul\":3719:3725   */\n      dup3\n        /* \"#utility.yul\":3708:3717   */\n      dup6\n        /* \"#utility.yul\":3704:3726   */\n      add\n        /* \"#utility.yul\":3683:3736   */\n      tag_104\n      jump\t// in\n    tag_184:\n        /* \"#utility.yul\":3673:3736   */\n      swap2\n      pop\n        /* \"#utility.yul\":3629:3746   */\n      pop\n        /* \"#utility.yul\":3424:3753   */\n      swap3\n      swap2\n      pop\n      pop\n      jump\t// out\n        /* \"#utility.yul\":3759:3858   */\n    tag_105:\n        /* \"#utility.yul\":3811:3817   */\n      0x00\n        /* \"#utility.yul\":3845:3850   */\n      dup2\n        /* \"#utility.yul\":3839:3851   */\n      mload\n        /* \"#utility.yul\":3829:3851   */\n      swap1\n      pop\n        /* \"#utility.yul\":3759:3858   */\n      swap2\n      swap1\n      pop\n      jump\t// out\n        /* \"#utility.yul\":3864:4033   */\n    tag_106:\n        /* \"#utility.yul\":3948:3959   */\n      0x00\n        /* \"#utility.yul\":3982:3988   */\n      dup3\n        /* \"#utility.yul\":3977:3980   */\n      dup3\n        /* \"#utility.yul\":3970:3989   */\n      mstore\n        /* \"#utility.yul\":4022:4026   */\n      0x20\n        /* \"#utility.yul\":4017:4020   */\n      dup3\n        /* \"#utility.yul\":4013:4027   */\n      add\n        /* \"#utility.yul\":3998:4027   */\n      swap1\n      pop\n        /* \"#utility.yul\":3864:4033   */\n      swap3\n      swap2\n      pop\n      pop\n      jump\t// out\n        /* \"#utility.yul\":4039:4285   */\n    tag_107:\n        /* \"#utility.yul\":4120:4121   */\n      0x00\n        /* \"#utility.yul\":4130:4243   */\n    tag_188:\n        /* \"#utility.yul\":4144:4150   */\n      dup4\n        /* \"#utility.yul\":4141:4142   */\n      dup2\n        /* \"#utility.yul\":4138:4151   */\n      lt\n        /* \"#utility.yul\":4130:4243   */\n      iszero\n      tag_190\n      jumpi\n        /* \"#utility.yul\":4229:4230   */\n      dup1\n        /* \"#utility.yul\":4224:4227   */\n      dup3\n        /* \"#utility.yul\":4220:4231   */\n      add\n        /* \"#utility.yul\":4214:4232   */\n      mload\n        /* \"#utility.yul\":4210:4211   */\n      dup2\n        /* \"#utility.yul\":4205:4208   */\n      dup5\n        /* \"#utility.yul\":4201:4212   */\n      add\n        /* \"#utility.yul\":4194:4233   */\n      mstore\n        /* \"#utility.yul\":4166:4168   */\n      0x20\n        /* \"#utility.yul\":4163:4164   */\n      dup2\n        /* \"#utility.yul\":4159:4169   */\n      add\n        /* \"#utility.yul\":4154:4169   */\n      swap1\n      pop\n        /* \"#utility.yul\":4130:4243   */\n      jump(tag_188)\n    tag_190:\n        /* \"#utility.yul\":4277:4278   */\n      0x00\n        /* \"#utility.yul\":4268:4274   */\n      dup5\n        /* \"#utility.yul\":4263:4266   */\n      dup5\n        /* \"#utility.yul\":4259:4275   */\n      add\n        /* \"#utility.yul\":4252:4279   */\n      mstore\n        /* \"#utility.yul\":4101:4285   */\n      pop\n        /* \"#utility.yul\":4039:4285   */\n      pop\n      pop\n      pop\n      jump\t// out\n        /* \"#utility.yul\":4291:4668   */\n    tag_108:\n        /* \"#utility.yul\":4379:4382   */\n      0x00\n        /* \"#utility.yul\":4407:4446   */\n      tag_192\n        /* \"#utility.yul\":4440:4445   */\n      dup3\n        /* \"#utility.yul\":4407:4446   */\n      tag_105\n      jump\t// in\n    tag_192:\n        /* \"#utility.yul\":4462:4533   */\n      tag_193\n        /* \"#utility.yul\":4526:4532   */\n      dup2\n        /* \"#utility.yul\":4521:4524   */\n      dup6\n        /* \"#utility.yul\":4462:4533   */\n      tag_106\n      jump\t// in\n    tag_193:\n        /* \"#utility.yul\":4455:4533   */\n      swap4\n      pop\n        /* \"#utility.yul\":4542:4607   */\n      tag_194\n        /* \"#utility.yul\":4600:4606   */\n      dup2\n        /* \"#utility.yul\":4595:4598   */\n      dup6\n        /* \"#utility.yul\":4588:4592   */\n      0x20\n        /* \"#utility.yul\":4581:4586   */\n      dup7\n        /* \"#utility.yul\":4577:4593   */\n      add\n        /* \"#utility.yul\":4542:4607   */\n      tag_107\n      jump\t// in\n    tag_194:\n        /* \"#utility.yul\":4632:4661   */\n      tag_195\n        /* \"#utility.yul\":4654:4660   */\n      dup2\n        /* \"#utility.yul\":4632:4661   */\n      tag_94\n      jump\t// in\n    tag_195:\n        /* \"#utility.yul\":4627:4630   */\n      dup5\n        /* \"#utility.yul\":4623:4662   */\n      add\n        /* \"#utility.yul\":4616:4662   */\n      swap2\n      pop\n        /* \"#utility.yul\":4383:4668   */\n      pop\n        /* \"#utility.yul\":4291:4668   */\n      swap3\n      swap2\n      pop\n      pop\n      jump\t// out\n        /* \"#utility.yul\":4674:4987   */\n    tag_17:\n        /* \"#utility.yul\":4787:4791   */\n      0x00\n        /* \"#utility.yul\":4825:4827   */\n      0x20\n        /* \"#utility.yul\":4814:4823   */\n      dup3\n        /* \"#utility.yul\":4810:4828   */\n      add\n        /* \"#utility.yul\":4802:4828   */\n      swap1\n      pop\n        /* \"#utility.yul\":4874:4883   */\n      dup2\n        /* \"#utility.yul\":4868:4872   */\n      dup2\n        /* \"#utility.yul\":4864:4884   */\n      sub\n        /* \"#utility.yul\":4860:4861   */\n      0x00\n        /* \"#utility.yul\":4849:4858   */\n      dup4\n        /* \"#utility.yul\":4845:4862   */\n      add\n        /* \"#utility.yul\":4838:4885   */\n      mstore\n        /* \"#utility.yul\":4902:4980   */\n      tag_197\n        /* \"#utility.yul\":4975:4979   */\n      dup2\n        /* \"#utility.yul\":4966:4972   */\n      dup5\n        /* \"#utility.yul\":4902:4980   */\n      tag_108\n      jump\t// in\n    tag_197:\n        /* \"#utility.yul\":4894:4980   */\n      swap1\n      pop\n        /* \"#utility.yul\":4674:4987   */\n      swap3\n      swap2\n      pop\n      pop\n      jump\t// out\n        /* \"#utility.yul\":4993:5117   */\n    tag_109:\n        /* \"#utility.yul\":5070:5076   */\n      0x00\n        /* \"#utility.yul\":5104:5109   */\n      dup2\n        /* \"#utility.yul\":5098:5110   */\n      mload\n        /* \"#utility.yul\":5088:5110   */\n      swap1\n      pop\n        /* \"#utility.yul\":4993:5117   */\n      swap2\n      swap1\n      pop\n      jump\t// out\n        /* \"#utility.yul\":5123:5317   */\n    tag_110:\n        /* \"#utility.yul\":5232:5243   */\n      0x00\n        /* \"#utility.yul\":5266:5272   */\n      dup3\n        /* \"#utility.yul\":5261:5264   */\n      dup3\n        /* \"#utility.yul\":5254:5273   */\n      mstore\n        /* \"#utility.yul\":5306:5310   */\n      0x20\n        /* \"#utility.yul\":5301:5304   */\n      dup3\n        /* \"#utility.yul\":5297:5311   */\n      add\n        /* \"#utility.yul\":5282:5311   */\n      swap1\n      pop\n        /* \"#utility.yul\":5123:5317   */\n      swap3\n      swap2\n      pop\n      pop\n      jump\t// out\n        /* \"#utility.yul\":5323:5465   */\n    tag_111:\n        /* \"#utility.yul\":5400:5404   */\n      0x00\n        /* \"#utility.yul\":5423:5426   */\n      dup2\n        /* \"#utility.yul\":5415:5426   */\n      swap1\n      pop\n        /* \"#utility.yul\":5453:5457   */\n      0x20\n        /* \"#utility.yul\":5448:5451   */\n      dup3\n        /* \"#utility.yul\":5444:5458   */\n      add\n        /* \"#utility.yul\":5436:5458   */\n      swap1\n      pop\n        /* \"#utility.yul\":5323:5465   */\n      swap2\n      swap1\n      pop\n      jump\t// out\n        /* \"#utility.yul\":5471:5630   */\n    tag_112:\n        /* \"#utility.yul\":5545:5556   */\n      0x00\n        /* \"#utility.yul\":5579:5585   */\n      dup3\n        /* \"#utility.yul\":5574:5577   */\n      dup3\n        /* \"#utility.yul\":5567:5586   */\n      mstore\n        /* \"#utility.yul\":5619:5623   */\n      0x20\n        /* \"#utility.yul\":5614:5617   */\n      dup3\n        /* \"#utility.yul\":5610:5624   */\n      add\n        /* \"#utility.yul\":5595:5624   */\n      swap1\n      pop\n        /* \"#utility.yul\":5471:5630   */\n      swap3\n      swap2\n      pop\n      pop\n      jump\t// out\n        /* \"#utility.yul\":5636:5993   */\n    tag_113:\n        /* \"#utility.yul\":5714:5717   */\n      0x00\n        /* \"#utility.yul\":5742:5781   */\n      tag_203\n        /* \"#utility.yul\":5775:5780   */\n      dup3\n        /* \"#utility.yul\":5742:5781   */\n      tag_105\n      jump\t// in\n    tag_203:\n        /* \"#utility.yul\":5797:5858   */\n      tag_204\n        /* \"#utility.yul\":5851:5857   */\n      dup2\n        /* \"#utility.yul\":5846:5849   */\n      dup6\n        /* \"#utility.yul\":5797:5858   */\n      tag_112\n      jump\t// in\n    tag_204:\n        /* \"#utility.yul\":5790:5858   */\n      swap4\n      pop\n        /* \"#utility.yul\":5867:5932   */\n      tag_205\n        /* \"#utility.yul\":5925:5931   */\n      dup2\n        /* \"#utility.yul\":5920:5923   */\n      dup6\n        /* \"#utility.yul\":5913:5917   */\n      0x20\n        /* \"#utility.yul\":5906:5911   */\n      dup7\n        /* \"#utility.yul\":5902:5918   */\n      add\n        /* \"#utility.yul\":5867:5932   */\n      tag_107\n      jump\t// in\n    tag_205:\n        /* \"#utility.yul\":5957:5986   */\n      tag_206\n        /* \"#utility.yul\":5979:5985   */\n      dup2\n        /* \"#utility.yul\":5957:5986   */\n      tag_94\n      jump\t// in\n    tag_206:\n        /* \"#utility.yul\":5952:5955   */\n      dup5\n        /* \"#utility.yul\":5948:5987   */\n      add\n        /* \"#utility.yul\":5941:5987   */\n      swap2\n      pop\n        /* \"#utility.yul\":5718:5993   */\n      pop\n        /* \"#utility.yul\":5636:5993   */\n      swap3\n      swap2\n      pop\n      pop\n      jump\t// out\n        /* \"#utility.yul\":5999:6195   */\n    tag_114:\n        /* \"#utility.yul\":6088:6098   */\n      0x00\n        /* \"#utility.yul\":6123:6189   */\n      tag_208\n        /* \"#utility.yul\":6185:6188   */\n      dup4\n        /* \"#utility.yul\":6177:6183   */\n      dup4\n        /* \"#utility.yul\":6123:6189   */\n      tag_113\n      jump\t// in\n    tag_208:\n        /* \"#utility.yul\":6109:6189   */\n      swap1\n      pop\n        /* \"#utility.yul\":5999:6195   */\n      swap3\n      swap2\n      pop\n      pop\n      jump\t// out\n        /* \"#utility.yul\":6201:6324   */\n    tag_115:\n        /* \"#utility.yul\":6281:6285   */\n      0x00\n        /* \"#utility.yul\":6313:6317   */\n      0x20\n        /* \"#utility.yul\":6308:6311   */\n      dup3\n        /* \"#utility.yul\":6304:6318   */\n      add\n        /* \"#utility.yul\":6296:6318   */\n      swap1\n      pop\n        /* \"#utility.yul\":6201:6324   */\n      swap2\n      swap1\n      pop\n      jump\t// out\n        /* \"#utility.yul\":6358:7349   */\n    tag_116:\n        /* \"#utility.yul\":6497:6500   */\n      0x00\n        /* \"#utility.yul\":6526:6590   */\n      tag_211\n        /* \"#utility.yul\":6584:6589   */\n      dup3\n        /* \"#utility.yul\":6526:6590   */\n      tag_109\n      jump\t// in\n    tag_211:\n        /* \"#utility.yul\":6606:6702   */\n      tag_212\n        /* \"#utility.yul\":6695:6701   */\n      dup2\n        /* \"#utility.yul\":6690:6693   */\n      dup6\n        /* \"#utility.yul\":6606:6702   */\n      tag_110\n      jump\t// in\n    tag_212:\n        /* \"#utility.yul\":6599:6702   */\n      swap4\n      pop\n        /* \"#utility.yul\":6728:6731   */\n      dup4\n        /* \"#utility.yul\":6773:6777   */\n      0x20\n        /* \"#utility.yul\":6765:6771   */\n      dup3\n        /* \"#utility.yul\":6761:6778   */\n      mul\n        /* \"#utility.yul\":6756:6759   */\n      dup6\n        /* \"#utility.yul\":6752:6779   */\n      add\n        /* \"#utility.yul\":6803:6869   */\n      tag_213\n        /* \"#utility.yul\":6863:6868   */\n      dup6\n        /* \"#utility.yul\":6803:6869   */\n      tag_111\n      jump\t// in\n    tag_213:\n        /* \"#utility.yul\":6892:6899   */\n      dup1\n        /* \"#utility.yul\":6923:6924   */\n      0x00\n        /* \"#utility.yul\":6908:7304   */\n    tag_214:\n        /* \"#utility.yul\":6933:6939   */\n      dup6\n        /* \"#utility.yul\":6930:6931   */\n      dup2\n        /* \"#utility.yul\":6927:6940   */\n      lt\n        /* \"#utility.yul\":6908:7304   */\n      iszero\n      tag_216\n      jumpi\n        /* \"#utility.yul\":7004:7013   */\n      dup5\n        /* \"#utility.yul\":6998:7002   */\n      dup5\n        /* \"#utility.yul\":6994:7014   */\n      sub\n        /* \"#utility.yul\":6989:6992   */\n      dup10\n        /* \"#utility.yul\":6982:7015   */\n      mstore\n        /* \"#utility.yul\":7055:7061   */\n      dup2\n        /* \"#utility.yul\":7049:7062   */\n      mload\n        /* \"#utility.yul\":7083:7167   */\n      tag_217\n        /* \"#utility.yul\":7162:7166   */\n      dup6\n        /* \"#utility.yul\":7147:7160   */\n      dup3\n        /* \"#utility.yul\":7083:7167   */\n      tag_114\n      jump\t// in\n    tag_217:\n        /* \"#utility.yul\":7075:7167   */\n      swap5\n      pop\n        /* \"#utility.yul\":7190:7260   */\n      tag_218\n        /* \"#utility.yul\":7253:7259   */\n      dup4\n        /* \"#utility.yul\":7190:7260   */\n      tag_115\n      jump\t// in\n    tag_218:\n        /* \"#utility.yul\":7180:7260   */\n      swap3\n      pop\n        /* \"#utility.yul\":7289:7293   */\n      0x20\n        /* \"#utility.yul\":7284:7287   */\n      dup11\n        /* \"#utility.yul\":7280:7294   */\n      add\n        /* \"#utility.yul\":7273:7294   */\n      swap10\n      pop\n        /* \"#utility.yul\":6968:7304   */\n      pop\n        /* \"#utility.yul\":6955:6956   */\n      0x01\n        /* \"#utility.yul\":6952:6953   */\n      dup2\n        /* \"#utility.yul\":6948:6957   */\n      add\n        /* \"#utility.yul\":6943:6957   */\n      swap1\n      pop\n        /* \"#utility.yul\":6908:7304   */\n      jump(tag_214)\n    tag_216:\n        /* \"#utility.yul\":6912:6926   */\n      pop\n        /* \"#utility.yul\":7320:7324   */\n      dup3\n        /* \"#utility.yul\":7313:7324   */\n      swap8\n      pop\n        /* \"#utility.yul\":7340:7343   */\n      dup8\n        /* \"#utility.yul\":7333:7343   */\n      swap6\n      pop\n        /* \"#utility.yul\":6502:7349   */\n      pop\n      pop\n      pop\n      pop\n      pop\n        /* \"#utility.yul\":6358:7349   */\n      swap3\n      swap2\n      pop\n      pop\n      jump\t// out\n        /* \"#utility.yul\":7355:7768   */\n    tag_25:\n        /* \"#utility.yul\":7518:7522   */\n      0x00\n        /* \"#utility.yul\":7556:7558   */\n      0x20\n        /* \"#utility.yul\":7545:7554   */\n      dup3\n        /* \"#utility.yul\":7541:7559   */\n      add\n        /* \"#utility.yul\":7533:7559   */\n      swap1\n      pop\n        /* \"#utility.yul\":7605:7614   */\n      dup2\n        /* \"#utility.yul\":7599:7603   */\n      dup2\n        /* \"#utility.yul\":7595:7615   */\n      sub\n        /* \"#utility.yul\":7591:7592   */\n      0x00\n        /* \"#utility.yul\":7580:7589   */\n      dup4\n        /* \"#utility.yul\":7576:7593   */\n      add\n        /* \"#utility.yul\":7569:7616   */\n      mstore\n        /* \"#utility.yul\":7633:7761   */\n      tag_220\n        /* \"#utility.yul\":7756:7760   */\n      dup2\n        /* \"#utility.yul\":7747:7753   */\n      dup5\n        /* \"#utility.yul\":7633:7761   */\n      tag_116\n      jump\t// in\n    tag_220:\n        /* \"#utility.yul\":7625:7761   */\n      swap1\n      pop\n        /* \"#utility.yul\":7355:7768   */\n      swap3\n      swap2\n      pop\n      pop\n      jump\t// out\n        /* \"#utility.yul\":7774:7954   */\n    tag_117:\n        /* \"#utility.yul\":7822:7899   */\n      0x4e487b7100000000000000000000000000000000000000000000000000000000\n        /* \"#utility.yul\":7819:7820   */\n      0x00\n        /* \"#utility.yul\":7812:7900   */\n      mstore\n        /* \"#utility.yul\":7919:7923   */\n      0x22\n        /* \"#utility.yul\":7916:7917   */\n      0x04\n        /* \"#utility.yul\":7909:7924   */\n      mstore\n        /* \"#utility.yul\":7943:7947   */\n      0x24\n        /* \"#utility.yul\":7940:7941   */\n      0x00\n        /* \"#utility.yul\":7933:7948   */\n      revert\n        /* \"#utility.yul\":7960:8280   */\n    tag_33:\n        /* \"#utility.yul\":8004:8010   */\n      0x00\n        /* \"#utility.yul\":8041:8042   */\n      0x02\n        /* \"#utility.yul\":8035:8039   */\n      dup3\n        /* \"#utility.yul\":8031:8043   */\n      div\n        /* \"#utility.yul\":8021:8043   */\n      swap1\n      pop\n        /* \"#utility.yul\":8088:8089   */\n      0x01\n        /* \"#utility.yul\":8082:8086   */\n      dup3\n        /* \"#utility.yul\":8078:8090   */\n      and\n        /* \"#utility.yul\":8109:8127   */\n      dup1\n        /* \"#utility.yul\":8099:8180   */\n      tag_223\n      jumpi\n        /* \"#utility.yul\":8165:8169   */\n      0x7f\n        /* \"#utility.yul\":8157:8163   */\n      dup3\n        /* \"#utility.yul\":8153:8170   */\n      and\n        /* \"#utility.yul\":8143:8170   */\n      swap2\n      pop\n        /* \"#utility.yul\":8099:8180   */\n    tag_223:\n        /* \"#utility.yul\":8227:8229   */\n      0x20\n        /* \"#utility.yul\":8219:8225   */\n      dup3\n        /* \"#utility.yul\":8216:8230   */\n      lt\n        /* \"#utility.yul\":8196:8214   */\n      dup2\n        /* \"#utility.yul\":8193:8231   */\n      sub\n        /* \"#utility.yul\":8190:8274   */\n      tag_224\n      jumpi\n        /* \"#utility.yul\":8246:8264   */\n      tag_225\n      tag_117\n      jump\t// in\n    tag_225:\n        /* \"#utility.yul\":8190:8274   */\n    tag_224:\n        /* \"#utility.yul\":8011:8280   */\n      pop\n        /* \"#utility.yul\":7960:8280   */\n      swap2\n      swap1\n      pop\n      jump\t// out\n        /* \"#utility.yul\":8286:8427   */\n    tag_118:\n        /* \"#utility.yul\":8335:8339   */\n      0x00\n        /* \"#utility.yul\":8358:8361   */\n      dup2\n        /* \"#utility.yul\":8350:8361   */\n      swap1\n      pop\n        /* \"#utility.yul\":8381:8384   */\n      dup2\n        /* \"#utility.yul\":8378:8379   */\n      0x00\n        /* \"#utility.yul\":8371:8385   */\n      mstore\n        /* \"#utility.yul\":8415:8419   */\n      0x20\n        /* \"#utility.yul\":8412:8413   */\n      0x00\n        /* \"#utility.yul\":8402:8420   */\n      keccak256\n        /* \"#utility.yul\":8394:8420   */\n      swap1\n      pop\n        /* \"#utility.yul\":8286:8427   */\n      swap2\n      swap1\n      pop\n      jump\t// out\n        /* \"#utility.yul\":8433:8526   */\n    tag_119:\n        /* \"#utility.yul\":8470:8476   */\n      0x00\n        /* \"#utility.yul\":8517:8519   */\n      0x20\n        /* \"#utility.yul\":8512:8514   */\n      0x1f\n        /* \"#utility.yul\":8505:8510   */\n      dup4\n        /* \"#utility.yul\":8501:8515   */\n      add\n        /* \"#utility.yul\":8497:8520   */\n      div\n        /* \"#utility.yul\":8487:8520   */\n      swap1\n      pop\n        /* \"#utility.yul\":8433:8526   */\n      swap2\n      swap1\n      pop\n      jump\t// out\n        /* \"#utility.yul\":8532:8639   */\n    tag_120:\n        /* \"#utility.yul\":8576:8584   */\n      0x00\n        /* \"#utility.yul\":8626:8631   */\n      dup3\n        /* \"#utility.yul\":8620:8624   */\n      dup3\n        /* \"#utility.yul\":8616:8632   */\n      shl\n        /* \"#utility.yul\":8595:8632   */\n      swap1\n      pop\n        /* \"#utility.yul\":8532:8639   */\n      swap3\n      swap2\n      pop\n      pop\n      jump\t// out\n        /* \"#utility.yul\":8645:9038   */\n    tag_121:\n        /* \"#utility.yul\":8714:8720   */\n      0x00\n        /* \"#utility.yul\":8764:8765   */\n      0x08\n        /* \"#utility.yul\":8752:8762   */\n      dup4\n        /* \"#utility.yul\":8748:8766   */\n      mul\n        /* \"#utility.yul\":8787:8884   */\n      tag_230\n        /* \"#utility.yul\":8817:8883   */\n      0xffffffffffffffffffffffffffffffffffffffffffffffffffffffffffffffff\n        /* \"#utility.yul\":8806:8815   */\n      dup3\n        /* \"#utility.yul\":8787:8884   */\n      tag_120\n      jump\t// in\n    tag_230:\n        /* \"#utility.yul\":8905:8944   */\n      tag_231\n        /* \"#utility.yul\":8935:8943   */\n      dup7\n        /* \"#utility.yul\":8924:8933   */\n      dup4\n        /* \"#utility.yul\":8905:8944   */\n      tag_120\n      jump\t// in\n    tag_231:\n        /* \"#utility.yul\":8893:8944   */\n      swap6\n      pop\n        /* \"#utility.yul\":8977:8981   */\n      dup1\n        /* \"#utility.yul\":8973:8982   */\n      not\n        /* \"#utility.yul\":8966:8971   */\n      dup5\n        /* \"#utility.yul\":8962:8983   */\n      and\n        /* \"#utility.yul\":8953:8983   */\n      swap4\n      pop\n        /* \"#utility.yul\":9026:9030   */\n      dup1\n        /* \"#utility.yul\":9016:9024   */\n      dup7\n        /* \"#utility.yul\":9012:9031   */\n      and\n        /* \"#utility.yul\":9005:9010   */\n      dup5\n        /* \"#utility.yul\":9002:9032   */\n      or\n        /* \"#utility.yul\":8992:9032   */\n      swap3\n      pop\n        /* \"#utility.yul\":8721:9038   */\n      pop\n      pop\n        /* \"#utility.yul\":8645:9038   */\n      swap4\n      swap3\n      pop\n      pop\n      pop\n      jump\t// out\n        /* \"#utility.yul\":9044:9104   */\n    tag_122:\n        /* \"#utility.yul\":9072:9075   */\n      0x00\n        /* \"#utility.yul\":9093:9098   */\n      dup2\n        /* \"#utility.yul\":9086:9098   */\n      swap1\n      pop\n        /* \"#utility.yul\":9044:9104   */\n      swap2\n      swap1\n      pop\n      jump\t// out\n        /* \"#utility.yul\":9110:9252   */\n    tag_123:\n        /* \"#utility.yul\":9160:9169   */\n      0x00\n        /* \"#utility.yul\":9193:9246   */\n      tag_234\n        /* \"#utility.yul\":9211:9245   */\n      tag_235\n        /* \"#utility.yul\":9220:9244   */\n      tag_236\n        /* \"#utility.yul\":9238:9243   */\n      dup5\n        /* \"#utility.yul\":9220:9244   */\n      tag_102\n      jump\t// in\n    tag_236:\n        /* \"#utility.yul\":9211:9245   */\n      tag_122\n      jump\t// in\n    tag_235:\n        /* \"#utility.yul\":9193:9246   */\n      tag_102\n      jump\t// in\n    tag_234:\n        /* \"#utility.yul\":9180:9246   */\n      swap1\n      pop\n        /* \"#utility.yul\":9110:9252   */\n      swap2\n      swap1\n      pop\n      jump\t// out\n        /* \"#utility.yul\":9258:9333   */\n    tag_124:\n        /* \"#utility.yul\":9301:9304   */\n      0x00\n        /* \"#utility.yul\":9322:9327   */\n      dup2\n        /* \"#utility.yul\":9315:9327   */\n      swap1\n      pop\n        /* \"#utility.yul\":9258:9333   */\n      swap2\n      swap1\n      pop\n      jump\t// out\n        /* \"#utility.yul\":9339:9608   */\n    tag_125:\n        /* \"#utility.yul\":9449:9488   */\n      tag_239\n        /* \"#utility.yul\":9480:9487   */\n      dup4\n        /* \"#utility.yul\":9449:9488   */\n      tag_123\n      jump\t// in\n    tag_239:\n        /* \"#utility.yul\":9510:9601   */\n      tag_240\n        /* \"#utility.yul\":9559:9600   */\n      tag_241\n        /* \"#utility.yul\":9583:9599   */\n      dup3\n        /* \"#utility.yul\":9559:9600   */\n      tag_124\n      jump\t// in\n    tag_241:\n        /* \"#utility.yul\":9551:9557   */\n      dup5\n        /* \"#utility.yul\":9544:9548   */\n      dup5\n        /* \"#utility.yul\":9538:9549   */\n      sload\n        /* \"#utility.yul\":9510:9601   */\n      tag_121\n      jump\t// in\n    tag_240:\n        /* \"#utility.yul\":9504:9508   */\n      dup3\n        /* \"#utility.yul\":9497:9602   */\n      sstore\n        /* \"#utility.yul\":9415:9608   */\n      pop\n        /* \"#utility.yul\":9339:9608   */\n      pop\n      pop\n      pop\n      jump\t// out\n        /* \"#utility.yul\":9614:9687   */\n    tag_126:\n        /* \"#utility.yul\":9659:9662   */\n      0x00\n        /* \"#utility.yul\":9614:9687   */\n      swap1\n      jump\t// out\n        /* \"#utility.yul\":9693:9882   */\n    tag_127:\n        /* \"#utility.yul\":9770:9802   */\n      tag_244\n      tag_126\n      jump\t// in\n    tag_244:\n        /* \"#utility.yul\":9811:9876   */\n      tag_245\n        /* \"#utility.yul\":9869:9875   */\n      dup2\n        /* \"#utility.yul\":9861:9867   */\n      dup5\n        /* \"#utility.yul\":9855:9859   */\n      dup5\n        /* \"#utility.yul\":9811:9876   */\n      tag_125\n      jump\t// in\n    tag_245:\n        /* \"#utility.yul\":9746:9882   */\n      pop\n        /* \"#utility.yul\":9693:9882   */\n      pop\n      pop\n      jump\t// out\n        /* \"#utility.yul\":9888:10074   */\n    tag_128:\n        /* \"#utility.yul\":9948:10068   */\n    tag_247:\n        /* \"#utility.yul\":9965:9968   */\n      dup2\n        /* \"#utility.yul\":9958:9963   */\n      dup2\n        /* \"#utility.yul\":9955:9969   */\n      lt\n        /* \"#utility.yul\":9948:10068   */\n      iszero\n      tag_249\n      jumpi\n        /* \"#utility.yul\":10019:10058   */\n      tag_250\n        /* \"#utility.yul\":10056:10057   */\n      0x00\n        /* \"#utility.yul\":10049:10054   */\n      dup3\n        /* \"#utility.yul\":10019:10058   */\n      tag_127\n      jump\t// in\n    tag_250:\n        /* \"#utility.yul\":9992:9993   */\n      0x01\n        /* \"#utility.yul\":9985:9990   */\n      dup2\n        /* \"#utility.yul\":9981:9994   */\n      add\n        /* \"#utility.yul\":9972:9994   */\n      swap1\n      pop\n        /* \"#utility.yul\":9948:10068   */\n      jump(tag_247)\n    tag_249:\n        /* \"#utility.yul\":9888:10074   */\n      pop\n      pop\n      jump\t// out\n        /* \"#utility.yul\":10080:10623   */\n    tag_129:\n        /* \"#utility.yul\":10181:10183   */\n      0x1f\n        /* \"#utility.yul\":10176:10179   */\n      dup3\n        /* \"#utility.yul\":10173:10184   */\n      gt\n        /* \"#utility.yul\":10170:10616   */\n      iszero\n      tag_252\n      jumpi\n        /* \"#utility.yul\":10215:10253   */\n      tag_253\n        /* \"#utility.yul\":10247:10252   */\n      dup2\n        /* \"#utility.yul\":10215:10253   */\n      tag_118\n      jump\t// in\n    tag_253:\n        /* \"#utility.yul\":10299:10328   */\n      tag_254\n        /* \"#utility.yul\":10317:10327   */\n      dup5\n        /* \"#utility.yul\":10299:10328   */\n      tag_119\n      jump\t// in\n    tag_254:\n        /* \"#utility.yul\":10289:10297   */\n      dup2\n        /* \"#utility.yul\":10285:10329   */\n      add\n        /* \"#utility.yul\":10482:10484   */\n      0x20\n        /* \"#utility.yul\":10470:10480   */\n      dup6\n        /* \"#utility.yul\":10467:10485   */\n      lt\n        /* \"#utility.yul\":10464:10513   */\n      iszero\n      tag_255\n      jumpi\n        /* \"#utility.yul\":10503:10511   */\n      dup2\n        /* \"#utility.yul\":10488:10511   */\n      swap1\n      pop\n        /* \"#utility.yul\":10464:10513   */\n    tag_255:\n        /* \"#utility.yul\":10526:10606   */\n      tag_256\n        /* \"#utility.yul\":10582:10604   */\n      tag_257\n        /* \"#utility.yul\":10600:10603   */\n      dup6\n        /* \"#utility.yul\":10582:10604   */\n      tag_119\n      jump\t// in\n    tag_257:\n        /* \"#utility.yul\":10572:10580   */\n      dup4\n        /* \"#utility.yul\":10568:10605   */\n      add\n        /* \"#utility.yul\":10555:10566   */\n      dup3\n        /* \"#utility.yul\":10526:10606   */\n      tag_128\n      jump\t// in\n    tag_256:\n        /* \"#utility.yul\":10185:10616   */\n      pop\n      pop\n        /* \"#utility.yul\":10170:10616   */\n    tag_252:\n        /* \"#utility.yul\":10080:10623   */\n      pop\n      pop\n      pop\n      jump\t// out\n        /* \"#utility.yul\":10629:10746   */\n    tag_130:\n        /* \"#utility.yul\":10683:10691   */\n      0x00\n        /* \"#utility.yul\":10733:10738   */\n      dup3\n        /* \"#utility.yul\":10727:10731   */\n      dup3\n        /* \"#utility.yul\":10723:10739   */\n      shr\n        /* \"#utility.yul\":10702:10739   */\n      swap1\n      pop\n        /* \"#utility.yul\":10629:10746   */\n      swap3\n      swap2\n      pop\n      pop\n      jump\t// out\n        /* \"#utility.yul\":10752:10921   */\n    tag_131:\n        /* \"#utility.yul\":10796:10802   */\n      0x00\n        /* \"#utility.yul\":10829:10880   */\n      tag_260\n        /* \"#utility.yul\":10877:10878   */\n      0x00\n        /* \"#utility.yul\":10873:10879   */\n      not\n        /* \"#utility.yul\":10865:10870   */\n      dup5\n        /* \"#utility.yul\":10862:10863   */\n      0x08\n        /* \"#utility.yul\":10858:10871   */\n      mul\n        /* \"#utility.yul\":10829:10880   */\n      tag_130\n      jump\t// in\n    tag_260:\n        /* \"#utility.yul\":10825:10881   */\n      not\n        /* \"#utility.yul\":10910:10914   */\n      dup1\n        /* \"#utility.yul\":10904:10908   */\n      dup4\n        /* \"#utility.yul\":10900:10915   */\n      and\n        /* \"#utility.yul\":10890:10915   */\n      swap2\n      pop\n        /* \"#utility.yul\":10803:10921   */\n      pop\n        /* \"#utility.yul\":10752:10921   */\n      swap3\n      swap2\n      pop\n      pop\n      jump\t// out\n        /* \"#utility.yul\":10926:11221   */\n    tag_132:\n        /* \"#utility.yul\":11002:11006   */\n      0x00\n        /* \"#utility.yul\":11148:11177   */\n      tag_262\n        /* \"#utility.yul\":11173:11176   */\n      dup4\n        /* \"#utility.yul\":11167:11171   */\n      dup4\n        /* \"#utility.yul\":11148:11177   */\n      tag_131\n      jump\t// in\n    tag_262:\n        /* \"#utility.yul\":11140:11177   */\n      swap2\n      pop\n        /* \"#utility.yul\":11210:11213   */\n      dup3\n        /* \"#utility.yul\":11207:11208   */\n      0x02\n        /* \"#utility.yul\":11203:11214   */\n      mul\n        /* \"#utility.yul\":11197:11201   */\n      dup3\n        /* \"#utility.yul\":11194:11215   */\n      or\n        /* \"#utility.yul\":11186:11215   */\n      swap1\n      pop\n        /* \"#utility.yul\":10926:11221   */\n      swap3\n      swap2\n      pop\n      pop\n      jump\t// out\n        /* \"#utility.yul\":11226:12621   */\n    tag_29:\n        /* \"#utility.yul\":11343:11380   */\n      tag_264\n        /* \"#utility.yul\":11376:11379   */\n      dup3\n        /* \"#utility.yul\":11343:11380   */\n      tag_105\n      jump\t// in\n    tag_264:\n        /* \"#utility.yul\":11445:11463   */\n      0xffffffffffffffff\n        /* \"#utility.yul\":11437:11443   */\n      dup2\n        /* \"#utility.yul\":11434:11464   */\n      gt\n        /* \"#utility.yul\":11431:11487   */\n      iszero\n      tag_265\n      jumpi\n        /* \"#utility.yul\":11467:11485   */\n      tag_266\n      tag_95\n      jump\t// in\n    tag_266:\n        /* \"#utility.yul\":11431:11487   */\n    tag_265:\n        /* \"#utility.yul\":11511:11549   */\n      tag_267\n        /* \"#utility.yul\":11543:11547   */\n      dup3\n        /* \"#utility.yul\":11537:11548   */\n      sload\n        /* \"#utility.yul\":11511:11549   */\n      tag_33\n      jump\t// in\n    tag_267:\n        /* \"#utility.yul\":11596:11663   */\n      tag_268\n        /* \"#utility.yul\":11656:11662   */\n      dup3\n        /* \"#utility.yul\":11648:11654   */\n      dup3\n        /* \"#utility.yul\":11642:11646   */\n      dup6\n        /* \"#utility.yul\":11596:11663   */\n      tag_129\n      jump\t// in\n    tag_268:\n        /* \"#utility.yul\":11690:11691   */\n      0x00\n        /* \"#utility.yul\":11714:11718   */\n      0x20\n        /* \"#utility.yul\":11701:11718   */\n      swap1\n      pop\n        /* \"#utility.yul\":11746:11748   */\n      0x1f\n        /* \"#utility.yul\":11738:11744   */\n      dup4\n        /* \"#utility.yul\":11735:11749   */\n      gt\n        /* \"#utility.yul\":11763:11764   */\n      0x01\n        /* \"#utility.yul\":11758:12376   */\n      dup2\n      eq\n      tag_270\n      jumpi\n        /* \"#utility.yul\":12420:12421   */\n      0x00\n        /* \"#utility.yul\":12437:12443   */\n      dup5\n        /* \"#utility.yul\":12434:12511   */\n      iszero\n      tag_271\n      jumpi\n        /* \"#utility.yul\":12486:12495   */\n      dup3\n        /* \"#utility.yul\":12481:12484   */\n      dup8\n        /* \"#utility.yul\":12477:12496   */\n      add\n        /* \"#utility.yul\":12471:12497   */\n      mload\n        /* \"#utility.yul\":12462:12497   */\n      swap1\n      pop\n        /* \"#utility.yul\":12434:12511   */\n    tag_271:\n        /* \"#utility.yul\":12537:12604   */\n      tag_272\n        /* \"#utility.yul\":12597:12603   */\n      dup6\n        /* \"#utility.yul\":12590:12595   */\n      dup3\n        /* \"#utility.yul\":12537:12604   */\n      tag_132\n      jump\t// in\n    tag_272:\n        /* \"#utility.yul\":12531:12535   */\n      dup7\n        /* \"#utility.yul\":12524:12605   */\n      sstore\n        /* \"#utility.yul\":12393:12615   */\n      pop\n        /* \"#utility.yul\":11728:12615   */\n      jump(tag_269)\n        /* \"#utility.yul\":11758:12376   */\n    tag_270:\n        /* \"#utility.yul\":11810:11814   */\n      0x1f\n        /* \"#utility.yul\":11806:11815   */\n      not\n        /* \"#utility.yul\":11798:11804   */\n      dup5\n        /* \"#utility.yul\":11794:11816   */\n      and\n        /* \"#utility.yul\":11844:11881   */\n      tag_273\n        /* \"#utility.yul\":11876:11880   */\n      dup7\n        /* \"#utility.yul\":11844:11881   */\n      tag_118\n      jump\t// in\n    tag_273:\n        /* \"#utility.yul\":11903:11904   */\n      0x00\n        /* \"#utility.yul\":11917:12125   */\n    tag_274:\n        /* \"#utility.yul\":11931:11938   */\n      dup3\n        /* \"#utility.yul\":11928:11929   */\n      dup2\n        /* \"#utility.yul\":11925:11939   */\n      lt\n        /* \"#utility.yul\":11917:12125   */\n      iszero\n      tag_276\n      jumpi\n        /* \"#utility.yul\":12010:12019   */\n      dup5\n        /* \"#utility.yul\":12005:12008   */\n      dup10\n        /* \"#utility.yul\":12001:12020   */\n      add\n        /* \"#utility.yul\":11995:12021   */\n      mload\n        /* \"#utility.yul\":11987:11993   */\n      dup3\n        /* \"#utility.yul\":11980:12022   */\n      sstore\n        /* \"#utility.yul\":12061:12062   */\n      0x01\n        /* \"#utility.yul\":12053:12059   */\n      dup3\n        /* \"#utility.yul\":12049:12063   */\n      add\n        /* \"#utility.yul\":12039:12063   */\n      swap2\n      pop\n        /* \"#utility.yul\":12108:12110   */\n      0x20\n        /* \"#utility.yul\":12097:12106   */\n      dup6\n        /* \"#utility.yul\":12093:12111   */\n      add\n        /* \"#utility.yul\":12080:12111   */\n      swap5\n      pop\n        /* \"#utility.yul\":11954:11958   */\n      0x20\n        /* \"#utility.yul\":11951:11952   */\n      dup2\n        /* \"#utility.yul\":11947:11959   */\n      add\n        /* \"#utility.yul\":11942:11959   */\n      swap1\n      pop\n        /* \"#utility.yul\":11917:12125   */\n      jump(tag_274)\n    tag_276:\n        /* \"#utility.yul\":12153:12159   */\n      dup7\n        /* \"#utility.yul\":12144:12151   */\n      dup4\n        /* \"#utility.yul\":12141:12160   */\n      lt\n        /* \"#utility.yul\":12138:12317   */\n      iszero\n      tag_277\n      jumpi\n        /* \"#utility.yul\":12211:12220   */\n      dup5\n        /* \"#utility.yul\":12206:12209   */\n      dup10\n        /* \"#utility.yul\":12202:12221   */\n      add\n        /* \"#utility.yul\":12196:12222   */\n      mload\n        /* \"#utility.yul\":12254:12302   */\n      tag_278\n        /* \"#utility.yul\":12296:12300   */\n      0x1f\n        /* \"#utility.yul\":12288:12294   */\n      dup10\n        /* \"#utility.yul\":12284:12301   */\n      and\n        /* \"#utility.yul\":12273:12282   */\n      dup3\n        /* \"#utility.yul\":12254:12302   */\n      tag_131\n      jump\t// in\n    tag_278:\n        /* \"#utility.yul\":12246:12252   */\n      dup4\n        /* \"#utility.yul\":12239:12303   */\n      sstore\n        /* \"#utility.yul\":12161:12317   */\n      pop\n        /* \"#utility.yul\":12138:12317   */\n    tag_277:\n        /* \"#utility.yul\":12363:12364   */\n      0x01\n        /* \"#utility.yul\":12359:12360   */\n      0x02\n        /* \"#utility.yul\":12351:12357   */\n      dup9\n        /* \"#utility.yul\":12347:12361   */\n      mul\n        /* \"#utility.yul\":12343:12365   */\n      add\n        /* \"#utility.yul\":12337:12341   */\n      dup9\n        /* \"#utility.yul\":12330:12366   */\n      sstore\n        /* \"#utility.yul\":11765:12376   */\n      pop\n      pop\n      pop\n        /* \"#utility.yul\":11728:12615   */\n    tag_269:\n      pop\n        /* \"#utility.yul\":11318:12621   */\n      pop\n      pop\n      pop\n        /* \"#utility.yul\":11226:12621   */\n      pop\n      pop\n      jump\t// out\n        /* \"#utility.yul\":12627:12807   */\n    tag_44:\n        /* \"#utility.yul\":12675:12752   */\n      0x4e487b7100000000000000000000000000000000000000000000000000000000\n        /* \"#utility.yul\":12672:12673   */\n      0x00\n        /* \"#utility.yul\":12665:12753   */\n      mstore\n        /* \"#utility.yul\":12772:12776   */\n      0x32\n        /* \"#utility.yul\":12769:12770   */\n      0x04\n        /* \"#utility.yul\":12762:12777   */\n      mstore\n        /* \"#utility.yul\":12796:12800   */\n      0x24\n        /* \"#utility.yul\":12793:12794   */\n      0x00\n        /* \"#utility.yul\":12786:12801   */\n      revert\n        /* \"#utility.yul\":12813:12960   */\n    tag_133:\n        /* \"#utility.yul\":12914:12925   */\n      0x00\n        /* \"#utility.yul\":12951:12954   */\n      dup2\n        /* \"#utility.yul\":12936:12954   */\n      swap1\n      pop\n        /* \"#utility.yul\":12813:12960   */\n      swap3\n      swap2\n      pop\n      pop\n      jump\t// out\n        /* \"#utility.yul\":12966:13110   */\n    tag_134:\n        /* \"#utility.yul\":13018:13022   */\n      0x00\n        /* \"#utility.yul\":13041:13044   */\n      dup2\n        /* \"#utility.yul\":13033:13044   */\n      swap1\n      pop\n        /* \"#utility.yul\":13064:13067   */\n      dup2\n        /* \"#utility.yul\":13061:13062   */\n      0x00\n        /* \"#utility.yul\":13054:13068   */\n      mstore\n        /* \"#utility.yul\":13098:13102   */\n      0x20\n        /* \"#utility.yul\":13095:13096   */\n      0x00\n        /* \"#utility.yul\":13085:13103   */\n      keccak256\n        /* \"#utility.yul\":13077:13103   */\n      swap1\n      pop\n        /* \"#utility.yul\":12966:13110   */\n      swap2\n      swap1\n      pop\n      jump\t// out\n        /* \"#utility.yul\":13138:14016   */\n    tag_135:\n        /* \"#utility.yul\":13243:13246   */\n      0x00\n        /* \"#utility.yul\":13280:13285   */\n      dup2\n        /* \"#utility.yul\":13274:13286   */\n      sload\n        /* \"#utility.yul\":13309:13345   */\n      tag_283\n        /* \"#utility.yul\":13335:13344   */\n      dup2\n        /* \"#utility.yul\":13309:13345   */\n      tag_33\n      jump\t// in\n    tag_283:\n        /* \"#utility.yul\":13361:13449   */\n      tag_284\n        /* \"#utility.yul\":13442:13448   */\n      dup2\n        /* \"#utility.yul\":13437:13440   */\n      dup7\n        /* \"#utility.yul\":13361:13449   */\n      tag_133\n      jump\t// in\n    tag_284:\n        /* \"#utility.yul\":13354:13449   */\n      swap5\n      pop\n        /* \"#utility.yul\":13480:13481   */\n      0x01\n        /* \"#utility.yul\":13469:13478   */\n      dup3\n        /* \"#utility.yul\":13465:13482   */\n      and\n        /* \"#utility.yul\":13496:13497   */\n      0x00\n        /* \"#utility.yul\":13491:13657   */\n      dup2\n      eq\n      tag_286\n      jumpi\n        /* \"#utility.yul\":13671:13672   */\n      0x01\n        /* \"#utility.yul\":13666:14010   */\n      dup2\n      eq\n      tag_287\n      jumpi\n        /* \"#utility.yul\":13458:14010   */\n      jump(tag_285)\n        /* \"#utility.yul\":13491:13657   */\n    tag_286:\n        /* \"#utility.yul\":13575:13579   */\n      0xff\n        /* \"#utility.yul\":13571:13580   */\n      not\n        /* \"#utility.yul\":13560:13569   */\n      dup4\n        /* \"#utility.yul\":13556:13581   */\n      and\n        /* \"#utility.yul\":13551:13554   */\n      dup7\n        /* \"#utility.yul\":13544:13582   */\n      mstore\n        /* \"#utility.yul\":13637:13643   */\n      dup2\n        /* \"#utility.yul\":13630:13644   */\n      iszero\n        /* \"#utility.yul\":13623:13645   */\n      iszero\n        /* \"#utility.yul\":13615:13621   */\n      dup3\n        /* \"#utility.yul\":13611:13646   */\n      mul\n        /* \"#utility.yul\":13606:13609   */\n      dup7\n        /* \"#utility.yul\":13602:13647   */\n      add\n        /* \"#utility.yul\":13595:13647   */\n      swap4\n      pop\n        /* \"#utility.yul\":13491:13657   */\n      jump(tag_285)\n        /* \"#utility.yul\":13666:14010   */\n    tag_287:\n        /* \"#utility.yul\":13733:13774   */\n      tag_288\n        /* \"#utility.yul\":13768:13773   */\n      dup6\n        /* \"#utility.yul\":13733:13774   */\n      tag_134\n      jump\t// in\n    tag_288:\n        /* \"#utility.yul\":13796:13797   */\n      0x00\n        /* \"#utility.yul\":13810:13964   */\n    tag_289:\n        /* \"#utility.yul\":13824:13830   */\n      dup4\n        /* \"#utility.yul\":13821:13822   */\n      dup2\n        /* \"#utility.yul\":13818:13831   */\n      lt\n        /* \"#utility.yul\":13810:13964   */\n      iszero\n      tag_291\n      jumpi\n        /* \"#utility.yul\":13898:13905   */\n      dup2\n        /* \"#utility.yul\":13892:13906   */\n      sload\n        /* \"#utility.yul\":13888:13889   */\n      dup2\n        /* \"#utility.yul\":13883:13886   */\n      dup10\n        /* \"#utility.yul\":13879:13890   */\n      add\n        /* \"#utility.yul\":13872:13907   */\n      mstore\n        /* \"#utility.yul\":13948:13949   */\n      0x01\n        /* \"#utility.yul\":13939:13946   */\n      dup3\n        /* \"#utility.yul\":13935:13950   */\n      add\n        /* \"#utility.yul\":13924:13950   */\n      swap2\n      pop\n        /* \"#utility.yul\":13846:13850   */\n      0x20\n        /* \"#utility.yul\":13843:13844   */\n      dup2\n        /* \"#utility.yul\":13839:13851   */\n      add\n        /* \"#utility.yul\":13834:13851   */\n      swap1\n      pop\n        /* \"#utility.yul\":13810:13964   */\n      jump(tag_289)\n    tag_291:\n        /* \"#utility.yul\":13993:13999   */\n      dup4\n        /* \"#utility.yul\":13988:13991   */\n      dup9\n        /* \"#utility.yul\":13984:14000   */\n      add\n        /* \"#utility.yul\":13977:14000   */\n      swap6\n      pop\n        /* \"#utility.yul\":13673:14010   */\n      pop\n      pop\n        /* \"#utility.yul\":13458:14010   */\n    tag_285:\n      pop\n        /* \"#utility.yul\":13247:14016   */\n      pop\n      pop\n        /* \"#utility.yul\":13138:14016   */\n      swap3\n      swap2\n      pop\n      pop\n      jump\t// out\n        /* \"#utility.yul\":14022:14295   */\n    tag_47:\n        /* \"#utility.yul\":14153:14156   */\n      0x00\n        /* \"#utility.yul\":14175:14269   */\n      tag_293\n        /* \"#utility.yul\":14265:14268   */\n      dup3\n        /* \"#utility.yul\":14256:14262   */\n      dup5\n        /* \"#utility.yul\":14175:14269   */\n      tag_135\n      jump\t// in\n    tag_293:\n        /* \"#utility.yul\":14168:14269   */\n      swap2\n      pop\n        /* \"#utility.yul\":14286:14289   */\n      dup2\n        /* \"#utility.yul\":14279:14289   */\n      swap1\n      pop\n        /* \"#utility.yul\":14022:14295   */\n      swap3\n      swap2\n      pop\n      pop\n      jump\t// out\n        /* \"#utility.yul\":14301:14481   */\n    tag_136:\n        /* \"#utility.yul\":14349:14426   */\n      0x4e487b7100000000000000000000000000000000000000000000000000000000\n        /* \"#utility.yul\":14346:14347   */\n      0x00\n        /* \"#utility.yul\":14339:14427   */\n      mstore\n        /* \"#utility.yul\":14446:14450   */\n      0x11\n        /* \"#utility.yul\":14443:14444   */\n      0x04\n        /* \"#utility.yul\":14436:14451   */\n      mstore\n        /* \"#utility.yul\":14470:14474   */\n      0x24\n        /* \"#utility.yul\":14467:14468   */\n      0x00\n        /* \"#utility.yul\":14460:14475   */\n      revert\n        /* \"#utility.yul\":14487:14681   */\n    tag_53:\n        /* \"#utility.yul\":14527:14531   */\n      0x00\n        /* \"#utility.yul\":14547:14567   */\n      tag_296\n        /* \"#utility.yul\":14565:14566   */\n      dup3\n        /* \"#utility.yul\":14547:14567   */\n      tag_102\n      jump\t// in\n    tag_296:\n        /* \"#utility.yul\":14542:14567   */\n      swap2\n      pop\n        /* \"#utility.yul\":14581:14601   */\n      tag_297\n        /* \"#utility.yul\":14599:14600   */\n      dup4\n        /* \"#utility.yul\":14581:14601   */\n      tag_102\n      jump\t// in\n    tag_297:\n        /* \"#utility.yul\":14576:14601   */\n      swap3\n      pop\n        /* \"#utility.yul\":14625:14626   */\n      dup3\n        /* \"#utility.yul\":14622:14623   */\n      dup3\n        /* \"#utility.yul\":14618:14627   */\n      sub\n        /* \"#utility.yul\":14610:14627   */\n      swap1\n      pop\n        /* \"#utility.yul\":14649:14650   */\n      dup2\n        /* \"#utility.yul\":14643:14647   */\n      dup2\n        /* \"#utility.yul\":14640:14651   */\n      gt\n        /* \"#utility.yul\":14637:14674   */\n      iszero\n      tag_298\n      jumpi\n        /* \"#utility.yul\":14654:14672   */\n      tag_299\n      tag_136\n      jump\t// in\n    tag_299:\n        /* \"#utility.yul\":14637:14674   */\n    tag_298:\n        /* \"#utility.yul\":14487:14681   */\n      swap3\n      swap2\n      pop\n      pop\n      jump\t// out\n        /* \"#utility.yul\":14687:14878   */\n    tag_55:\n        /* \"#utility.yul\":14727:14730   */\n      0x00\n        /* \"#utility.yul\":14746:14766   */\n      tag_301\n        /* \"#utility.yul\":14764:14765   */\n      dup3\n        /* \"#utility.yul\":14746:14766   */\n      tag_102\n      jump\t// in\n    tag_301:\n        /* \"#utility.yul\":14741:14766   */\n      swap2\n      pop\n        /* \"#utility.yul\":14780:14800   */\n      tag_302\n        /* \"#utility.yul\":14798:14799   */\n      dup4\n        /* \"#utility.yul\":14780:14800   */\n      tag_102\n      jump\t// in\n    tag_302:\n        /* \"#utility.yul\":14775:14800   */\n      swap3\n      pop\n        /* \"#utility.yul\":14823:14824   */\n      dup3\n        /* \"#utility.yul\":14820:14821   */\n      dup3\n        /* \"#utility.yul\":14816:14825   */\n      add\n        /* \"#utility.yul\":14809:14825   */\n      swap1\n      pop\n        /* \"#utility.yul\":14844:14847   */\n      dup1\n        /* \"#utility.yul\":14841:14842   */\n      dup3\n        /* \"#utility.yul\":14838:14848   */\n      gt\n        /* \"#utility.yul\":14835:14871   */\n      iszero\n      tag_303\n      jumpi\n        /* \"#utility.yul\":14851:14869   */\n      tag_304\n      tag_136\n      jump\t// in\n    tag_304:\n        /* \"#utility.yul\":14835:14871   */\n    tag_303:\n        /* \"#utility.yul\":14687:14878   */\n      swap3\n      swap2\n      pop\n      pop\n      jump\t// out\n        /* \"#utility.yul\":14884:15037   */\n    tag_137:\n        /* \"#utility.yul\":14937:14943   */\n      0x00\n        /* \"#utility.yul\":14971:14976   */\n      dup2\n        /* \"#utility.yul\":14965:14977   */\n      sload\n        /* \"#utility.yul\":14955:14977   */\n      swap1\n      pop\n        /* \"#utility.yul\":14997:15030   */\n      tag_306\n        /* \"#utility.yul\":15023:15029   */\n      dup2\n        /* \"#utility.yul\":14997:15030   */\n      tag_33\n      jump\t// in\n    tag_306:\n        /* \"#utility.yul\":14987:15030   */\n      swap1\n      pop\n        /* \"#utility.yul\":14884:15037   */\n      swap2\n      swap1\n      pop\n      jump\t// out\n        /* \"#utility.yul\":15043:15188   */\n    tag_138:\n        /* \"#utility.yul\":15096:15100   */\n      0x00\n        /* \"#utility.yul\":15119:15122   */\n      dup2\n        /* \"#utility.yul\":15111:15122   */\n      swap1\n      pop\n        /* \"#utility.yul\":15142:15145   */\n      dup2\n        /* \"#utility.yul\":15139:15140   */\n      0x00\n        /* \"#utility.yul\":15132:15146   */\n      mstore\n        /* \"#utility.yul\":15176:15180   */\n      0x20\n        /* \"#utility.yul\":15173:15174   */\n      0x00\n        /* \"#utility.yul\":15163:15181   */\n      keccak256\n        /* \"#utility.yul\":15155:15181   */\n      swap1\n      pop\n        /* \"#utility.yul\":15043:15188   */\n      swap2\n      swap1\n      pop\n      jump\t// out\n        /* \"#utility.yul\":15194:16657   */\n    tag_63:\n        /* \"#utility.yul\":15309:15312   */\n      dup2\n        /* \"#utility.yul\":15303:15307   */\n      dup2\n        /* \"#utility.yul\":15300:15313   */\n      sub\n        /* \"#utility.yul\":15297:15323   */\n      tag_309\n      jumpi\n        /* \"#utility.yul\":15316:15321   */\n      pop\n      pop\n      jump(tag_308)\n        /* \"#utility.yul\":15297:15323   */\n    tag_309:\n        /* \"#utility.yul\":15347:15385   */\n      tag_310\n        /* \"#utility.yul\":15381:15384   */\n      dup3\n        /* \"#utility.yul\":15347:15385   */\n      tag_137\n      jump\t// in\n    tag_310:\n        /* \"#utility.yul\":15450:15468   */\n      0xffffffffffffffff\n        /* \"#utility.yul\":15442:15448   */\n      dup2\n        /* \"#utility.yul\":15439:15469   */\n      gt\n        /* \"#utility.yul\":15436:15492   */\n      iszero\n      tag_311\n      jumpi\n        /* \"#utility.yul\":15472:15490   */\n      tag_312\n      tag_95\n      jump\t// in\n    tag_312:\n        /* \"#utility.yul\":15436:15492   */\n    tag_311:\n        /* \"#utility.yul\":15516:15554   */\n      tag_313\n        /* \"#utility.yul\":15548:15552   */\n      dup3\n        /* \"#utility.yul\":15542:15553   */\n      sload\n        /* \"#utility.yul\":15516:15554   */\n      tag_33\n      jump\t// in\n    tag_313:\n        /* \"#utility.yul\":15601:15668   */\n      tag_314\n        /* \"#utility.yul\":15661:15667   */\n      dup3\n        /* \"#utility.yul\":15653:15659   */\n      dup3\n        /* \"#utility.yul\":15647:15651   */\n      dup6\n        /* \"#utility.yul\":15601:15668   */\n      tag_129\n      jump\t// in\n    tag_314:\n        /* \"#utility.yul\":15695:15696   */\n      0x00\n        /* \"#utility.yul\":15724:15726   */\n      0x1f\n        /* \"#utility.yul\":15716:15722   */\n      dup4\n        /* \"#utility.yul\":15713:15727   */\n      gt\n        /* \"#utility.yul\":15741:15742   */\n      0x01\n        /* \"#utility.yul\":15736:16412   */\n      dup2\n      eq\n      tag_316\n      jumpi\n        /* \"#utility.yul\":16456:16457   */\n      0x00\n        /* \"#utility.yul\":16473:16479   */\n      dup5\n        /* \"#utility.yul\":16470:16547   */\n      iszero\n      tag_317\n      jumpi\n        /* \"#utility.yul\":16522:16531   */\n      dup3\n        /* \"#utility.yul\":16517:16520   */\n      dup8\n        /* \"#utility.yul\":16513:16532   */\n      add\n        /* \"#utility.yul\":16507:16533   */\n      sload\n        /* \"#utility.yul\":16498:16533   */\n      swap1\n      pop\n        /* \"#utility.yul\":16470:16547   */\n    tag_317:\n        /* \"#utility.yul\":16573:16640   */\n      tag_318\n        /* \"#utility.yul\":16633:16639   */\n      dup6\n        /* \"#utility.yul\":16626:16631   */\n      dup3\n        /* \"#utility.yul\":16573:16640   */\n      tag_132\n      jump\t// in\n    tag_318:\n        /* \"#utility.yul\":16567:16571   */\n      dup7\n        /* \"#utility.yul\":16560:16641   */\n      sstore\n        /* \"#utility.yul\":16429:16651   */\n      pop\n        /* \"#utility.yul\":15706:16651   */\n      jump(tag_315)\n        /* \"#utility.yul\":15736:16412   */\n    tag_316:\n        /* \"#utility.yul\":15788:15792   */\n      0x1f\n        /* \"#utility.yul\":15784:15793   */\n      not\n        /* \"#utility.yul\":15776:15782   */\n      dup5\n        /* \"#utility.yul\":15772:15794   */\n      and\n        /* \"#utility.yul\":15814:15854   */\n      tag_319\n        /* \"#utility.yul\":15850:15853   */\n      dup8\n        /* \"#utility.yul\":15814:15854   */\n      tag_138\n      jump\t// in\n    tag_319:\n        /* \"#utility.yul\":15807:15854   */\n      swap7\n      pop\n        /* \"#utility.yul\":15881:15918   */\n      tag_320\n        /* \"#utility.yul\":15913:15917   */\n      dup7\n        /* \"#utility.yul\":15881:15918   */\n      tag_118\n      jump\t// in\n    tag_320:\n        /* \"#utility.yul\":15940:15941   */\n      0x00\n        /* \"#utility.yul\":15954:16161   */\n    tag_321:\n        /* \"#utility.yul\":15968:15975   */\n      dup3\n        /* \"#utility.yul\":15965:15966   */\n      dup2\n        /* \"#utility.yul\":15962:15976   */\n      lt\n        /* \"#utility.yul\":15954:16161   */\n      iszero\n      tag_323\n      jumpi\n        /* \"#utility.yul\":16047:16056   */\n      dup5\n        /* \"#utility.yul\":16042:16045   */\n      dup10\n        /* \"#utility.yul\":16038:16057   */\n      add\n        /* \"#utility.yul\":16032:16058   */\n      sload\n        /* \"#utility.yul\":16024:16030   */\n      dup3\n        /* \"#utility.yul\":16017:16059   */\n      sstore\n        /* \"#utility.yul\":16098:16099   */\n      0x01\n        /* \"#utility.yul\":16090:16096   */\n      dup3\n        /* \"#utility.yul\":16086:16100   */\n      add\n        /* \"#utility.yul\":16076:16100   */\n      swap2\n      pop\n        /* \"#utility.yul\":16145:16146   */\n      0x01\n        /* \"#utility.yul\":16134:16143   */\n      dup6\n        /* \"#utility.yul\":16130:16147   */\n      add\n        /* \"#utility.yul\":16117:16147   */\n      swap5\n      pop\n        /* \"#utility.yul\":15991:15995   */\n      0x20\n        /* \"#utility.yul\":15988:15989   */\n      dup2\n        /* \"#utility.yul\":15984:15996   */\n      add\n        /* \"#utility.yul\":15979:15996   */\n      swap1\n      pop\n        /* \"#utility.yul\":15954:16161   */\n      jump(tag_321)\n    tag_323:\n        /* \"#utility.yul\":16189:16195   */\n      dup7\n        /* \"#utility.yul\":16180:16187   */\n      dup4\n        /* \"#utility.yul\":16177:16196   */\n      lt\n        /* \"#utility.yul\":16174:16353   */\n      iszero\n      tag_324\n      jumpi\n        /* \"#utility.yul\":16247:16256   */\n      dup5\n        /* \"#utility.yul\":16242:16245   */\n      dup10\n        /* \"#utility.yul\":16238:16257   */\n      add\n        /* \"#utility.yul\":16232:16258   */\n      sload\n        /* \"#utility.yul\":16290:16338   */\n      tag_325\n        /* \"#utility.yul\":16332:16336   */\n      0x1f\n        /* \"#utility.yul\":16324:16330   */\n      dup10\n        /* \"#utility.yul\":16320:16337   */\n      and\n        /* \"#utility.yul\":16309:16318   */\n      dup3\n        /* \"#utility.yul\":16290:16338   */\n      tag_131\n      jump\t// in\n    tag_325:\n        /* \"#utility.yul\":16282:16288   */\n      dup4\n        /* \"#utility.yul\":16275:16339   */\n      sstore\n        /* \"#utility.yul\":16197:16353   */\n      pop\n        /* \"#utility.yul\":16174:16353   */\n    tag_324:\n        /* \"#utility.yul\":16399:16400   */\n      0x01\n        /* \"#utility.yul\":16395:16396   */\n      0x02\n        /* \"#utility.yul\":16387:16393   */\n      dup9\n        /* \"#utility.yul\":16383:16397   */\n      mul\n        /* \"#utility.yul\":16379:16401   */\n      add\n        /* \"#utility.yul\":16373:16377   */\n      dup9\n        /* \"#utility.yul\":16366:16402   */\n      sstore\n        /* \"#utility.yul\":15743:16412   */\n      pop\n      pop\n      pop\n        /* \"#utility.yul\":15706:16651   */\n    tag_315:\n      pop\n        /* \"#utility.yul\":15287:16657   */\n      pop\n      pop\n      pop\n        /* \"#utility.yul\":15194:16657   */\n      pop\n      pop\n    tag_308:\n      jump\t// out\n        /* \"#utility.yul\":16663:16896   */\n    tag_65:\n        /* \"#utility.yul\":16702:16705   */\n      0x00\n        /* \"#utility.yul\":16725:16749   */\n      tag_327\n        /* \"#utility.yul\":16743:16748   */\n      dup3\n        /* \"#utility.yul\":16725:16749   */\n      tag_102\n      jump\t// in\n    tag_327:\n        /* \"#utility.yul\":16716:16749   */\n      swap2\n      pop\n        /* \"#utility.yul\":16771:16837   */\n      0xffffffffffffffffffffffffffffffffffffffffffffffffffffffffffffffff\n        /* \"#utility.yul\":16764:16769   */\n      dup3\n        /* \"#utility.yul\":16761:16838   */\n      sub\n        /* \"#utility.yul\":16758:16861   */\n      tag_328\n      jumpi\n        /* \"#utility.yul\":16841:16859   */\n      tag_329\n      tag_136\n      jump\t// in\n    tag_329:\n        /* \"#utility.yul\":16758:16861   */\n    tag_328:\n        /* \"#utility.yul\":16888:16889   */\n      0x01\n        /* \"#utility.yul\":16881:16886   */\n      dup3\n        /* \"#utility.yul\":16877:16890   */\n      add\n        /* \"#utility.yul\":16870:16890   */\n      swap1\n      pop\n        /* \"#utility.yul\":16663:16896   */\n      swap2\n      swap1\n      pop\n      jump\t// out\n        /* \"#utility.yul\":16902:17082   */\n    tag_68:\n        /* \"#utility.yul\":16950:17027   */\n      0x4e487b7100000000000000000000000000000000000000000000000000000000\n        /* \"#utility.yul\":16947:16948   */\n      0x00\n        /* \"#utility.yul\":16940:17028   */\n      mstore\n        /* \"#utility.yul\":17047:17051   */\n      0x31\n        /* \"#utility.yul\":17044:17045   */\n      0x04\n        /* \"#utility.yul\":17037:17052   */\n      mstore\n        /* \"#utility.yul\":17071:17075   */\n      0x24\n        /* \"#utility.yul\":17068:17069   */\n      0x00\n        /* \"#utility.yul\":17061:17076   */\n      revert\n\n    auxdata: 0xa2646970667358221220c290aa93f456b79dcf304ae204af6d00a8a05061c6a03347e3627b2d1ab8519d64736f6c63430008110033\n}\n",
				"bytecode": {
					"linkReferences": {},
					"object": "608060405234801561001057600080fd5b50610e1d806100206000396000f3fe60806040526004361061003f5760003560e01c806311456b47146100445780634f348b951461006d57806353a98ea9146100aa578063fb8cbced146100c6575b600080fd5b34801561005057600080fd5b5061006b60048036038101906100669190610584565b6100f1565b005b34801561007957600080fd5b50610094600480360381019061008f9190610603565b610129565b6040516100a191906106af565b60405180910390f35b6100c460048036038101906100bf9190610584565b6101d5565b005b3480156100d257600080fd5b506100db6102f4565b6040516100e891906107dd565b60405180910390f35b6000819080600181540180825580915050600190039060005260206000200160009091909190915090816101259190610a0b565b5050565b6000818154811061013957600080fd5b9060005260206000200160009150905080546101549061082e565b80601f01602080910402602001604051908101604052809291908181526020018280546101809061082e565b80156101cd5780601f106101a2576101008083540402835291602001916101cd565b820191906000526020600020905b8154815290600101906020018083116101b057829003601f168201915b505050505081565b60005b60008054905081116102f057818051906020012060008281548110610200576101ff610add565b5b906000526020600020016040516102179190610baf565b6040518091039020036102dd5760008190505b600160008054905061023c9190610bf5565b8110156102ab5760006001826102529190610c29565b8154811061026357610262610add565b5b906000526020600020016000828154811061028157610280610add565b5b9060005260206000200190816102979190610c88565b5080806102a390610d70565b91505061022a565b5060008054806102be576102bd610db8565b5b6001900381819060005260206000200160006102da91906103cd565b90555b80806102e890610d70565b9150506101d8565b5050565b60606000805480602002602001604051908101604052809291908181526020016000905b828210156103c45783829060005260206000200180546103379061082e565b80601f01602080910402602001604051908101604052809291908181526020018280546103639061082e565b80156103b05780601f10610385576101008083540402835291602001916103b0565b820191906000526020600020905b81548152906001019060200180831161039357829003601f168201915b505050505081526020019060010190610318565b50505050905090565b5080546103d99061082e565b6000825580601f106103eb575061040a565b601f016020900490600052602060002090810190610409919061040d565b5b50565b5b8082111561042657600081600090555060010161040e565b5090565b6000604051905090565b600080fd5b600080fd5b600080fd5b600080fd5b6000601f19601f8301169050919050565b7f4e487b7100000000000000000000000000000000000000000000000000000000600052604160045260246000fd5b61049182610448565b810181811067ffffffffffffffff821117156104b0576104af610459565b5b80604052505050565b60006104c361042a565b90506104cf8282610488565b919050565b600067ffffffffffffffff8211156104ef576104ee610459565b5b6104f882610448565b9050602081019050919050565b82818337600083830152505050565b6000610527610522846104d4565b6104b9565b90508281526020810184848401111561054357610542610443565b5b61054e848285610505565b509392505050565b600082601f83011261056b5761056a61043e565b5b813561057b848260208601610514565b91505092915050565b60006020828403121561059a57610599610434565b5b600082013567ffffffffffffffff8111156105b8576105b7610439565b5b6105c484828501610556565b91505092915050565b6000819050919050565b6105e0816105cd565b81146105eb57600080fd5b50565b6000813590506105fd816105d7565b92915050565b60006020828403121561061957610618610434565b5b6000610627848285016105ee565b91505092915050565b600081519050919050565b600082825260208201905092915050565b60005b8381101561066a57808201518184015260208101905061064f565b60008484015250505050565b600061068182610630565b61068b818561063b565b935061069b81856020860161064c565b6106a481610448565b840191505092915050565b600060208201905081810360008301526106c98184610676565b905092915050565b600081519050919050565b600082825260208201905092915050565b6000819050602082019050919050565b600082825260208201905092915050565b600061071982610630565b61072381856106fd565b935061073381856020860161064c565b61073c81610448565b840191505092915050565b6000610753838361070e565b905092915050565b6000602082019050919050565b6000610773826106d1565b61077d81856106dc565b93508360208202850161078f856106ed565b8060005b858110156107cb57848403895281516107ac8582610747565b94506107b78361075b565b925060208a01995050600181019050610793565b50829750879550505050505092915050565b600060208201905081810360008301526107f78184610768565b905092915050565b7f4e487b7100000000000000000000000000000000000000000000000000000000600052602260045260246000fd5b6000600282049050600182168061084657607f821691505b602082108103610859576108586107ff565b5b50919050565b60008190508160005260206000209050919050565b60006020601f8301049050919050565b600082821b905092915050565b6000600883026108c17fffffffffffffffffffffffffffffffffffffffffffffffffffffffffffffffff82610884565b6108cb8683610884565b95508019841693508086168417925050509392505050565b6000819050919050565b60006109086109036108fe846105cd565b6108e3565b6105cd565b9050919050565b6000819050919050565b610922836108ed565b61093661092e8261090f565b848454610891565b825550505050565b600090565b61094b61093e565b610956818484610919565b505050565b5b8181101561097a5761096f600082610943565b60018101905061095c565b5050565b601f8211156109bf576109908161085f565b61099984610874565b810160208510156109a8578190505b6109bc6109b485610874565b83018261095b565b50505b505050565b600082821c905092915050565b60006109e2600019846008026109c4565b1980831691505092915050565b60006109fb83836109d1565b9150826002028217905092915050565b610a1482610630565b67ffffffffffffffff811115610a2d57610a2c610459565b5b610a37825461082e565b610a4282828561097e565b600060209050601f831160018114610a755760008415610a63578287015190505b610a6d85826109ef565b865550610ad5565b601f198416610a838661085f565b60005b82811015610aab57848901518255600182019150602085019450602081019050610a86565b86831015610ac85784890151610ac4601f8916826109d1565b8355505b6001600288020188555050505b505050505050565b7f4e487b7100000000000000000000000000000000000000000000000000000000600052603260045260246000fd5b600081905092915050565b60008190508160005260206000209050919050565b60008154610b398161082e565b610b438186610b0c565b94506001821660008114610b5e5760018114610b7357610ba6565b60ff1983168652811515820286019350610ba6565b610b7c85610b17565b60005b83811015610b9e57815481890152600182019150602081019050610b7f565b838801955050505b50505092915050565b6000610bbb8284610b2c565b915081905092915050565b7f4e487b7100000000000000000000000000000000000000000000000000000000600052601160045260246000fd5b6000610c00826105cd565b9150610c0b836105cd565b9250828203905081811115610c2357610c22610bc6565b5b92915050565b6000610c34826105cd565b9150610c3f836105cd565b9250828201905080821115610c5757610c56610bc6565b5b92915050565b600081549050610c6c8161082e565b9050919050565b60008190508160005260206000209050919050565b818103610c96575050610d6e565b610c9f82610c5d565b67ffffffffffffffff811115610cb857610cb7610459565b5b610cc2825461082e565b610ccd82828561097e565b6000601f831160018114610cfc5760008415610cea578287015490505b610cf485826109ef565b865550610d67565b601f198416610d0a87610c73565b9650610d158661085f565b60005b82811015610d3d57848901548255600182019150600185019450602081019050610d18565b86831015610d5a5784890154610d56601f8916826109d1565b8355505b6001600288020188555050505b5050505050505b565b6000610d7b826105cd565b91507fffffffffffffffffffffffffffffffffffffffffffffffffffffffffffffffff8203610dad57610dac610bc6565b5b600182019050919050565b7f4e487b7100000000000000000000000000000000000000000000000000000000600052603160045260246000fdfea2646970667358221220c290aa93f456b79dcf304ae204af6d00a8a05061c6a03347e3627b2d1ab8519d64736f6c63430008110033",
					"opcodes": "PUSH1 0x80 PUSH1 0x40 MSTORE CALLVALUE DUP1 ISZERO PUSH2 0x10 JUMPI PUSH1 0x0 DUP1 REVERT JUMPDEST POP PUSH2 0xE1D DUP1 PUSH2 0x20 PUSH1 0x0 CODECOPY PUSH1 0x0 RETURN INVALID PUSH1 0x80 PUSH1 0x40 MSTORE PUSH1 0x4 CALLDATASIZE LT PUSH2 0x3F JUMPI PUSH1 0x0 CALLDATALOAD PUSH1 0xE0 SHR DUP1 PUSH4 0x11456B47 EQ PUSH2 0x44 JUMPI DUP1 PUSH4 0x4F348B95 EQ PUSH2 0x6D JUMPI DUP1 PUSH4 0x53A98EA9 EQ PUSH2 0xAA JUMPI DUP1 PUSH4 0xFB8CBCED EQ PUSH2 0xC6 JUMPI JUMPDEST PUSH1 0x0 DUP1 REVERT JUMPDEST CALLVALUE DUP1 ISZERO PUSH2 0x50 JUMPI PUSH1 0x0 DUP1 REVERT JUMPDEST POP PUSH2 0x6B PUSH1 0x4 DUP1 CALLDATASIZE SUB DUP2 ADD SWAP1 PUSH2 0x66 SWAP2 SWAP1 PUSH2 0x584 JUMP JUMPDEST PUSH2 0xF1 JUMP JUMPDEST STOP JUMPDEST CALLVALUE DUP1 ISZERO PUSH2 0x79 JUMPI PUSH1 0x0 DUP1 REVERT JUMPDEST POP PUSH2 0x94 PUSH1 0x4 DUP1 CALLDATASIZE SUB DUP2 ADD SWAP1 PUSH2 0x8F SWAP2 SWAP1 PUSH2 0x603 JUMP JUMPDEST PUSH2 0x129 JUMP JUMPDEST PUSH1 0x40 MLOAD PUSH2 0xA1 SWAP2 SWAP1 PUSH2 0x6AF JUMP JUMPDEST PUSH1 0x40 MLOAD DUP1 SWAP2 SUB SWAP1 RETURN JUMPDEST PUSH2 0xC4 PUSH1 0x4 DUP1 CALLDATASIZE SUB DUP2 ADD SWAP1 PUSH2 0xBF SWAP2 SWAP1 PUSH2 0x584 JUMP JUMPDEST PUSH2 0x1D5 JUMP JUMPDEST STOP JUMPDEST CALLVALUE DUP1 ISZERO PUSH2 0xD2 JUMPI PUSH1 0x0 DUP1 REVERT JUMPDEST POP PUSH2 0xDB PUSH2 0x2F4 JUMP JUMPDEST PUSH1 0x40 MLOAD PUSH2 0xE8 SWAP2 SWAP1 PUSH2 0x7DD JUMP JUMPDEST PUSH1 0x40 MLOAD DUP1 SWAP2 SUB SWAP1 RETURN JUMPDEST PUSH1 0x0 DUP2 SWAP1 DUP1 PUSH1 0x1 DUP2 SLOAD ADD DUP1 DUP3 SSTORE DUP1 SWAP2 POP POP PUSH1 0x1 SWAP1 SUB SWAP1 PUSH1 0x0 MSTORE PUSH1 0x20 PUSH1 0x0 KECCAK256 ADD PUSH1 0x0 SWAP1 SWAP2 SWAP1 SWAP2 SWAP1 SWAP2 POP SWAP1 DUP2 PUSH2 0x125 SWAP2 SWAP1 PUSH2 0xA0B JUMP JUMPDEST POP POP JUMP JUMPDEST PUSH1 0x0 DUP2 DUP2 SLOAD DUP2 LT PUSH2 0x139 JUMPI PUSH1 0x0 DUP1 REVERT JUMPDEST SWAP1 PUSH1 0x0 MSTORE PUSH1 0x20 PUSH1 0x0 KECCAK256 ADD PUSH1 0x0 SWAP2 POP SWAP1 POP DUP1 SLOAD PUSH2 0x154 SWAP1 PUSH2 0x82E JUMP JUMPDEST DUP1 PUSH1 0x1F ADD PUSH1 0x20 DUP1 SWAP2 DIV MUL PUSH1 0x20 ADD PUSH1 0x40 MLOAD SWAP1 DUP2 ADD PUSH1 0x40 MSTORE DUP1 SWAP3 SWAP2 SWAP1 DUP2 DUP2 MSTORE PUSH1 0x20 ADD DUP3 DUP1 SLOAD PUSH2 0x180 SWAP1 PUSH2 0x82E JUMP JUMPDEST DUP1 ISZERO PUSH2 0x1CD JUMPI DUP1 PUSH1 0x1F LT PUSH2 0x1A2 JUMPI PUSH2 0x100 DUP1 DUP4 SLOAD DIV MUL DUP4 MSTORE SWAP2 PUSH1 0x20 ADD SWAP2 PUSH2 0x1CD JUMP JUMPDEST DUP3 ADD SWAP2 SWAP1 PUSH1 0x0 MSTORE PUSH1 0x20 PUSH1 0x0 KECCAK256 SWAP1 JUMPDEST DUP2 SLOAD DUP2 MSTORE SWAP1 PUSH1 0x1 ADD SWAP1 PUSH1 0x20 ADD DUP1 DUP4 GT PUSH2 0x1B0 JUMPI DUP3 SWAP1 SUB PUSH1 0x1F AND DUP3 ADD SWAP2 JUMPDEST POP POP POP POP POP DUP2 JUMP JUMPDEST PUSH1 0x0 JUMPDEST PUSH1 0x0 DUP1 SLOAD SWAP1 POP DUP2 GT PUSH2 0x2F0 JUMPI DUP2 DUP1 MLOAD SWAP1 PUSH1 0x20 ADD KECCAK256 PUSH1 0x0 DUP3 DUP2 SLOAD DUP2 LT PUSH2 0x200 JUMPI PUSH2 0x1FF PUSH2 0xADD JUMP JUMPDEST JUMPDEST SWAP1 PUSH1 0x0 MSTORE PUSH1 0x20 PUSH1 0x0 KECCAK256 ADD PUSH1 0x40 MLOAD PUSH2 0x217 SWAP2 SWAP1 PUSH2 0xBAF JUMP JUMPDEST PUSH1 0x40 MLOAD DUP1 SWAP2 SUB SWAP1 KECCAK256 SUB PUSH2 0x2DD JUMPI PUSH1 0x0 DUP2 SWAP1 POP JUMPDEST PUSH1 0x1 PUSH1 0x0 DUP1 SLOAD SWAP1 POP PUSH2 0x23C SWAP2 SWAP1 PUSH2 0xBF5 JUMP JUMPDEST DUP2 LT ISZERO PUSH2 0x2AB JUMPI PUSH1 0x0 PUSH1 0x1 DUP3 PUSH2 0x252 SWAP2 SWAP1 PUSH2 0xC29 JUMP JUMPDEST DUP2 SLOAD DUP2 LT PUSH2 0x263 JUMPI PUSH2 0x262 PUSH2 0xADD JUMP JUMPDEST JUMPDEST SWAP1 PUSH1 0x0 MSTORE PUSH1 0x20 PUSH1 0x0 KECCAK256 ADD PUSH1 0x0 DUP3 DUP2 SLOAD DUP2 LT PUSH2 0x281 JUMPI PUSH2 0x280 PUSH2 0xADD JUMP JUMPDEST JUMPDEST SWAP1 PUSH1 0x0 MSTORE PUSH1 0x20 PUSH1 0x0 KECCAK256 ADD SWAP1 DUP2 PUSH2 0x297 SWAP2 SWAP1 PUSH2 0xC88 JUMP JUMPDEST POP DUP1 DUP1 PUSH2 0x2A3 SWAP1 PUSH2 0xD70 JUMP JUMPDEST SWAP2 POP POP PUSH2 0x22A JUMP JUMPDEST POP PUSH1 0x0 DUP1 SLOAD DUP1 PUSH2 0x2BE JUMPI PUSH2 0x2BD PUSH2 0xDB8 JUMP JUMPDEST JUMPDEST PUSH1 0x1 SWAP1 SUB DUP2 DUP2 SWAP1 PUSH1 0x0 MSTORE PUSH1 0x20 PUSH1 0x0 KECCAK256 ADD PUSH1 0x0 PUSH2 0x2DA SWAP2 SWAP1 PUSH2 0x3CD JUMP JUMPDEST SWAP1 SSTORE JUMPDEST DUP1 DUP1 PUSH2 0x2E8 SWAP1 PUSH2 0xD70 JUMP JUMPDEST SWAP2 POP POP PUSH2 0x1D8 JUMP JUMPDEST POP POP JUMP JUMPDEST PUSH1 0x60 PUSH1 0x0 DUP1 SLOAD DUP1 PUSH1 0x20 MUL PUSH1 0x20 ADD PUSH1 0x40 MLOAD SWAP1 DUP2 ADD PUSH1 0x40 MSTORE DUP1 SWAP3 SWAP2 SWAP1 DUP2 DUP2 MSTORE PUSH1 0x20 ADD PUSH1 0x0 SWAP1 JUMPDEST DUP3 DUP3 LT ISZERO PUSH2 0x3C4 JUMPI DUP4 DUP3 SWAP1 PUSH1 0x0 MSTORE PUSH1 0x20 PUSH1 0x0 KECCAK256 ADD DUP1 SLOAD PUSH2 0x337 SWAP1 PUSH2 0x82E JUMP JUMPDEST DUP1 PUSH1 0x1F ADD PUSH1 0x20 DUP1 SWAP2 DIV MUL PUSH1 0x20 ADD PUSH1 0x40 MLOAD SWAP1 DUP2 ADD PUSH1 0x40 MSTORE DUP1 SWAP3 SWAP2 SWAP1 DUP2 DUP2 MSTORE PUSH1 0x20 ADD DUP3 DUP1 SLOAD PUSH2 0x363 SWAP1 PUSH2 0x82E JUMP JUMPDEST DUP1 ISZERO PUSH2 0x3B0 JUMPI DUP1 PUSH1 0x1F LT PUSH2 0x385 JUMPI PUSH2 0x100 DUP1 DUP4 SLOAD DIV MUL DUP4 MSTORE SWAP2 PUSH1 0x20 ADD SWAP2 PUSH2 0x3B0 JUMP JUMPDEST DUP3 ADD SWAP2 SWAP1 PUSH1 0x0 MSTORE PUSH1 0x20 PUSH1 0x0 KECCAK256 SWAP1 JUMPDEST DUP2 SLOAD DUP2 MSTORE SWAP1 PUSH1 0x1 ADD SWAP1 PUSH1 0x20 ADD DUP1 DUP4 GT PUSH2 0x393 JUMPI DUP3 SWAP1 SUB PUSH1 0x1F AND DUP3 ADD SWAP2 JUMPDEST POP POP POP POP POP DUP2 MSTORE PUSH1 0x20 ADD SWAP1 PUSH1 0x1 ADD SWAP1 PUSH2 0x318 JUMP JUMPDEST POP POP POP POP SWAP1 POP SWAP1 JUMP JUMPDEST POP DUP1 SLOAD PUSH2 0x3D9 SWAP1 PUSH2 0x82E JUMP JUMPDEST PUSH1 0x0 DUP3 SSTORE DUP1 PUSH1 0x1F LT PUSH2 0x3EB JUMPI POP PUSH2 0x40A JUMP JUMPDEST PUSH1 0x1F ADD PUSH1 0x20 SWAP1 DIV SWAP1 PUSH1 0x0 MSTORE PUSH1 0x20 PUSH1 0x0 KECCAK256 SWAP1 DUP2 ADD SWAP1 PUSH2 0x409 SWAP2 SWAP1 PUSH2 0x40D JUMP JUMPDEST JUMPDEST POP JUMP JUMPDEST JUMPDEST DUP1 DUP3 GT ISZERO PUSH2 0x426 JUMPI PUSH1 0x0 DUP2 PUSH1 0x0 SWAP1 SSTORE POP PUSH1 0x1 ADD PUSH2 0x40E JUMP JUMPDEST POP SWAP1 JUMP JUMPDEST PUSH1 0x0 PUSH1 0x40 MLOAD SWAP1 POP SWAP1 JUMP JUMPDEST PUSH1 0x0 DUP1 REVERT JUMPDEST PUSH1 0x0 DUP1 REVERT JUMPDEST PUSH1 0x0 DUP1 REVERT JUMPDEST PUSH1 0x0 DUP1 REVERT JUMPDEST PUSH1 0x0 PUSH1 0x1F NOT PUSH1 0x1F DUP4 ADD AND SWAP1 POP SWAP2 SWAP1 POP JUMP JUMPDEST PUSH32 0x4E487B7100000000000000000000000000000000000000000000000000000000 PUSH1 0x0 MSTORE PUSH1 0x41 PUSH1 0x4 MSTORE PUSH1 0x24 PUSH1 0x0 REVERT JUMPDEST PUSH2 0x491 DUP3 PUSH2 0x448 JUMP JUMPDEST DUP2 ADD DUP2 DUP2 LT PUSH8 0xFFFFFFFFFFFFFFFF DUP3 GT OR ISZERO PUSH2 0x4B0 JUMPI PUSH2 0x4AF PUSH2 0x459 JUMP JUMPDEST JUMPDEST DUP1 PUSH1 0x40 MSTORE POP POP POP JUMP JUMPDEST PUSH1 0x0 PUSH2 0x4C3 PUSH2 0x42A JUMP JUMPDEST SWAP1 POP PUSH2 0x4CF DUP3 DUP3 PUSH2 0x488 JUMP JUMPDEST SWAP2 SWAP1 POP JUMP JUMPDEST PUSH1 0x0 PUSH8 0xFFFFFFFFFFFFFFFF DUP3 GT ISZERO PUSH2 0x4EF JUMPI PUSH2 0x4EE PUSH2 0x459 JUMP JUMPDEST JUMPDEST PUSH2 0x4F8 DUP3 PUSH2 0x448 JUMP JUMPDEST SWAP1 POP PUSH1 0x20 DUP2 ADD SWAP1 POP SWAP2 SWAP1 POP JUMP JUMPDEST DUP3 DUP2 DUP4 CALLDATACOPY PUSH1 0x0 DUP4 DUP4 ADD MSTORE POP POP POP JUMP JUMPDEST PUSH1 0x0 PUSH2 0x527 PUSH2 0x522 DUP5 PUSH2 0x4D4 JUMP JUMPDEST PUSH2 0x4B9 JUMP JUMPDEST SWAP1 POP DUP3 DUP2 MSTORE PUSH1 0x20 DUP2 ADD DUP5 DUP5 DUP5 ADD GT ISZERO PUSH2 0x543 JUMPI PUSH2 0x542 PUSH2 0x443 JUMP JUMPDEST JUMPDEST PUSH2 0x54E DUP5 DUP3 DUP6 PUSH2 0x505 JUMP JUMPDEST POP SWAP4 SWAP3 POP POP POP JUMP JUMPDEST PUSH1 0x0 DUP3 PUSH1 0x1F DUP4 ADD SLT PUSH2 0x56B JUMPI PUSH2 0x56A PUSH2 0x43E JUMP JUMPDEST JUMPDEST DUP2 CALLDATALOAD PUSH2 0x57B DUP5 DUP3 PUSH1 0x20 DUP7 ADD PUSH2 0x514 JUMP JUMPDEST SWAP2 POP POP SWAP3 SWAP2 POP POP JUMP JUMPDEST PUSH1 0x0 PUSH1 0x20 DUP3 DUP5 SUB SLT ISZERO PUSH2 0x59A JUMPI PUSH2 0x599 PUSH2 0x434 JUMP JUMPDEST JUMPDEST PUSH1 0x0 DUP3 ADD CALLDATALOAD PUSH8 0xFFFFFFFFFFFFFFFF DUP2 GT ISZERO PUSH2 0x5B8 JUMPI PUSH2 0x5B7 PUSH2 0x439 JUMP JUMPDEST JUMPDEST PUSH2 0x5C4 DUP5 DUP3 DUP6 ADD PUSH2 0x556 JUMP JUMPDEST SWAP2 POP POP SWAP3 SWAP2 POP POP JUMP JUMPDEST PUSH1 0x0 DUP2 SWAP1 POP SWAP2 SWAP1 POP JUMP JUMPDEST PUSH2 0x5E0 DUP2 PUSH2 0x5CD JUMP JUMPDEST DUP2 EQ PUSH2 0x5EB JUMPI PUSH1 0x0 DUP1 REVERT JUMPDEST POP JUMP JUMPDEST PUSH1 0x0 DUP2 CALLDATALOAD SWAP1 POP PUSH2 0x5FD DUP2 PUSH2 0x5D7 JUMP JUMPDEST SWAP3 SWAP2 POP POP JUMP JUMPDEST PUSH1 0x0 PUSH1 0x20 DUP3 DUP5 SUB SLT ISZERO PUSH2 0x619 JUMPI PUSH2 0x618 PUSH2 0x434 JUMP JUMPDEST JUMPDEST PUSH1 0x0 PUSH2 0x627 DUP5 DUP3 DUP6 ADD PUSH2 0x5EE JUMP JUMPDEST SWAP2 POP POP SWAP3 SWAP2 POP POP JUMP JUMPDEST PUSH1 0x0 DUP2 MLOAD SWAP1 POP SWAP2 SWAP1 POP JUMP JUMPDEST PUSH1 0x0 DUP3 DUP3 MSTORE PUSH1 0x20 DUP3 ADD SWAP1 POP SWAP3 SWAP2 POP POP JUMP JUMPDEST PUSH1 0x0 JUMPDEST DUP4 DUP2 LT ISZERO PUSH2 0x66A JUMPI DUP1 DUP3 ADD MLOAD DUP2 DUP5 ADD MSTORE PUSH1 0x20 DUP2 ADD SWAP1 POP PUSH2 0x64F JUMP JUMPDEST PUSH1 0x0 DUP5 DUP5 ADD MSTORE POP POP POP POP JUMP JUMPDEST PUSH1 0x0 PUSH2 0x681 DUP3 PUSH2 0x630 JUMP JUMPDEST PUSH2 0x68B DUP2 DUP6 PUSH2 0x63B JUMP JUMPDEST SWAP4 POP PUSH2 0x69B DUP2 DUP6 PUSH1 0x20 DUP7 ADD PUSH2 0x64C JUMP JUMPDEST PUSH2 0x6A4 DUP2 PUSH2 0x448 JUMP JUMPDEST DUP5 ADD SWAP2 POP POP SWAP3 SWAP2 POP POP JUMP JUMPDEST PUSH1 0x0 PUSH1 0x20 DUP3 ADD SWAP1 POP DUP2 DUP2 SUB PUSH1 0x0 DUP4 ADD MSTORE PUSH2 0x6C9 DUP2 DUP5 PUSH2 0x676 JUMP JUMPDEST SWAP1 POP SWAP3 SWAP2 POP POP JUMP JUMPDEST PUSH1 0x0 DUP2 MLOAD SWAP1 POP SWAP2 SWAP1 POP JUMP JUMPDEST PUSH1 0x0 DUP3 DUP3 MSTORE PUSH1 0x20 DUP3 ADD SWAP1 POP SWAP3 SWAP2 POP POP JUMP JUMPDEST PUSH1 0x0 DUP2 SWAP1 POP PUSH1 0x20 DUP3 ADD SWAP1 POP SWAP2 SWAP1 POP JUMP JUMPDEST PUSH1 0x0 DUP3 DUP3 MSTORE PUSH1 0x20 DUP3 ADD SWAP1 POP SWAP3 SWAP2 POP POP JUMP JUMPDEST PUSH1 0x0 PUSH2 0x719 DUP3 PUSH2 0x630 JUMP JUMPDEST PUSH2 0x723 DUP2 DUP6 PUSH2 0x6FD JUMP JUMPDEST SWAP4 POP PUSH2 0x733 DUP2 DUP6 PUSH1 0x20 DUP7 ADD PUSH2 0x64C JUMP JUMPDEST PUSH2 0x73C DUP2 PUSH2 0x448 JUMP JUMPDEST DUP5 ADD SWAP2 POP POP SWAP3 SWAP2 POP POP JUMP JUMPDEST PUSH1 0x0 PUSH2 0x753 DUP4 DUP4 PUSH2 0x70E JUMP JUMPDEST SWAP1 POP SWAP3 SWAP2 POP POP JUMP JUMPDEST PUSH1 0x0 PUSH1 0x20 DUP3 ADD SWAP1 POP SWAP2 SWAP1 POP JUMP JUMPDEST PUSH1 0x0 PUSH2 0x773 DUP3 PUSH2 0x6D1 JUMP JUMPDEST PUSH2 0x77D DUP2 DUP6 PUSH2 0x6DC JUMP JUMPDEST SWAP4 POP DUP4 PUSH1 0x20 DUP3 MUL DUP6 ADD PUSH2 0x78F DUP6 PUSH2 0x6ED JUMP JUMPDEST DUP1 PUSH1 0x0 JUMPDEST DUP6 DUP2 LT ISZERO PUSH2 0x7CB JUMPI DUP5 DUP5 SUB DUP10 MSTORE DUP2 MLOAD PUSH2 0x7AC DUP6 DUP3 PUSH2 0x747 JUMP JUMPDEST SWAP5 POP PUSH2 0x7B7 DUP4 PUSH2 0x75B JUMP JUMPDEST SWAP3 POP PUSH1 0x20 DUP11 ADD SWAP10 POP POP PUSH1 0x1 DUP2 ADD SWAP1 POP PUSH2 0x793 JUMP JUMPDEST POP DUP3 SWAP8 POP DUP8 SWAP6 POP POP POP POP POP POP SWAP3 SWAP2 POP POP JUMP JUMPDEST PUSH1 0x0 PUSH1 0x20 DUP3 ADD SWAP1 POP DUP2 DUP2 SUB PUSH1 0x0 DUP4 ADD MSTORE PUSH2 0x7F7 DUP2 DUP5 PUSH2 0x768 JUMP JUMPDEST SWAP1 POP SWAP3 SWAP2 POP POP JUMP JUMPDEST PUSH32 0x4E487B7100000000000000000000000000000000000000000000000000000000 PUSH1 0x0 MSTORE PUSH1 0x22 PUSH1 0x4 MSTORE PUSH1 0x24 PUSH1 0x0 REVERT JUMPDEST PUSH1 0x0 PUSH1 0x2 DUP3 DIV SWAP1 POP PUSH1 0x1 DUP3 AND DUP1 PUSH2 0x846 JUMPI PUSH1 0x7F DUP3 AND SWAP2 POP JUMPDEST PUSH1 0x20 DUP3 LT DUP2 SUB PUSH2 0x859 JUMPI PUSH2 0x858 PUSH2 0x7FF JUMP JUMPDEST JUMPDEST POP SWAP2 SWAP1 POP JUMP JUMPDEST PUSH1 0x0 DUP2 SWAP1 POP DUP2 PUSH1 0x0 MSTORE PUSH1 0x20 PUSH1 0x0 KECCAK256 SWAP1 POP SWAP2 SWAP1 POP JUMP JUMPDEST PUSH1 0x0 PUSH1 0x20 PUSH1 0x1F DUP4 ADD DIV SWAP1 POP SWAP2 SWAP1 POP JUMP JUMPDEST PUSH1 0x0 DUP3 DUP3 SHL SWAP1 POP SWAP3 SWAP2 POP POP JUMP JUMPDEST PUSH1 0x0 PUSH1 0x8 DUP4 MUL PUSH2 0x8C1 PUSH32 0xFFFFFFFFFFFFFFFFFFFFFFFFFFFFFFFFFFFFFFFFFFFFFFFFFFFFFFFFFFFFFFFF DUP3 PUSH2 0x884 JUMP JUMPDEST PUSH2 0x8CB DUP7 DUP4 PUSH2 0x884 JUMP JUMPDEST SWAP6 POP DUP1 NOT DUP5 AND SWAP4 POP DUP1 DUP7 AND DUP5 OR SWAP3 POP POP POP SWAP4 SWAP3 POP POP POP JUMP JUMPDEST PUSH1 0x0 DUP2 SWAP1 POP SWAP2 SWAP1 POP JUMP JUMPDEST PUSH1 0x0 PUSH2 0x908 PUSH2 0x903 PUSH2 0x8FE DUP5 PUSH2 0x5CD JUMP JUMPDEST PUSH2 0x8E3 JUMP JUMPDEST PUSH2 0x5CD JUMP JUMPDEST SWAP1 POP SWAP2 SWAP1 POP JUMP JUMPDEST PUSH1 0x0 DUP2 SWAP1 POP SWAP2 SWAP1 POP JUMP JUMPDEST PUSH2 0x922 DUP4 PUSH2 0x8ED JUMP JUMPDEST PUSH2 0x936 PUSH2 0x92E DUP3 PUSH2 0x90F JUMP JUMPDEST DUP5 DUP5 SLOAD PUSH2 0x891 JUMP JUMPDEST DUP3 SSTORE POP POP POP POP JUMP JUMPDEST PUSH1 0x0 SWAP1 JUMP JUMPDEST PUSH2 0x94B PUSH2 0x93E JUMP JUMPDEST PUSH2 0x956 DUP2 DUP5 DUP5 PUSH2 0x919 JUMP JUMPDEST POP POP POP JUMP JUMPDEST JUMPDEST DUP2 DUP2 LT ISZERO PUSH2 0x97A JUMPI PUSH2 0x96F PUSH1 0x0 DUP3 PUSH2 0x943 JUMP JUMPDEST PUSH1 0x1 DUP2 ADD SWAP1 POP PUSH2 0x95C JUMP JUMPDEST POP POP JUMP JUMPDEST PUSH1 0x1F DUP3 GT ISZERO PUSH2 0x9BF JUMPI PUSH2 0x990 DUP2 PUSH2 0x85F JUMP JUMPDEST PUSH2 0x999 DUP5 PUSH2 0x874 JUMP JUMPDEST DUP2 ADD PUSH1 0x20 DUP6 LT ISZERO PUSH2 0x9A8 JUMPI DUP2 SWAP1 POP JUMPDEST PUSH2 0x9BC PUSH2 0x9B4 DUP6 PUSH2 0x874 JUMP JUMPDEST DUP4 ADD DUP3 PUSH2 0x95B JUMP JUMPDEST POP POP JUMPDEST POP POP POP JUMP JUMPDEST PUSH1 0x0 DUP3 DUP3 SHR SWAP1 POP SWAP3 SWAP2 POP POP JUMP JUMPDEST PUSH1 0x0 PUSH2 0x9E2 PUSH1 0x0 NOT DUP5 PUSH1 0x8 MUL PUSH2 0x9C4 JUMP JUMPDEST NOT DUP1 DUP4 AND SWAP2 POP POP SWAP3 SWAP2 POP POP JUMP JUMPDEST PUSH1 0x0 PUSH2 0x9FB DUP4 DUP4 PUSH2 0x9D1 JUMP JUMPDEST SWAP2 POP DUP3 PUSH1 0x2 MUL DUP3 OR SWAP1 POP SWAP3 SWAP2 POP POP JUMP JUMPDEST PUSH2 0xA14 DUP3 PUSH2 0x630 JUMP JUMPDEST PUSH8 0xFFFFFFFFFFFFFFFF DUP2 GT ISZERO PUSH2 0xA2D JUMPI PUSH2 0xA2C PUSH2 0x459 JUMP JUMPDEST JUMPDEST PUSH2 0xA37 DUP3 SLOAD PUSH2 0x82E JUMP JUMPDEST PUSH2 0xA42 DUP3 DUP3 DUP6 PUSH2 0x97E JUMP JUMPDEST PUSH1 0x0 PUSH1 0x20 SWAP1 POP PUSH1 0x1F DUP4 GT PUSH1 0x1 DUP2 EQ PUSH2 0xA75 JUMPI PUSH1 0x0 DUP5 ISZERO PUSH2 0xA63 JUMPI DUP3 DUP8 ADD MLOAD SWAP1 POP JUMPDEST PUSH2 0xA6D DUP6 DUP3 PUSH2 0x9EF JUMP JUMPDEST DUP7 SSTORE POP PUSH2 0xAD5 JUMP JUMPDEST PUSH1 0x1F NOT DUP5 AND PUSH2 0xA83 DUP7 PUSH2 0x85F JUMP JUMPDEST PUSH1 0x0 JUMPDEST DUP3 DUP2 LT ISZERO PUSH2 0xAAB JUMPI DUP5 DUP10 ADD MLOAD DUP3 SSTORE PUSH1 0x1 DUP3 ADD SWAP2 POP PUSH1 0x20 DUP6 ADD SWAP5 POP PUSH1 0x20 DUP2 ADD SWAP1 POP PUSH2 0xA86 JUMP JUMPDEST DUP7 DUP4 LT ISZERO PUSH2 0xAC8 JUMPI DUP5 DUP10 ADD MLOAD PUSH2 0xAC4 PUSH1 0x1F DUP10 AND DUP3 PUSH2 0x9D1 JUMP JUMPDEST DUP4 SSTORE POP JUMPDEST PUSH1 0x1 PUSH1 0x2 DUP9 MUL ADD DUP9 SSTORE POP POP POP JUMPDEST POP POP POP POP POP POP JUMP JUMPDEST PUSH32 0x4E487B7100000000000000000000000000000000000000000000000000000000 PUSH1 0x0 MSTORE PUSH1 0x32 PUSH1 0x4 MSTORE PUSH1 0x24 PUSH1 0x0 REVERT JUMPDEST PUSH1 0x0 DUP2 SWAP1 POP SWAP3 SWAP2 POP POP JUMP JUMPDEST PUSH1 0x0 DUP2 SWAP1 POP DUP2 PUSH1 0x0 MSTORE PUSH1 0x20 PUSH1 0x0 KECCAK256 SWAP1 POP SWAP2 SWAP1 POP JUMP JUMPDEST PUSH1 0x0 DUP2 SLOAD PUSH2 0xB39 DUP2 PUSH2 0x82E JUMP JUMPDEST PUSH2 0xB43 DUP2 DUP7 PUSH2 0xB0C JUMP JUMPDEST SWAP5 POP PUSH1 0x1 DUP3 AND PUSH1 0x0 DUP2 EQ PUSH2 0xB5E JUMPI PUSH1 0x1 DUP2 EQ PUSH2 0xB73 JUMPI PUSH2 0xBA6 JUMP JUMPDEST PUSH1 0xFF NOT DUP4 AND DUP7 MSTORE DUP2 ISZERO ISZERO DUP3 MUL DUP7 ADD SWAP4 POP PUSH2 0xBA6 JUMP JUMPDEST PUSH2 0xB7C DUP6 PUSH2 0xB17 JUMP JUMPDEST PUSH1 0x0 JUMPDEST DUP4 DUP2 LT ISZERO PUSH2 0xB9E JUMPI DUP2 SLOAD DUP2 DUP10 ADD MSTORE PUSH1 0x1 DUP3 ADD SWAP2 POP PUSH1 0x20 DUP2 ADD SWAP1 POP PUSH2 0xB7F JUMP JUMPDEST DUP4 DUP9 ADD SWAP6 POP POP POP JUMPDEST POP POP POP SWAP3 SWAP2 POP POP JUMP JUMPDEST PUSH1 0x0 PUSH2 0xBBB DUP3 DUP5 PUSH2 0xB2C JUMP JUMPDEST SWAP2 POP DUP2 SWAP1 POP SWAP3 SWAP2 POP POP JUMP JUMPDEST PUSH32 0x4E487B7100000000000000000000000000000000000000000000000000000000 PUSH1 0x0 MSTORE PUSH1 0x11 PUSH1 0x4 MSTORE PUSH1 0x24 PUSH1 0x0 REVERT JUMPDEST PUSH1 0x0 PUSH2 0xC00 DUP3 PUSH2 0x5CD JUMP JUMPDEST SWAP2 POP PUSH2 0xC0B DUP4 PUSH2 0x5CD JUMP JUMPDEST SWAP3 POP DUP3 DUP3 SUB SWAP1 POP DUP2 DUP2 GT ISZERO PUSH2 0xC23 JUMPI PUSH2 0xC22 PUSH2 0xBC6 JUMP JUMPDEST JUMPDEST SWAP3 SWAP2 POP POP JUMP JUMPDEST PUSH1 0x0 PUSH2 0xC34 DUP3 PUSH2 0x5CD JUMP JUMPDEST SWAP2 POP PUSH2 0xC3F DUP4 PUSH2 0x5CD JUMP JUMPDEST SWAP3 POP DUP3 DUP3 ADD SWAP1 POP DUP1 DUP3 GT ISZERO PUSH2 0xC57 JUMPI PUSH2 0xC56 PUSH2 0xBC6 JUMP JUMPDEST JUMPDEST SWAP3 SWAP2 POP POP JUMP JUMPDEST PUSH1 0x0 DUP2 SLOAD SWAP1 POP PUSH2 0xC6C DUP2 PUSH2 0x82E JUMP JUMPDEST SWAP1 POP SWAP2 SWAP1 POP JUMP JUMPDEST PUSH1 0x0 DUP2 SWAP1 POP DUP2 PUSH1 0x0 MSTORE PUSH1 0x20 PUSH1 0x0 KECCAK256 SWAP1 POP SWAP2 SWAP1 POP JUMP JUMPDEST DUP2 DUP2 SUB PUSH2 0xC96 JUMPI POP POP PUSH2 0xD6E JUMP JUMPDEST PUSH2 0xC9F DUP3 PUSH2 0xC5D JUMP JUMPDEST PUSH8 0xFFFFFFFFFFFFFFFF DUP2 GT ISZERO PUSH2 0xCB8 JUMPI PUSH2 0xCB7 PUSH2 0x459 JUMP JUMPDEST JUMPDEST PUSH2 0xCC2 DUP3 SLOAD PUSH2 0x82E JUMP JUMPDEST PUSH2 0xCCD DUP3 DUP3 DUP6 PUSH2 0x97E JUMP JUMPDEST PUSH1 0x0 PUSH1 0x1F DUP4 GT PUSH1 0x1 DUP2 EQ PUSH2 0xCFC JUMPI PUSH1 0x0 DUP5 ISZERO PUSH2 0xCEA JUMPI DUP3 DUP8 ADD SLOAD SWAP1 POP JUMPDEST PUSH2 0xCF4 DUP6 DUP3 PUSH2 0x9EF JUMP JUMPDEST DUP7 SSTORE POP PUSH2 0xD67 JUMP JUMPDEST PUSH1 0x1F NOT DUP5 AND PUSH2 0xD0A DUP8 PUSH2 0xC73 JUMP JUMPDEST SWAP7 POP PUSH2 0xD15 DUP7 PUSH2 0x85F JUMP JUMPDEST PUSH1 0x0 JUMPDEST DUP3 DUP2 LT ISZERO PUSH2 0xD3D JUMPI DUP5 DUP10 ADD SLOAD DUP3 SSTORE PUSH1 0x1 DUP3 ADD SWAP2 POP PUSH1 0x1 DUP6 ADD SWAP5 POP PUSH1 0x20 DUP2 ADD SWAP1 POP PUSH2 0xD18 JUMP JUMPDEST DUP7 DUP4 LT ISZERO PUSH2 0xD5A JUMPI DUP5 DUP10 ADD SLOAD PUSH2 0xD56 PUSH1 0x1F DUP10 AND DUP3 PUSH2 0x9D1 JUMP JUMPDEST DUP4 SSTORE POP JUMPDEST PUSH1 0x1 PUSH1 0x2 DUP9 MUL ADD DUP9 SSTORE POP POP POP JUMPDEST POP POP POP POP POP POP JUMPDEST JUMP JUMPDEST PUSH1 0x0 PUSH2 0xD7B DUP3 PUSH2 0x5CD JUMP JUMPDEST SWAP2 POP PUSH32 0xFFFFFFFFFFFFFFFFFFFFFFFFFFFFFFFFFFFFFFFFFFFFFFFFFFFFFFFFFFFFFFFF DUP3 SUB PUSH2 0xDAD JUMPI PUSH2 0xDAC PUSH2 0xBC6 JUMP JUMPDEST JUMPDEST PUSH1 0x1 DUP3 ADD SWAP1 POP SWAP2 SWAP1 POP JUMP JUMPDEST PUSH32 0x4E487B7100000000000000000000000000000000000000000000000000000000 PUSH1 0x0 MSTORE PUSH1 0x31 PUSH1 0x4 MSTORE PUSH1 0x24 PUSH1 0x0 REVERT INVALID LOG2 PUSH5 0x6970667358 0x22 SLT KECCAK256 0xC2 SWAP1 0xAA SWAP4 DELEGATECALL JUMP 0xB7 SWAP14 0xCF ADDRESS 0x4A 0xE2 DIV 0xAF PUSH14 0xA8A05061C6A03347E3627B2D1A 0xB8 MLOAD SWAP14 PUSH5 0x736F6C6343 STOP ADDMOD GT STOP CALLER "
				},
				"gasEstimates": {
					"creation": {
						"codeDepositCost": "722600",
						"executionCost": "753",
						"totalCost": "723353"
					},
					"external": {
						"addName(string)": "infinite",
						"deleteName(string)": "infinite",
						"getArr()": "infinite",
						"row(uint256)": "infinite"
					}
				},
				"methodIdentifiers": {
					"addName(string)": "11456b47",
					"deleteName(string)": "53a98ea9",
					"getArr()": "fb8cbced",
					"row(uint256)": "4f348b95"
				}
			},
			"storageLayout": {
				"storage": [
					{
						"astId": 4,
						"contract": "contracts/Practice1.sol:simple",
						"label": "row",
						"offset": 0,
						"slot": "0",
						"type": "t_array(t_string_storage)dyn_storage"
					}
				],
				"types": {
					"t_array(t_string_storage)dyn_storage": {
						"base": "t_string_storage",
						"encoding": "dynamic_array",
						"label": "string[]",
						"numberOfBytes": "32"
					},
					"t_string_storage": {
						"encoding": "bytes",
						"label": "string",
						"numberOfBytes": "32"
					}
				}
			},
			"userdoc": {
				"kind": "user",
				"methods": {},
				"version": 1
			}
		}
	}
}