{
	"contracts/Votacion.sol": {
		"Votacion": {
			"abi": [
				{
					"inputs": [
						{
							"internalType": "string",
							"name": "_nombre",
							"type": "string"
						}
					],
					"name": "agregarOpcionVoto",
					"outputs": [],
					"stateMutability": "nonpayable",
					"type": "function"
				},
				{
					"inputs": [
						{
							"internalType": "address",
							"name": "",
							"type": "address"
						}
					],
					"name": "haVotado",
					"outputs": [
						{
							"internalType": "bool",
							"name": "",
							"type": "bool"
						}
					],
					"stateMutability": "view",
					"type": "function"
				},
				{
					"inputs": [],
					"name": "obtenerOpcionesVoto",
					"outputs": [
						{
							"internalType": "string[]",
							"name": "",
							"type": "string[]"
						},
						{
							"internalType": "uint256[]",
							"name": "",
							"type": "uint256[]"
						}
					],
					"stateMutability": "view",
					"type": "function"
				},
				{
					"inputs": [
						{
							"internalType": "uint256",
							"name": "",
							"type": "uint256"
						}
					],
					"name": "opcionesvoto",
					"outputs": [
						{
							"internalType": "string",
							"name": "nombre",
							"type": "string"
						},
						{
							"internalType": "uint256",
							"name": "votos",
							"type": "uint256"
						}
					],
					"stateMutability": "view",
					"type": "function"
				},
				{
					"inputs": [
						{
							"internalType": "uint256",
							"name": "_indiceOpcionVoto",
							"type": "uint256"
						}
					],
					"name": "votar",
					"outputs": [],
					"stateMutability": "nonpayable",
					"type": "function"
				}
			],
			"devdoc": {
				"kind": "dev",
				"methods": {},
				"version": 1
			},
			"evm": {
				"assembly": "    /* \"contracts/Votacion.sol\":62:1293  contract Votacion {... */\n  mstore(0x40, 0x80)\n  callvalue\n  dup1\n  iszero\n  tag_1\n  jumpi\n  0x00\n  dup1\n  revert\ntag_1:\n  pop\n  dataSize(sub_0)\n  dup1\n  dataOffset(sub_0)\n  0x00\n  codecopy\n  0x00\n  return\nstop\n\nsub_0: assembly {\n        /* \"contracts/Votacion.sol\":62:1293  contract Votacion {... */\n      mstore(0x40, 0x80)\n      callvalue\n      dup1\n      iszero\n      tag_1\n      jumpi\n      0x00\n      dup1\n      revert\n    tag_1:\n      pop\n      jumpi(tag_2, lt(calldatasize, 0x04))\n      shr(0xe0, calldataload(0x00))\n      dup1\n      0x21606831\n      eq\n      tag_3\n      jumpi\n      dup1\n      0x355062cb\n      eq\n      tag_4\n      jumpi\n      dup1\n      0xb9cd9955\n      eq\n      tag_5\n      jumpi\n      dup1\n      0xd790e986\n      eq\n      tag_6\n      jumpi\n      dup1\n      0xf888ba74\n      eq\n      tag_7\n      jumpi\n    tag_2:\n      0x00\n      dup1\n      revert\n        /* \"contracts/Votacion.sol\":426:727  function votar(uint256 _indiceOpcionVoto) public {... */\n    tag_3:\n      tag_8\n      0x04\n      dup1\n      calldatasize\n      sub\n      dup2\n      add\n      swap1\n      tag_9\n      swap2\n      swap1\n      tag_10\n      jump\t// in\n    tag_9:\n      tag_11\n      jump\t// in\n    tag_8:\n      stop\n        /* \"contracts/Votacion.sol\":212:252  mapping(address => bool) public haVotado */\n    tag_4:\n      tag_12\n      0x04\n      dup1\n      calldatasize\n      sub\n      dup2\n      add\n      swap1\n      tag_13\n      swap2\n      swap1\n      tag_14\n      jump\t// in\n    tag_13:\n      tag_15\n      jump\t// in\n    tag_12:\n      mload(0x40)\n      tag_16\n      swap2\n      swap1\n      tag_17\n      jump\t// in\n    tag_16:\n      mload(0x40)\n      dup1\n      swap2\n      sub\n      swap1\n      return\n        /* \"contracts/Votacion.sol\":171:203  OpcionVoto[] public opcionesvoto */\n    tag_5:\n      tag_18\n      0x04\n      dup1\n      calldatasize\n      sub\n      dup2\n      add\n      swap1\n      tag_19\n      swap2\n      swap1\n      tag_10\n      jump\t// in\n    tag_19:\n      tag_20\n      jump\t// in\n    tag_18:\n      mload(0x40)\n      tag_21\n      swap3\n      swap2\n      swap1\n      tag_22\n      jump\t// in\n    tag_21:\n      mload(0x40)\n      dup1\n      swap2\n      sub\n      swap1\n      return\n        /* \"contracts/Votacion.sol\":735:1290  function obtenerOpcionesVoto() public view returns (string[] memory, uint256[] memory) {... */\n    tag_6:\n      tag_23\n      tag_24\n      jump\t// in\n    tag_23:\n      mload(0x40)\n      tag_25\n      swap3\n      swap2\n      swap1\n      tag_26\n      jump\t// in\n    tag_25:\n      mload(0x40)\n      dup1\n      swap2\n      sub\n      swap1\n      return\n        /* \"contracts/Votacion.sol\":301:418  function agregarOpcionVoto(string memory _nombre) public {... */\n    tag_7:\n      tag_27\n      0x04\n      dup1\n      calldatasize\n      sub\n      dup2\n      add\n      swap1\n      tag_28\n      swap2\n      swap1\n      tag_29\n      jump\t// in\n    tag_28:\n      tag_30\n      jump\t// in\n    tag_27:\n      stop\n        /* \"contracts/Votacion.sol\":426:727  function votar(uint256 _indiceOpcionVoto) public {... */\n    tag_11:\n        /* \"contracts/Votacion.sol\":514:526  opcionesvoto */\n      0x00\n        /* \"contracts/Votacion.sol\":514:533  opcionesvoto.length */\n      dup1\n      sload\n      swap1\n      pop\n        /* \"contracts/Votacion.sol\":494:511  _indiceOpcionVoto */\n      dup2\n        /* \"contracts/Votacion.sol\":494:533  _indiceOpcionVoto < opcionesvoto.length */\n      lt\n        /* \"contracts/Votacion.sol\":486:571  require(_indiceOpcionVoto < opcionesvoto.length, \"Indice de opcion de voto invalido\") */\n      tag_32\n      jumpi\n      mload(0x40)\n      0x08c379a000000000000000000000000000000000000000000000000000000000\n      dup2\n      mstore\n      0x04\n      add\n      tag_33\n      swap1\n      tag_34\n      jump\t// in\n    tag_33:\n      mload(0x40)\n      dup1\n      swap2\n      sub\n      swap1\n      revert\n    tag_32:\n        /* \"contracts/Votacion.sol\":591:599  haVotado */\n      0x01\n        /* \"contracts/Votacion.sol\":591:611  haVotado[msg.sender] */\n      0x00\n        /* \"contracts/Votacion.sol\":600:610  msg.sender */\n      caller\n        /* \"contracts/Votacion.sol\":591:611  haVotado[msg.sender] */\n      0xffffffffffffffffffffffffffffffffffffffff\n      and\n      0xffffffffffffffffffffffffffffffffffffffff\n      and\n      dup2\n      mstore\n      0x20\n      add\n      swap1\n      dup2\n      mstore\n      0x20\n      add\n      0x00\n      keccak256\n      0x00\n      swap1\n      sload\n      swap1\n      0x0100\n      exp\n      swap1\n      div\n      0xff\n      and\n        /* \"contracts/Votacion.sol\":590:611  !haVotado[msg.sender] */\n      iszero\n        /* \"contracts/Votacion.sol\":582:629  require(!haVotado[msg.sender], \"ya has votado\") */\n      tag_35\n      jumpi\n      mload(0x40)\n      0x08c379a000000000000000000000000000000000000000000000000000000000\n      dup2\n      mstore\n      0x04\n      add\n      tag_36\n      swap1\n      tag_37\n      jump\t// in\n    tag_36:\n      mload(0x40)\n      dup1\n      swap2\n      sub\n      swap1\n      revert\n    tag_35:\n        /* \"contracts/Votacion.sol\":642:654  opcionesvoto */\n      0x00\n        /* \"contracts/Votacion.sol\":655:672  _indiceOpcionVoto */\n      dup2\n        /* \"contracts/Votacion.sol\":642:673  opcionesvoto[_indiceOpcionVoto] */\n      dup2\n      sload\n      dup2\n      lt\n      tag_38\n      jumpi\n      tag_39\n      tag_40\n      jump\t// in\n    tag_39:\n    tag_38:\n      swap1\n      0x00\n      mstore\n      keccak256(0x00, 0x20)\n      swap1\n      0x02\n      mul\n      add\n        /* \"contracts/Votacion.sol\":642:679  opcionesvoto[_indiceOpcionVoto].votos */\n      0x01\n      add\n      0x00\n        /* \"contracts/Votacion.sol\":642:681  opcionesvoto[_indiceOpcionVoto].votos++ */\n      dup2\n      sload\n      dup1\n      swap3\n      swap2\n      swap1\n      tag_42\n      swap1\n      tag_43\n      jump\t// in\n    tag_42:\n      swap2\n      swap1\n      pop\n      sstore\n      pop\n        /* \"contracts/Votacion.sol\":715:719  true */\n      0x01\n        /* \"contracts/Votacion.sol\":692:700  haVotado */\n      dup1\n        /* \"contracts/Votacion.sol\":692:712  haVotado[msg.sender] */\n      0x00\n        /* \"contracts/Votacion.sol\":701:711  msg.sender */\n      caller\n        /* \"contracts/Votacion.sol\":692:712  haVotado[msg.sender] */\n      0xffffffffffffffffffffffffffffffffffffffff\n      and\n      0xffffffffffffffffffffffffffffffffffffffff\n      and\n      dup2\n      mstore\n      0x20\n      add\n      swap1\n      dup2\n      mstore\n      0x20\n      add\n      0x00\n      keccak256\n      0x00\n        /* \"contracts/Votacion.sol\":692:719  haVotado[msg.sender] = true */\n      0x0100\n      exp\n      dup2\n      sload\n      dup2\n      0xff\n      mul\n      not\n      and\n      swap1\n      dup4\n      iszero\n      iszero\n      mul\n      or\n      swap1\n      sstore\n      pop\n        /* \"contracts/Votacion.sol\":426:727  function votar(uint256 _indiceOpcionVoto) public {... */\n      pop\n      jump\t// out\n        /* \"contracts/Votacion.sol\":212:252  mapping(address => bool) public haVotado */\n    tag_15:\n      mstore(0x20, 0x01)\n      dup1\n      0x00\n      mstore\n      keccak256(0x00, 0x40)\n      0x00\n      swap2\n      pop\n      sload\n      swap1\n      0x0100\n      exp\n      swap1\n      div\n      0xff\n      and\n      dup2\n      jump\t// out\n        /* \"contracts/Votacion.sol\":171:203  OpcionVoto[] public opcionesvoto */\n    tag_20:\n      0x00\n      dup2\n      dup2\n      sload\n      dup2\n      lt\n      tag_44\n      jumpi\n      0x00\n      dup1\n      revert\n    tag_44:\n      swap1\n      0x00\n      mstore\n      keccak256(0x00, 0x20)\n      swap1\n      0x02\n      mul\n      add\n      0x00\n      swap2\n      pop\n      swap1\n      pop\n      dup1\n      0x00\n      add\n      dup1\n      sload\n      tag_46\n      swap1\n      tag_47\n      jump\t// in\n    tag_46:\n      dup1\n      0x1f\n      add\n      0x20\n      dup1\n      swap2\n      div\n      mul\n      0x20\n      add\n      mload(0x40)\n      swap1\n      dup2\n      add\n      0x40\n      mstore\n      dup1\n      swap3\n      swap2\n      swap1\n      dup2\n      dup2\n      mstore\n      0x20\n      add\n      dup3\n      dup1\n      sload\n      tag_48\n      swap1\n      tag_47\n      jump\t// in\n    tag_48:\n      dup1\n      iszero\n      tag_49\n      jumpi\n      dup1\n      0x1f\n      lt\n      tag_50\n      jumpi\n      0x0100\n      dup1\n      dup4\n      sload\n      div\n      mul\n      dup4\n      mstore\n      swap2\n      0x20\n      add\n      swap2\n      jump(tag_49)\n    tag_50:\n      dup3\n      add\n      swap2\n      swap1\n      0x00\n      mstore\n      keccak256(0x00, 0x20)\n      swap1\n    tag_51:\n      dup2\n      sload\n      dup2\n      mstore\n      swap1\n      0x01\n      add\n      swap1\n      0x20\n      add\n      dup1\n      dup4\n      gt\n      tag_51\n      jumpi\n      dup3\n      swap1\n      sub\n      0x1f\n      and\n      dup3\n      add\n      swap2\n    tag_49:\n      pop\n      pop\n      pop\n      pop\n      pop\n      swap1\n      dup1\n      0x01\n      add\n      sload\n      swap1\n      pop\n      dup3\n      jump\t// out\n        /* \"contracts/Votacion.sol\":735:1290  function obtenerOpcionesVoto() public view returns (string[] memory, uint256[] memory) {... */\n    tag_24:\n        /* \"contracts/Votacion.sol\":787:802  string[] memory */\n      0x60\n        /* \"contracts/Votacion.sol\":804:820  uint256[] memory */\n      dup1\n        /* \"contracts/Votacion.sol\":833:852  uint256 numOpciones */\n      0x00\n        /* \"contracts/Votacion.sol\":855:867  opcionesvoto */\n      dup1\n        /* \"contracts/Votacion.sol\":855:874  opcionesvoto.length */\n      dup1\n      sload\n      swap1\n      pop\n        /* \"contracts/Votacion.sol\":833:874  uint256 numOpciones = opcionesvoto.length */\n      swap1\n      pop\n        /* \"contracts/Votacion.sol\":885:908  string[] memory nombres */\n      0x00\n        /* \"contracts/Votacion.sol\":924:935  numOpciones */\n      dup2\n        /* \"contracts/Votacion.sol\":911:936  new string[](numOpciones) */\n      0xffffffffffffffff\n      dup2\n      gt\n      iszero\n      tag_53\n      jumpi\n      tag_54\n      tag_55\n      jump\t// in\n    tag_54:\n    tag_53:\n      mload(0x40)\n      swap1\n      dup1\n      dup3\n      mstore\n      dup1\n      0x20\n      mul\n      0x20\n      add\n      dup3\n      add\n      0x40\n      mstore\n      dup1\n      iszero\n      tag_56\n      jumpi\n      dup2\n      0x20\n      add\n    tag_57:\n      0x60\n      dup2\n      mstore\n      0x20\n      add\n      swap1\n      0x01\n      swap1\n      sub\n      swap1\n      dup2\n      tag_57\n      jumpi\n      swap1\n      pop\n    tag_56:\n      pop\n        /* \"contracts/Votacion.sol\":885:936  string[] memory nombres = new string[](numOpciones) */\n      swap1\n      pop\n        /* \"contracts/Votacion.sol\":947:969  uint256[] memory votos */\n      0x00\n        /* \"contracts/Votacion.sol\":986:997  numOpciones */\n      dup3\n        /* \"contracts/Votacion.sol\":972:998  new uint256[](numOpciones) */\n      0xffffffffffffffff\n      dup2\n      gt\n      iszero\n      tag_58\n      jumpi\n      tag_59\n      tag_55\n      jump\t// in\n    tag_59:\n    tag_58:\n      mload(0x40)\n      swap1\n      dup1\n      dup3\n      mstore\n      dup1\n      0x20\n      mul\n      0x20\n      add\n      dup3\n      add\n      0x40\n      mstore\n      dup1\n      iszero\n      tag_60\n      jumpi\n      dup2\n      0x20\n      add\n      0x20\n      dup3\n      mul\n      dup1\n      calldatasize\n      dup4\n      calldatacopy\n      dup1\n      dup3\n      add\n      swap2\n      pop\n      pop\n      swap1\n      pop\n    tag_60:\n      pop\n        /* \"contracts/Votacion.sol\":947:998  uint256[] memory votos = new uint256[](numOpciones) */\n      swap1\n      pop\n        /* \"contracts/Votacion.sol\":1015:1024  uint256 i */\n      0x00\n        /* \"contracts/Votacion.sol\":1011:1249  for(uint256 i = 0; i < numOpciones; i++) {... */\n    tag_61:\n        /* \"contracts/Votacion.sol\":1034:1045  numOpciones */\n      dup4\n        /* \"contracts/Votacion.sol\":1030:1031  i */\n      dup2\n        /* \"contracts/Votacion.sol\":1030:1045  i < numOpciones */\n      lt\n        /* \"contracts/Votacion.sol\":1011:1249  for(uint256 i = 0; i < numOpciones; i++) {... */\n      iszero\n      tag_62\n      jumpi\n        /* \"contracts/Votacion.sol\":1067:1091  OpcionVoto memory opcion */\n      0x00\n        /* \"contracts/Votacion.sol\":1094:1106  opcionesvoto */\n      dup1\n        /* \"contracts/Votacion.sol\":1107:1108  i */\n      dup3\n        /* \"contracts/Votacion.sol\":1094:1109  opcionesvoto[i] */\n      dup2\n      sload\n      dup2\n      lt\n      tag_64\n      jumpi\n      tag_65\n      tag_40\n      jump\t// in\n    tag_65:\n    tag_64:\n      swap1\n      0x00\n      mstore\n      keccak256(0x00, 0x20)\n      swap1\n      0x02\n      mul\n      add\n        /* \"contracts/Votacion.sol\":1067:1109  OpcionVoto memory opcion = opcionesvoto[i] */\n      mload(0x40)\n      dup1\n      0x40\n      add\n      0x40\n      mstore\n      swap1\n      dup2\n      0x00\n      dup3\n      add\n      dup1\n      sload\n      tag_67\n      swap1\n      tag_47\n      jump\t// in\n    tag_67:\n      dup1\n      0x1f\n      add\n      0x20\n      dup1\n      swap2\n      div\n      mul\n      0x20\n      add\n      mload(0x40)\n      swap1\n      dup2\n      add\n      0x40\n      mstore\n      dup1\n      swap3\n      swap2\n      swap1\n      dup2\n      dup2\n      mstore\n      0x20\n      add\n      dup3\n      dup1\n      sload\n      tag_68\n      swap1\n      tag_47\n      jump\t// in\n    tag_68:\n      dup1\n      iszero\n      tag_69\n      jumpi\n      dup1\n      0x1f\n      lt\n      tag_70\n      jumpi\n      0x0100\n      dup1\n      dup4\n      sload\n      div\n      mul\n      dup4\n      mstore\n      swap2\n      0x20\n      add\n      swap2\n      jump(tag_69)\n    tag_70:\n      dup3\n      add\n      swap2\n      swap1\n      0x00\n      mstore\n      keccak256(0x00, 0x20)\n      swap1\n    tag_71:\n      dup2\n      sload\n      dup2\n      mstore\n      swap1\n      0x01\n      add\n      swap1\n      0x20\n      add\n      dup1\n      dup4\n      gt\n      tag_71\n      jumpi\n      dup3\n      swap1\n      sub\n      0x1f\n      and\n      dup3\n      add\n      swap2\n    tag_69:\n      pop\n      pop\n      pop\n      pop\n      pop\n      dup2\n      mstore\n      0x20\n      add\n      0x01\n      dup3\n      add\n      sload\n      dup2\n      mstore\n      pop\n      pop\n      swap1\n      pop\n        /* \"contracts/Votacion.sol\":1172:1178  opcion */\n      dup1\n        /* \"contracts/Votacion.sol\":1172:1185  opcion.nombre */\n      0x00\n      add\n      mload\n        /* \"contracts/Votacion.sol\":1159:1166  nombres */\n      dup5\n        /* \"contracts/Votacion.sol\":1167:1168  i */\n      dup4\n        /* \"contracts/Votacion.sol\":1159:1169  nombres[i] */\n      dup2\n      mload\n      dup2\n      lt\n      tag_72\n      jumpi\n      tag_73\n      tag_40\n      jump\t// in\n    tag_73:\n    tag_72:\n      0x20\n      mul\n      0x20\n      add\n      add\n        /* \"contracts/Votacion.sol\":1159:1185  nombres[i] = opcion.nombre */\n      dup2\n      swap1\n      mstore\n      pop\n        /* \"contracts/Votacion.sol\":1211:1217  opcion */\n      dup1\n        /* \"contracts/Votacion.sol\":1211:1223  opcion.votos */\n      0x20\n      add\n      mload\n        /* \"contracts/Votacion.sol\":1200:1205  votos */\n      dup4\n        /* \"contracts/Votacion.sol\":1206:1207  i */\n      dup4\n        /* \"contracts/Votacion.sol\":1200:1208  votos[i] */\n      dup2\n      mload\n      dup2\n      lt\n      tag_74\n      jumpi\n      tag_75\n      tag_40\n      jump\t// in\n    tag_75:\n    tag_74:\n      0x20\n      mul\n      0x20\n      add\n      add\n        /* \"contracts/Votacion.sol\":1200:1223  votos[i] = opcion.votos */\n      dup2\n      dup2\n      mstore\n      pop\n      pop\n        /* \"contracts/Votacion.sol\":1052:1249  {... */\n      pop\n        /* \"contracts/Votacion.sol\":1047:1050  i++ */\n      dup1\n      dup1\n      tag_76\n      swap1\n      tag_43\n      jump\t// in\n    tag_76:\n      swap2\n      pop\n      pop\n        /* \"contracts/Votacion.sol\":1011:1249  for(uint256 i = 0; i < numOpciones; i++) {... */\n      jump(tag_61)\n    tag_62:\n      pop\n        /* \"contracts/Votacion.sol\":1267:1274  nombres */\n      dup2\n        /* \"contracts/Votacion.sol\":1276:1281  votos */\n      dup2\n        /* \"contracts/Votacion.sol\":1259:1282  return (nombres, votos) */\n      swap5\n      pop\n      swap5\n      pop\n      pop\n      pop\n      pop\n        /* \"contracts/Votacion.sol\":735:1290  function obtenerOpcionesVoto() public view returns (string[] memory, uint256[] memory) {... */\n      swap1\n      swap2\n      jump\t// out\n        /* \"contracts/Votacion.sol\":301:418  function agregarOpcionVoto(string memory _nombre) public {... */\n    tag_30:\n        /* \"contracts/Votacion.sol\":369:381  opcionesvoto */\n      0x00\n        /* \"contracts/Votacion.sol\":387:409  OpcionVoto(_nombre, 0) */\n      mload(0x40)\n      dup1\n      0x40\n      add\n      0x40\n      mstore\n      dup1\n        /* \"contracts/Votacion.sol\":398:405  _nombre */\n      dup4\n        /* \"contracts/Votacion.sol\":387:409  OpcionVoto(_nombre, 0) */\n      dup2\n      mstore\n      0x20\n      add\n        /* \"contracts/Votacion.sol\":407:408  0 */\n      0x00\n        /* \"contracts/Votacion.sol\":387:409  OpcionVoto(_nombre, 0) */\n      dup2\n      mstore\n      pop\n        /* \"contracts/Votacion.sol\":369:410  opcionesvoto.push(OpcionVoto(_nombre, 0)) */\n      swap1\n      dup1\n      0x01\n      dup2\n      sload\n      add\n      dup1\n      dup3\n      sstore\n      dup1\n      swap2\n      pop\n      pop\n      0x01\n      swap1\n      sub\n      swap1\n      0x00\n      mstore\n      keccak256(0x00, 0x20)\n      swap1\n      0x02\n      mul\n      add\n      0x00\n      swap1\n      swap2\n      swap1\n      swap2\n      swap1\n      swap2\n      pop\n      0x00\n      dup3\n      add\n      mload\n      dup2\n      0x00\n      add\n      swap1\n      dup2\n      tag_79\n      swap2\n      swap1\n      tag_80\n      jump\t// in\n    tag_79:\n      pop\n      0x20\n      dup3\n      add\n      mload\n      dup2\n      0x01\n      add\n      sstore\n      pop\n      pop\n        /* \"contracts/Votacion.sol\":301:418  function agregarOpcionVoto(string memory _nombre) public {... */\n      pop\n      jump\t// out\n        /* \"#utility.yul\":7:82   */\n    tag_81:\n        /* \"#utility.yul\":40:46   */\n      0x00\n        /* \"#utility.yul\":73:75   */\n      0x40\n        /* \"#utility.yul\":67:76   */\n      mload\n        /* \"#utility.yul\":57:76   */\n      swap1\n      pop\n        /* \"#utility.yul\":7:82   */\n      swap1\n      jump\t// out\n        /* \"#utility.yul\":88:205   */\n    tag_82:\n        /* \"#utility.yul\":197:198   */\n      0x00\n        /* \"#utility.yul\":194:195   */\n      dup1\n        /* \"#utility.yul\":187:199   */\n      revert\n        /* \"#utility.yul\":211:328   */\n    tag_83:\n        /* \"#utility.yul\":320:321   */\n      0x00\n        /* \"#utility.yul\":317:318   */\n      dup1\n        /* \"#utility.yul\":310:322   */\n      revert\n        /* \"#utility.yul\":334:411   */\n    tag_84:\n        /* \"#utility.yul\":371:378   */\n      0x00\n        /* \"#utility.yul\":400:405   */\n      dup2\n        /* \"#utility.yul\":389:405   */\n      swap1\n      pop\n        /* \"#utility.yul\":334:411   */\n      swap2\n      swap1\n      pop\n      jump\t// out\n        /* \"#utility.yul\":417:539   */\n    tag_85:\n        /* \"#utility.yul\":490:514   */\n      tag_149\n        /* \"#utility.yul\":508:513   */\n      dup2\n        /* \"#utility.yul\":490:514   */\n      tag_84\n      jump\t// in\n    tag_149:\n        /* \"#utility.yul\":483:488   */\n      dup2\n        /* \"#utility.yul\":480:515   */\n      eq\n        /* \"#utility.yul\":470:533   */\n      tag_150\n      jumpi\n        /* \"#utility.yul\":529:530   */\n      0x00\n        /* \"#utility.yul\":526:527   */\n      dup1\n        /* \"#utility.yul\":519:531   */\n      revert\n        /* \"#utility.yul\":470:533   */\n    tag_150:\n        /* \"#utility.yul\":417:539   */\n      pop\n      jump\t// out\n        /* \"#utility.yul\":545:684   */\n    tag_86:\n        /* \"#utility.yul\":591:596   */\n      0x00\n        /* \"#utility.yul\":629:635   */\n      dup2\n        /* \"#utility.yul\":616:636   */\n      calldataload\n        /* \"#utility.yul\":607:636   */\n      swap1\n      pop\n        /* \"#utility.yul\":645:678   */\n      tag_152\n        /* \"#utility.yul\":672:677   */\n      dup2\n        /* \"#utility.yul\":645:678   */\n      tag_85\n      jump\t// in\n    tag_152:\n        /* \"#utility.yul\":545:684   */\n      swap3\n      swap2\n      pop\n      pop\n      jump\t// out\n        /* \"#utility.yul\":690:1019   */\n    tag_10:\n        /* \"#utility.yul\":749:755   */\n      0x00\n        /* \"#utility.yul\":798:800   */\n      0x20\n        /* \"#utility.yul\":786:795   */\n      dup3\n        /* \"#utility.yul\":777:784   */\n      dup5\n        /* \"#utility.yul\":773:796   */\n      sub\n        /* \"#utility.yul\":769:801   */\n      slt\n        /* \"#utility.yul\":766:885   */\n      iszero\n      tag_154\n      jumpi\n        /* \"#utility.yul\":804:883   */\n      tag_155\n      tag_82\n      jump\t// in\n    tag_155:\n        /* \"#utility.yul\":766:885   */\n    tag_154:\n        /* \"#utility.yul\":924:925   */\n      0x00\n        /* \"#utility.yul\":949:1002   */\n      tag_156\n        /* \"#utility.yul\":994:1001   */\n      dup5\n        /* \"#utility.yul\":985:991   */\n      dup3\n        /* \"#utility.yul\":974:983   */\n      dup6\n        /* \"#utility.yul\":970:992   */\n      add\n        /* \"#utility.yul\":949:1002   */\n      tag_86\n      jump\t// in\n    tag_156:\n        /* \"#utility.yul\":939:1002   */\n      swap2\n      pop\n        /* \"#utility.yul\":895:1012   */\n      pop\n        /* \"#utility.yul\":690:1019   */\n      swap3\n      swap2\n      pop\n      pop\n      jump\t// out\n        /* \"#utility.yul\":1025:1151   */\n    tag_87:\n        /* \"#utility.yul\":1062:1069   */\n      0x00\n        /* \"#utility.yul\":1102:1144   */\n      0xffffffffffffffffffffffffffffffffffffffff\n        /* \"#utility.yul\":1095:1100   */\n      dup3\n        /* \"#utility.yul\":1091:1145   */\n      and\n        /* \"#utility.yul\":1080:1145   */\n      swap1\n      pop\n        /* \"#utility.yul\":1025:1151   */\n      swap2\n      swap1\n      pop\n      jump\t// out\n        /* \"#utility.yul\":1157:1253   */\n    tag_88:\n        /* \"#utility.yul\":1194:1201   */\n      0x00\n        /* \"#utility.yul\":1223:1247   */\n      tag_159\n        /* \"#utility.yul\":1241:1246   */\n      dup3\n        /* \"#utility.yul\":1223:1247   */\n      tag_87\n      jump\t// in\n    tag_159:\n        /* \"#utility.yul\":1212:1247   */\n      swap1\n      pop\n        /* \"#utility.yul\":1157:1253   */\n      swap2\n      swap1\n      pop\n      jump\t// out\n        /* \"#utility.yul\":1259:1381   */\n    tag_89:\n        /* \"#utility.yul\":1332:1356   */\n      tag_161\n        /* \"#utility.yul\":1350:1355   */\n      dup2\n        /* \"#utility.yul\":1332:1356   */\n      tag_88\n      jump\t// in\n    tag_161:\n        /* \"#utility.yul\":1325:1330   */\n      dup2\n        /* \"#utility.yul\":1322:1357   */\n      eq\n        /* \"#utility.yul\":1312:1375   */\n      tag_162\n      jumpi\n        /* \"#utility.yul\":1371:1372   */\n      0x00\n        /* \"#utility.yul\":1368:1369   */\n      dup1\n        /* \"#utility.yul\":1361:1373   */\n      revert\n        /* \"#utility.yul\":1312:1375   */\n    tag_162:\n        /* \"#utility.yul\":1259:1381   */\n      pop\n      jump\t// out\n        /* \"#utility.yul\":1387:1526   */\n    tag_90:\n        /* \"#utility.yul\":1433:1438   */\n      0x00\n        /* \"#utility.yul\":1471:1477   */\n      dup2\n        /* \"#utility.yul\":1458:1478   */\n      calldataload\n        /* \"#utility.yul\":1449:1478   */\n      swap1\n      pop\n        /* \"#utility.yul\":1487:1520   */\n      tag_164\n        /* \"#utility.yul\":1514:1519   */\n      dup2\n        /* \"#utility.yul\":1487:1520   */\n      tag_89\n      jump\t// in\n    tag_164:\n        /* \"#utility.yul\":1387:1526   */\n      swap3\n      swap2\n      pop\n      pop\n      jump\t// out\n        /* \"#utility.yul\":1532:1861   */\n    tag_14:\n        /* \"#utility.yul\":1591:1597   */\n      0x00\n        /* \"#utility.yul\":1640:1642   */\n      0x20\n        /* \"#utility.yul\":1628:1637   */\n      dup3\n        /* \"#utility.yul\":1619:1626   */\n      dup5\n        /* \"#utility.yul\":1615:1638   */\n      sub\n        /* \"#utility.yul\":1611:1643   */\n      slt\n        /* \"#utility.yul\":1608:1727   */\n      iszero\n      tag_166\n      jumpi\n        /* \"#utility.yul\":1646:1725   */\n      tag_167\n      tag_82\n      jump\t// in\n    tag_167:\n        /* \"#utility.yul\":1608:1727   */\n    tag_166:\n        /* \"#utility.yul\":1766:1767   */\n      0x00\n        /* \"#utility.yul\":1791:1844   */\n      tag_168\n        /* \"#utility.yul\":1836:1843   */\n      dup5\n        /* \"#utility.yul\":1827:1833   */\n      dup3\n        /* \"#utility.yul\":1816:1825   */\n      dup6\n        /* \"#utility.yul\":1812:1834   */\n      add\n        /* \"#utility.yul\":1791:1844   */\n      tag_90\n      jump\t// in\n    tag_168:\n        /* \"#utility.yul\":1781:1844   */\n      swap2\n      pop\n        /* \"#utility.yul\":1737:1854   */\n      pop\n        /* \"#utility.yul\":1532:1861   */\n      swap3\n      swap2\n      pop\n      pop\n      jump\t// out\n        /* \"#utility.yul\":1867:1957   */\n    tag_91:\n        /* \"#utility.yul\":1901:1908   */\n      0x00\n        /* \"#utility.yul\":1944:1949   */\n      dup2\n        /* \"#utility.yul\":1937:1950   */\n      iszero\n        /* \"#utility.yul\":1930:1951   */\n      iszero\n        /* \"#utility.yul\":1919:1951   */\n      swap1\n      pop\n        /* \"#utility.yul\":1867:1957   */\n      swap2\n      swap1\n      pop\n      jump\t// out\n        /* \"#utility.yul\":1963:2072   */\n    tag_92:\n        /* \"#utility.yul\":2044:2065   */\n      tag_171\n        /* \"#utility.yul\":2059:2064   */\n      dup2\n        /* \"#utility.yul\":2044:2065   */\n      tag_91\n      jump\t// in\n    tag_171:\n        /* \"#utility.yul\":2039:2042   */\n      dup3\n        /* \"#utility.yul\":2032:2066   */\n      mstore\n        /* \"#utility.yul\":1963:2072   */\n      pop\n      pop\n      jump\t// out\n        /* \"#utility.yul\":2078:2288   */\n    tag_17:\n        /* \"#utility.yul\":2165:2169   */\n      0x00\n        /* \"#utility.yul\":2203:2205   */\n      0x20\n        /* \"#utility.yul\":2192:2201   */\n      dup3\n        /* \"#utility.yul\":2188:2206   */\n      add\n        /* \"#utility.yul\":2180:2206   */\n      swap1\n      pop\n        /* \"#utility.yul\":2216:2281   */\n      tag_173\n        /* \"#utility.yul\":2278:2279   */\n      0x00\n        /* \"#utility.yul\":2267:2276   */\n      dup4\n        /* \"#utility.yul\":2263:2280   */\n      add\n        /* \"#utility.yul\":2254:2260   */\n      dup5\n        /* \"#utility.yul\":2216:2281   */\n      tag_92\n      jump\t// in\n    tag_173:\n        /* \"#utility.yul\":2078:2288   */\n      swap3\n      swap2\n      pop\n      pop\n      jump\t// out\n        /* \"#utility.yul\":2294:2393   */\n    tag_93:\n        /* \"#utility.yul\":2346:2352   */\n      0x00\n        /* \"#utility.yul\":2380:2385   */\n      dup2\n        /* \"#utility.yul\":2374:2386   */\n      mload\n        /* \"#utility.yul\":2364:2386   */\n      swap1\n      pop\n        /* \"#utility.yul\":2294:2393   */\n      swap2\n      swap1\n      pop\n      jump\t// out\n        /* \"#utility.yul\":2399:2568   */\n    tag_94:\n        /* \"#utility.yul\":2483:2494   */\n      0x00\n        /* \"#utility.yul\":2517:2523   */\n      dup3\n        /* \"#utility.yul\":2512:2515   */\n      dup3\n        /* \"#utility.yul\":2505:2524   */\n      mstore\n        /* \"#utility.yul\":2557:2561   */\n      0x20\n        /* \"#utility.yul\":2552:2555   */\n      dup3\n        /* \"#utility.yul\":2548:2562   */\n      add\n        /* \"#utility.yul\":2533:2562   */\n      swap1\n      pop\n        /* \"#utility.yul\":2399:2568   */\n      swap3\n      swap2\n      pop\n      pop\n      jump\t// out\n        /* \"#utility.yul\":2574:2820   */\n    tag_95:\n        /* \"#utility.yul\":2655:2656   */\n      0x00\n        /* \"#utility.yul\":2665:2778   */\n    tag_177:\n        /* \"#utility.yul\":2679:2685   */\n      dup4\n        /* \"#utility.yul\":2676:2677   */\n      dup2\n        /* \"#utility.yul\":2673:2686   */\n      lt\n        /* \"#utility.yul\":2665:2778   */\n      iszero\n      tag_179\n      jumpi\n        /* \"#utility.yul\":2764:2765   */\n      dup1\n        /* \"#utility.yul\":2759:2762   */\n      dup3\n        /* \"#utility.yul\":2755:2766   */\n      add\n        /* \"#utility.yul\":2749:2767   */\n      mload\n        /* \"#utility.yul\":2745:2746   */\n      dup2\n        /* \"#utility.yul\":2740:2743   */\n      dup5\n        /* \"#utility.yul\":2736:2747   */\n      add\n        /* \"#utility.yul\":2729:2768   */\n      mstore\n        /* \"#utility.yul\":2701:2703   */\n      0x20\n        /* \"#utility.yul\":2698:2699   */\n      dup2\n        /* \"#utility.yul\":2694:2704   */\n      add\n        /* \"#utility.yul\":2689:2704   */\n      swap1\n      pop\n        /* \"#utility.yul\":2665:2778   */\n      jump(tag_177)\n    tag_179:\n        /* \"#utility.yul\":2812:2813   */\n      0x00\n        /* \"#utility.yul\":2803:2809   */\n      dup5\n        /* \"#utility.yul\":2798:2801   */\n      dup5\n        /* \"#utility.yul\":2794:2810   */\n      add\n        /* \"#utility.yul\":2787:2814   */\n      mstore\n        /* \"#utility.yul\":2636:2820   */\n      pop\n        /* \"#utility.yul\":2574:2820   */\n      pop\n      pop\n      pop\n      jump\t// out\n        /* \"#utility.yul\":2826:2928   */\n    tag_96:\n        /* \"#utility.yul\":2867:2873   */\n      0x00\n        /* \"#utility.yul\":2918:2920   */\n      0x1f\n        /* \"#utility.yul\":2914:2921   */\n      not\n        /* \"#utility.yul\":2909:2911   */\n      0x1f\n        /* \"#utility.yul\":2902:2907   */\n      dup4\n        /* \"#utility.yul\":2898:2912   */\n      add\n        /* \"#utility.yul\":2894:2922   */\n      and\n        /* \"#utility.yul\":2884:2922   */\n      swap1\n      pop\n        /* \"#utility.yul\":2826:2928   */\n      swap2\n      swap1\n      pop\n      jump\t// out\n        /* \"#utility.yul\":2934:3311   */\n    tag_97:\n        /* \"#utility.yul\":3022:3025   */\n      0x00\n        /* \"#utility.yul\":3050:3089   */\n      tag_182\n        /* \"#utility.yul\":3083:3088   */\n      dup3\n        /* \"#utility.yul\":3050:3089   */\n      tag_93\n      jump\t// in\n    tag_182:\n        /* \"#utility.yul\":3105:3176   */\n      tag_183\n        /* \"#utility.yul\":3169:3175   */\n      dup2\n        /* \"#utility.yul\":3164:3167   */\n      dup6\n        /* \"#utility.yul\":3105:3176   */\n      tag_94\n      jump\t// in\n    tag_183:\n        /* \"#utility.yul\":3098:3176   */\n      swap4\n      pop\n        /* \"#utility.yul\":3185:3250   */\n      tag_184\n        /* \"#utility.yul\":3243:3249   */\n      dup2\n        /* \"#utility.yul\":3238:3241   */\n      dup6\n        /* \"#utility.yul\":3231:3235   */\n      0x20\n        /* \"#utility.yul\":3224:3229   */\n      dup7\n        /* \"#utility.yul\":3220:3236   */\n      add\n        /* \"#utility.yul\":3185:3250   */\n      tag_95\n      jump\t// in\n    tag_184:\n        /* \"#utility.yul\":3275:3304   */\n      tag_185\n        /* \"#utility.yul\":3297:3303   */\n      dup2\n        /* \"#utility.yul\":3275:3304   */\n      tag_96\n      jump\t// in\n    tag_185:\n        /* \"#utility.yul\":3270:3273   */\n      dup5\n        /* \"#utility.yul\":3266:3305   */\n      add\n        /* \"#utility.yul\":3259:3305   */\n      swap2\n      pop\n        /* \"#utility.yul\":3026:3311   */\n      pop\n        /* \"#utility.yul\":2934:3311   */\n      swap3\n      swap2\n      pop\n      pop\n      jump\t// out\n        /* \"#utility.yul\":3317:3435   */\n    tag_98:\n        /* \"#utility.yul\":3404:3428   */\n      tag_187\n        /* \"#utility.yul\":3422:3427   */\n      dup2\n        /* \"#utility.yul\":3404:3428   */\n      tag_84\n      jump\t// in\n    tag_187:\n        /* \"#utility.yul\":3399:3402   */\n      dup3\n        /* \"#utility.yul\":3392:3429   */\n      mstore\n        /* \"#utility.yul\":3317:3435   */\n      pop\n      pop\n      jump\t// out\n        /* \"#utility.yul\":3441:3864   */\n    tag_22:\n        /* \"#utility.yul\":3582:3586   */\n      0x00\n        /* \"#utility.yul\":3620:3622   */\n      0x40\n        /* \"#utility.yul\":3609:3618   */\n      dup3\n        /* \"#utility.yul\":3605:3623   */\n      add\n        /* \"#utility.yul\":3597:3623   */\n      swap1\n      pop\n        /* \"#utility.yul\":3669:3678   */\n      dup2\n        /* \"#utility.yul\":3663:3667   */\n      dup2\n        /* \"#utility.yul\":3659:3679   */\n      sub\n        /* \"#utility.yul\":3655:3656   */\n      0x00\n        /* \"#utility.yul\":3644:3653   */\n      dup4\n        /* \"#utility.yul\":3640:3657   */\n      add\n        /* \"#utility.yul\":3633:3680   */\n      mstore\n        /* \"#utility.yul\":3697:3775   */\n      tag_189\n        /* \"#utility.yul\":3770:3774   */\n      dup2\n        /* \"#utility.yul\":3761:3767   */\n      dup6\n        /* \"#utility.yul\":3697:3775   */\n      tag_97\n      jump\t// in\n    tag_189:\n        /* \"#utility.yul\":3689:3775   */\n      swap1\n      pop\n        /* \"#utility.yul\":3785:3857   */\n      tag_190\n        /* \"#utility.yul\":3853:3855   */\n      0x20\n        /* \"#utility.yul\":3842:3851   */\n      dup4\n        /* \"#utility.yul\":3838:3856   */\n      add\n        /* \"#utility.yul\":3829:3835   */\n      dup5\n        /* \"#utility.yul\":3785:3857   */\n      tag_98\n      jump\t// in\n    tag_190:\n        /* \"#utility.yul\":3441:3864   */\n      swap4\n      swap3\n      pop\n      pop\n      pop\n      jump\t// out\n        /* \"#utility.yul\":3870:3994   */\n    tag_99:\n        /* \"#utility.yul\":3947:3953   */\n      0x00\n        /* \"#utility.yul\":3981:3986   */\n      dup2\n        /* \"#utility.yul\":3975:3987   */\n      mload\n        /* \"#utility.yul\":3965:3987   */\n      swap1\n      pop\n        /* \"#utility.yul\":3870:3994   */\n      swap2\n      swap1\n      pop\n      jump\t// out\n        /* \"#utility.yul\":4000:4194   */\n    tag_100:\n        /* \"#utility.yul\":4109:4120   */\n      0x00\n        /* \"#utility.yul\":4143:4149   */\n      dup3\n        /* \"#utility.yul\":4138:4141   */\n      dup3\n        /* \"#utility.yul\":4131:4150   */\n      mstore\n        /* \"#utility.yul\":4183:4187   */\n      0x20\n        /* \"#utility.yul\":4178:4181   */\n      dup3\n        /* \"#utility.yul\":4174:4188   */\n      add\n        /* \"#utility.yul\":4159:4188   */\n      swap1\n      pop\n        /* \"#utility.yul\":4000:4194   */\n      swap3\n      swap2\n      pop\n      pop\n      jump\t// out\n        /* \"#utility.yul\":4200:4342   */\n    tag_101:\n        /* \"#utility.yul\":4277:4281   */\n      0x00\n        /* \"#utility.yul\":4300:4303   */\n      dup2\n        /* \"#utility.yul\":4292:4303   */\n      swap1\n      pop\n        /* \"#utility.yul\":4330:4334   */\n      0x20\n        /* \"#utility.yul\":4325:4328   */\n      dup3\n        /* \"#utility.yul\":4321:4335   */\n      add\n        /* \"#utility.yul\":4313:4335   */\n      swap1\n      pop\n        /* \"#utility.yul\":4200:4342   */\n      swap2\n      swap1\n      pop\n      jump\t// out\n        /* \"#utility.yul\":4348:4507   */\n    tag_102:\n        /* \"#utility.yul\":4422:4433   */\n      0x00\n        /* \"#utility.yul\":4456:4462   */\n      dup3\n        /* \"#utility.yul\":4451:4454   */\n      dup3\n        /* \"#utility.yul\":4444:4463   */\n      mstore\n        /* \"#utility.yul\":4496:4500   */\n      0x20\n        /* \"#utility.yul\":4491:4494   */\n      dup3\n        /* \"#utility.yul\":4487:4501   */\n      add\n        /* \"#utility.yul\":4472:4501   */\n      swap1\n      pop\n        /* \"#utility.yul\":4348:4507   */\n      swap3\n      swap2\n      pop\n      pop\n      jump\t// out\n        /* \"#utility.yul\":4513:4870   */\n    tag_103:\n        /* \"#utility.yul\":4591:4594   */\n      0x00\n        /* \"#utility.yul\":4619:4658   */\n      tag_196\n        /* \"#utility.yul\":4652:4657   */\n      dup3\n        /* \"#utility.yul\":4619:4658   */\n      tag_93\n      jump\t// in\n    tag_196:\n        /* \"#utility.yul\":4674:4735   */\n      tag_197\n        /* \"#utility.yul\":4728:4734   */\n      dup2\n        /* \"#utility.yul\":4723:4726   */\n      dup6\n        /* \"#utility.yul\":4674:4735   */\n      tag_102\n      jump\t// in\n    tag_197:\n        /* \"#utility.yul\":4667:4735   */\n      swap4\n      pop\n        /* \"#utility.yul\":4744:4809   */\n      tag_198\n        /* \"#utility.yul\":4802:4808   */\n      dup2\n        /* \"#utility.yul\":4797:4800   */\n      dup6\n        /* \"#utility.yul\":4790:4794   */\n      0x20\n        /* \"#utility.yul\":4783:4788   */\n      dup7\n        /* \"#utility.yul\":4779:4795   */\n      add\n        /* \"#utility.yul\":4744:4809   */\n      tag_95\n      jump\t// in\n    tag_198:\n        /* \"#utility.yul\":4834:4863   */\n      tag_199\n        /* \"#utility.yul\":4856:4862   */\n      dup2\n        /* \"#utility.yul\":4834:4863   */\n      tag_96\n      jump\t// in\n    tag_199:\n        /* \"#utility.yul\":4829:4832   */\n      dup5\n        /* \"#utility.yul\":4825:4864   */\n      add\n        /* \"#utility.yul\":4818:4864   */\n      swap2\n      pop\n        /* \"#utility.yul\":4595:4870   */\n      pop\n        /* \"#utility.yul\":4513:4870   */\n      swap3\n      swap2\n      pop\n      pop\n      jump\t// out\n        /* \"#utility.yul\":4876:5072   */\n    tag_104:\n        /* \"#utility.yul\":4965:4975   */\n      0x00\n        /* \"#utility.yul\":5000:5066   */\n      tag_201\n        /* \"#utility.yul\":5062:5065   */\n      dup4\n        /* \"#utility.yul\":5054:5060   */\n      dup4\n        /* \"#utility.yul\":5000:5066   */\n      tag_103\n      jump\t// in\n    tag_201:\n        /* \"#utility.yul\":4986:5066   */\n      swap1\n      pop\n        /* \"#utility.yul\":4876:5072   */\n      swap3\n      swap2\n      pop\n      pop\n      jump\t// out\n        /* \"#utility.yul\":5078:5201   */\n    tag_105:\n        /* \"#utility.yul\":5158:5162   */\n      0x00\n        /* \"#utility.yul\":5190:5194   */\n      0x20\n        /* \"#utility.yul\":5185:5188   */\n      dup3\n        /* \"#utility.yul\":5181:5195   */\n      add\n        /* \"#utility.yul\":5173:5195   */\n      swap1\n      pop\n        /* \"#utility.yul\":5078:5201   */\n      swap2\n      swap1\n      pop\n      jump\t// out\n        /* \"#utility.yul\":5235:6226   */\n    tag_106:\n        /* \"#utility.yul\":5374:5377   */\n      0x00\n        /* \"#utility.yul\":5403:5467   */\n      tag_204\n        /* \"#utility.yul\":5461:5466   */\n      dup3\n        /* \"#utility.yul\":5403:5467   */\n      tag_99\n      jump\t// in\n    tag_204:\n        /* \"#utility.yul\":5483:5579   */\n      tag_205\n        /* \"#utility.yul\":5572:5578   */\n      dup2\n        /* \"#utility.yul\":5567:5570   */\n      dup6\n        /* \"#utility.yul\":5483:5579   */\n      tag_100\n      jump\t// in\n    tag_205:\n        /* \"#utility.yul\":5476:5579   */\n      swap4\n      pop\n        /* \"#utility.yul\":5605:5608   */\n      dup4\n        /* \"#utility.yul\":5650:5654   */\n      0x20\n        /* \"#utility.yul\":5642:5648   */\n      dup3\n        /* \"#utility.yul\":5638:5655   */\n      mul\n        /* \"#utility.yul\":5633:5636   */\n      dup6\n        /* \"#utility.yul\":5629:5656   */\n      add\n        /* \"#utility.yul\":5680:5746   */\n      tag_206\n        /* \"#utility.yul\":5740:5745   */\n      dup6\n        /* \"#utility.yul\":5680:5746   */\n      tag_101\n      jump\t// in\n    tag_206:\n        /* \"#utility.yul\":5769:5776   */\n      dup1\n        /* \"#utility.yul\":5800:5801   */\n      0x00\n        /* \"#utility.yul\":5785:6181   */\n    tag_207:\n        /* \"#utility.yul\":5810:5816   */\n      dup6\n        /* \"#utility.yul\":5807:5808   */\n      dup2\n        /* \"#utility.yul\":5804:5817   */\n      lt\n        /* \"#utility.yul\":5785:6181   */\n      iszero\n      tag_209\n      jumpi\n        /* \"#utility.yul\":5881:5890   */\n      dup5\n        /* \"#utility.yul\":5875:5879   */\n      dup5\n        /* \"#utility.yul\":5871:5891   */\n      sub\n        /* \"#utility.yul\":5866:5869   */\n      dup10\n        /* \"#utility.yul\":5859:5892   */\n      mstore\n        /* \"#utility.yul\":5932:5938   */\n      dup2\n        /* \"#utility.yul\":5926:5939   */\n      mload\n        /* \"#utility.yul\":5960:6044   */\n      tag_210\n        /* \"#utility.yul\":6039:6043   */\n      dup6\n        /* \"#utility.yul\":6024:6037   */\n      dup3\n        /* \"#utility.yul\":5960:6044   */\n      tag_104\n      jump\t// in\n    tag_210:\n        /* \"#utility.yul\":5952:6044   */\n      swap5\n      pop\n        /* \"#utility.yul\":6067:6137   */\n      tag_211\n        /* \"#utility.yul\":6130:6136   */\n      dup4\n        /* \"#utility.yul\":6067:6137   */\n      tag_105\n      jump\t// in\n    tag_211:\n        /* \"#utility.yul\":6057:6137   */\n      swap3\n      pop\n        /* \"#utility.yul\":6166:6170   */\n      0x20\n        /* \"#utility.yul\":6161:6164   */\n      dup11\n        /* \"#utility.yul\":6157:6171   */\n      add\n        /* \"#utility.yul\":6150:6171   */\n      swap10\n      pop\n        /* \"#utility.yul\":5845:6181   */\n      pop\n        /* \"#utility.yul\":5832:5833   */\n      0x01\n        /* \"#utility.yul\":5829:5830   */\n      dup2\n        /* \"#utility.yul\":5825:5834   */\n      add\n        /* \"#utility.yul\":5820:5834   */\n      swap1\n      pop\n        /* \"#utility.yul\":5785:6181   */\n      jump(tag_207)\n    tag_209:\n        /* \"#utility.yul\":5789:5803   */\n      pop\n        /* \"#utility.yul\":6197:6201   */\n      dup3\n        /* \"#utility.yul\":6190:6201   */\n      swap8\n      pop\n        /* \"#utility.yul\":6217:6220   */\n      dup8\n        /* \"#utility.yul\":6210:6220   */\n      swap6\n      pop\n        /* \"#utility.yul\":5379:6226   */\n      pop\n      pop\n      pop\n      pop\n      pop\n        /* \"#utility.yul\":5235:6226   */\n      swap3\n      swap2\n      pop\n      pop\n      jump\t// out\n        /* \"#utility.yul\":6232:6346   */\n    tag_107:\n        /* \"#utility.yul\":6299:6305   */\n      0x00\n        /* \"#utility.yul\":6333:6338   */\n      dup2\n        /* \"#utility.yul\":6327:6339   */\n      mload\n        /* \"#utility.yul\":6317:6339   */\n      swap1\n      pop\n        /* \"#utility.yul\":6232:6346   */\n      swap2\n      swap1\n      pop\n      jump\t// out\n        /* \"#utility.yul\":6352:6536   */\n    tag_108:\n        /* \"#utility.yul\":6451:6462   */\n      0x00\n        /* \"#utility.yul\":6485:6491   */\n      dup3\n        /* \"#utility.yul\":6480:6483   */\n      dup3\n        /* \"#utility.yul\":6473:6492   */\n      mstore\n        /* \"#utility.yul\":6525:6529   */\n      0x20\n        /* \"#utility.yul\":6520:6523   */\n      dup3\n        /* \"#utility.yul\":6516:6530   */\n      add\n        /* \"#utility.yul\":6501:6530   */\n      swap1\n      pop\n        /* \"#utility.yul\":6352:6536   */\n      swap3\n      swap2\n      pop\n      pop\n      jump\t// out\n        /* \"#utility.yul\":6542:6674   */\n    tag_109:\n        /* \"#utility.yul\":6609:6613   */\n      0x00\n        /* \"#utility.yul\":6632:6635   */\n      dup2\n        /* \"#utility.yul\":6624:6635   */\n      swap1\n      pop\n        /* \"#utility.yul\":6662:6666   */\n      0x20\n        /* \"#utility.yul\":6657:6660   */\n      dup3\n        /* \"#utility.yul\":6653:6667   */\n      add\n        /* \"#utility.yul\":6645:6667   */\n      swap1\n      pop\n        /* \"#utility.yul\":6542:6674   */\n      swap2\n      swap1\n      pop\n      jump\t// out\n        /* \"#utility.yul\":6680:6788   */\n    tag_110:\n        /* \"#utility.yul\":6757:6781   */\n      tag_216\n        /* \"#utility.yul\":6775:6780   */\n      dup2\n        /* \"#utility.yul\":6757:6781   */\n      tag_84\n      jump\t// in\n    tag_216:\n        /* \"#utility.yul\":6752:6755   */\n      dup3\n        /* \"#utility.yul\":6745:6782   */\n      mstore\n        /* \"#utility.yul\":6680:6788   */\n      pop\n      pop\n      jump\t// out\n        /* \"#utility.yul\":6794:6973   */\n    tag_111:\n        /* \"#utility.yul\":6863:6873   */\n      0x00\n        /* \"#utility.yul\":6884:6930   */\n      tag_218\n        /* \"#utility.yul\":6926:6929   */\n      dup4\n        /* \"#utility.yul\":6918:6924   */\n      dup4\n        /* \"#utility.yul\":6884:6930   */\n      tag_110\n      jump\t// in\n    tag_218:\n        /* \"#utility.yul\":6962:6966   */\n      0x20\n        /* \"#utility.yul\":6957:6960   */\n      dup4\n        /* \"#utility.yul\":6953:6967   */\n      add\n        /* \"#utility.yul\":6939:6967   */\n      swap1\n      pop\n        /* \"#utility.yul\":6794:6973   */\n      swap3\n      swap2\n      pop\n      pop\n      jump\t// out\n        /* \"#utility.yul\":6979:7092   */\n    tag_112:\n        /* \"#utility.yul\":7049:7053   */\n      0x00\n        /* \"#utility.yul\":7081:7085   */\n      0x20\n        /* \"#utility.yul\":7076:7079   */\n      dup3\n        /* \"#utility.yul\":7072:7086   */\n      add\n        /* \"#utility.yul\":7064:7086   */\n      swap1\n      pop\n        /* \"#utility.yul\":6979:7092   */\n      swap2\n      swap1\n      pop\n      jump\t// out\n        /* \"#utility.yul\":7128:7860   */\n    tag_113:\n        /* \"#utility.yul\":7247:7250   */\n      0x00\n        /* \"#utility.yul\":7276:7330   */\n      tag_221\n        /* \"#utility.yul\":7324:7329   */\n      dup3\n        /* \"#utility.yul\":7276:7330   */\n      tag_107\n      jump\t// in\n    tag_221:\n        /* \"#utility.yul\":7346:7432   */\n      tag_222\n        /* \"#utility.yul\":7425:7431   */\n      dup2\n        /* \"#utility.yul\":7420:7423   */\n      dup6\n        /* \"#utility.yul\":7346:7432   */\n      tag_108\n      jump\t// in\n    tag_222:\n        /* \"#utility.yul\":7339:7432   */\n      swap4\n      pop\n        /* \"#utility.yul\":7456:7512   */\n      tag_223\n        /* \"#utility.yul\":7506:7511   */\n      dup4\n        /* \"#utility.yul\":7456:7512   */\n      tag_109\n      jump\t// in\n    tag_223:\n        /* \"#utility.yul\":7535:7542   */\n      dup1\n        /* \"#utility.yul\":7566:7567   */\n      0x00\n        /* \"#utility.yul\":7551:7835   */\n    tag_224:\n        /* \"#utility.yul\":7576:7582   */\n      dup4\n        /* \"#utility.yul\":7573:7574   */\n      dup2\n        /* \"#utility.yul\":7570:7583   */\n      lt\n        /* \"#utility.yul\":7551:7835   */\n      iszero\n      tag_226\n      jumpi\n        /* \"#utility.yul\":7652:7658   */\n      dup2\n        /* \"#utility.yul\":7646:7659   */\n      mload\n        /* \"#utility.yul\":7679:7742   */\n      tag_227\n        /* \"#utility.yul\":7738:7741   */\n      dup9\n        /* \"#utility.yul\":7723:7736   */\n      dup3\n        /* \"#utility.yul\":7679:7742   */\n      tag_111\n      jump\t// in\n    tag_227:\n        /* \"#utility.yul\":7672:7742   */\n      swap8\n      pop\n        /* \"#utility.yul\":7765:7825   */\n      tag_228\n        /* \"#utility.yul\":7818:7824   */\n      dup4\n        /* \"#utility.yul\":7765:7825   */\n      tag_112\n      jump\t// in\n    tag_228:\n        /* \"#utility.yul\":7755:7825   */\n      swap3\n      pop\n        /* \"#utility.yul\":7611:7835   */\n      pop\n        /* \"#utility.yul\":7598:7599   */\n      0x01\n        /* \"#utility.yul\":7595:7596   */\n      dup2\n        /* \"#utility.yul\":7591:7600   */\n      add\n        /* \"#utility.yul\":7586:7600   */\n      swap1\n      pop\n        /* \"#utility.yul\":7551:7835   */\n      jump(tag_224)\n    tag_226:\n        /* \"#utility.yul\":7555:7569   */\n      pop\n        /* \"#utility.yul\":7851:7854   */\n      dup6\n        /* \"#utility.yul\":7844:7854   */\n      swap4\n      pop\n        /* \"#utility.yul\":7252:7860   */\n      pop\n      pop\n      pop\n        /* \"#utility.yul\":7128:7860   */\n      swap3\n      swap2\n      pop\n      pop\n      jump\t// out\n        /* \"#utility.yul\":7866:8540   */\n    tag_26:\n        /* \"#utility.yul\":8107:8111   */\n      0x00\n        /* \"#utility.yul\":8145:8147   */\n      0x40\n        /* \"#utility.yul\":8134:8143   */\n      dup3\n        /* \"#utility.yul\":8130:8148   */\n      add\n        /* \"#utility.yul\":8122:8148   */\n      swap1\n      pop\n        /* \"#utility.yul\":8194:8203   */\n      dup2\n        /* \"#utility.yul\":8188:8192   */\n      dup2\n        /* \"#utility.yul\":8184:8204   */\n      sub\n        /* \"#utility.yul\":8180:8181   */\n      0x00\n        /* \"#utility.yul\":8169:8178   */\n      dup4\n        /* \"#utility.yul\":8165:8182   */\n      add\n        /* \"#utility.yul\":8158:8205   */\n      mstore\n        /* \"#utility.yul\":8222:8350   */\n      tag_230\n        /* \"#utility.yul\":8345:8349   */\n      dup2\n        /* \"#utility.yul\":8336:8342   */\n      dup6\n        /* \"#utility.yul\":8222:8350   */\n      tag_106\n      jump\t// in\n    tag_230:\n        /* \"#utility.yul\":8214:8350   */\n      swap1\n      pop\n        /* \"#utility.yul\":8397:8406   */\n      dup2\n        /* \"#utility.yul\":8391:8395   */\n      dup2\n        /* \"#utility.yul\":8387:8407   */\n      sub\n        /* \"#utility.yul\":8382:8384   */\n      0x20\n        /* \"#utility.yul\":8371:8380   */\n      dup4\n        /* \"#utility.yul\":8367:8385   */\n      add\n        /* \"#utility.yul\":8360:8408   */\n      mstore\n        /* \"#utility.yul\":8425:8533   */\n      tag_231\n        /* \"#utility.yul\":8528:8532   */\n      dup2\n        /* \"#utility.yul\":8519:8525   */\n      dup5\n        /* \"#utility.yul\":8425:8533   */\n      tag_113\n      jump\t// in\n    tag_231:\n        /* \"#utility.yul\":8417:8533   */\n      swap1\n      pop\n        /* \"#utility.yul\":7866:8540   */\n      swap4\n      swap3\n      pop\n      pop\n      pop\n      jump\t// out\n        /* \"#utility.yul\":8546:8663   */\n    tag_114:\n        /* \"#utility.yul\":8655:8656   */\n      0x00\n        /* \"#utility.yul\":8652:8653   */\n      dup1\n        /* \"#utility.yul\":8645:8657   */\n      revert\n        /* \"#utility.yul\":8669:8786   */\n    tag_115:\n        /* \"#utility.yul\":8778:8779   */\n      0x00\n        /* \"#utility.yul\":8775:8776   */\n      dup1\n        /* \"#utility.yul\":8768:8780   */\n      revert\n        /* \"#utility.yul\":8792:8972   */\n    tag_55:\n        /* \"#utility.yul\":8840:8917   */\n      0x4e487b7100000000000000000000000000000000000000000000000000000000\n        /* \"#utility.yul\":8837:8838   */\n      0x00\n        /* \"#utility.yul\":8830:8918   */\n      mstore\n        /* \"#utility.yul\":8937:8941   */\n      0x41\n        /* \"#utility.yul\":8934:8935   */\n      0x04\n        /* \"#utility.yul\":8927:8942   */\n      mstore\n        /* \"#utility.yul\":8961:8965   */\n      0x24\n        /* \"#utility.yul\":8958:8959   */\n      0x00\n        /* \"#utility.yul\":8951:8966   */\n      revert\n        /* \"#utility.yul\":8978:9259   */\n    tag_116:\n        /* \"#utility.yul\":9061:9088   */\n      tag_236\n        /* \"#utility.yul\":9083:9087   */\n      dup3\n        /* \"#utility.yul\":9061:9088   */\n      tag_96\n      jump\t// in\n    tag_236:\n        /* \"#utility.yul\":9053:9059   */\n      dup2\n        /* \"#utility.yul\":9049:9089   */\n      add\n        /* \"#utility.yul\":9191:9197   */\n      dup2\n        /* \"#utility.yul\":9179:9189   */\n      dup2\n        /* \"#utility.yul\":9176:9198   */\n      lt\n        /* \"#utility.yul\":9155:9173   */\n      0xffffffffffffffff\n        /* \"#utility.yul\":9143:9153   */\n      dup3\n        /* \"#utility.yul\":9140:9174   */\n      gt\n        /* \"#utility.yul\":9137:9199   */\n      or\n        /* \"#utility.yul\":9134:9222   */\n      iszero\n      tag_237\n      jumpi\n        /* \"#utility.yul\":9202:9220   */\n      tag_238\n      tag_55\n      jump\t// in\n    tag_238:\n        /* \"#utility.yul\":9134:9222   */\n    tag_237:\n        /* \"#utility.yul\":9242:9252   */\n      dup1\n        /* \"#utility.yul\":9238:9240   */\n      0x40\n        /* \"#utility.yul\":9231:9253   */\n      mstore\n        /* \"#utility.yul\":9021:9259   */\n      pop\n        /* \"#utility.yul\":8978:9259   */\n      pop\n      pop\n      jump\t// out\n        /* \"#utility.yul\":9265:9394   */\n    tag_117:\n        /* \"#utility.yul\":9299:9305   */\n      0x00\n        /* \"#utility.yul\":9326:9346   */\n      tag_240\n      tag_81\n      jump\t// in\n    tag_240:\n        /* \"#utility.yul\":9316:9346   */\n      swap1\n      pop\n        /* \"#utility.yul\":9355:9388   */\n      tag_241\n        /* \"#utility.yul\":9383:9387   */\n      dup3\n        /* \"#utility.yul\":9375:9381   */\n      dup3\n        /* \"#utility.yul\":9355:9388   */\n      tag_116\n      jump\t// in\n    tag_241:\n        /* \"#utility.yul\":9265:9394   */\n      swap2\n      swap1\n      pop\n      jump\t// out\n        /* \"#utility.yul\":9400:9708   */\n    tag_118:\n        /* \"#utility.yul\":9462:9466   */\n      0x00\n        /* \"#utility.yul\":9552:9570   */\n      0xffffffffffffffff\n        /* \"#utility.yul\":9544:9550   */\n      dup3\n        /* \"#utility.yul\":9541:9571   */\n      gt\n        /* \"#utility.yul\":9538:9594   */\n      iszero\n      tag_243\n      jumpi\n        /* \"#utility.yul\":9574:9592   */\n      tag_244\n      tag_55\n      jump\t// in\n    tag_244:\n        /* \"#utility.yul\":9538:9594   */\n    tag_243:\n        /* \"#utility.yul\":9612:9641   */\n      tag_245\n        /* \"#utility.yul\":9634:9640   */\n      dup3\n        /* \"#utility.yul\":9612:9641   */\n      tag_96\n      jump\t// in\n    tag_245:\n        /* \"#utility.yul\":9604:9641   */\n      swap1\n      pop\n        /* \"#utility.yul\":9696:9700   */\n      0x20\n        /* \"#utility.yul\":9690:9694   */\n      dup2\n        /* \"#utility.yul\":9686:9701   */\n      add\n        /* \"#utility.yul\":9678:9701   */\n      swap1\n      pop\n        /* \"#utility.yul\":9400:9708   */\n      swap2\n      swap1\n      pop\n      jump\t// out\n        /* \"#utility.yul\":9714:9860   */\n    tag_119:\n        /* \"#utility.yul\":9811:9817   */\n      dup3\n        /* \"#utility.yul\":9806:9809   */\n      dup2\n        /* \"#utility.yul\":9801:9804   */\n      dup4\n        /* \"#utility.yul\":9788:9818   */\n      calldatacopy\n        /* \"#utility.yul\":9852:9853   */\n      0x00\n        /* \"#utility.yul\":9843:9849   */\n      dup4\n        /* \"#utility.yul\":9838:9841   */\n      dup4\n        /* \"#utility.yul\":9834:9850   */\n      add\n        /* \"#utility.yul\":9827:9854   */\n      mstore\n        /* \"#utility.yul\":9714:9860   */\n      pop\n      pop\n      pop\n      jump\t// out\n        /* \"#utility.yul\":9866:10291   */\n    tag_120:\n        /* \"#utility.yul\":9944:9949   */\n      0x00\n        /* \"#utility.yul\":9969:10035   */\n      tag_248\n        /* \"#utility.yul\":9985:10034   */\n      tag_249\n        /* \"#utility.yul\":10027:10033   */\n      dup5\n        /* \"#utility.yul\":9985:10034   */\n      tag_118\n      jump\t// in\n    tag_249:\n        /* \"#utility.yul\":9969:10035   */\n      tag_117\n      jump\t// in\n    tag_248:\n        /* \"#utility.yul\":9960:10035   */\n      swap1\n      pop\n        /* \"#utility.yul\":10058:10064   */\n      dup3\n        /* \"#utility.yul\":10051:10056   */\n      dup2\n        /* \"#utility.yul\":10044:10065   */\n      mstore\n        /* \"#utility.yul\":10096:10100   */\n      0x20\n        /* \"#utility.yul\":10089:10094   */\n      dup2\n        /* \"#utility.yul\":10085:10101   */\n      add\n        /* \"#utility.yul\":10134:10137   */\n      dup5\n        /* \"#utility.yul\":10125:10131   */\n      dup5\n        /* \"#utility.yul\":10120:10123   */\n      dup5\n        /* \"#utility.yul\":10116:10132   */\n      add\n        /* \"#utility.yul\":10113:10138   */\n      gt\n        /* \"#utility.yul\":10110:10222   */\n      iszero\n      tag_250\n      jumpi\n        /* \"#utility.yul\":10141:10220   */\n      tag_251\n      tag_115\n      jump\t// in\n    tag_251:\n        /* \"#utility.yul\":10110:10222   */\n    tag_250:\n        /* \"#utility.yul\":10231:10285   */\n      tag_252\n        /* \"#utility.yul\":10278:10284   */\n      dup5\n        /* \"#utility.yul\":10273:10276   */\n      dup3\n        /* \"#utility.yul\":10268:10271   */\n      dup6\n        /* \"#utility.yul\":10231:10285   */\n      tag_119\n      jump\t// in\n    tag_252:\n        /* \"#utility.yul\":9950:10291   */\n      pop\n        /* \"#utility.yul\":9866:10291   */\n      swap4\n      swap3\n      pop\n      pop\n      pop\n      jump\t// out\n        /* \"#utility.yul\":10311:10651   */\n    tag_121:\n        /* \"#utility.yul\":10367:10372   */\n      0x00\n        /* \"#utility.yul\":10416:10419   */\n      dup3\n        /* \"#utility.yul\":10409:10413   */\n      0x1f\n        /* \"#utility.yul\":10401:10407   */\n      dup4\n        /* \"#utility.yul\":10397:10414   */\n      add\n        /* \"#utility.yul\":10393:10420   */\n      slt\n        /* \"#utility.yul\":10383:10505   */\n      tag_254\n      jumpi\n        /* \"#utility.yul\":10424:10503   */\n      tag_255\n      tag_114\n      jump\t// in\n    tag_255:\n        /* \"#utility.yul\":10383:10505   */\n    tag_254:\n        /* \"#utility.yul\":10541:10547   */\n      dup2\n        /* \"#utility.yul\":10528:10548   */\n      calldataload\n        /* \"#utility.yul\":10566:10645   */\n      tag_256\n        /* \"#utility.yul\":10641:10644   */\n      dup5\n        /* \"#utility.yul\":10633:10639   */\n      dup3\n        /* \"#utility.yul\":10626:10630   */\n      0x20\n        /* \"#utility.yul\":10618:10624   */\n      dup7\n        /* \"#utility.yul\":10614:10631   */\n      add\n        /* \"#utility.yul\":10566:10645   */\n      tag_120\n      jump\t// in\n    tag_256:\n        /* \"#utility.yul\":10557:10645   */\n      swap2\n      pop\n        /* \"#utility.yul\":10373:10651   */\n      pop\n        /* \"#utility.yul\":10311:10651   */\n      swap3\n      swap2\n      pop\n      pop\n      jump\t// out\n        /* \"#utility.yul\":10657:11166   */\n    tag_29:\n        /* \"#utility.yul\":10726:10732   */\n      0x00\n        /* \"#utility.yul\":10775:10777   */\n      0x20\n        /* \"#utility.yul\":10763:10772   */\n      dup3\n        /* \"#utility.yul\":10754:10761   */\n      dup5\n        /* \"#utility.yul\":10750:10773   */\n      sub\n        /* \"#utility.yul\":10746:10778   */\n      slt\n        /* \"#utility.yul\":10743:10862   */\n      iszero\n      tag_258\n      jumpi\n        /* \"#utility.yul\":10781:10860   */\n      tag_259\n      tag_82\n      jump\t// in\n    tag_259:\n        /* \"#utility.yul\":10743:10862   */\n    tag_258:\n        /* \"#utility.yul\":10929:10930   */\n      0x00\n        /* \"#utility.yul\":10918:10927   */\n      dup3\n        /* \"#utility.yul\":10914:10931   */\n      add\n        /* \"#utility.yul\":10901:10932   */\n      calldataload\n        /* \"#utility.yul\":10959:10977   */\n      0xffffffffffffffff\n        /* \"#utility.yul\":10951:10957   */\n      dup2\n        /* \"#utility.yul\":10948:10978   */\n      gt\n        /* \"#utility.yul\":10945:11062   */\n      iszero\n      tag_260\n      jumpi\n        /* \"#utility.yul\":10981:11060   */\n      tag_261\n      tag_83\n      jump\t// in\n    tag_261:\n        /* \"#utility.yul\":10945:11062   */\n    tag_260:\n        /* \"#utility.yul\":11086:11149   */\n      tag_262\n        /* \"#utility.yul\":11141:11148   */\n      dup5\n        /* \"#utility.yul\":11132:11138   */\n      dup3\n        /* \"#utility.yul\":11121:11130   */\n      dup6\n        /* \"#utility.yul\":11117:11139   */\n      add\n        /* \"#utility.yul\":11086:11149   */\n      tag_121\n      jump\t// in\n    tag_262:\n        /* \"#utility.yul\":11076:11149   */\n      swap2\n      pop\n        /* \"#utility.yul\":10872:11159   */\n      pop\n        /* \"#utility.yul\":10657:11166   */\n      swap3\n      swap2\n      pop\n      pop\n      jump\t// out\n        /* \"#utility.yul\":11172:11392   */\n    tag_122:\n        /* \"#utility.yul\":11312:11346   */\n      0x496e64696365206465206f7063696f6e20646520766f746f20696e76616c6964\n        /* \"#utility.yul\":11308:11309   */\n      0x00\n        /* \"#utility.yul\":11300:11306   */\n      dup3\n        /* \"#utility.yul\":11296:11310   */\n      add\n        /* \"#utility.yul\":11289:11347   */\n      mstore\n        /* \"#utility.yul\":11381:11384   */\n      0x6f00000000000000000000000000000000000000000000000000000000000000\n        /* \"#utility.yul\":11376:11378   */\n      0x20\n        /* \"#utility.yul\":11368:11374   */\n      dup3\n        /* \"#utility.yul\":11364:11379   */\n      add\n        /* \"#utility.yul\":11357:11385   */\n      mstore\n        /* \"#utility.yul\":11172:11392   */\n      pop\n      jump\t// out\n        /* \"#utility.yul\":11398:11764   */\n    tag_123:\n        /* \"#utility.yul\":11540:11543   */\n      0x00\n        /* \"#utility.yul\":11561:11628   */\n      tag_265\n        /* \"#utility.yul\":11625:11627   */\n      0x21\n        /* \"#utility.yul\":11620:11623   */\n      dup4\n        /* \"#utility.yul\":11561:11628   */\n      tag_94\n      jump\t// in\n    tag_265:\n        /* \"#utility.yul\":11554:11628   */\n      swap2\n      pop\n        /* \"#utility.yul\":11637:11730   */\n      tag_266\n        /* \"#utility.yul\":11726:11729   */\n      dup3\n        /* \"#utility.yul\":11637:11730   */\n      tag_122\n      jump\t// in\n    tag_266:\n        /* \"#utility.yul\":11755:11757   */\n      0x40\n        /* \"#utility.yul\":11750:11753   */\n      dup3\n        /* \"#utility.yul\":11746:11758   */\n      add\n        /* \"#utility.yul\":11739:11758   */\n      swap1\n      pop\n        /* \"#utility.yul\":11398:11764   */\n      swap2\n      swap1\n      pop\n      jump\t// out\n        /* \"#utility.yul\":11770:12189   */\n    tag_34:\n        /* \"#utility.yul\":11936:11940   */\n      0x00\n        /* \"#utility.yul\":11974:11976   */\n      0x20\n        /* \"#utility.yul\":11963:11972   */\n      dup3\n        /* \"#utility.yul\":11959:11977   */\n      add\n        /* \"#utility.yul\":11951:11977   */\n      swap1\n      pop\n        /* \"#utility.yul\":12023:12032   */\n      dup2\n        /* \"#utility.yul\":12017:12021   */\n      dup2\n        /* \"#utility.yul\":12013:12033   */\n      sub\n        /* \"#utility.yul\":12009:12010   */\n      0x00\n        /* \"#utility.yul\":11998:12007   */\n      dup4\n        /* \"#utility.yul\":11994:12011   */\n      add\n        /* \"#utility.yul\":11987:12034   */\n      mstore\n        /* \"#utility.yul\":12051:12182   */\n      tag_268\n        /* \"#utility.yul\":12177:12181   */\n      dup2\n        /* \"#utility.yul\":12051:12182   */\n      tag_123\n      jump\t// in\n    tag_268:\n        /* \"#utility.yul\":12043:12182   */\n      swap1\n      pop\n        /* \"#utility.yul\":11770:12189   */\n      swap2\n      swap1\n      pop\n      jump\t// out\n        /* \"#utility.yul\":12195:12358   */\n    tag_124:\n        /* \"#utility.yul\":12335:12350   */\n      0x79612068617320766f7461646f00000000000000000000000000000000000000\n        /* \"#utility.yul\":12331:12332   */\n      0x00\n        /* \"#utility.yul\":12323:12329   */\n      dup3\n        /* \"#utility.yul\":12319:12333   */\n      add\n        /* \"#utility.yul\":12312:12351   */\n      mstore\n        /* \"#utility.yul\":12195:12358   */\n      pop\n      jump\t// out\n        /* \"#utility.yul\":12364:12730   */\n    tag_125:\n        /* \"#utility.yul\":12506:12509   */\n      0x00\n        /* \"#utility.yul\":12527:12594   */\n      tag_271\n        /* \"#utility.yul\":12591:12593   */\n      0x0d\n        /* \"#utility.yul\":12586:12589   */\n      dup4\n        /* \"#utility.yul\":12527:12594   */\n      tag_94\n      jump\t// in\n    tag_271:\n        /* \"#utility.yul\":12520:12594   */\n      swap2\n      pop\n        /* \"#utility.yul\":12603:12696   */\n      tag_272\n        /* \"#utility.yul\":12692:12695   */\n      dup3\n        /* \"#utility.yul\":12603:12696   */\n      tag_124\n      jump\t// in\n    tag_272:\n        /* \"#utility.yul\":12721:12723   */\n      0x20\n        /* \"#utility.yul\":12716:12719   */\n      dup3\n        /* \"#utility.yul\":12712:12724   */\n      add\n        /* \"#utility.yul\":12705:12724   */\n      swap1\n      pop\n        /* \"#utility.yul\":12364:12730   */\n      swap2\n      swap1\n      pop\n      jump\t// out\n        /* \"#utility.yul\":12736:13155   */\n    tag_37:\n        /* \"#utility.yul\":12902:12906   */\n      0x00\n        /* \"#utility.yul\":12940:12942   */\n      0x20\n        /* \"#utility.yul\":12929:12938   */\n      dup3\n        /* \"#utility.yul\":12925:12943   */\n      add\n        /* \"#utility.yul\":12917:12943   */\n      swap1\n      pop\n        /* \"#utility.yul\":12989:12998   */\n      dup2\n        /* \"#utility.yul\":12983:12987   */\n      dup2\n        /* \"#utility.yul\":12979:12999   */\n      sub\n        /* \"#utility.yul\":12975:12976   */\n      0x00\n        /* \"#utility.yul\":12964:12973   */\n      dup4\n        /* \"#utility.yul\":12960:12977   */\n      add\n        /* \"#utility.yul\":12953:13000   */\n      mstore\n        /* \"#utility.yul\":13017:13148   */\n      tag_274\n        /* \"#utility.yul\":13143:13147   */\n      dup2\n        /* \"#utility.yul\":13017:13148   */\n      tag_125\n      jump\t// in\n    tag_274:\n        /* \"#utility.yul\":13009:13148   */\n      swap1\n      pop\n        /* \"#utility.yul\":12736:13155   */\n      swap2\n      swap1\n      pop\n      jump\t// out\n        /* \"#utility.yul\":13161:13341   */\n    tag_40:\n        /* \"#utility.yul\":13209:13286   */\n      0x4e487b7100000000000000000000000000000000000000000000000000000000\n        /* \"#utility.yul\":13206:13207   */\n      0x00\n        /* \"#utility.yul\":13199:13287   */\n      mstore\n        /* \"#utility.yul\":13306:13310   */\n      0x32\n        /* \"#utility.yul\":13303:13304   */\n      0x04\n        /* \"#utility.yul\":13296:13311   */\n      mstore\n        /* \"#utility.yul\":13330:13334   */\n      0x24\n        /* \"#utility.yul\":13327:13328   */\n      0x00\n        /* \"#utility.yul\":13320:13335   */\n      revert\n        /* \"#utility.yul\":13347:13527   */\n    tag_126:\n        /* \"#utility.yul\":13395:13472   */\n      0x4e487b7100000000000000000000000000000000000000000000000000000000\n        /* \"#utility.yul\":13392:13393   */\n      0x00\n        /* \"#utility.yul\":13385:13473   */\n      mstore\n        /* \"#utility.yul\":13492:13496   */\n      0x11\n        /* \"#utility.yul\":13489:13490   */\n      0x04\n        /* \"#utility.yul\":13482:13497   */\n      mstore\n        /* \"#utility.yul\":13516:13520   */\n      0x24\n        /* \"#utility.yul\":13513:13514   */\n      0x00\n        /* \"#utility.yul\":13506:13521   */\n      revert\n        /* \"#utility.yul\":13533:13766   */\n    tag_43:\n        /* \"#utility.yul\":13572:13575   */\n      0x00\n        /* \"#utility.yul\":13595:13619   */\n      tag_278\n        /* \"#utility.yul\":13613:13618   */\n      dup3\n        /* \"#utility.yul\":13595:13619   */\n      tag_84\n      jump\t// in\n    tag_278:\n        /* \"#utility.yul\":13586:13619   */\n      swap2\n      pop\n        /* \"#utility.yul\":13641:13707   */\n      0xffffffffffffffffffffffffffffffffffffffffffffffffffffffffffffffff\n        /* \"#utility.yul\":13634:13639   */\n      dup3\n        /* \"#utility.yul\":13631:13708   */\n      sub\n        /* \"#utility.yul\":13628:13731   */\n      tag_279\n      jumpi\n        /* \"#utility.yul\":13711:13729   */\n      tag_280\n      tag_126\n      jump\t// in\n    tag_280:\n        /* \"#utility.yul\":13628:13731   */\n    tag_279:\n        /* \"#utility.yul\":13758:13759   */\n      0x01\n        /* \"#utility.yul\":13751:13756   */\n      dup3\n        /* \"#utility.yul\":13747:13760   */\n      add\n        /* \"#utility.yul\":13740:13760   */\n      swap1\n      pop\n        /* \"#utility.yul\":13533:13766   */\n      swap2\n      swap1\n      pop\n      jump\t// out\n        /* \"#utility.yul\":13772:13952   */\n    tag_127:\n        /* \"#utility.yul\":13820:13897   */\n      0x4e487b7100000000000000000000000000000000000000000000000000000000\n        /* \"#utility.yul\":13817:13818   */\n      0x00\n        /* \"#utility.yul\":13810:13898   */\n      mstore\n        /* \"#utility.yul\":13917:13921   */\n      0x22\n        /* \"#utility.yul\":13914:13915   */\n      0x04\n        /* \"#utility.yul\":13907:13922   */\n      mstore\n        /* \"#utility.yul\":13941:13945   */\n      0x24\n        /* \"#utility.yul\":13938:13939   */\n      0x00\n        /* \"#utility.yul\":13931:13946   */\n      revert\n        /* \"#utility.yul\":13958:14278   */\n    tag_47:\n        /* \"#utility.yul\":14002:14008   */\n      0x00\n        /* \"#utility.yul\":14039:14040   */\n      0x02\n        /* \"#utility.yul\":14033:14037   */\n      dup3\n        /* \"#utility.yul\":14029:14041   */\n      div\n        /* \"#utility.yul\":14019:14041   */\n      swap1\n      pop\n        /* \"#utility.yul\":14086:14087   */\n      0x01\n        /* \"#utility.yul\":14080:14084   */\n      dup3\n        /* \"#utility.yul\":14076:14088   */\n      and\n        /* \"#utility.yul\":14107:14125   */\n      dup1\n        /* \"#utility.yul\":14097:14178   */\n      tag_283\n      jumpi\n        /* \"#utility.yul\":14163:14167   */\n      0x7f\n        /* \"#utility.yul\":14155:14161   */\n      dup3\n        /* \"#utility.yul\":14151:14168   */\n      and\n        /* \"#utility.yul\":14141:14168   */\n      swap2\n      pop\n        /* \"#utility.yul\":14097:14178   */\n    tag_283:\n        /* \"#utility.yul\":14225:14227   */\n      0x20\n        /* \"#utility.yul\":14217:14223   */\n      dup3\n        /* \"#utility.yul\":14214:14228   */\n      lt\n        /* \"#utility.yul\":14194:14212   */\n      dup2\n        /* \"#utility.yul\":14191:14229   */\n      sub\n        /* \"#utility.yul\":14188:14272   */\n      tag_284\n      jumpi\n        /* \"#utility.yul\":14244:14262   */\n      tag_285\n      tag_127\n      jump\t// in\n    tag_285:\n        /* \"#utility.yul\":14188:14272   */\n    tag_284:\n        /* \"#utility.yul\":14009:14278   */\n      pop\n        /* \"#utility.yul\":13958:14278   */\n      swap2\n      swap1\n      pop\n      jump\t// out\n        /* \"#utility.yul\":14284:14425   */\n    tag_128:\n        /* \"#utility.yul\":14333:14337   */\n      0x00\n        /* \"#utility.yul\":14356:14359   */\n      dup2\n        /* \"#utility.yul\":14348:14359   */\n      swap1\n      pop\n        /* \"#utility.yul\":14379:14382   */\n      dup2\n        /* \"#utility.yul\":14376:14377   */\n      0x00\n        /* \"#utility.yul\":14369:14383   */\n      mstore\n        /* \"#utility.yul\":14413:14417   */\n      0x20\n        /* \"#utility.yul\":14410:14411   */\n      0x00\n        /* \"#utility.yul\":14400:14418   */\n      keccak256\n        /* \"#utility.yul\":14392:14418   */\n      swap1\n      pop\n        /* \"#utility.yul\":14284:14425   */\n      swap2\n      swap1\n      pop\n      jump\t// out\n        /* \"#utility.yul\":14431:14524   */\n    tag_129:\n        /* \"#utility.yul\":14468:14474   */\n      0x00\n        /* \"#utility.yul\":14515:14517   */\n      0x20\n        /* \"#utility.yul\":14510:14512   */\n      0x1f\n        /* \"#utility.yul\":14503:14508   */\n      dup4\n        /* \"#utility.yul\":14499:14513   */\n      add\n        /* \"#utility.yul\":14495:14518   */\n      div\n        /* \"#utility.yul\":14485:14518   */\n      swap1\n      pop\n        /* \"#utility.yul\":14431:14524   */\n      swap2\n      swap1\n      pop\n      jump\t// out\n        /* \"#utility.yul\":14530:14637   */\n    tag_130:\n        /* \"#utility.yul\":14574:14582   */\n      0x00\n        /* \"#utility.yul\":14624:14629   */\n      dup3\n        /* \"#utility.yul\":14618:14622   */\n      dup3\n        /* \"#utility.yul\":14614:14630   */\n      shl\n        /* \"#utility.yul\":14593:14630   */\n      swap1\n      pop\n        /* \"#utility.yul\":14530:14637   */\n      swap3\n      swap2\n      pop\n      pop\n      jump\t// out\n        /* \"#utility.yul\":14643:15036   */\n    tag_131:\n        /* \"#utility.yul\":14712:14718   */\n      0x00\n        /* \"#utility.yul\":14762:14763   */\n      0x08\n        /* \"#utility.yul\":14750:14760   */\n      dup4\n        /* \"#utility.yul\":14746:14764   */\n      mul\n        /* \"#utility.yul\":14785:14882   */\n      tag_290\n        /* \"#utility.yul\":14815:14881   */\n      0xffffffffffffffffffffffffffffffffffffffffffffffffffffffffffffffff\n        /* \"#utility.yul\":14804:14813   */\n      dup3\n        /* \"#utility.yul\":14785:14882   */\n      tag_130\n      jump\t// in\n    tag_290:\n        /* \"#utility.yul\":14903:14942   */\n      tag_291\n        /* \"#utility.yul\":14933:14941   */\n      dup7\n        /* \"#utility.yul\":14922:14931   */\n      dup4\n        /* \"#utility.yul\":14903:14942   */\n      tag_130\n      jump\t// in\n    tag_291:\n        /* \"#utility.yul\":14891:14942   */\n      swap6\n      pop\n        /* \"#utility.yul\":14975:14979   */\n      dup1\n        /* \"#utility.yul\":14971:14980   */\n      not\n        /* \"#utility.yul\":14964:14969   */\n      dup5\n        /* \"#utility.yul\":14960:14981   */\n      and\n        /* \"#utility.yul\":14951:14981   */\n      swap4\n      pop\n        /* \"#utility.yul\":15024:15028   */\n      dup1\n        /* \"#utility.yul\":15014:15022   */\n      dup7\n        /* \"#utility.yul\":15010:15029   */\n      and\n        /* \"#utility.yul\":15003:15008   */\n      dup5\n        /* \"#utility.yul\":15000:15030   */\n      or\n        /* \"#utility.yul\":14990:15030   */\n      swap3\n      pop\n        /* \"#utility.yul\":14719:15036   */\n      pop\n      pop\n        /* \"#utility.yul\":14643:15036   */\n      swap4\n      swap3\n      pop\n      pop\n      pop\n      jump\t// out\n        /* \"#utility.yul\":15042:15102   */\n    tag_132:\n        /* \"#utility.yul\":15070:15073   */\n      0x00\n        /* \"#utility.yul\":15091:15096   */\n      dup2\n        /* \"#utility.yul\":15084:15096   */\n      swap1\n      pop\n        /* \"#utility.yul\":15042:15102   */\n      swap2\n      swap1\n      pop\n      jump\t// out\n        /* \"#utility.yul\":15108:15250   */\n    tag_133:\n        /* \"#utility.yul\":15158:15167   */\n      0x00\n        /* \"#utility.yul\":15191:15244   */\n      tag_294\n        /* \"#utility.yul\":15209:15243   */\n      tag_295\n        /* \"#utility.yul\":15218:15242   */\n      tag_296\n        /* \"#utility.yul\":15236:15241   */\n      dup5\n        /* \"#utility.yul\":15218:15242   */\n      tag_84\n      jump\t// in\n    tag_296:\n        /* \"#utility.yul\":15209:15243   */\n      tag_132\n      jump\t// in\n    tag_295:\n        /* \"#utility.yul\":15191:15244   */\n      tag_84\n      jump\t// in\n    tag_294:\n        /* \"#utility.yul\":15178:15244   */\n      swap1\n      pop\n        /* \"#utility.yul\":15108:15250   */\n      swap2\n      swap1\n      pop\n      jump\t// out\n        /* \"#utility.yul\":15256:15331   */\n    tag_134:\n        /* \"#utility.yul\":15299:15302   */\n      0x00\n        /* \"#utility.yul\":15320:15325   */\n      dup2\n        /* \"#utility.yul\":15313:15325   */\n      swap1\n      pop\n        /* \"#utility.yul\":15256:15331   */\n      swap2\n      swap1\n      pop\n      jump\t// out\n        /* \"#utility.yul\":15337:15606   */\n    tag_135:\n        /* \"#utility.yul\":15447:15486   */\n      tag_299\n        /* \"#utility.yul\":15478:15485   */\n      dup4\n        /* \"#utility.yul\":15447:15486   */\n      tag_133\n      jump\t// in\n    tag_299:\n        /* \"#utility.yul\":15508:15599   */\n      tag_300\n        /* \"#utility.yul\":15557:15598   */\n      tag_301\n        /* \"#utility.yul\":15581:15597   */\n      dup3\n        /* \"#utility.yul\":15557:15598   */\n      tag_134\n      jump\t// in\n    tag_301:\n        /* \"#utility.yul\":15549:15555   */\n      dup5\n        /* \"#utility.yul\":15542:15546   */\n      dup5\n        /* \"#utility.yul\":15536:15547   */\n      sload\n        /* \"#utility.yul\":15508:15599   */\n      tag_131\n      jump\t// in\n    tag_300:\n        /* \"#utility.yul\":15502:15506   */\n      dup3\n        /* \"#utility.yul\":15495:15600   */\n      sstore\n        /* \"#utility.yul\":15413:15606   */\n      pop\n        /* \"#utility.yul\":15337:15606   */\n      pop\n      pop\n      pop\n      jump\t// out\n        /* \"#utility.yul\":15612:15685   */\n    tag_136:\n        /* \"#utility.yul\":15657:15660   */\n      0x00\n        /* \"#utility.yul\":15612:15685   */\n      swap1\n      jump\t// out\n        /* \"#utility.yul\":15691:15880   */\n    tag_137:\n        /* \"#utility.yul\":15768:15800   */\n      tag_304\n      tag_136\n      jump\t// in\n    tag_304:\n        /* \"#utility.yul\":15809:15874   */\n      tag_305\n        /* \"#utility.yul\":15867:15873   */\n      dup2\n        /* \"#utility.yul\":15859:15865   */\n      dup5\n        /* \"#utility.yul\":15853:15857   */\n      dup5\n        /* \"#utility.yul\":15809:15874   */\n      tag_135\n      jump\t// in\n    tag_305:\n        /* \"#utility.yul\":15744:15880   */\n      pop\n        /* \"#utility.yul\":15691:15880   */\n      pop\n      pop\n      jump\t// out\n        /* \"#utility.yul\":15886:16072   */\n    tag_138:\n        /* \"#utility.yul\":15946:16066   */\n    tag_307:\n        /* \"#utility.yul\":15963:15966   */\n      dup2\n        /* \"#utility.yul\":15956:15961   */\n      dup2\n        /* \"#utility.yul\":15953:15967   */\n      lt\n        /* \"#utility.yul\":15946:16066   */\n      iszero\n      tag_309\n      jumpi\n        /* \"#utility.yul\":16017:16056   */\n      tag_310\n        /* \"#utility.yul\":16054:16055   */\n      0x00\n        /* \"#utility.yul\":16047:16052   */\n      dup3\n        /* \"#utility.yul\":16017:16056   */\n      tag_137\n      jump\t// in\n    tag_310:\n        /* \"#utility.yul\":15990:15991   */\n      0x01\n        /* \"#utility.yul\":15983:15988   */\n      dup2\n        /* \"#utility.yul\":15979:15992   */\n      add\n        /* \"#utility.yul\":15970:15992   */\n      swap1\n      pop\n        /* \"#utility.yul\":15946:16066   */\n      jump(tag_307)\n    tag_309:\n        /* \"#utility.yul\":15886:16072   */\n      pop\n      pop\n      jump\t// out\n        /* \"#utility.yul\":16078:16621   */\n    tag_139:\n        /* \"#utility.yul\":16179:16181   */\n      0x1f\n        /* \"#utility.yul\":16174:16177   */\n      dup3\n        /* \"#utility.yul\":16171:16182   */\n      gt\n        /* \"#utility.yul\":16168:16614   */\n      iszero\n      tag_312\n      jumpi\n        /* \"#utility.yul\":16213:16251   */\n      tag_313\n        /* \"#utility.yul\":16245:16250   */\n      dup2\n        /* \"#utility.yul\":16213:16251   */\n      tag_128\n      jump\t// in\n    tag_313:\n        /* \"#utility.yul\":16297:16326   */\n      tag_314\n        /* \"#utility.yul\":16315:16325   */\n      dup5\n        /* \"#utility.yul\":16297:16326   */\n      tag_129\n      jump\t// in\n    tag_314:\n        /* \"#utility.yul\":16287:16295   */\n      dup2\n        /* \"#utility.yul\":16283:16327   */\n      add\n        /* \"#utility.yul\":16480:16482   */\n      0x20\n        /* \"#utility.yul\":16468:16478   */\n      dup6\n        /* \"#utility.yul\":16465:16483   */\n      lt\n        /* \"#utility.yul\":16462:16511   */\n      iszero\n      tag_315\n      jumpi\n        /* \"#utility.yul\":16501:16509   */\n      dup2\n        /* \"#utility.yul\":16486:16509   */\n      swap1\n      pop\n        /* \"#utility.yul\":16462:16511   */\n    tag_315:\n        /* \"#utility.yul\":16524:16604   */\n      tag_316\n        /* \"#utility.yul\":16580:16602   */\n      tag_317\n        /* \"#utility.yul\":16598:16601   */\n      dup6\n        /* \"#utility.yul\":16580:16602   */\n      tag_129\n      jump\t// in\n    tag_317:\n        /* \"#utility.yul\":16570:16578   */\n      dup4\n        /* \"#utility.yul\":16566:16603   */\n      add\n        /* \"#utility.yul\":16553:16564   */\n      dup3\n        /* \"#utility.yul\":16524:16604   */\n      tag_138\n      jump\t// in\n    tag_316:\n        /* \"#utility.yul\":16183:16614   */\n      pop\n      pop\n        /* \"#utility.yul\":16168:16614   */\n    tag_312:\n        /* \"#utility.yul\":16078:16621   */\n      pop\n      pop\n      pop\n      jump\t// out\n        /* \"#utility.yul\":16627:16744   */\n    tag_140:\n        /* \"#utility.yul\":16681:16689   */\n      0x00\n        /* \"#utility.yul\":16731:16736   */\n      dup3\n        /* \"#utility.yul\":16725:16729   */\n      dup3\n        /* \"#utility.yul\":16721:16737   */\n      shr\n        /* \"#utility.yul\":16700:16737   */\n      swap1\n      pop\n        /* \"#utility.yul\":16627:16744   */\n      swap3\n      swap2\n      pop\n      pop\n      jump\t// out\n        /* \"#utility.yul\":16750:16919   */\n    tag_141:\n        /* \"#utility.yul\":16794:16800   */\n      0x00\n        /* \"#utility.yul\":16827:16878   */\n      tag_320\n        /* \"#utility.yul\":16875:16876   */\n      0x00\n        /* \"#utility.yul\":16871:16877   */\n      not\n        /* \"#utility.yul\":16863:16868   */\n      dup5\n        /* \"#utility.yul\":16860:16861   */\n      0x08\n        /* \"#utility.yul\":16856:16869   */\n      mul\n        /* \"#utility.yul\":16827:16878   */\n      tag_140\n      jump\t// in\n    tag_320:\n        /* \"#utility.yul\":16823:16879   */\n      not\n        /* \"#utility.yul\":16908:16912   */\n      dup1\n        /* \"#utility.yul\":16902:16906   */\n      dup4\n        /* \"#utility.yul\":16898:16913   */\n      and\n        /* \"#utility.yul\":16888:16913   */\n      swap2\n      pop\n        /* \"#utility.yul\":16801:16919   */\n      pop\n        /* \"#utility.yul\":16750:16919   */\n      swap3\n      swap2\n      pop\n      pop\n      jump\t// out\n        /* \"#utility.yul\":16924:17219   */\n    tag_142:\n        /* \"#utility.yul\":17000:17004   */\n      0x00\n        /* \"#utility.yul\":17146:17175   */\n      tag_322\n        /* \"#utility.yul\":17171:17174   */\n      dup4\n        /* \"#utility.yul\":17165:17169   */\n      dup4\n        /* \"#utility.yul\":17146:17175   */\n      tag_141\n      jump\t// in\n    tag_322:\n        /* \"#utility.yul\":17138:17175   */\n      swap2\n      pop\n        /* \"#utility.yul\":17208:17211   */\n      dup3\n        /* \"#utility.yul\":17205:17206   */\n      0x02\n        /* \"#utility.yul\":17201:17212   */\n      mul\n        /* \"#utility.yul\":17195:17199   */\n      dup3\n        /* \"#utility.yul\":17192:17213   */\n      or\n        /* \"#utility.yul\":17184:17213   */\n      swap1\n      pop\n        /* \"#utility.yul\":16924:17219   */\n      swap3\n      swap2\n      pop\n      pop\n      jump\t// out\n        /* \"#utility.yul\":17224:18619   */\n    tag_80:\n        /* \"#utility.yul\":17341:17378   */\n      tag_324\n        /* \"#utility.yul\":17374:17377   */\n      dup3\n        /* \"#utility.yul\":17341:17378   */\n      tag_93\n      jump\t// in\n    tag_324:\n        /* \"#utility.yul\":17443:17461   */\n      0xffffffffffffffff\n        /* \"#utility.yul\":17435:17441   */\n      dup2\n        /* \"#utility.yul\":17432:17462   */\n      gt\n        /* \"#utility.yul\":17429:17485   */\n      iszero\n      tag_325\n      jumpi\n        /* \"#utility.yul\":17465:17483   */\n      tag_326\n      tag_55\n      jump\t// in\n    tag_326:\n        /* \"#utility.yul\":17429:17485   */\n    tag_325:\n        /* \"#utility.yul\":17509:17547   */\n      tag_327\n        /* \"#utility.yul\":17541:17545   */\n      dup3\n        /* \"#utility.yul\":17535:17546   */\n      sload\n        /* \"#utility.yul\":17509:17547   */\n      tag_47\n      jump\t// in\n    tag_327:\n        /* \"#utility.yul\":17594:17661   */\n      tag_328\n        /* \"#utility.yul\":17654:17660   */\n      dup3\n        /* \"#utility.yul\":17646:17652   */\n      dup3\n        /* \"#utility.yul\":17640:17644   */\n      dup6\n        /* \"#utility.yul\":17594:17661   */\n      tag_139\n      jump\t// in\n    tag_328:\n        /* \"#utility.yul\":17688:17689   */\n      0x00\n        /* \"#utility.yul\":17712:17716   */\n      0x20\n        /* \"#utility.yul\":17699:17716   */\n      swap1\n      pop\n        /* \"#utility.yul\":17744:17746   */\n      0x1f\n        /* \"#utility.yul\":17736:17742   */\n      dup4\n        /* \"#utility.yul\":17733:17747   */\n      gt\n        /* \"#utility.yul\":17761:17762   */\n      0x01\n        /* \"#utility.yul\":17756:18374   */\n      dup2\n      eq\n      tag_330\n      jumpi\n        /* \"#utility.yul\":18418:18419   */\n      0x00\n        /* \"#utility.yul\":18435:18441   */\n      dup5\n        /* \"#utility.yul\":18432:18509   */\n      iszero\n      tag_331\n      jumpi\n        /* \"#utility.yul\":18484:18493   */\n      dup3\n        /* \"#utility.yul\":18479:18482   */\n      dup8\n        /* \"#utility.yul\":18475:18494   */\n      add\n        /* \"#utility.yul\":18469:18495   */\n      mload\n        /* \"#utility.yul\":18460:18495   */\n      swap1\n      pop\n        /* \"#utility.yul\":18432:18509   */\n    tag_331:\n        /* \"#utility.yul\":18535:18602   */\n      tag_332\n        /* \"#utility.yul\":18595:18601   */\n      dup6\n        /* \"#utility.yul\":18588:18593   */\n      dup3\n        /* \"#utility.yul\":18535:18602   */\n      tag_142\n      jump\t// in\n    tag_332:\n        /* \"#utility.yul\":18529:18533   */\n      dup7\n        /* \"#utility.yul\":18522:18603   */\n      sstore\n        /* \"#utility.yul\":18391:18613   */\n      pop\n        /* \"#utility.yul\":17726:18613   */\n      jump(tag_329)\n        /* \"#utility.yul\":17756:18374   */\n    tag_330:\n        /* \"#utility.yul\":17808:17812   */\n      0x1f\n        /* \"#utility.yul\":17804:17813   */\n      not\n        /* \"#utility.yul\":17796:17802   */\n      dup5\n        /* \"#utility.yul\":17792:17814   */\n      and\n        /* \"#utility.yul\":17842:17879   */\n      tag_333\n        /* \"#utility.yul\":17874:17878   */\n      dup7\n        /* \"#utility.yul\":17842:17879   */\n      tag_128\n      jump\t// in\n    tag_333:\n        /* \"#utility.yul\":17901:17902   */\n      0x00\n        /* \"#utility.yul\":17915:18123   */\n    tag_334:\n        /* \"#utility.yul\":17929:17936   */\n      dup3\n        /* \"#utility.yul\":17926:17927   */\n      dup2\n        /* \"#utility.yul\":17923:17937   */\n      lt\n        /* \"#utility.yul\":17915:18123   */\n      iszero\n      tag_336\n      jumpi\n        /* \"#utility.yul\":18008:18017   */\n      dup5\n        /* \"#utility.yul\":18003:18006   */\n      dup10\n        /* \"#utility.yul\":17999:18018   */\n      add\n        /* \"#utility.yul\":17993:18019   */\n      mload\n        /* \"#utility.yul\":17985:17991   */\n      dup3\n        /* \"#utility.yul\":17978:18020   */\n      sstore\n        /* \"#utility.yul\":18059:18060   */\n      0x01\n        /* \"#utility.yul\":18051:18057   */\n      dup3\n        /* \"#utility.yul\":18047:18061   */\n      add\n        /* \"#utility.yul\":18037:18061   */\n      swap2\n      pop\n        /* \"#utility.yul\":18106:18108   */\n      0x20\n        /* \"#utility.yul\":18095:18104   */\n      dup6\n        /* \"#utility.yul\":18091:18109   */\n      add\n        /* \"#utility.yul\":18078:18109   */\n      swap5\n      pop\n        /* \"#utility.yul\":17952:17956   */\n      0x20\n        /* \"#utility.yul\":17949:17950   */\n      dup2\n        /* \"#utility.yul\":17945:17957   */\n      add\n        /* \"#utility.yul\":17940:17957   */\n      swap1\n      pop\n        /* \"#utility.yul\":17915:18123   */\n      jump(tag_334)\n    tag_336:\n        /* \"#utility.yul\":18151:18157   */\n      dup7\n        /* \"#utility.yul\":18142:18149   */\n      dup4\n        /* \"#utility.yul\":18139:18158   */\n      lt\n        /* \"#utility.yul\":18136:18315   */\n      iszero\n      tag_337\n      jumpi\n        /* \"#utility.yul\":18209:18218   */\n      dup5\n        /* \"#utility.yul\":18204:18207   */\n      dup10\n        /* \"#utility.yul\":18200:18219   */\n      add\n        /* \"#utility.yul\":18194:18220   */\n      mload\n        /* \"#utility.yul\":18252:18300   */\n      tag_338\n        /* \"#utility.yul\":18294:18298   */\n      0x1f\n        /* \"#utility.yul\":18286:18292   */\n      dup10\n        /* \"#utility.yul\":18282:18299   */\n      and\n        /* \"#utility.yul\":18271:18280   */\n      dup3\n        /* \"#utility.yul\":18252:18300   */\n      tag_141\n      jump\t// in\n    tag_338:\n        /* \"#utility.yul\":18244:18250   */\n      dup4\n        /* \"#utility.yul\":18237:18301   */\n      sstore\n        /* \"#utility.yul\":18159:18315   */\n      pop\n        /* \"#utility.yul\":18136:18315   */\n    tag_337:\n        /* \"#utility.yul\":18361:18362   */\n      0x01\n        /* \"#utility.yul\":18357:18358   */\n      0x02\n        /* \"#utility.yul\":18349:18355   */\n      dup9\n        /* \"#utility.yul\":18345:18359   */\n      mul\n        /* \"#utility.yul\":18341:18363   */\n      add\n        /* \"#utility.yul\":18335:18339   */\n      dup9\n        /* \"#utility.yul\":18328:18364   */\n      sstore\n        /* \"#utility.yul\":17763:18374   */\n      pop\n      pop\n      pop\n        /* \"#utility.yul\":17726:18613   */\n    tag_329:\n      pop\n        /* \"#utility.yul\":17316:18619   */\n      pop\n      pop\n      pop\n        /* \"#utility.yul\":17224:18619   */\n      pop\n      pop\n      jump\t// out\n\n    auxdata: 0xa26469706673582212202d261db759cee10b70694787fb71c98155431096ff4c0e8b852d795d74e630db64736f6c63430008110033\n}\n",
				"bytecode": {
					"linkReferences": {},
					"object": "608060405234801561001057600080fd5b50610fe8806100206000396000f3fe608060405234801561001057600080fd5b50600436106100575760003560e01c8063216068311461005c578063355062cb14610078578063b9cd9955146100a8578063d790e986146100d9578063f888ba74146100f8575b600080fd5b610076600480360381019061007191906105f4565b610114565b005b610092600480360381019061008d919061067f565b61027d565b60405161009f91906106c7565b60405180910390f35b6100c260048036038101906100bd91906105f4565b61029d565b6040516100d0929190610781565b60405180910390f35b6100e1610359565b6040516100ef92919061097b565b60405180910390f35b610112600480360381019061010d9190610ae7565b610544565b005b600080549050811061015b576040517f08c379a000000000000000000000000000000000000000000000000000000000815260040161015290610ba2565b60405180910390fd5b600160003373ffffffffffffffffffffffffffffffffffffffff1673ffffffffffffffffffffffffffffffffffffffff16815260200190815260200160002060009054906101000a900460ff16156101e8576040517f08c379a00000000000000000000000000000000000000000000000000000000081526004016101df90610c0e565b60405180910390fd5b600081815481106101fc576101fb610c2e565b5b9060005260206000209060020201600101600081548092919061021e90610c8c565b919050555060018060003373ffffffffffffffffffffffffffffffffffffffff1673ffffffffffffffffffffffffffffffffffffffff16815260200190815260200160002060006101000a81548160ff02191690831515021790555050565b60016020528060005260406000206000915054906101000a900460ff1681565b600081815481106102ad57600080fd5b90600052602060002090600202016000915090508060000180546102d090610d03565b80601f01602080910402602001604051908101604052809291908181526020018280546102fc90610d03565b80156103495780601f1061031e57610100808354040283529160200191610349565b820191906000526020600020905b81548152906001019060200180831161032c57829003601f168201915b5050505050908060010154905082565b60608060008080549050905060008167ffffffffffffffff811115610381576103806109bc565b5b6040519080825280602002602001820160405280156103b457816020015b606081526020019060019003908161039f5790505b50905060008267ffffffffffffffff8111156103d3576103d26109bc565b5b6040519080825280602002602001820160405280156104015781602001602082028036833780820191505090505b50905060005b8381101561053657600080828154811061042457610423610c2e565b5b906000526020600020906002020160405180604001604052908160008201805461044d90610d03565b80601f016020809104026020016040519081016040528092919081815260200182805461047990610d03565b80156104c65780601f1061049b576101008083540402835291602001916104c6565b820191906000526020600020905b8154815290600101906020018083116104a957829003601f168201915b50505050508152602001600182015481525050905080600001518483815181106104f3576104f2610c2e565b5b6020026020010181905250806020015183838151811061051657610515610c2e565b5b60200260200101818152505050808061052e90610c8c565b915050610407565b508181945094505050509091565b6000604051806040016040528083815260200160008152509080600181540180825580915050600190039060005260206000209060020201600090919091909150600082015181600001908161059a9190610ee0565b5060208201518160010155505050565b6000604051905090565b600080fd5b600080fd5b6000819050919050565b6105d1816105be565b81146105dc57600080fd5b50565b6000813590506105ee816105c8565b92915050565b60006020828403121561060a576106096105b4565b5b6000610618848285016105df565b91505092915050565b600073ffffffffffffffffffffffffffffffffffffffff82169050919050565b600061064c82610621565b9050919050565b61065c81610641565b811461066757600080fd5b50565b60008135905061067981610653565b92915050565b600060208284031215610695576106946105b4565b5b60006106a38482850161066a565b91505092915050565b60008115159050919050565b6106c1816106ac565b82525050565b60006020820190506106dc60008301846106b8565b92915050565b600081519050919050565b600082825260208201905092915050565b60005b8381101561071c578082015181840152602081019050610701565b60008484015250505050565b6000601f19601f8301169050919050565b6000610744826106e2565b61074e81856106ed565b935061075e8185602086016106fe565b61076781610728565b840191505092915050565b61077b816105be565b82525050565b6000604082019050818103600083015261079b8185610739565b90506107aa6020830184610772565b9392505050565b600081519050919050565b600082825260208201905092915050565b6000819050602082019050919050565b600082825260208201905092915050565b60006107f9826106e2565b61080381856107dd565b93506108138185602086016106fe565b61081c81610728565b840191505092915050565b600061083383836107ee565b905092915050565b6000602082019050919050565b6000610853826107b1565b61085d81856107bc565b93508360208202850161086f856107cd565b8060005b858110156108ab578484038952815161088c8582610827565b94506108978361083b565b925060208a01995050600181019050610873565b50829750879550505050505092915050565b600081519050919050565b600082825260208201905092915050565b6000819050602082019050919050565b6108f2816105be565b82525050565b600061090483836108e9565b60208301905092915050565b6000602082019050919050565b6000610928826108bd565b61093281856108c8565b935061093d836108d9565b8060005b8381101561096e57815161095588826108f8565b975061096083610910565b925050600181019050610941565b5085935050505092915050565b600060408201905081810360008301526109958185610848565b905081810360208301526109a9818461091d565b90509392505050565b600080fd5b600080fd5b7f4e487b7100000000000000000000000000000000000000000000000000000000600052604160045260246000fd5b6109f482610728565b810181811067ffffffffffffffff82111715610a1357610a126109bc565b5b80604052505050565b6000610a266105aa565b9050610a3282826109eb565b919050565b600067ffffffffffffffff821115610a5257610a516109bc565b5b610a5b82610728565b9050602081019050919050565b82818337600083830152505050565b6000610a8a610a8584610a37565b610a1c565b905082815260208101848484011115610aa657610aa56109b7565b5b610ab1848285610a68565b509392505050565b600082601f830112610ace57610acd6109b2565b5b8135610ade848260208601610a77565b91505092915050565b600060208284031215610afd57610afc6105b4565b5b600082013567ffffffffffffffff811115610b1b57610b1a6105b9565b5b610b2784828501610ab9565b91505092915050565b7f496e64696365206465206f7063696f6e20646520766f746f20696e76616c696460008201527f6f00000000000000000000000000000000000000000000000000000000000000602082015250565b6000610b8c6021836106ed565b9150610b9782610b30565b604082019050919050565b60006020820190508181036000830152610bbb81610b7f565b9050919050565b7f79612068617320766f7461646f00000000000000000000000000000000000000600082015250565b6000610bf8600d836106ed565b9150610c0382610bc2565b602082019050919050565b60006020820190508181036000830152610c2781610beb565b9050919050565b7f4e487b7100000000000000000000000000000000000000000000000000000000600052603260045260246000fd5b7f4e487b7100000000000000000000000000000000000000000000000000000000600052601160045260246000fd5b6000610c97826105be565b91507fffffffffffffffffffffffffffffffffffffffffffffffffffffffffffffffff8203610cc957610cc8610c5d565b5b600182019050919050565b7f4e487b7100000000000000000000000000000000000000000000000000000000600052602260045260246000fd5b60006002820490506001821680610d1b57607f821691505b602082108103610d2e57610d2d610cd4565b5b50919050565b60008190508160005260206000209050919050565b60006020601f8301049050919050565b600082821b905092915050565b600060088302610d967fffffffffffffffffffffffffffffffffffffffffffffffffffffffffffffffff82610d59565b610da08683610d59565b95508019841693508086168417925050509392505050565b6000819050919050565b6000610ddd610dd8610dd3846105be565b610db8565b6105be565b9050919050565b6000819050919050565b610df783610dc2565b610e0b610e0382610de4565b848454610d66565b825550505050565b600090565b610e20610e13565b610e2b818484610dee565b505050565b5b81811015610e4f57610e44600082610e18565b600181019050610e31565b5050565b601f821115610e9457610e6581610d34565b610e6e84610d49565b81016020851015610e7d578190505b610e91610e8985610d49565b830182610e30565b50505b505050565b600082821c905092915050565b6000610eb760001984600802610e99565b1980831691505092915050565b6000610ed08383610ea6565b9150826002028217905092915050565b610ee9826106e2565b67ffffffffffffffff811115610f0257610f016109bc565b5b610f0c8254610d03565b610f17828285610e53565b600060209050601f831160018114610f4a5760008415610f38578287015190505b610f428582610ec4565b865550610faa565b601f198416610f5886610d34565b60005b82811015610f8057848901518255600182019150602085019450602081019050610f5b565b86831015610f9d5784890151610f99601f891682610ea6565b8355505b6001600288020188555050505b50505050505056fea26469706673582212202d261db759cee10b70694787fb71c98155431096ff4c0e8b852d795d74e630db64736f6c63430008110033",
					"opcodes": "PUSH1 0x80 PUSH1 0x40 MSTORE CALLVALUE DUP1 ISZERO PUSH2 0x10 JUMPI PUSH1 0x0 DUP1 REVERT JUMPDEST POP PUSH2 0xFE8 DUP1 PUSH2 0x20 PUSH1 0x0 CODECOPY PUSH1 0x0 RETURN INVALID PUSH1 0x80 PUSH1 0x40 MSTORE CALLVALUE DUP1 ISZERO PUSH2 0x10 JUMPI PUSH1 0x0 DUP1 REVERT JUMPDEST POP PUSH1 0x4 CALLDATASIZE LT PUSH2 0x57 JUMPI PUSH1 0x0 CALLDATALOAD PUSH1 0xE0 SHR DUP1 PUSH4 0x21606831 EQ PUSH2 0x5C JUMPI DUP1 PUSH4 0x355062CB EQ PUSH2 0x78 JUMPI DUP1 PUSH4 0xB9CD9955 EQ PUSH2 0xA8 JUMPI DUP1 PUSH4 0xD790E986 EQ PUSH2 0xD9 JUMPI DUP1 PUSH4 0xF888BA74 EQ PUSH2 0xF8 JUMPI JUMPDEST PUSH1 0x0 DUP1 REVERT JUMPDEST PUSH2 0x76 PUSH1 0x4 DUP1 CALLDATASIZE SUB DUP2 ADD SWAP1 PUSH2 0x71 SWAP2 SWAP1 PUSH2 0x5F4 JUMP JUMPDEST PUSH2 0x114 JUMP JUMPDEST STOP JUMPDEST PUSH2 0x92 PUSH1 0x4 DUP1 CALLDATASIZE SUB DUP2 ADD SWAP1 PUSH2 0x8D SWAP2 SWAP1 PUSH2 0x67F JUMP JUMPDEST PUSH2 0x27D JUMP JUMPDEST PUSH1 0x40 MLOAD PUSH2 0x9F SWAP2 SWAP1 PUSH2 0x6C7 JUMP JUMPDEST PUSH1 0x40 MLOAD DUP1 SWAP2 SUB SWAP1 RETURN JUMPDEST PUSH2 0xC2 PUSH1 0x4 DUP1 CALLDATASIZE SUB DUP2 ADD SWAP1 PUSH2 0xBD SWAP2 SWAP1 PUSH2 0x5F4 JUMP JUMPDEST PUSH2 0x29D JUMP JUMPDEST PUSH1 0x40 MLOAD PUSH2 0xD0 SWAP3 SWAP2 SWAP1 PUSH2 0x781 JUMP JUMPDEST PUSH1 0x40 MLOAD DUP1 SWAP2 SUB SWAP1 RETURN JUMPDEST PUSH2 0xE1 PUSH2 0x359 JUMP JUMPDEST PUSH1 0x40 MLOAD PUSH2 0xEF SWAP3 SWAP2 SWAP1 PUSH2 0x97B JUMP JUMPDEST PUSH1 0x40 MLOAD DUP1 SWAP2 SUB SWAP1 RETURN JUMPDEST PUSH2 0x112 PUSH1 0x4 DUP1 CALLDATASIZE SUB DUP2 ADD SWAP1 PUSH2 0x10D SWAP2 SWAP1 PUSH2 0xAE7 JUMP JUMPDEST PUSH2 0x544 JUMP JUMPDEST STOP JUMPDEST PUSH1 0x0 DUP1 SLOAD SWAP1 POP DUP2 LT PUSH2 0x15B JUMPI PUSH1 0x40 MLOAD PUSH32 0x8C379A000000000000000000000000000000000000000000000000000000000 DUP2 MSTORE PUSH1 0x4 ADD PUSH2 0x152 SWAP1 PUSH2 0xBA2 JUMP JUMPDEST PUSH1 0x40 MLOAD DUP1 SWAP2 SUB SWAP1 REVERT JUMPDEST PUSH1 0x1 PUSH1 0x0 CALLER PUSH20 0xFFFFFFFFFFFFFFFFFFFFFFFFFFFFFFFFFFFFFFFF AND PUSH20 0xFFFFFFFFFFFFFFFFFFFFFFFFFFFFFFFFFFFFFFFF AND DUP2 MSTORE PUSH1 0x20 ADD SWAP1 DUP2 MSTORE PUSH1 0x20 ADD PUSH1 0x0 KECCAK256 PUSH1 0x0 SWAP1 SLOAD SWAP1 PUSH2 0x100 EXP SWAP1 DIV PUSH1 0xFF AND ISZERO PUSH2 0x1E8 JUMPI PUSH1 0x40 MLOAD PUSH32 0x8C379A000000000000000000000000000000000000000000000000000000000 DUP2 MSTORE PUSH1 0x4 ADD PUSH2 0x1DF SWAP1 PUSH2 0xC0E JUMP JUMPDEST PUSH1 0x40 MLOAD DUP1 SWAP2 SUB SWAP1 REVERT JUMPDEST PUSH1 0x0 DUP2 DUP2 SLOAD DUP2 LT PUSH2 0x1FC JUMPI PUSH2 0x1FB PUSH2 0xC2E JUMP JUMPDEST JUMPDEST SWAP1 PUSH1 0x0 MSTORE PUSH1 0x20 PUSH1 0x0 KECCAK256 SWAP1 PUSH1 0x2 MUL ADD PUSH1 0x1 ADD PUSH1 0x0 DUP2 SLOAD DUP1 SWAP3 SWAP2 SWAP1 PUSH2 0x21E SWAP1 PUSH2 0xC8C JUMP JUMPDEST SWAP2 SWAP1 POP SSTORE POP PUSH1 0x1 DUP1 PUSH1 0x0 CALLER PUSH20 0xFFFFFFFFFFFFFFFFFFFFFFFFFFFFFFFFFFFFFFFF AND PUSH20 0xFFFFFFFFFFFFFFFFFFFFFFFFFFFFFFFFFFFFFFFF AND DUP2 MSTORE PUSH1 0x20 ADD SWAP1 DUP2 MSTORE PUSH1 0x20 ADD PUSH1 0x0 KECCAK256 PUSH1 0x0 PUSH2 0x100 EXP DUP2 SLOAD DUP2 PUSH1 0xFF MUL NOT AND SWAP1 DUP4 ISZERO ISZERO MUL OR SWAP1 SSTORE POP POP JUMP JUMPDEST PUSH1 0x1 PUSH1 0x20 MSTORE DUP1 PUSH1 0x0 MSTORE PUSH1 0x40 PUSH1 0x0 KECCAK256 PUSH1 0x0 SWAP2 POP SLOAD SWAP1 PUSH2 0x100 EXP SWAP1 DIV PUSH1 0xFF AND DUP2 JUMP JUMPDEST PUSH1 0x0 DUP2 DUP2 SLOAD DUP2 LT PUSH2 0x2AD JUMPI PUSH1 0x0 DUP1 REVERT JUMPDEST SWAP1 PUSH1 0x0 MSTORE PUSH1 0x20 PUSH1 0x0 KECCAK256 SWAP1 PUSH1 0x2 MUL ADD PUSH1 0x0 SWAP2 POP SWAP1 POP DUP1 PUSH1 0x0 ADD DUP1 SLOAD PUSH2 0x2D0 SWAP1 PUSH2 0xD03 JUMP JUMPDEST DUP1 PUSH1 0x1F ADD PUSH1 0x20 DUP1 SWAP2 DIV MUL PUSH1 0x20 ADD PUSH1 0x40 MLOAD SWAP1 DUP2 ADD PUSH1 0x40 MSTORE DUP1 SWAP3 SWAP2 SWAP1 DUP2 DUP2 MSTORE PUSH1 0x20 ADD DUP3 DUP1 SLOAD PUSH2 0x2FC SWAP1 PUSH2 0xD03 JUMP JUMPDEST DUP1 ISZERO PUSH2 0x349 JUMPI DUP1 PUSH1 0x1F LT PUSH2 0x31E JUMPI PUSH2 0x100 DUP1 DUP4 SLOAD DIV MUL DUP4 MSTORE SWAP2 PUSH1 0x20 ADD SWAP2 PUSH2 0x349 JUMP JUMPDEST DUP3 ADD SWAP2 SWAP1 PUSH1 0x0 MSTORE PUSH1 0x20 PUSH1 0x0 KECCAK256 SWAP1 JUMPDEST DUP2 SLOAD DUP2 MSTORE SWAP1 PUSH1 0x1 ADD SWAP1 PUSH1 0x20 ADD DUP1 DUP4 GT PUSH2 0x32C JUMPI DUP3 SWAP1 SUB PUSH1 0x1F AND DUP3 ADD SWAP2 JUMPDEST POP POP POP POP POP SWAP1 DUP1 PUSH1 0x1 ADD SLOAD SWAP1 POP DUP3 JUMP JUMPDEST PUSH1 0x60 DUP1 PUSH1 0x0 DUP1 DUP1 SLOAD SWAP1 POP SWAP1 POP PUSH1 0x0 DUP2 PUSH8 0xFFFFFFFFFFFFFFFF DUP2 GT ISZERO PUSH2 0x381 JUMPI PUSH2 0x380 PUSH2 0x9BC JUMP JUMPDEST JUMPDEST PUSH1 0x40 MLOAD SWAP1 DUP1 DUP3 MSTORE DUP1 PUSH1 0x20 MUL PUSH1 0x20 ADD DUP3 ADD PUSH1 0x40 MSTORE DUP1 ISZERO PUSH2 0x3B4 JUMPI DUP2 PUSH1 0x20 ADD JUMPDEST PUSH1 0x60 DUP2 MSTORE PUSH1 0x20 ADD SWAP1 PUSH1 0x1 SWAP1 SUB SWAP1 DUP2 PUSH2 0x39F JUMPI SWAP1 POP JUMPDEST POP SWAP1 POP PUSH1 0x0 DUP3 PUSH8 0xFFFFFFFFFFFFFFFF DUP2 GT ISZERO PUSH2 0x3D3 JUMPI PUSH2 0x3D2 PUSH2 0x9BC JUMP JUMPDEST JUMPDEST PUSH1 0x40 MLOAD SWAP1 DUP1 DUP3 MSTORE DUP1 PUSH1 0x20 MUL PUSH1 0x20 ADD DUP3 ADD PUSH1 0x40 MSTORE DUP1 ISZERO PUSH2 0x401 JUMPI DUP2 PUSH1 0x20 ADD PUSH1 0x20 DUP3 MUL DUP1 CALLDATASIZE DUP4 CALLDATACOPY DUP1 DUP3 ADD SWAP2 POP POP SWAP1 POP JUMPDEST POP SWAP1 POP PUSH1 0x0 JUMPDEST DUP4 DUP2 LT ISZERO PUSH2 0x536 JUMPI PUSH1 0x0 DUP1 DUP3 DUP2 SLOAD DUP2 LT PUSH2 0x424 JUMPI PUSH2 0x423 PUSH2 0xC2E JUMP JUMPDEST JUMPDEST SWAP1 PUSH1 0x0 MSTORE PUSH1 0x20 PUSH1 0x0 KECCAK256 SWAP1 PUSH1 0x2 MUL ADD PUSH1 0x40 MLOAD DUP1 PUSH1 0x40 ADD PUSH1 0x40 MSTORE SWAP1 DUP2 PUSH1 0x0 DUP3 ADD DUP1 SLOAD PUSH2 0x44D SWAP1 PUSH2 0xD03 JUMP JUMPDEST DUP1 PUSH1 0x1F ADD PUSH1 0x20 DUP1 SWAP2 DIV MUL PUSH1 0x20 ADD PUSH1 0x40 MLOAD SWAP1 DUP2 ADD PUSH1 0x40 MSTORE DUP1 SWAP3 SWAP2 SWAP1 DUP2 DUP2 MSTORE PUSH1 0x20 ADD DUP3 DUP1 SLOAD PUSH2 0x479 SWAP1 PUSH2 0xD03 JUMP JUMPDEST DUP1 ISZERO PUSH2 0x4C6 JUMPI DUP1 PUSH1 0x1F LT PUSH2 0x49B JUMPI PUSH2 0x100 DUP1 DUP4 SLOAD DIV MUL DUP4 MSTORE SWAP2 PUSH1 0x20 ADD SWAP2 PUSH2 0x4C6 JUMP JUMPDEST DUP3 ADD SWAP2 SWAP1 PUSH1 0x0 MSTORE PUSH1 0x20 PUSH1 0x0 KECCAK256 SWAP1 JUMPDEST DUP2 SLOAD DUP2 MSTORE SWAP1 PUSH1 0x1 ADD SWAP1 PUSH1 0x20 ADD DUP1 DUP4 GT PUSH2 0x4A9 JUMPI DUP3 SWAP1 SUB PUSH1 0x1F AND DUP3 ADD SWAP2 JUMPDEST POP POP POP POP POP DUP2 MSTORE PUSH1 0x20 ADD PUSH1 0x1 DUP3 ADD SLOAD DUP2 MSTORE POP POP SWAP1 POP DUP1 PUSH1 0x0 ADD MLOAD DUP5 DUP4 DUP2 MLOAD DUP2 LT PUSH2 0x4F3 JUMPI PUSH2 0x4F2 PUSH2 0xC2E JUMP JUMPDEST JUMPDEST PUSH1 0x20 MUL PUSH1 0x20 ADD ADD DUP2 SWAP1 MSTORE POP DUP1 PUSH1 0x20 ADD MLOAD DUP4 DUP4 DUP2 MLOAD DUP2 LT PUSH2 0x516 JUMPI PUSH2 0x515 PUSH2 0xC2E JUMP JUMPDEST JUMPDEST PUSH1 0x20 MUL PUSH1 0x20 ADD ADD DUP2 DUP2 MSTORE POP POP POP DUP1 DUP1 PUSH2 0x52E SWAP1 PUSH2 0xC8C JUMP JUMPDEST SWAP2 POP POP PUSH2 0x407 JUMP JUMPDEST POP DUP2 DUP2 SWAP5 POP SWAP5 POP POP POP POP SWAP1 SWAP2 JUMP JUMPDEST PUSH1 0x0 PUSH1 0x40 MLOAD DUP1 PUSH1 0x40 ADD PUSH1 0x40 MSTORE DUP1 DUP4 DUP2 MSTORE PUSH1 0x20 ADD PUSH1 0x0 DUP2 MSTORE POP SWAP1 DUP1 PUSH1 0x1 DUP2 SLOAD ADD DUP1 DUP3 SSTORE DUP1 SWAP2 POP POP PUSH1 0x1 SWAP1 SUB SWAP1 PUSH1 0x0 MSTORE PUSH1 0x20 PUSH1 0x0 KECCAK256 SWAP1 PUSH1 0x2 MUL ADD PUSH1 0x0 SWAP1 SWAP2 SWAP1 SWAP2 SWAP1 SWAP2 POP PUSH1 0x0 DUP3 ADD MLOAD DUP2 PUSH1 0x0 ADD SWAP1 DUP2 PUSH2 0x59A SWAP2 SWAP1 PUSH2 0xEE0 JUMP JUMPDEST POP PUSH1 0x20 DUP3 ADD MLOAD DUP2 PUSH1 0x1 ADD SSTORE POP POP POP JUMP JUMPDEST PUSH1 0x0 PUSH1 0x40 MLOAD SWAP1 POP SWAP1 JUMP JUMPDEST PUSH1 0x0 DUP1 REVERT JUMPDEST PUSH1 0x0 DUP1 REVERT JUMPDEST PUSH1 0x0 DUP2 SWAP1 POP SWAP2 SWAP1 POP JUMP JUMPDEST PUSH2 0x5D1 DUP2 PUSH2 0x5BE JUMP JUMPDEST DUP2 EQ PUSH2 0x5DC JUMPI PUSH1 0x0 DUP1 REVERT JUMPDEST POP JUMP JUMPDEST PUSH1 0x0 DUP2 CALLDATALOAD SWAP1 POP PUSH2 0x5EE DUP2 PUSH2 0x5C8 JUMP JUMPDEST SWAP3 SWAP2 POP POP JUMP JUMPDEST PUSH1 0x0 PUSH1 0x20 DUP3 DUP5 SUB SLT ISZERO PUSH2 0x60A JUMPI PUSH2 0x609 PUSH2 0x5B4 JUMP JUMPDEST JUMPDEST PUSH1 0x0 PUSH2 0x618 DUP5 DUP3 DUP6 ADD PUSH2 0x5DF JUMP JUMPDEST SWAP2 POP POP SWAP3 SWAP2 POP POP JUMP JUMPDEST PUSH1 0x0 PUSH20 0xFFFFFFFFFFFFFFFFFFFFFFFFFFFFFFFFFFFFFFFF DUP3 AND SWAP1 POP SWAP2 SWAP1 POP JUMP JUMPDEST PUSH1 0x0 PUSH2 0x64C DUP3 PUSH2 0x621 JUMP JUMPDEST SWAP1 POP SWAP2 SWAP1 POP JUMP JUMPDEST PUSH2 0x65C DUP2 PUSH2 0x641 JUMP JUMPDEST DUP2 EQ PUSH2 0x667 JUMPI PUSH1 0x0 DUP1 REVERT JUMPDEST POP JUMP JUMPDEST PUSH1 0x0 DUP2 CALLDATALOAD SWAP1 POP PUSH2 0x679 DUP2 PUSH2 0x653 JUMP JUMPDEST SWAP3 SWAP2 POP POP JUMP JUMPDEST PUSH1 0x0 PUSH1 0x20 DUP3 DUP5 SUB SLT ISZERO PUSH2 0x695 JUMPI PUSH2 0x694 PUSH2 0x5B4 JUMP JUMPDEST JUMPDEST PUSH1 0x0 PUSH2 0x6A3 DUP5 DUP3 DUP6 ADD PUSH2 0x66A JUMP JUMPDEST SWAP2 POP POP SWAP3 SWAP2 POP POP JUMP JUMPDEST PUSH1 0x0 DUP2 ISZERO ISZERO SWAP1 POP SWAP2 SWAP1 POP JUMP JUMPDEST PUSH2 0x6C1 DUP2 PUSH2 0x6AC JUMP JUMPDEST DUP3 MSTORE POP POP JUMP JUMPDEST PUSH1 0x0 PUSH1 0x20 DUP3 ADD SWAP1 POP PUSH2 0x6DC PUSH1 0x0 DUP4 ADD DUP5 PUSH2 0x6B8 JUMP JUMPDEST SWAP3 SWAP2 POP POP JUMP JUMPDEST PUSH1 0x0 DUP2 MLOAD SWAP1 POP SWAP2 SWAP1 POP JUMP JUMPDEST PUSH1 0x0 DUP3 DUP3 MSTORE PUSH1 0x20 DUP3 ADD SWAP1 POP SWAP3 SWAP2 POP POP JUMP JUMPDEST PUSH1 0x0 JUMPDEST DUP4 DUP2 LT ISZERO PUSH2 0x71C JUMPI DUP1 DUP3 ADD MLOAD DUP2 DUP5 ADD MSTORE PUSH1 0x20 DUP2 ADD SWAP1 POP PUSH2 0x701 JUMP JUMPDEST PUSH1 0x0 DUP5 DUP5 ADD MSTORE POP POP POP POP JUMP JUMPDEST PUSH1 0x0 PUSH1 0x1F NOT PUSH1 0x1F DUP4 ADD AND SWAP1 POP SWAP2 SWAP1 POP JUMP JUMPDEST PUSH1 0x0 PUSH2 0x744 DUP3 PUSH2 0x6E2 JUMP JUMPDEST PUSH2 0x74E DUP2 DUP6 PUSH2 0x6ED JUMP JUMPDEST SWAP4 POP PUSH2 0x75E DUP2 DUP6 PUSH1 0x20 DUP7 ADD PUSH2 0x6FE JUMP JUMPDEST PUSH2 0x767 DUP2 PUSH2 0x728 JUMP JUMPDEST DUP5 ADD SWAP2 POP POP SWAP3 SWAP2 POP POP JUMP JUMPDEST PUSH2 0x77B DUP2 PUSH2 0x5BE JUMP JUMPDEST DUP3 MSTORE POP POP JUMP JUMPDEST PUSH1 0x0 PUSH1 0x40 DUP3 ADD SWAP1 POP DUP2 DUP2 SUB PUSH1 0x0 DUP4 ADD MSTORE PUSH2 0x79B DUP2 DUP6 PUSH2 0x739 JUMP JUMPDEST SWAP1 POP PUSH2 0x7AA PUSH1 0x20 DUP4 ADD DUP5 PUSH2 0x772 JUMP JUMPDEST SWAP4 SWAP3 POP POP POP JUMP JUMPDEST PUSH1 0x0 DUP2 MLOAD SWAP1 POP SWAP2 SWAP1 POP JUMP JUMPDEST PUSH1 0x0 DUP3 DUP3 MSTORE PUSH1 0x20 DUP3 ADD SWAP1 POP SWAP3 SWAP2 POP POP JUMP JUMPDEST PUSH1 0x0 DUP2 SWAP1 POP PUSH1 0x20 DUP3 ADD SWAP1 POP SWAP2 SWAP1 POP JUMP JUMPDEST PUSH1 0x0 DUP3 DUP3 MSTORE PUSH1 0x20 DUP3 ADD SWAP1 POP SWAP3 SWAP2 POP POP JUMP JUMPDEST PUSH1 0x0 PUSH2 0x7F9 DUP3 PUSH2 0x6E2 JUMP JUMPDEST PUSH2 0x803 DUP2 DUP6 PUSH2 0x7DD JUMP JUMPDEST SWAP4 POP PUSH2 0x813 DUP2 DUP6 PUSH1 0x20 DUP7 ADD PUSH2 0x6FE JUMP JUMPDEST PUSH2 0x81C DUP2 PUSH2 0x728 JUMP JUMPDEST DUP5 ADD SWAP2 POP POP SWAP3 SWAP2 POP POP JUMP JUMPDEST PUSH1 0x0 PUSH2 0x833 DUP4 DUP4 PUSH2 0x7EE JUMP JUMPDEST SWAP1 POP SWAP3 SWAP2 POP POP JUMP JUMPDEST PUSH1 0x0 PUSH1 0x20 DUP3 ADD SWAP1 POP SWAP2 SWAP1 POP JUMP JUMPDEST PUSH1 0x0 PUSH2 0x853 DUP3 PUSH2 0x7B1 JUMP JUMPDEST PUSH2 0x85D DUP2 DUP6 PUSH2 0x7BC JUMP JUMPDEST SWAP4 POP DUP4 PUSH1 0x20 DUP3 MUL DUP6 ADD PUSH2 0x86F DUP6 PUSH2 0x7CD JUMP JUMPDEST DUP1 PUSH1 0x0 JUMPDEST DUP6 DUP2 LT ISZERO PUSH2 0x8AB JUMPI DUP5 DUP5 SUB DUP10 MSTORE DUP2 MLOAD PUSH2 0x88C DUP6 DUP3 PUSH2 0x827 JUMP JUMPDEST SWAP5 POP PUSH2 0x897 DUP4 PUSH2 0x83B JUMP JUMPDEST SWAP3 POP PUSH1 0x20 DUP11 ADD SWAP10 POP POP PUSH1 0x1 DUP2 ADD SWAP1 POP PUSH2 0x873 JUMP JUMPDEST POP DUP3 SWAP8 POP DUP8 SWAP6 POP POP POP POP POP POP SWAP3 SWAP2 POP POP JUMP JUMPDEST PUSH1 0x0 DUP2 MLOAD SWAP1 POP SWAP2 SWAP1 POP JUMP JUMPDEST PUSH1 0x0 DUP3 DUP3 MSTORE PUSH1 0x20 DUP3 ADD SWAP1 POP SWAP3 SWAP2 POP POP JUMP JUMPDEST PUSH1 0x0 DUP2 SWAP1 POP PUSH1 0x20 DUP3 ADD SWAP1 POP SWAP2 SWAP1 POP JUMP JUMPDEST PUSH2 0x8F2 DUP2 PUSH2 0x5BE JUMP JUMPDEST DUP3 MSTORE POP POP JUMP JUMPDEST PUSH1 0x0 PUSH2 0x904 DUP4 DUP4 PUSH2 0x8E9 JUMP JUMPDEST PUSH1 0x20 DUP4 ADD SWAP1 POP SWAP3 SWAP2 POP POP JUMP JUMPDEST PUSH1 0x0 PUSH1 0x20 DUP3 ADD SWAP1 POP SWAP2 SWAP1 POP JUMP JUMPDEST PUSH1 0x0 PUSH2 0x928 DUP3 PUSH2 0x8BD JUMP JUMPDEST PUSH2 0x932 DUP2 DUP6 PUSH2 0x8C8 JUMP JUMPDEST SWAP4 POP PUSH2 0x93D DUP4 PUSH2 0x8D9 JUMP JUMPDEST DUP1 PUSH1 0x0 JUMPDEST DUP4 DUP2 LT ISZERO PUSH2 0x96E JUMPI DUP2 MLOAD PUSH2 0x955 DUP9 DUP3 PUSH2 0x8F8 JUMP JUMPDEST SWAP8 POP PUSH2 0x960 DUP4 PUSH2 0x910 JUMP JUMPDEST SWAP3 POP POP PUSH1 0x1 DUP2 ADD SWAP1 POP PUSH2 0x941 JUMP JUMPDEST POP DUP6 SWAP4 POP POP POP POP SWAP3 SWAP2 POP POP JUMP JUMPDEST PUSH1 0x0 PUSH1 0x40 DUP3 ADD SWAP1 POP DUP2 DUP2 SUB PUSH1 0x0 DUP4 ADD MSTORE PUSH2 0x995 DUP2 DUP6 PUSH2 0x848 JUMP JUMPDEST SWAP1 POP DUP2 DUP2 SUB PUSH1 0x20 DUP4 ADD MSTORE PUSH2 0x9A9 DUP2 DUP5 PUSH2 0x91D JUMP JUMPDEST SWAP1 POP SWAP4 SWAP3 POP POP POP JUMP JUMPDEST PUSH1 0x0 DUP1 REVERT JUMPDEST PUSH1 0x0 DUP1 REVERT JUMPDEST PUSH32 0x4E487B7100000000000000000000000000000000000000000000000000000000 PUSH1 0x0 MSTORE PUSH1 0x41 PUSH1 0x4 MSTORE PUSH1 0x24 PUSH1 0x0 REVERT JUMPDEST PUSH2 0x9F4 DUP3 PUSH2 0x728 JUMP JUMPDEST DUP2 ADD DUP2 DUP2 LT PUSH8 0xFFFFFFFFFFFFFFFF DUP3 GT OR ISZERO PUSH2 0xA13 JUMPI PUSH2 0xA12 PUSH2 0x9BC JUMP JUMPDEST JUMPDEST DUP1 PUSH1 0x40 MSTORE POP POP POP JUMP JUMPDEST PUSH1 0x0 PUSH2 0xA26 PUSH2 0x5AA JUMP JUMPDEST SWAP1 POP PUSH2 0xA32 DUP3 DUP3 PUSH2 0x9EB JUMP JUMPDEST SWAP2 SWAP1 POP JUMP JUMPDEST PUSH1 0x0 PUSH8 0xFFFFFFFFFFFFFFFF DUP3 GT ISZERO PUSH2 0xA52 JUMPI PUSH2 0xA51 PUSH2 0x9BC JUMP JUMPDEST JUMPDEST PUSH2 0xA5B DUP3 PUSH2 0x728 JUMP JUMPDEST SWAP1 POP PUSH1 0x20 DUP2 ADD SWAP1 POP SWAP2 SWAP1 POP JUMP JUMPDEST DUP3 DUP2 DUP4 CALLDATACOPY PUSH1 0x0 DUP4 DUP4 ADD MSTORE POP POP POP JUMP JUMPDEST PUSH1 0x0 PUSH2 0xA8A PUSH2 0xA85 DUP5 PUSH2 0xA37 JUMP JUMPDEST PUSH2 0xA1C JUMP JUMPDEST SWAP1 POP DUP3 DUP2 MSTORE PUSH1 0x20 DUP2 ADD DUP5 DUP5 DUP5 ADD GT ISZERO PUSH2 0xAA6 JUMPI PUSH2 0xAA5 PUSH2 0x9B7 JUMP JUMPDEST JUMPDEST PUSH2 0xAB1 DUP5 DUP3 DUP6 PUSH2 0xA68 JUMP JUMPDEST POP SWAP4 SWAP3 POP POP POP JUMP JUMPDEST PUSH1 0x0 DUP3 PUSH1 0x1F DUP4 ADD SLT PUSH2 0xACE JUMPI PUSH2 0xACD PUSH2 0x9B2 JUMP JUMPDEST JUMPDEST DUP2 CALLDATALOAD PUSH2 0xADE DUP5 DUP3 PUSH1 0x20 DUP7 ADD PUSH2 0xA77 JUMP JUMPDEST SWAP2 POP POP SWAP3 SWAP2 POP POP JUMP JUMPDEST PUSH1 0x0 PUSH1 0x20 DUP3 DUP5 SUB SLT ISZERO PUSH2 0xAFD JUMPI PUSH2 0xAFC PUSH2 0x5B4 JUMP JUMPDEST JUMPDEST PUSH1 0x0 DUP3 ADD CALLDATALOAD PUSH8 0xFFFFFFFFFFFFFFFF DUP2 GT ISZERO PUSH2 0xB1B JUMPI PUSH2 0xB1A PUSH2 0x5B9 JUMP JUMPDEST JUMPDEST PUSH2 0xB27 DUP5 DUP3 DUP6 ADD PUSH2 0xAB9 JUMP JUMPDEST SWAP2 POP POP SWAP3 SWAP2 POP POP JUMP JUMPDEST PUSH32 0x496E64696365206465206F7063696F6E20646520766F746F20696E76616C6964 PUSH1 0x0 DUP3 ADD MSTORE PUSH32 0x6F00000000000000000000000000000000000000000000000000000000000000 PUSH1 0x20 DUP3 ADD MSTORE POP JUMP JUMPDEST PUSH1 0x0 PUSH2 0xB8C PUSH1 0x21 DUP4 PUSH2 0x6ED JUMP JUMPDEST SWAP2 POP PUSH2 0xB97 DUP3 PUSH2 0xB30 JUMP JUMPDEST PUSH1 0x40 DUP3 ADD SWAP1 POP SWAP2 SWAP1 POP JUMP JUMPDEST PUSH1 0x0 PUSH1 0x20 DUP3 ADD SWAP1 POP DUP2 DUP2 SUB PUSH1 0x0 DUP4 ADD MSTORE PUSH2 0xBBB DUP2 PUSH2 0xB7F JUMP JUMPDEST SWAP1 POP SWAP2 SWAP1 POP JUMP JUMPDEST PUSH32 0x79612068617320766F7461646F00000000000000000000000000000000000000 PUSH1 0x0 DUP3 ADD MSTORE POP JUMP JUMPDEST PUSH1 0x0 PUSH2 0xBF8 PUSH1 0xD DUP4 PUSH2 0x6ED JUMP JUMPDEST SWAP2 POP PUSH2 0xC03 DUP3 PUSH2 0xBC2 JUMP JUMPDEST PUSH1 0x20 DUP3 ADD SWAP1 POP SWAP2 SWAP1 POP JUMP JUMPDEST PUSH1 0x0 PUSH1 0x20 DUP3 ADD SWAP1 POP DUP2 DUP2 SUB PUSH1 0x0 DUP4 ADD MSTORE PUSH2 0xC27 DUP2 PUSH2 0xBEB JUMP JUMPDEST SWAP1 POP SWAP2 SWAP1 POP JUMP JUMPDEST PUSH32 0x4E487B7100000000000000000000000000000000000000000000000000000000 PUSH1 0x0 MSTORE PUSH1 0x32 PUSH1 0x4 MSTORE PUSH1 0x24 PUSH1 0x0 REVERT JUMPDEST PUSH32 0x4E487B7100000000000000000000000000000000000000000000000000000000 PUSH1 0x0 MSTORE PUSH1 0x11 PUSH1 0x4 MSTORE PUSH1 0x24 PUSH1 0x0 REVERT JUMPDEST PUSH1 0x0 PUSH2 0xC97 DUP3 PUSH2 0x5BE JUMP JUMPDEST SWAP2 POP PUSH32 0xFFFFFFFFFFFFFFFFFFFFFFFFFFFFFFFFFFFFFFFFFFFFFFFFFFFFFFFFFFFFFFFF DUP3 SUB PUSH2 0xCC9 JUMPI PUSH2 0xCC8 PUSH2 0xC5D JUMP JUMPDEST JUMPDEST PUSH1 0x1 DUP3 ADD SWAP1 POP SWAP2 SWAP1 POP JUMP JUMPDEST PUSH32 0x4E487B7100000000000000000000000000000000000000000000000000000000 PUSH1 0x0 MSTORE PUSH1 0x22 PUSH1 0x4 MSTORE PUSH1 0x24 PUSH1 0x0 REVERT JUMPDEST PUSH1 0x0 PUSH1 0x2 DUP3 DIV SWAP1 POP PUSH1 0x1 DUP3 AND DUP1 PUSH2 0xD1B JUMPI PUSH1 0x7F DUP3 AND SWAP2 POP JUMPDEST PUSH1 0x20 DUP3 LT DUP2 SUB PUSH2 0xD2E JUMPI PUSH2 0xD2D PUSH2 0xCD4 JUMP JUMPDEST JUMPDEST POP SWAP2 SWAP1 POP JUMP JUMPDEST PUSH1 0x0 DUP2 SWAP1 POP DUP2 PUSH1 0x0 MSTORE PUSH1 0x20 PUSH1 0x0 KECCAK256 SWAP1 POP SWAP2 SWAP1 POP JUMP JUMPDEST PUSH1 0x0 PUSH1 0x20 PUSH1 0x1F DUP4 ADD DIV SWAP1 POP SWAP2 SWAP1 POP JUMP JUMPDEST PUSH1 0x0 DUP3 DUP3 SHL SWAP1 POP SWAP3 SWAP2 POP POP JUMP JUMPDEST PUSH1 0x0 PUSH1 0x8 DUP4 MUL PUSH2 0xD96 PUSH32 0xFFFFFFFFFFFFFFFFFFFFFFFFFFFFFFFFFFFFFFFFFFFFFFFFFFFFFFFFFFFFFFFF DUP3 PUSH2 0xD59 JUMP JUMPDEST PUSH2 0xDA0 DUP7 DUP4 PUSH2 0xD59 JUMP JUMPDEST SWAP6 POP DUP1 NOT DUP5 AND SWAP4 POP DUP1 DUP7 AND DUP5 OR SWAP3 POP POP POP SWAP4 SWAP3 POP POP POP JUMP JUMPDEST PUSH1 0x0 DUP2 SWAP1 POP SWAP2 SWAP1 POP JUMP JUMPDEST PUSH1 0x0 PUSH2 0xDDD PUSH2 0xDD8 PUSH2 0xDD3 DUP5 PUSH2 0x5BE JUMP JUMPDEST PUSH2 0xDB8 JUMP JUMPDEST PUSH2 0x5BE JUMP JUMPDEST SWAP1 POP SWAP2 SWAP1 POP JUMP JUMPDEST PUSH1 0x0 DUP2 SWAP1 POP SWAP2 SWAP1 POP JUMP JUMPDEST PUSH2 0xDF7 DUP4 PUSH2 0xDC2 JUMP JUMPDEST PUSH2 0xE0B PUSH2 0xE03 DUP3 PUSH2 0xDE4 JUMP JUMPDEST DUP5 DUP5 SLOAD PUSH2 0xD66 JUMP JUMPDEST DUP3 SSTORE POP POP POP POP JUMP JUMPDEST PUSH1 0x0 SWAP1 JUMP JUMPDEST PUSH2 0xE20 PUSH2 0xE13 JUMP JUMPDEST PUSH2 0xE2B DUP2 DUP5 DUP5 PUSH2 0xDEE JUMP JUMPDEST POP POP POP JUMP JUMPDEST JUMPDEST DUP2 DUP2 LT ISZERO PUSH2 0xE4F JUMPI PUSH2 0xE44 PUSH1 0x0 DUP3 PUSH2 0xE18 JUMP JUMPDEST PUSH1 0x1 DUP2 ADD SWAP1 POP PUSH2 0xE31 JUMP JUMPDEST POP POP JUMP JUMPDEST PUSH1 0x1F DUP3 GT ISZERO PUSH2 0xE94 JUMPI PUSH2 0xE65 DUP2 PUSH2 0xD34 JUMP JUMPDEST PUSH2 0xE6E DUP5 PUSH2 0xD49 JUMP JUMPDEST DUP2 ADD PUSH1 0x20 DUP6 LT ISZERO PUSH2 0xE7D JUMPI DUP2 SWAP1 POP JUMPDEST PUSH2 0xE91 PUSH2 0xE89 DUP6 PUSH2 0xD49 JUMP JUMPDEST DUP4 ADD DUP3 PUSH2 0xE30 JUMP JUMPDEST POP POP JUMPDEST POP POP POP JUMP JUMPDEST PUSH1 0x0 DUP3 DUP3 SHR SWAP1 POP SWAP3 SWAP2 POP POP JUMP JUMPDEST PUSH1 0x0 PUSH2 0xEB7 PUSH1 0x0 NOT DUP5 PUSH1 0x8 MUL PUSH2 0xE99 JUMP JUMPDEST NOT DUP1 DUP4 AND SWAP2 POP POP SWAP3 SWAP2 POP POP JUMP JUMPDEST PUSH1 0x0 PUSH2 0xED0 DUP4 DUP4 PUSH2 0xEA6 JUMP JUMPDEST SWAP2 POP DUP3 PUSH1 0x2 MUL DUP3 OR SWAP1 POP SWAP3 SWAP2 POP POP JUMP JUMPDEST PUSH2 0xEE9 DUP3 PUSH2 0x6E2 JUMP JUMPDEST PUSH8 0xFFFFFFFFFFFFFFFF DUP2 GT ISZERO PUSH2 0xF02 JUMPI PUSH2 0xF01 PUSH2 0x9BC JUMP JUMPDEST JUMPDEST PUSH2 0xF0C DUP3 SLOAD PUSH2 0xD03 JUMP JUMPDEST PUSH2 0xF17 DUP3 DUP3 DUP6 PUSH2 0xE53 JUMP JUMPDEST PUSH1 0x0 PUSH1 0x20 SWAP1 POP PUSH1 0x1F DUP4 GT PUSH1 0x1 DUP2 EQ PUSH2 0xF4A JUMPI PUSH1 0x0 DUP5 ISZERO PUSH2 0xF38 JUMPI DUP3 DUP8 ADD MLOAD SWAP1 POP JUMPDEST PUSH2 0xF42 DUP6 DUP3 PUSH2 0xEC4 JUMP JUMPDEST DUP7 SSTORE POP PUSH2 0xFAA JUMP JUMPDEST PUSH1 0x1F NOT DUP5 AND PUSH2 0xF58 DUP7 PUSH2 0xD34 JUMP JUMPDEST PUSH1 0x0 JUMPDEST DUP3 DUP2 LT ISZERO PUSH2 0xF80 JUMPI DUP5 DUP10 ADD MLOAD DUP3 SSTORE PUSH1 0x1 DUP3 ADD SWAP2 POP PUSH1 0x20 DUP6 ADD SWAP5 POP PUSH1 0x20 DUP2 ADD SWAP1 POP PUSH2 0xF5B JUMP JUMPDEST DUP7 DUP4 LT ISZERO PUSH2 0xF9D JUMPI DUP5 DUP10 ADD MLOAD PUSH2 0xF99 PUSH1 0x1F DUP10 AND DUP3 PUSH2 0xEA6 JUMP JUMPDEST DUP4 SSTORE POP JUMPDEST PUSH1 0x1 PUSH1 0x2 DUP9 MUL ADD DUP9 SSTORE POP POP POP JUMPDEST POP POP POP POP POP POP JUMP INVALID LOG2 PUSH5 0x6970667358 0x22 SLT KECCAK256 0x2D 0x26 SAR 0xB7 MSIZE 0xCE 0xE1 SIGNEXTEND PUSH17 0x694787FB71C98155431096FF4C0E8B852D PUSH26 0x5D74E630DB64736F6C6343000811003300000000000000000000 "
				},
				"gasEstimates": {
					"creation": {
						"codeDepositCost": "814400",
						"executionCost": "851",
						"totalCost": "815251"
					},
					"external": {
						"agregarOpcionVoto(string)": "infinite",
						"haVotado(address)": "2845",
						"obtenerOpcionesVoto()": "infinite",
						"opcionesvoto(uint256)": "infinite",
						"votar(uint256)": "infinite"
					}
				},
				"methodIdentifiers": {
					"agregarOpcionVoto(string)": "f888ba74",
					"haVotado(address)": "355062cb",
					"obtenerOpcionesVoto()": "d790e986",
					"opcionesvoto(uint256)": "b9cd9955",
					"votar(uint256)": "21606831"
				}
			},
			"storageLayout": {
				"storage": [
					{
						"astId": 10,
						"contract": "contracts/Votacion.sol:Votacion",
						"label": "opcionesvoto",
						"offset": 0,
						"slot": "0",
						"type": "t_array(t_struct(OpcionVoto)6_storage)dyn_storage"
					},
					{
						"astId": 14,
						"contract": "contracts/Votacion.sol:Votacion",
						"label": "haVotado",
						"offset": 0,
						"slot": "1",
						"type": "t_mapping(t_address,t_bool)"
					}
				],
				"types": {
					"t_address": {
						"encoding": "inplace",
						"label": "address",
						"numberOfBytes": "20"
					},
					"t_array(t_struct(OpcionVoto)6_storage)dyn_storage": {
						"base": "t_struct(OpcionVoto)6_storage",
						"encoding": "dynamic_array",
						"label": "struct Votacion.OpcionVoto[]",
						"numberOfBytes": "32"
					},
					"t_bool": {
						"encoding": "inplace",
						"label": "bool",
						"numberOfBytes": "1"
					},
					"t_mapping(t_address,t_bool)": {
						"encoding": "mapping",
						"key": "t_address",
						"label": "mapping(address => bool)",
						"numberOfBytes": "32",
						"value": "t_bool"
					},
					"t_string_storage": {
						"encoding": "bytes",
						"label": "string",
						"numberOfBytes": "32"
					},
					"t_struct(OpcionVoto)6_storage": {
						"encoding": "inplace",
						"label": "struct Votacion.OpcionVoto",
						"members": [
							{
								"astId": 3,
								"contract": "contracts/Votacion.sol:Votacion",
								"label": "nombre",
								"offset": 0,
								"slot": "0",
								"type": "t_string_storage"
							},
							{
								"astId": 5,
								"contract": "contracts/Votacion.sol:Votacion",
								"label": "votos",
								"offset": 0,
								"slot": "1",
								"type": "t_uint256"
							}
						],
						"numberOfBytes": "64"
					},
					"t_uint256": {
						"encoding": "inplace",
						"label": "uint256",
						"numberOfBytes": "32"
					}
				}
			},
			"userdoc": {
				"kind": "user",
				"methods": {},
				"version": 1
			}
		}
	}
}