{
	"contracts/Struct.sol": {
		"structArray": {
			"abi": [
				{
					"inputs": [
						{
							"internalType": "string",
							"name": "_name",
							"type": "string"
						}
					],
					"name": "addName",
					"outputs": [],
					"stateMutability": "nonpayable",
					"type": "function"
				},
				{
					"inputs": [
						{
							"internalType": "string",
							"name": "_deleteName",
							"type": "string"
						}
					],
					"name": "deleteName",
					"outputs": [],
					"stateMutability": "nonpayable",
					"type": "function"
				},
				{
					"inputs": [],
					"name": "getArray",
					"outputs": [
						{
							"components": [
								{
									"internalType": "string",
									"name": "value",
									"type": "string"
								},
								{
									"internalType": "bool",
									"name": "enable",
									"type": "bool"
								}
							],
							"internalType": "struct structArray.Name[]",
							"name": "",
							"type": "tuple[]"
						}
					],
					"stateMutability": "view",
					"type": "function"
				},
				{
					"inputs": [
						{
							"internalType": "uint256",
							"name": "_index",
							"type": "uint256"
						}
					],
					"name": "getRow",
					"outputs": [
						{
							"internalType": "string",
							"name": "",
							"type": "string"
						},
						{
							"internalType": "bool",
							"name": "",
							"type": "bool"
						}
					],
					"stateMutability": "view",
					"type": "function"
				},
				{
					"inputs": [
						{
							"internalType": "uint256",
							"name": "",
							"type": "uint256"
						}
					],
					"name": "names",
					"outputs": [
						{
							"internalType": "string",
							"name": "value",
							"type": "string"
						},
						{
							"internalType": "bool",
							"name": "enable",
							"type": "bool"
						}
					],
					"stateMutability": "view",
					"type": "function"
				}
			],
			"devdoc": {
				"kind": "dev",
				"methods": {},
				"version": 1
			},
			"evm": {
				"assembly": "    /* \"contracts/Struct.sol\":62:917  contract structArray {... */\n  mstore(0x40, 0x80)\n  callvalue\n  dup1\n  iszero\n  tag_1\n  jumpi\n  0x00\n  dup1\n  revert\ntag_1:\n  pop\n  dataSize(sub_0)\n  dup1\n  dataOffset(sub_0)\n  0x00\n  codecopy\n  0x00\n  return\nstop\n\nsub_0: assembly {\n        /* \"contracts/Struct.sol\":62:917  contract structArray {... */\n      mstore(0x40, 0x80)\n      callvalue\n      dup1\n      iszero\n      tag_1\n      jumpi\n      0x00\n      dup1\n      revert\n    tag_1:\n      pop\n      jumpi(tag_2, lt(calldatasize, 0x04))\n      shr(0xe0, calldataload(0x00))\n      dup1\n      0x11456b47\n      eq\n      tag_3\n      jumpi\n      dup1\n      0x303a36e2\n      eq\n      tag_4\n      jumpi\n      dup1\n      0x4622ab03\n      eq\n      tag_5\n      jumpi\n      dup1\n      0x53a98ea9\n      eq\n      tag_6\n      jumpi\n      dup1\n      0xd504ea1d\n      eq\n      tag_7\n      jumpi\n    tag_2:\n      0x00\n      dup1\n      revert\n        /* \"contracts/Struct.sol\":196:306  function addName(string memory _name) public {... */\n    tag_3:\n      tag_8\n      0x04\n      dup1\n      calldatasize\n      sub\n      dup2\n      add\n      swap1\n      tag_9\n      swap2\n      swap1\n      tag_10\n      jump\t// in\n    tag_9:\n      tag_11\n      jump\t// in\n    tag_8:\n      stop\n        /* \"contracts/Struct.sol\":613:819  function getRow(uint256 _index) public view returns (string memory, bool) {... */\n    tag_4:\n      tag_12\n      0x04\n      dup1\n      calldatasize\n      sub\n      dup2\n      add\n      swap1\n      tag_13\n      swap2\n      swap1\n      tag_14\n      jump\t// in\n    tag_13:\n      tag_15\n      jump\t// in\n    tag_12:\n      mload(0x40)\n      tag_16\n      swap3\n      swap2\n      swap1\n      tag_17\n      jump\t// in\n    tag_16:\n      mload(0x40)\n      dup1\n      swap2\n      sub\n      swap1\n      return\n        /* \"contracts/Struct.sol\":168:187  Name[] public names */\n    tag_5:\n      tag_18\n      0x04\n      dup1\n      calldatasize\n      sub\n      dup2\n      add\n      swap1\n      tag_19\n      swap2\n      swap1\n      tag_14\n      jump\t// in\n    tag_19:\n      tag_20\n      jump\t// in\n    tag_18:\n      mload(0x40)\n      tag_21\n      swap3\n      swap2\n      swap1\n      tag_17\n      jump\t// in\n    tag_21:\n      mload(0x40)\n      dup1\n      swap2\n      sub\n      swap1\n      return\n        /* \"contracts/Struct.sol\":314:605  function deleteName(string memory _deleteName) public {... */\n    tag_6:\n      tag_22\n      0x04\n      dup1\n      calldatasize\n      sub\n      dup2\n      add\n      swap1\n      tag_23\n      swap2\n      swap1\n      tag_10\n      jump\t// in\n    tag_23:\n      tag_24\n      jump\t// in\n    tag_22:\n      stop\n        /* \"contracts/Struct.sol\":827:914  function getArray() public view returns (Name[] memory) {... */\n    tag_7:\n      tag_25\n      tag_26\n      jump\t// in\n    tag_25:\n      mload(0x40)\n      tag_27\n      swap2\n      swap1\n      tag_28\n      jump\t// in\n    tag_27:\n      mload(0x40)\n      dup1\n      swap2\n      sub\n      swap1\n      return\n        /* \"contracts/Struct.sol\":196:306  function addName(string memory _name) public {... */\n    tag_11:\n        /* \"contracts/Struct.sol\":252:257  names */\n      0x00\n        /* \"contracts/Struct.sol\":263:297  Name({value: _name, enable: true}) */\n      mload(0x40)\n      dup1\n      0x40\n      add\n      0x40\n      mstore\n      dup1\n        /* \"contracts/Struct.sol\":276:281  _name */\n      dup4\n        /* \"contracts/Struct.sol\":263:297  Name({value: _name, enable: true}) */\n      dup2\n      mstore\n      0x20\n      add\n        /* \"contracts/Struct.sol\":291:295  true */\n      0x01\n        /* \"contracts/Struct.sol\":263:297  Name({value: _name, enable: true}) */\n      iszero\n      iszero\n      dup2\n      mstore\n      pop\n        /* \"contracts/Struct.sol\":252:298  names.push(Name({value: _name, enable: true})) */\n      swap1\n      dup1\n      0x01\n      dup2\n      sload\n      add\n      dup1\n      dup3\n      sstore\n      dup1\n      swap2\n      pop\n      pop\n      0x01\n      swap1\n      sub\n      swap1\n      0x00\n      mstore\n      keccak256(0x00, 0x20)\n      swap1\n      0x02\n      mul\n      add\n      0x00\n      swap1\n      swap2\n      swap1\n      swap2\n      swap1\n      swap2\n      pop\n      0x00\n      dup3\n      add\n      mload\n      dup2\n      0x00\n      add\n      swap1\n      dup2\n      tag_31\n      swap2\n      swap1\n      tag_32\n      jump\t// in\n    tag_31:\n      pop\n      0x20\n      dup3\n      add\n      mload\n      dup2\n      0x01\n      add\n      exp(0x0100, 0x00)\n      dup2\n      sload\n      dup2\n      0xff\n      mul\n      not\n      and\n      swap1\n      dup4\n      iszero\n      iszero\n      mul\n      or\n      swap1\n      sstore\n      pop\n      pop\n      pop\n        /* \"contracts/Struct.sol\":196:306  function addName(string memory _name) public {... */\n      pop\n      jump\t// out\n        /* \"contracts/Struct.sol\":613:819  function getRow(uint256 _index) public view returns (string memory, bool) {... */\n    tag_15:\n        /* \"contracts/Struct.sol\":666:679  string memory */\n      0x60\n        /* \"contracts/Struct.sol\":681:685  bool */\n      0x00\n        /* \"contracts/Struct.sol\":715:720  names */\n      dup1\n        /* \"contracts/Struct.sol\":715:727  names.length */\n      dup1\n      sload\n      swap1\n      pop\n        /* \"contracts/Struct.sol\":706:712  _index */\n      dup4\n        /* \"contracts/Struct.sol\":706:727  _index < names.length */\n      lt\n        /* \"contracts/Struct.sol\":698:750  require(_index < names.length, \"index out of range\") */\n      tag_34\n      jumpi\n      mload(0x40)\n      0x08c379a000000000000000000000000000000000000000000000000000000000\n      dup2\n      mstore\n      0x04\n      add\n      tag_35\n      swap1\n      tag_36\n      jump\t// in\n    tag_35:\n      mload(0x40)\n      dup1\n      swap2\n      sub\n      swap1\n      revert\n    tag_34:\n        /* \"contracts/Struct.sol\":769:774  names */\n      0x00\n        /* \"contracts/Struct.sol\":775:781  _index */\n      dup4\n        /* \"contracts/Struct.sol\":769:782  names[_index] */\n      dup2\n      sload\n      dup2\n      lt\n      tag_37\n      jumpi\n      tag_38\n      tag_39\n      jump\t// in\n    tag_38:\n    tag_37:\n      swap1\n      0x00\n      mstore\n      keccak256(0x00, 0x20)\n      swap1\n      0x02\n      mul\n      add\n        /* \"contracts/Struct.sol\":769:788  names[_index].value */\n      0x00\n      add\n        /* \"contracts/Struct.sol\":790:795  names */\n      0x00\n        /* \"contracts/Struct.sol\":796:802  _index */\n      dup5\n        /* \"contracts/Struct.sol\":790:803  names[_index] */\n      dup2\n      sload\n      dup2\n      lt\n      tag_41\n      jumpi\n      tag_42\n      tag_39\n      jump\t// in\n    tag_42:\n    tag_41:\n      swap1\n      0x00\n      mstore\n      keccak256(0x00, 0x20)\n      swap1\n      0x02\n      mul\n      add\n        /* \"contracts/Struct.sol\":790:810  names[_index].enable */\n      0x01\n      add\n      0x00\n      swap1\n      sload\n      swap1\n      0x0100\n      exp\n      swap1\n      div\n      0xff\n      and\n        /* \"contracts/Struct.sol\":761:811  return (names[_index].value, names[_index].enable) */\n      dup2\n      dup1\n      sload\n      tag_44\n      swap1\n      tag_45\n      jump\t// in\n    tag_44:\n      dup1\n      0x1f\n      add\n      0x20\n      dup1\n      swap2\n      div\n      mul\n      0x20\n      add\n      mload(0x40)\n      swap1\n      dup2\n      add\n      0x40\n      mstore\n      dup1\n      swap3\n      swap2\n      swap1\n      dup2\n      dup2\n      mstore\n      0x20\n      add\n      dup3\n      dup1\n      sload\n      tag_46\n      swap1\n      tag_45\n      jump\t// in\n    tag_46:\n      dup1\n      iszero\n      tag_47\n      jumpi\n      dup1\n      0x1f\n      lt\n      tag_48\n      jumpi\n      0x0100\n      dup1\n      dup4\n      sload\n      div\n      mul\n      dup4\n      mstore\n      swap2\n      0x20\n      add\n      swap2\n      jump(tag_47)\n    tag_48:\n      dup3\n      add\n      swap2\n      swap1\n      0x00\n      mstore\n      keccak256(0x00, 0x20)\n      swap1\n    tag_49:\n      dup2\n      sload\n      dup2\n      mstore\n      swap1\n      0x01\n      add\n      swap1\n      0x20\n      add\n      dup1\n      dup4\n      gt\n      tag_49\n      jumpi\n      dup3\n      swap1\n      sub\n      0x1f\n      and\n      dup3\n      add\n      swap2\n    tag_47:\n      pop\n      pop\n      pop\n      pop\n      pop\n      swap2\n      pop\n      swap2\n      pop\n      swap2\n      pop\n        /* \"contracts/Struct.sol\":613:819  function getRow(uint256 _index) public view returns (string memory, bool) {... */\n      swap2\n      pop\n      swap2\n      jump\t// out\n        /* \"contracts/Struct.sol\":168:187  Name[] public names */\n    tag_20:\n      0x00\n      dup2\n      dup2\n      sload\n      dup2\n      lt\n      tag_50\n      jumpi\n      0x00\n      dup1\n      revert\n    tag_50:\n      swap1\n      0x00\n      mstore\n      keccak256(0x00, 0x20)\n      swap1\n      0x02\n      mul\n      add\n      0x00\n      swap2\n      pop\n      swap1\n      pop\n      dup1\n      0x00\n      add\n      dup1\n      sload\n      tag_52\n      swap1\n      tag_45\n      jump\t// in\n    tag_52:\n      dup1\n      0x1f\n      add\n      0x20\n      dup1\n      swap2\n      div\n      mul\n      0x20\n      add\n      mload(0x40)\n      swap1\n      dup2\n      add\n      0x40\n      mstore\n      dup1\n      swap3\n      swap2\n      swap1\n      dup2\n      dup2\n      mstore\n      0x20\n      add\n      dup3\n      dup1\n      sload\n      tag_53\n      swap1\n      tag_45\n      jump\t// in\n    tag_53:\n      dup1\n      iszero\n      tag_54\n      jumpi\n      dup1\n      0x1f\n      lt\n      tag_55\n      jumpi\n      0x0100\n      dup1\n      dup4\n      sload\n      div\n      mul\n      dup4\n      mstore\n      swap2\n      0x20\n      add\n      swap2\n      jump(tag_54)\n    tag_55:\n      dup3\n      add\n      swap2\n      swap1\n      0x00\n      mstore\n      keccak256(0x00, 0x20)\n      swap1\n    tag_56:\n      dup2\n      sload\n      dup2\n      mstore\n      swap1\n      0x01\n      add\n      swap1\n      0x20\n      add\n      dup1\n      dup4\n      gt\n      tag_56\n      jumpi\n      dup3\n      swap1\n      sub\n      0x1f\n      and\n      dup3\n      add\n      swap2\n    tag_54:\n      pop\n      pop\n      pop\n      pop\n      pop\n      swap1\n      dup1\n      0x01\n      add\n      0x00\n      swap1\n      sload\n      swap1\n      0x0100\n      exp\n      swap1\n      div\n      0xff\n      and\n      swap1\n      pop\n      dup3\n      jump\t// out\n        /* \"contracts/Struct.sol\":314:605  function deleteName(string memory _deleteName) public {... */\n    tag_24:\n        /* \"contracts/Struct.sol\":383:392  uint256 i */\n      0x00\n        /* \"contracts/Struct.sol\":379:598  for(uint256 i = 0; i < names.length;i++){... */\n    tag_58:\n        /* \"contracts/Struct.sol\":402:407  names */\n      0x00\n        /* \"contracts/Struct.sol\":402:414  names.length */\n      dup1\n      sload\n      swap1\n      pop\n        /* \"contracts/Struct.sol\":398:399  i */\n      dup2\n        /* \"contracts/Struct.sol\":398:414  i < names.length */\n      lt\n        /* \"contracts/Struct.sol\":379:598  for(uint256 i = 0; i < names.length;i++){... */\n      iszero\n      tag_59\n      jumpi\n        /* \"contracts/Struct.sol\":491:502  _deleteName */\n      dup2\n        /* \"contracts/Struct.sol\":475:504  keccak256(bytes(_deleteName)) */\n      dup1\n      mload\n      swap1\n      0x20\n      add\n      keccak256\n        /* \"contracts/Struct.sol\":455:460  names */\n      0x00\n        /* \"contracts/Struct.sol\":461:462  i */\n      dup3\n        /* \"contracts/Struct.sol\":455:463  names[i] */\n      dup2\n      sload\n      dup2\n      lt\n      tag_61\n      jumpi\n      tag_62\n      tag_39\n      jump\t// in\n    tag_62:\n    tag_61:\n      swap1\n      0x00\n      mstore\n      keccak256(0x00, 0x20)\n      swap1\n      0x02\n      mul\n      add\n        /* \"contracts/Struct.sol\":455:469  names[i].value */\n      0x00\n      add\n        /* \"contracts/Struct.sol\":439:471  keccak256(bytes(names[i].value)) */\n      mload(0x40)\n      tag_64\n      swap2\n      swap1\n      tag_65\n      jump\t// in\n    tag_64:\n      mload(0x40)\n      dup1\n      swap2\n      sub\n      swap1\n      keccak256\n        /* \"contracts/Struct.sol\":439:504  keccak256(bytes(names[i].value)) == keccak256(bytes(_deleteName)) */\n      sub\n        /* \"contracts/Struct.sol\":435:587  if (keccak256(bytes(names[i].value)) == keccak256(bytes(_deleteName))){... */\n      tag_66\n      jumpi\n        /* \"contracts/Struct.sol\":542:547  false */\n      0x00\n        /* \"contracts/Struct.sol\":524:529  names */\n      dup1\n        /* \"contracts/Struct.sol\":530:531  i */\n      dup3\n        /* \"contracts/Struct.sol\":524:532  names[i] */\n      dup2\n      sload\n      dup2\n      lt\n      tag_67\n      jumpi\n      tag_68\n      tag_39\n      jump\t// in\n    tag_68:\n    tag_67:\n      swap1\n      0x00\n      mstore\n      keccak256(0x00, 0x20)\n      swap1\n      0x02\n      mul\n      add\n        /* \"contracts/Struct.sol\":524:539  names[i].enable */\n      0x01\n      add\n      0x00\n        /* \"contracts/Struct.sol\":524:547  names[i].enable = false */\n      0x0100\n      exp\n      dup2\n      sload\n      dup2\n      0xff\n      mul\n      not\n      and\n      swap1\n      dup4\n      iszero\n      iszero\n      mul\n      or\n      swap1\n      sstore\n      pop\n        /* \"contracts/Struct.sol\":566:571  break */\n      jump(tag_59)\n        /* \"contracts/Struct.sol\":435:587  if (keccak256(bytes(names[i].value)) == keccak256(bytes(_deleteName))){... */\n    tag_66:\n        /* \"contracts/Struct.sol\":415:418  i++ */\n      dup1\n      dup1\n      tag_70\n      swap1\n      tag_71\n      jump\t// in\n    tag_70:\n      swap2\n      pop\n      pop\n        /* \"contracts/Struct.sol\":379:598  for(uint256 i = 0; i < names.length;i++){... */\n      jump(tag_58)\n    tag_59:\n      pop\n        /* \"contracts/Struct.sol\":314:605  function deleteName(string memory _deleteName) public {... */\n      pop\n      jump\t// out\n        /* \"contracts/Struct.sol\":827:914  function getArray() public view returns (Name[] memory) {... */\n    tag_26:\n        /* \"contracts/Struct.sol\":868:881  Name[] memory */\n      0x60\n        /* \"contracts/Struct.sol\":901:906  names */\n      0x00\n        /* \"contracts/Struct.sol\":894:906  return names */\n      dup1\n      sload\n      dup1\n      0x20\n      mul\n      0x20\n      add\n      mload(0x40)\n      swap1\n      dup2\n      add\n      0x40\n      mstore\n      dup1\n      swap3\n      swap2\n      swap1\n      dup2\n      dup2\n      mstore\n      0x20\n      add\n      0x00\n      swap1\n    tag_73:\n      dup3\n      dup3\n      lt\n      iszero\n      tag_74\n      jumpi\n      dup4\n      dup3\n      swap1\n      0x00\n      mstore\n      keccak256(0x00, 0x20)\n      swap1\n      0x02\n      mul\n      add\n      mload(0x40)\n      dup1\n      0x40\n      add\n      0x40\n      mstore\n      swap1\n      dup2\n      0x00\n      dup3\n      add\n      dup1\n      sload\n      tag_76\n      swap1\n      tag_45\n      jump\t// in\n    tag_76:\n      dup1\n      0x1f\n      add\n      0x20\n      dup1\n      swap2\n      div\n      mul\n      0x20\n      add\n      mload(0x40)\n      swap1\n      dup2\n      add\n      0x40\n      mstore\n      dup1\n      swap3\n      swap2\n      swap1\n      dup2\n      dup2\n      mstore\n      0x20\n      add\n      dup3\n      dup1\n      sload\n      tag_77\n      swap1\n      tag_45\n      jump\t// in\n    tag_77:\n      dup1\n      iszero\n      tag_78\n      jumpi\n      dup1\n      0x1f\n      lt\n      tag_79\n      jumpi\n      0x0100\n      dup1\n      dup4\n      sload\n      div\n      mul\n      dup4\n      mstore\n      swap2\n      0x20\n      add\n      swap2\n      jump(tag_78)\n    tag_79:\n      dup3\n      add\n      swap2\n      swap1\n      0x00\n      mstore\n      keccak256(0x00, 0x20)\n      swap1\n    tag_80:\n      dup2\n      sload\n      dup2\n      mstore\n      swap1\n      0x01\n      add\n      swap1\n      0x20\n      add\n      dup1\n      dup4\n      gt\n      tag_80\n      jumpi\n      dup3\n      swap1\n      sub\n      0x1f\n      and\n      dup3\n      add\n      swap2\n    tag_78:\n      pop\n      pop\n      pop\n      pop\n      pop\n      dup2\n      mstore\n      0x20\n      add\n      0x01\n      dup3\n      add\n      0x00\n      swap1\n      sload\n      swap1\n      0x0100\n      exp\n      swap1\n      div\n      0xff\n      and\n      iszero\n      iszero\n      iszero\n      iszero\n      dup2\n      mstore\n      pop\n      pop\n      dup2\n      mstore\n      0x20\n      add\n      swap1\n      0x01\n      add\n      swap1\n      jump(tag_73)\n    tag_74:\n      pop\n      pop\n      pop\n      pop\n      swap1\n      pop\n        /* \"contracts/Struct.sol\":827:914  function getArray() public view returns (Name[] memory) {... */\n      swap1\n      jump\t// out\n        /* \"#utility.yul\":7:82   */\n    tag_81:\n        /* \"#utility.yul\":40:46   */\n      0x00\n        /* \"#utility.yul\":73:75   */\n      0x40\n        /* \"#utility.yul\":67:76   */\n      mload\n        /* \"#utility.yul\":57:76   */\n      swap1\n      pop\n        /* \"#utility.yul\":7:82   */\n      swap1\n      jump\t// out\n        /* \"#utility.yul\":88:205   */\n    tag_82:\n        /* \"#utility.yul\":197:198   */\n      0x00\n        /* \"#utility.yul\":194:195   */\n      dup1\n        /* \"#utility.yul\":187:199   */\n      revert\n        /* \"#utility.yul\":211:328   */\n    tag_83:\n        /* \"#utility.yul\":320:321   */\n      0x00\n        /* \"#utility.yul\":317:318   */\n      dup1\n        /* \"#utility.yul\":310:322   */\n      revert\n        /* \"#utility.yul\":334:451   */\n    tag_84:\n        /* \"#utility.yul\":443:444   */\n      0x00\n        /* \"#utility.yul\":440:441   */\n      dup1\n        /* \"#utility.yul\":433:445   */\n      revert\n        /* \"#utility.yul\":457:574   */\n    tag_85:\n        /* \"#utility.yul\":566:567   */\n      0x00\n        /* \"#utility.yul\":563:564   */\n      dup1\n        /* \"#utility.yul\":556:568   */\n      revert\n        /* \"#utility.yul\":580:682   */\n    tag_86:\n        /* \"#utility.yul\":621:627   */\n      0x00\n        /* \"#utility.yul\":672:674   */\n      0x1f\n        /* \"#utility.yul\":668:675   */\n      not\n        /* \"#utility.yul\":663:665   */\n      0x1f\n        /* \"#utility.yul\":656:661   */\n      dup4\n        /* \"#utility.yul\":652:666   */\n      add\n        /* \"#utility.yul\":648:676   */\n      and\n        /* \"#utility.yul\":638:676   */\n      swap1\n      pop\n        /* \"#utility.yul\":580:682   */\n      swap2\n      swap1\n      pop\n      jump\t// out\n        /* \"#utility.yul\":688:868   */\n    tag_87:\n        /* \"#utility.yul\":736:813   */\n      0x4e487b7100000000000000000000000000000000000000000000000000000000\n        /* \"#utility.yul\":733:734   */\n      0x00\n        /* \"#utility.yul\":726:814   */\n      mstore\n        /* \"#utility.yul\":833:837   */\n      0x41\n        /* \"#utility.yul\":830:831   */\n      0x04\n        /* \"#utility.yul\":823:838   */\n      mstore\n        /* \"#utility.yul\":857:861   */\n      0x24\n        /* \"#utility.yul\":854:855   */\n      0x00\n        /* \"#utility.yul\":847:862   */\n      revert\n        /* \"#utility.yul\":874:1155   */\n    tag_88:\n        /* \"#utility.yul\":957:984   */\n      tag_144\n        /* \"#utility.yul\":979:983   */\n      dup3\n        /* \"#utility.yul\":957:984   */\n      tag_86\n      jump\t// in\n    tag_144:\n        /* \"#utility.yul\":949:955   */\n      dup2\n        /* \"#utility.yul\":945:985   */\n      add\n        /* \"#utility.yul\":1087:1093   */\n      dup2\n        /* \"#utility.yul\":1075:1085   */\n      dup2\n        /* \"#utility.yul\":1072:1094   */\n      lt\n        /* \"#utility.yul\":1051:1069   */\n      0xffffffffffffffff\n        /* \"#utility.yul\":1039:1049   */\n      dup3\n        /* \"#utility.yul\":1036:1070   */\n      gt\n        /* \"#utility.yul\":1033:1095   */\n      or\n        /* \"#utility.yul\":1030:1118   */\n      iszero\n      tag_145\n      jumpi\n        /* \"#utility.yul\":1098:1116   */\n      tag_146\n      tag_87\n      jump\t// in\n    tag_146:\n        /* \"#utility.yul\":1030:1118   */\n    tag_145:\n        /* \"#utility.yul\":1138:1148   */\n      dup1\n        /* \"#utility.yul\":1134:1136   */\n      0x40\n        /* \"#utility.yul\":1127:1149   */\n      mstore\n        /* \"#utility.yul\":917:1155   */\n      pop\n        /* \"#utility.yul\":874:1155   */\n      pop\n      pop\n      jump\t// out\n        /* \"#utility.yul\":1161:1290   */\n    tag_89:\n        /* \"#utility.yul\":1195:1201   */\n      0x00\n        /* \"#utility.yul\":1222:1242   */\n      tag_148\n      tag_81\n      jump\t// in\n    tag_148:\n        /* \"#utility.yul\":1212:1242   */\n      swap1\n      pop\n        /* \"#utility.yul\":1251:1284   */\n      tag_149\n        /* \"#utility.yul\":1279:1283   */\n      dup3\n        /* \"#utility.yul\":1271:1277   */\n      dup3\n        /* \"#utility.yul\":1251:1284   */\n      tag_88\n      jump\t// in\n    tag_149:\n        /* \"#utility.yul\":1161:1290   */\n      swap2\n      swap1\n      pop\n      jump\t// out\n        /* \"#utility.yul\":1296:1604   */\n    tag_90:\n        /* \"#utility.yul\":1358:1362   */\n      0x00\n        /* \"#utility.yul\":1448:1466   */\n      0xffffffffffffffff\n        /* \"#utility.yul\":1440:1446   */\n      dup3\n        /* \"#utility.yul\":1437:1467   */\n      gt\n        /* \"#utility.yul\":1434:1490   */\n      iszero\n      tag_151\n      jumpi\n        /* \"#utility.yul\":1470:1488   */\n      tag_152\n      tag_87\n      jump\t// in\n    tag_152:\n        /* \"#utility.yul\":1434:1490   */\n    tag_151:\n        /* \"#utility.yul\":1508:1537   */\n      tag_153\n        /* \"#utility.yul\":1530:1536   */\n      dup3\n        /* \"#utility.yul\":1508:1537   */\n      tag_86\n      jump\t// in\n    tag_153:\n        /* \"#utility.yul\":1500:1537   */\n      swap1\n      pop\n        /* \"#utility.yul\":1592:1596   */\n      0x20\n        /* \"#utility.yul\":1586:1590   */\n      dup2\n        /* \"#utility.yul\":1582:1597   */\n      add\n        /* \"#utility.yul\":1574:1597   */\n      swap1\n      pop\n        /* \"#utility.yul\":1296:1604   */\n      swap2\n      swap1\n      pop\n      jump\t// out\n        /* \"#utility.yul\":1610:1756   */\n    tag_91:\n        /* \"#utility.yul\":1707:1713   */\n      dup3\n        /* \"#utility.yul\":1702:1705   */\n      dup2\n        /* \"#utility.yul\":1697:1700   */\n      dup4\n        /* \"#utility.yul\":1684:1714   */\n      calldatacopy\n        /* \"#utility.yul\":1748:1749   */\n      0x00\n        /* \"#utility.yul\":1739:1745   */\n      dup4\n        /* \"#utility.yul\":1734:1737   */\n      dup4\n        /* \"#utility.yul\":1730:1746   */\n      add\n        /* \"#utility.yul\":1723:1750   */\n      mstore\n        /* \"#utility.yul\":1610:1756   */\n      pop\n      pop\n      pop\n      jump\t// out\n        /* \"#utility.yul\":1762:2187   */\n    tag_92:\n        /* \"#utility.yul\":1840:1845   */\n      0x00\n        /* \"#utility.yul\":1865:1931   */\n      tag_156\n        /* \"#utility.yul\":1881:1930   */\n      tag_157\n        /* \"#utility.yul\":1923:1929   */\n      dup5\n        /* \"#utility.yul\":1881:1930   */\n      tag_90\n      jump\t// in\n    tag_157:\n        /* \"#utility.yul\":1865:1931   */\n      tag_89\n      jump\t// in\n    tag_156:\n        /* \"#utility.yul\":1856:1931   */\n      swap1\n      pop\n        /* \"#utility.yul\":1954:1960   */\n      dup3\n        /* \"#utility.yul\":1947:1952   */\n      dup2\n        /* \"#utility.yul\":1940:1961   */\n      mstore\n        /* \"#utility.yul\":1992:1996   */\n      0x20\n        /* \"#utility.yul\":1985:1990   */\n      dup2\n        /* \"#utility.yul\":1981:1997   */\n      add\n        /* \"#utility.yul\":2030:2033   */\n      dup5\n        /* \"#utility.yul\":2021:2027   */\n      dup5\n        /* \"#utility.yul\":2016:2019   */\n      dup5\n        /* \"#utility.yul\":2012:2028   */\n      add\n        /* \"#utility.yul\":2009:2034   */\n      gt\n        /* \"#utility.yul\":2006:2118   */\n      iszero\n      tag_158\n      jumpi\n        /* \"#utility.yul\":2037:2116   */\n      tag_159\n      tag_85\n      jump\t// in\n    tag_159:\n        /* \"#utility.yul\":2006:2118   */\n    tag_158:\n        /* \"#utility.yul\":2127:2181   */\n      tag_160\n        /* \"#utility.yul\":2174:2180   */\n      dup5\n        /* \"#utility.yul\":2169:2172   */\n      dup3\n        /* \"#utility.yul\":2164:2167   */\n      dup6\n        /* \"#utility.yul\":2127:2181   */\n      tag_91\n      jump\t// in\n    tag_160:\n        /* \"#utility.yul\":1846:2187   */\n      pop\n        /* \"#utility.yul\":1762:2187   */\n      swap4\n      swap3\n      pop\n      pop\n      pop\n      jump\t// out\n        /* \"#utility.yul\":2207:2547   */\n    tag_93:\n        /* \"#utility.yul\":2263:2268   */\n      0x00\n        /* \"#utility.yul\":2312:2315   */\n      dup3\n        /* \"#utility.yul\":2305:2309   */\n      0x1f\n        /* \"#utility.yul\":2297:2303   */\n      dup4\n        /* \"#utility.yul\":2293:2310   */\n      add\n        /* \"#utility.yul\":2289:2316   */\n      slt\n        /* \"#utility.yul\":2279:2401   */\n      tag_162\n      jumpi\n        /* \"#utility.yul\":2320:2399   */\n      tag_163\n      tag_84\n      jump\t// in\n    tag_163:\n        /* \"#utility.yul\":2279:2401   */\n    tag_162:\n        /* \"#utility.yul\":2437:2443   */\n      dup2\n        /* \"#utility.yul\":2424:2444   */\n      calldataload\n        /* \"#utility.yul\":2462:2541   */\n      tag_164\n        /* \"#utility.yul\":2537:2540   */\n      dup5\n        /* \"#utility.yul\":2529:2535   */\n      dup3\n        /* \"#utility.yul\":2522:2526   */\n      0x20\n        /* \"#utility.yul\":2514:2520   */\n      dup7\n        /* \"#utility.yul\":2510:2527   */\n      add\n        /* \"#utility.yul\":2462:2541   */\n      tag_92\n      jump\t// in\n    tag_164:\n        /* \"#utility.yul\":2453:2541   */\n      swap2\n      pop\n        /* \"#utility.yul\":2269:2547   */\n      pop\n        /* \"#utility.yul\":2207:2547   */\n      swap3\n      swap2\n      pop\n      pop\n      jump\t// out\n        /* \"#utility.yul\":2553:3062   */\n    tag_10:\n        /* \"#utility.yul\":2622:2628   */\n      0x00\n        /* \"#utility.yul\":2671:2673   */\n      0x20\n        /* \"#utility.yul\":2659:2668   */\n      dup3\n        /* \"#utility.yul\":2650:2657   */\n      dup5\n        /* \"#utility.yul\":2646:2669   */\n      sub\n        /* \"#utility.yul\":2642:2674   */\n      slt\n        /* \"#utility.yul\":2639:2758   */\n      iszero\n      tag_166\n      jumpi\n        /* \"#utility.yul\":2677:2756   */\n      tag_167\n      tag_82\n      jump\t// in\n    tag_167:\n        /* \"#utility.yul\":2639:2758   */\n    tag_166:\n        /* \"#utility.yul\":2825:2826   */\n      0x00\n        /* \"#utility.yul\":2814:2823   */\n      dup3\n        /* \"#utility.yul\":2810:2827   */\n      add\n        /* \"#utility.yul\":2797:2828   */\n      calldataload\n        /* \"#utility.yul\":2855:2873   */\n      0xffffffffffffffff\n        /* \"#utility.yul\":2847:2853   */\n      dup2\n        /* \"#utility.yul\":2844:2874   */\n      gt\n        /* \"#utility.yul\":2841:2958   */\n      iszero\n      tag_168\n      jumpi\n        /* \"#utility.yul\":2877:2956   */\n      tag_169\n      tag_83\n      jump\t// in\n    tag_169:\n        /* \"#utility.yul\":2841:2958   */\n    tag_168:\n        /* \"#utility.yul\":2982:3045   */\n      tag_170\n        /* \"#utility.yul\":3037:3044   */\n      dup5\n        /* \"#utility.yul\":3028:3034   */\n      dup3\n        /* \"#utility.yul\":3017:3026   */\n      dup6\n        /* \"#utility.yul\":3013:3035   */\n      add\n        /* \"#utility.yul\":2982:3045   */\n      tag_93\n      jump\t// in\n    tag_170:\n        /* \"#utility.yul\":2972:3045   */\n      swap2\n      pop\n        /* \"#utility.yul\":2768:3055   */\n      pop\n        /* \"#utility.yul\":2553:3062   */\n      swap3\n      swap2\n      pop\n      pop\n      jump\t// out\n        /* \"#utility.yul\":3068:3145   */\n    tag_94:\n        /* \"#utility.yul\":3105:3112   */\n      0x00\n        /* \"#utility.yul\":3134:3139   */\n      dup2\n        /* \"#utility.yul\":3123:3139   */\n      swap1\n      pop\n        /* \"#utility.yul\":3068:3145   */\n      swap2\n      swap1\n      pop\n      jump\t// out\n        /* \"#utility.yul\":3151:3273   */\n    tag_95:\n        /* \"#utility.yul\":3224:3248   */\n      tag_173\n        /* \"#utility.yul\":3242:3247   */\n      dup2\n        /* \"#utility.yul\":3224:3248   */\n      tag_94\n      jump\t// in\n    tag_173:\n        /* \"#utility.yul\":3217:3222   */\n      dup2\n        /* \"#utility.yul\":3214:3249   */\n      eq\n        /* \"#utility.yul\":3204:3267   */\n      tag_174\n      jumpi\n        /* \"#utility.yul\":3263:3264   */\n      0x00\n        /* \"#utility.yul\":3260:3261   */\n      dup1\n        /* \"#utility.yul\":3253:3265   */\n      revert\n        /* \"#utility.yul\":3204:3267   */\n    tag_174:\n        /* \"#utility.yul\":3151:3273   */\n      pop\n      jump\t// out\n        /* \"#utility.yul\":3279:3418   */\n    tag_96:\n        /* \"#utility.yul\":3325:3330   */\n      0x00\n        /* \"#utility.yul\":3363:3369   */\n      dup2\n        /* \"#utility.yul\":3350:3370   */\n      calldataload\n        /* \"#utility.yul\":3341:3370   */\n      swap1\n      pop\n        /* \"#utility.yul\":3379:3412   */\n      tag_176\n        /* \"#utility.yul\":3406:3411   */\n      dup2\n        /* \"#utility.yul\":3379:3412   */\n      tag_95\n      jump\t// in\n    tag_176:\n        /* \"#utility.yul\":3279:3418   */\n      swap3\n      swap2\n      pop\n      pop\n      jump\t// out\n        /* \"#utility.yul\":3424:3753   */\n    tag_14:\n        /* \"#utility.yul\":3483:3489   */\n      0x00\n        /* \"#utility.yul\":3532:3534   */\n      0x20\n        /* \"#utility.yul\":3520:3529   */\n      dup3\n        /* \"#utility.yul\":3511:3518   */\n      dup5\n        /* \"#utility.yul\":3507:3530   */\n      sub\n        /* \"#utility.yul\":3503:3535   */\n      slt\n        /* \"#utility.yul\":3500:3619   */\n      iszero\n      tag_178\n      jumpi\n        /* \"#utility.yul\":3538:3617   */\n      tag_179\n      tag_82\n      jump\t// in\n    tag_179:\n        /* \"#utility.yul\":3500:3619   */\n    tag_178:\n        /* \"#utility.yul\":3658:3659   */\n      0x00\n        /* \"#utility.yul\":3683:3736   */\n      tag_180\n        /* \"#utility.yul\":3728:3735   */\n      dup5\n        /* \"#utility.yul\":3719:3725   */\n      dup3\n        /* \"#utility.yul\":3708:3717   */\n      dup6\n        /* \"#utility.yul\":3704:3726   */\n      add\n        /* \"#utility.yul\":3683:3736   */\n      tag_96\n      jump\t// in\n    tag_180:\n        /* \"#utility.yul\":3673:3736   */\n      swap2\n      pop\n        /* \"#utility.yul\":3629:3746   */\n      pop\n        /* \"#utility.yul\":3424:3753   */\n      swap3\n      swap2\n      pop\n      pop\n      jump\t// out\n        /* \"#utility.yul\":3759:3858   */\n    tag_97:\n        /* \"#utility.yul\":3811:3817   */\n      0x00\n        /* \"#utility.yul\":3845:3850   */\n      dup2\n        /* \"#utility.yul\":3839:3851   */\n      mload\n        /* \"#utility.yul\":3829:3851   */\n      swap1\n      pop\n        /* \"#utility.yul\":3759:3858   */\n      swap2\n      swap1\n      pop\n      jump\t// out\n        /* \"#utility.yul\":3864:4033   */\n    tag_98:\n        /* \"#utility.yul\":3948:3959   */\n      0x00\n        /* \"#utility.yul\":3982:3988   */\n      dup3\n        /* \"#utility.yul\":3977:3980   */\n      dup3\n        /* \"#utility.yul\":3970:3989   */\n      mstore\n        /* \"#utility.yul\":4022:4026   */\n      0x20\n        /* \"#utility.yul\":4017:4020   */\n      dup3\n        /* \"#utility.yul\":4013:4027   */\n      add\n        /* \"#utility.yul\":3998:4027   */\n      swap1\n      pop\n        /* \"#utility.yul\":3864:4033   */\n      swap3\n      swap2\n      pop\n      pop\n      jump\t// out\n        /* \"#utility.yul\":4039:4285   */\n    tag_99:\n        /* \"#utility.yul\":4120:4121   */\n      0x00\n        /* \"#utility.yul\":4130:4243   */\n    tag_184:\n        /* \"#utility.yul\":4144:4150   */\n      dup4\n        /* \"#utility.yul\":4141:4142   */\n      dup2\n        /* \"#utility.yul\":4138:4151   */\n      lt\n        /* \"#utility.yul\":4130:4243   */\n      iszero\n      tag_186\n      jumpi\n        /* \"#utility.yul\":4229:4230   */\n      dup1\n        /* \"#utility.yul\":4224:4227   */\n      dup3\n        /* \"#utility.yul\":4220:4231   */\n      add\n        /* \"#utility.yul\":4214:4232   */\n      mload\n        /* \"#utility.yul\":4210:4211   */\n      dup2\n        /* \"#utility.yul\":4205:4208   */\n      dup5\n        /* \"#utility.yul\":4201:4212   */\n      add\n        /* \"#utility.yul\":4194:4233   */\n      mstore\n        /* \"#utility.yul\":4166:4168   */\n      0x20\n        /* \"#utility.yul\":4163:4164   */\n      dup2\n        /* \"#utility.yul\":4159:4169   */\n      add\n        /* \"#utility.yul\":4154:4169   */\n      swap1\n      pop\n        /* \"#utility.yul\":4130:4243   */\n      jump(tag_184)\n    tag_186:\n        /* \"#utility.yul\":4277:4278   */\n      0x00\n        /* \"#utility.yul\":4268:4274   */\n      dup5\n        /* \"#utility.yul\":4263:4266   */\n      dup5\n        /* \"#utility.yul\":4259:4275   */\n      add\n        /* \"#utility.yul\":4252:4279   */\n      mstore\n        /* \"#utility.yul\":4101:4285   */\n      pop\n        /* \"#utility.yul\":4039:4285   */\n      pop\n      pop\n      pop\n      jump\t// out\n        /* \"#utility.yul\":4291:4668   */\n    tag_100:\n        /* \"#utility.yul\":4379:4382   */\n      0x00\n        /* \"#utility.yul\":4407:4446   */\n      tag_188\n        /* \"#utility.yul\":4440:4445   */\n      dup3\n        /* \"#utility.yul\":4407:4446   */\n      tag_97\n      jump\t// in\n    tag_188:\n        /* \"#utility.yul\":4462:4533   */\n      tag_189\n        /* \"#utility.yul\":4526:4532   */\n      dup2\n        /* \"#utility.yul\":4521:4524   */\n      dup6\n        /* \"#utility.yul\":4462:4533   */\n      tag_98\n      jump\t// in\n    tag_189:\n        /* \"#utility.yul\":4455:4533   */\n      swap4\n      pop\n        /* \"#utility.yul\":4542:4607   */\n      tag_190\n        /* \"#utility.yul\":4600:4606   */\n      dup2\n        /* \"#utility.yul\":4595:4598   */\n      dup6\n        /* \"#utility.yul\":4588:4592   */\n      0x20\n        /* \"#utility.yul\":4581:4586   */\n      dup7\n        /* \"#utility.yul\":4577:4593   */\n      add\n        /* \"#utility.yul\":4542:4607   */\n      tag_99\n      jump\t// in\n    tag_190:\n        /* \"#utility.yul\":4632:4661   */\n      tag_191\n        /* \"#utility.yul\":4654:4660   */\n      dup2\n        /* \"#utility.yul\":4632:4661   */\n      tag_86\n      jump\t// in\n    tag_191:\n        /* \"#utility.yul\":4627:4630   */\n      dup5\n        /* \"#utility.yul\":4623:4662   */\n      add\n        /* \"#utility.yul\":4616:4662   */\n      swap2\n      pop\n        /* \"#utility.yul\":4383:4668   */\n      pop\n        /* \"#utility.yul\":4291:4668   */\n      swap3\n      swap2\n      pop\n      pop\n      jump\t// out\n        /* \"#utility.yul\":4674:4764   */\n    tag_101:\n        /* \"#utility.yul\":4708:4715   */\n      0x00\n        /* \"#utility.yul\":4751:4756   */\n      dup2\n        /* \"#utility.yul\":4744:4757   */\n      iszero\n        /* \"#utility.yul\":4737:4758   */\n      iszero\n        /* \"#utility.yul\":4726:4758   */\n      swap1\n      pop\n        /* \"#utility.yul\":4674:4764   */\n      swap2\n      swap1\n      pop\n      jump\t// out\n        /* \"#utility.yul\":4770:4879   */\n    tag_102:\n        /* \"#utility.yul\":4851:4872   */\n      tag_194\n        /* \"#utility.yul\":4866:4871   */\n      dup2\n        /* \"#utility.yul\":4851:4872   */\n      tag_101\n      jump\t// in\n    tag_194:\n        /* \"#utility.yul\":4846:4849   */\n      dup3\n        /* \"#utility.yul\":4839:4873   */\n      mstore\n        /* \"#utility.yul\":4770:4879   */\n      pop\n      pop\n      jump\t// out\n        /* \"#utility.yul\":4885:5296   */\n    tag_17:\n        /* \"#utility.yul\":5020:5024   */\n      0x00\n        /* \"#utility.yul\":5058:5060   */\n      0x40\n        /* \"#utility.yul\":5047:5056   */\n      dup3\n        /* \"#utility.yul\":5043:5061   */\n      add\n        /* \"#utility.yul\":5035:5061   */\n      swap1\n      pop\n        /* \"#utility.yul\":5107:5116   */\n      dup2\n        /* \"#utility.yul\":5101:5105   */\n      dup2\n        /* \"#utility.yul\":5097:5117   */\n      sub\n        /* \"#utility.yul\":5093:5094   */\n      0x00\n        /* \"#utility.yul\":5082:5091   */\n      dup4\n        /* \"#utility.yul\":5078:5095   */\n      add\n        /* \"#utility.yul\":5071:5118   */\n      mstore\n        /* \"#utility.yul\":5135:5213   */\n      tag_196\n        /* \"#utility.yul\":5208:5212   */\n      dup2\n        /* \"#utility.yul\":5199:5205   */\n      dup6\n        /* \"#utility.yul\":5135:5213   */\n      tag_100\n      jump\t// in\n    tag_196:\n        /* \"#utility.yul\":5127:5213   */\n      swap1\n      pop\n        /* \"#utility.yul\":5223:5289   */\n      tag_197\n        /* \"#utility.yul\":5285:5287   */\n      0x20\n        /* \"#utility.yul\":5274:5283   */\n      dup4\n        /* \"#utility.yul\":5270:5288   */\n      add\n        /* \"#utility.yul\":5261:5267   */\n      dup5\n        /* \"#utility.yul\":5223:5289   */\n      tag_102\n      jump\t// in\n    tag_197:\n        /* \"#utility.yul\":4885:5296   */\n      swap4\n      swap3\n      pop\n      pop\n      pop\n      jump\t// out\n        /* \"#utility.yul\":5302:5435   */\n    tag_103:\n        /* \"#utility.yul\":5388:5394   */\n      0x00\n        /* \"#utility.yul\":5422:5427   */\n      dup2\n        /* \"#utility.yul\":5416:5428   */\n      mload\n        /* \"#utility.yul\":5406:5428   */\n      swap1\n      pop\n        /* \"#utility.yul\":5302:5435   */\n      swap2\n      swap1\n      pop\n      jump\t// out\n        /* \"#utility.yul\":5441:5644   */\n    tag_104:\n        /* \"#utility.yul\":5559:5570   */\n      0x00\n        /* \"#utility.yul\":5593:5599   */\n      dup3\n        /* \"#utility.yul\":5588:5591   */\n      dup3\n        /* \"#utility.yul\":5581:5600   */\n      mstore\n        /* \"#utility.yul\":5633:5637   */\n      0x20\n        /* \"#utility.yul\":5628:5631   */\n      dup3\n        /* \"#utility.yul\":5624:5638   */\n      add\n        /* \"#utility.yul\":5609:5638   */\n      swap1\n      pop\n        /* \"#utility.yul\":5441:5644   */\n      swap3\n      swap2\n      pop\n      pop\n      jump\t// out\n        /* \"#utility.yul\":5650:5801   */\n    tag_105:\n        /* \"#utility.yul\":5736:5740   */\n      0x00\n        /* \"#utility.yul\":5759:5762   */\n      dup2\n        /* \"#utility.yul\":5751:5762   */\n      swap1\n      pop\n        /* \"#utility.yul\":5789:5793   */\n      0x20\n        /* \"#utility.yul\":5784:5787   */\n      dup3\n        /* \"#utility.yul\":5780:5794   */\n      add\n        /* \"#utility.yul\":5772:5794   */\n      swap1\n      pop\n        /* \"#utility.yul\":5650:5801   */\n      swap2\n      swap1\n      pop\n      jump\t// out\n        /* \"#utility.yul\":5807:5966   */\n    tag_106:\n        /* \"#utility.yul\":5881:5892   */\n      0x00\n        /* \"#utility.yul\":5915:5921   */\n      dup3\n        /* \"#utility.yul\":5910:5913   */\n      dup3\n        /* \"#utility.yul\":5903:5922   */\n      mstore\n        /* \"#utility.yul\":5955:5959   */\n      0x20\n        /* \"#utility.yul\":5950:5953   */\n      dup3\n        /* \"#utility.yul\":5946:5960   */\n      add\n        /* \"#utility.yul\":5931:5960   */\n      swap1\n      pop\n        /* \"#utility.yul\":5807:5966   */\n      swap3\n      swap2\n      pop\n      pop\n      jump\t// out\n        /* \"#utility.yul\":5972:6329   */\n    tag_107:\n        /* \"#utility.yul\":6050:6053   */\n      0x00\n        /* \"#utility.yul\":6078:6117   */\n      tag_203\n        /* \"#utility.yul\":6111:6116   */\n      dup3\n        /* \"#utility.yul\":6078:6117   */\n      tag_97\n      jump\t// in\n    tag_203:\n        /* \"#utility.yul\":6133:6194   */\n      tag_204\n        /* \"#utility.yul\":6187:6193   */\n      dup2\n        /* \"#utility.yul\":6182:6185   */\n      dup6\n        /* \"#utility.yul\":6133:6194   */\n      tag_106\n      jump\t// in\n    tag_204:\n        /* \"#utility.yul\":6126:6194   */\n      swap4\n      pop\n        /* \"#utility.yul\":6203:6268   */\n      tag_205\n        /* \"#utility.yul\":6261:6267   */\n      dup2\n        /* \"#utility.yul\":6256:6259   */\n      dup6\n        /* \"#utility.yul\":6249:6253   */\n      0x20\n        /* \"#utility.yul\":6242:6247   */\n      dup7\n        /* \"#utility.yul\":6238:6254   */\n      add\n        /* \"#utility.yul\":6203:6268   */\n      tag_99\n      jump\t// in\n    tag_205:\n        /* \"#utility.yul\":6293:6322   */\n      tag_206\n        /* \"#utility.yul\":6315:6321   */\n      dup2\n        /* \"#utility.yul\":6293:6322   */\n      tag_86\n      jump\t// in\n    tag_206:\n        /* \"#utility.yul\":6288:6291   */\n      dup5\n        /* \"#utility.yul\":6284:6323   */\n      add\n        /* \"#utility.yul\":6277:6323   */\n      swap2\n      pop\n        /* \"#utility.yul\":6054:6329   */\n      pop\n        /* \"#utility.yul\":5972:6329   */\n      swap3\n      swap2\n      pop\n      pop\n      jump\t// out\n        /* \"#utility.yul\":6335:6434   */\n    tag_108:\n        /* \"#utility.yul\":6406:6427   */\n      tag_208\n        /* \"#utility.yul\":6421:6426   */\n      dup2\n        /* \"#utility.yul\":6406:6427   */\n      tag_101\n      jump\t// in\n    tag_208:\n        /* \"#utility.yul\":6401:6404   */\n      dup3\n        /* \"#utility.yul\":6394:6428   */\n      mstore\n        /* \"#utility.yul\":6335:6434   */\n      pop\n      pop\n      jump\t// out\n        /* \"#utility.yul\":6498:7079   */\n    tag_109:\n        /* \"#utility.yul\":6595:6598   */\n      0x00\n        /* \"#utility.yul\":6631:6635   */\n      0x40\n        /* \"#utility.yul\":6626:6629   */\n      dup4\n        /* \"#utility.yul\":6622:6636   */\n      add\n        /* \"#utility.yul\":6719:6723   */\n      0x00\n        /* \"#utility.yul\":6712:6717   */\n      dup4\n        /* \"#utility.yul\":6708:6724   */\n      add\n        /* \"#utility.yul\":6702:6725   */\n      mload\n        /* \"#utility.yul\":6772:6775   */\n      dup5\n        /* \"#utility.yul\":6766:6770   */\n      dup3\n        /* \"#utility.yul\":6762:6776   */\n      sub\n        /* \"#utility.yul\":6755:6759   */\n      0x00\n        /* \"#utility.yul\":6750:6753   */\n      dup7\n        /* \"#utility.yul\":6746:6760   */\n      add\n        /* \"#utility.yul\":6739:6777   */\n      mstore\n        /* \"#utility.yul\":6798:6871   */\n      tag_210\n        /* \"#utility.yul\":6866:6870   */\n      dup3\n        /* \"#utility.yul\":6852:6864   */\n      dup3\n        /* \"#utility.yul\":6798:6871   */\n      tag_107\n      jump\t// in\n    tag_210:\n        /* \"#utility.yul\":6790:6871   */\n      swap2\n      pop\n        /* \"#utility.yul\":6646:6882   */\n      pop\n        /* \"#utility.yul\":6966:6970   */\n      0x20\n        /* \"#utility.yul\":6959:6964   */\n      dup4\n        /* \"#utility.yul\":6955:6971   */\n      add\n        /* \"#utility.yul\":6949:6972   */\n      mload\n        /* \"#utility.yul\":6985:7042   */\n      tag_211\n        /* \"#utility.yul\":7036:7040   */\n      0x20\n        /* \"#utility.yul\":7031:7034   */\n      dup7\n        /* \"#utility.yul\":7027:7041   */\n      add\n        /* \"#utility.yul\":7013:7025   */\n      dup3\n        /* \"#utility.yul\":6985:7042   */\n      tag_108\n      jump\t// in\n    tag_211:\n        /* \"#utility.yul\":6892:7052   */\n      pop\n        /* \"#utility.yul\":7069:7073   */\n      dup1\n        /* \"#utility.yul\":7062:7073   */\n      swap2\n      pop\n        /* \"#utility.yul\":6600:7079   */\n      pop\n        /* \"#utility.yul\":6498:7079   */\n      swap3\n      swap2\n      pop\n      pop\n      jump\t// out\n        /* \"#utility.yul\":7085:7317   */\n    tag_110:\n        /* \"#utility.yul\":7192:7202   */\n      0x00\n        /* \"#utility.yul\":7227:7311   */\n      tag_213\n        /* \"#utility.yul\":7307:7310   */\n      dup4\n        /* \"#utility.yul\":7299:7305   */\n      dup4\n        /* \"#utility.yul\":7227:7311   */\n      tag_109\n      jump\t// in\n    tag_213:\n        /* \"#utility.yul\":7213:7311   */\n      swap1\n      pop\n        /* \"#utility.yul\":7085:7317   */\n      swap3\n      swap2\n      pop\n      pop\n      jump\t// out\n        /* \"#utility.yul\":7323:7455   */\n    tag_111:\n        /* \"#utility.yul\":7412:7416   */\n      0x00\n        /* \"#utility.yul\":7444:7448   */\n      0x20\n        /* \"#utility.yul\":7439:7442   */\n      dup3\n        /* \"#utility.yul\":7435:7449   */\n      add\n        /* \"#utility.yul\":7427:7449   */\n      swap1\n      pop\n        /* \"#utility.yul\":7323:7455   */\n      swap2\n      swap1\n      pop\n      jump\t// out\n        /* \"#utility.yul\":7523:8586   */\n    tag_112:\n        /* \"#utility.yul\":7680:7683   */\n      0x00\n        /* \"#utility.yul\":7709:7782   */\n      tag_216\n        /* \"#utility.yul\":7776:7781   */\n      dup3\n        /* \"#utility.yul\":7709:7782   */\n      tag_103\n      jump\t// in\n    tag_216:\n        /* \"#utility.yul\":7798:7903   */\n      tag_217\n        /* \"#utility.yul\":7896:7902   */\n      dup2\n        /* \"#utility.yul\":7891:7894   */\n      dup6\n        /* \"#utility.yul\":7798:7903   */\n      tag_104\n      jump\t// in\n    tag_217:\n        /* \"#utility.yul\":7791:7903   */\n      swap4\n      pop\n        /* \"#utility.yul\":7929:7932   */\n      dup4\n        /* \"#utility.yul\":7974:7978   */\n      0x20\n        /* \"#utility.yul\":7966:7972   */\n      dup3\n        /* \"#utility.yul\":7962:7979   */\n      mul\n        /* \"#utility.yul\":7957:7960   */\n      dup6\n        /* \"#utility.yul\":7953:7980   */\n      add\n        /* \"#utility.yul\":8004:8079   */\n      tag_218\n        /* \"#utility.yul\":8073:8078   */\n      dup6\n        /* \"#utility.yul\":8004:8079   */\n      tag_105\n      jump\t// in\n    tag_218:\n        /* \"#utility.yul\":8102:8109   */\n      dup1\n        /* \"#utility.yul\":8133:8134   */\n      0x00\n        /* \"#utility.yul\":8118:8541   */\n    tag_219:\n        /* \"#utility.yul\":8143:8149   */\n      dup6\n        /* \"#utility.yul\":8140:8141   */\n      dup2\n        /* \"#utility.yul\":8137:8150   */\n      lt\n        /* \"#utility.yul\":8118:8541   */\n      iszero\n      tag_221\n      jumpi\n        /* \"#utility.yul\":8214:8223   */\n      dup5\n        /* \"#utility.yul\":8208:8212   */\n      dup5\n        /* \"#utility.yul\":8204:8224   */\n      sub\n        /* \"#utility.yul\":8199:8202   */\n      dup10\n        /* \"#utility.yul\":8192:8225   */\n      mstore\n        /* \"#utility.yul\":8265:8271   */\n      dup2\n        /* \"#utility.yul\":8259:8272   */\n      mload\n        /* \"#utility.yul\":8293:8395   */\n      tag_222\n        /* \"#utility.yul\":8390:8394   */\n      dup6\n        /* \"#utility.yul\":8375:8388   */\n      dup3\n        /* \"#utility.yul\":8293:8395   */\n      tag_110\n      jump\t// in\n    tag_222:\n        /* \"#utility.yul\":8285:8395   */\n      swap5\n      pop\n        /* \"#utility.yul\":8418:8497   */\n      tag_223\n        /* \"#utility.yul\":8490:8496   */\n      dup4\n        /* \"#utility.yul\":8418:8497   */\n      tag_111\n      jump\t// in\n    tag_223:\n        /* \"#utility.yul\":8408:8497   */\n      swap3\n      pop\n        /* \"#utility.yul\":8526:8530   */\n      0x20\n        /* \"#utility.yul\":8521:8524   */\n      dup11\n        /* \"#utility.yul\":8517:8531   */\n      add\n        /* \"#utility.yul\":8510:8531   */\n      swap10\n      pop\n        /* \"#utility.yul\":8178:8541   */\n      pop\n        /* \"#utility.yul\":8165:8166   */\n      0x01\n        /* \"#utility.yul\":8162:8163   */\n      dup2\n        /* \"#utility.yul\":8158:8167   */\n      add\n        /* \"#utility.yul\":8153:8167   */\n      swap1\n      pop\n        /* \"#utility.yul\":8118:8541   */\n      jump(tag_219)\n    tag_221:\n        /* \"#utility.yul\":8122:8136   */\n      pop\n        /* \"#utility.yul\":8557:8561   */\n      dup3\n        /* \"#utility.yul\":8550:8561   */\n      swap8\n      pop\n        /* \"#utility.yul\":8577:8580   */\n      dup8\n        /* \"#utility.yul\":8570:8580   */\n      swap6\n      pop\n        /* \"#utility.yul\":7685:8586   */\n      pop\n      pop\n      pop\n      pop\n      pop\n        /* \"#utility.yul\":7523:8586   */\n      swap3\n      swap2\n      pop\n      pop\n      jump\t// out\n        /* \"#utility.yul\":8592:9041   */\n    tag_28:\n        /* \"#utility.yul\":8773:8777   */\n      0x00\n        /* \"#utility.yul\":8811:8813   */\n      0x20\n        /* \"#utility.yul\":8800:8809   */\n      dup3\n        /* \"#utility.yul\":8796:8814   */\n      add\n        /* \"#utility.yul\":8788:8814   */\n      swap1\n      pop\n        /* \"#utility.yul\":8860:8869   */\n      dup2\n        /* \"#utility.yul\":8854:8858   */\n      dup2\n        /* \"#utility.yul\":8850:8870   */\n      sub\n        /* \"#utility.yul\":8846:8847   */\n      0x00\n        /* \"#utility.yul\":8835:8844   */\n      dup4\n        /* \"#utility.yul\":8831:8848   */\n      add\n        /* \"#utility.yul\":8824:8871   */\n      mstore\n        /* \"#utility.yul\":8888:9034   */\n      tag_225\n        /* \"#utility.yul\":9029:9033   */\n      dup2\n        /* \"#utility.yul\":9020:9026   */\n      dup5\n        /* \"#utility.yul\":8888:9034   */\n      tag_112\n      jump\t// in\n    tag_225:\n        /* \"#utility.yul\":8880:9034   */\n      swap1\n      pop\n        /* \"#utility.yul\":8592:9041   */\n      swap3\n      swap2\n      pop\n      pop\n      jump\t// out\n        /* \"#utility.yul\":9047:9227   */\n    tag_113:\n        /* \"#utility.yul\":9095:9172   */\n      0x4e487b7100000000000000000000000000000000000000000000000000000000\n        /* \"#utility.yul\":9092:9093   */\n      0x00\n        /* \"#utility.yul\":9085:9173   */\n      mstore\n        /* \"#utility.yul\":9192:9196   */\n      0x22\n        /* \"#utility.yul\":9189:9190   */\n      0x04\n        /* \"#utility.yul\":9182:9197   */\n      mstore\n        /* \"#utility.yul\":9216:9220   */\n      0x24\n        /* \"#utility.yul\":9213:9214   */\n      0x00\n        /* \"#utility.yul\":9206:9221   */\n      revert\n        /* \"#utility.yul\":9233:9553   */\n    tag_45:\n        /* \"#utility.yul\":9277:9283   */\n      0x00\n        /* \"#utility.yul\":9314:9315   */\n      0x02\n        /* \"#utility.yul\":9308:9312   */\n      dup3\n        /* \"#utility.yul\":9304:9316   */\n      div\n        /* \"#utility.yul\":9294:9316   */\n      swap1\n      pop\n        /* \"#utility.yul\":9361:9362   */\n      0x01\n        /* \"#utility.yul\":9355:9359   */\n      dup3\n        /* \"#utility.yul\":9351:9363   */\n      and\n        /* \"#utility.yul\":9382:9400   */\n      dup1\n        /* \"#utility.yul\":9372:9453   */\n      tag_228\n      jumpi\n        /* \"#utility.yul\":9438:9442   */\n      0x7f\n        /* \"#utility.yul\":9430:9436   */\n      dup3\n        /* \"#utility.yul\":9426:9443   */\n      and\n        /* \"#utility.yul\":9416:9443   */\n      swap2\n      pop\n        /* \"#utility.yul\":9372:9453   */\n    tag_228:\n        /* \"#utility.yul\":9500:9502   */\n      0x20\n        /* \"#utility.yul\":9492:9498   */\n      dup3\n        /* \"#utility.yul\":9489:9503   */\n      lt\n        /* \"#utility.yul\":9469:9487   */\n      dup2\n        /* \"#utility.yul\":9466:9504   */\n      sub\n        /* \"#utility.yul\":9463:9547   */\n      tag_229\n      jumpi\n        /* \"#utility.yul\":9519:9537   */\n      tag_230\n      tag_113\n      jump\t// in\n    tag_230:\n        /* \"#utility.yul\":9463:9547   */\n    tag_229:\n        /* \"#utility.yul\":9284:9553   */\n      pop\n        /* \"#utility.yul\":9233:9553   */\n      swap2\n      swap1\n      pop\n      jump\t// out\n        /* \"#utility.yul\":9559:9700   */\n    tag_114:\n        /* \"#utility.yul\":9608:9612   */\n      0x00\n        /* \"#utility.yul\":9631:9634   */\n      dup2\n        /* \"#utility.yul\":9623:9634   */\n      swap1\n      pop\n        /* \"#utility.yul\":9654:9657   */\n      dup2\n        /* \"#utility.yul\":9651:9652   */\n      0x00\n        /* \"#utility.yul\":9644:9658   */\n      mstore\n        /* \"#utility.yul\":9688:9692   */\n      0x20\n        /* \"#utility.yul\":9685:9686   */\n      0x00\n        /* \"#utility.yul\":9675:9693   */\n      keccak256\n        /* \"#utility.yul\":9667:9693   */\n      swap1\n      pop\n        /* \"#utility.yul\":9559:9700   */\n      swap2\n      swap1\n      pop\n      jump\t// out\n        /* \"#utility.yul\":9706:9799   */\n    tag_115:\n        /* \"#utility.yul\":9743:9749   */\n      0x00\n        /* \"#utility.yul\":9790:9792   */\n      0x20\n        /* \"#utility.yul\":9785:9787   */\n      0x1f\n        /* \"#utility.yul\":9778:9783   */\n      dup4\n        /* \"#utility.yul\":9774:9788   */\n      add\n        /* \"#utility.yul\":9770:9793   */\n      div\n        /* \"#utility.yul\":9760:9793   */\n      swap1\n      pop\n        /* \"#utility.yul\":9706:9799   */\n      swap2\n      swap1\n      pop\n      jump\t// out\n        /* \"#utility.yul\":9805:9912   */\n    tag_116:\n        /* \"#utility.yul\":9849:9857   */\n      0x00\n        /* \"#utility.yul\":9899:9904   */\n      dup3\n        /* \"#utility.yul\":9893:9897   */\n      dup3\n        /* \"#utility.yul\":9889:9905   */\n      shl\n        /* \"#utility.yul\":9868:9905   */\n      swap1\n      pop\n        /* \"#utility.yul\":9805:9912   */\n      swap3\n      swap2\n      pop\n      pop\n      jump\t// out\n        /* \"#utility.yul\":9918:10311   */\n    tag_117:\n        /* \"#utility.yul\":9987:9993   */\n      0x00\n        /* \"#utility.yul\":10037:10038   */\n      0x08\n        /* \"#utility.yul\":10025:10035   */\n      dup4\n        /* \"#utility.yul\":10021:10039   */\n      mul\n        /* \"#utility.yul\":10060:10157   */\n      tag_235\n        /* \"#utility.yul\":10090:10156   */\n      0xffffffffffffffffffffffffffffffffffffffffffffffffffffffffffffffff\n        /* \"#utility.yul\":10079:10088   */\n      dup3\n        /* \"#utility.yul\":10060:10157   */\n      tag_116\n      jump\t// in\n    tag_235:\n        /* \"#utility.yul\":10178:10217   */\n      tag_236\n        /* \"#utility.yul\":10208:10216   */\n      dup7\n        /* \"#utility.yul\":10197:10206   */\n      dup4\n        /* \"#utility.yul\":10178:10217   */\n      tag_116\n      jump\t// in\n    tag_236:\n        /* \"#utility.yul\":10166:10217   */\n      swap6\n      pop\n        /* \"#utility.yul\":10250:10254   */\n      dup1\n        /* \"#utility.yul\":10246:10255   */\n      not\n        /* \"#utility.yul\":10239:10244   */\n      dup5\n        /* \"#utility.yul\":10235:10256   */\n      and\n        /* \"#utility.yul\":10226:10256   */\n      swap4\n      pop\n        /* \"#utility.yul\":10299:10303   */\n      dup1\n        /* \"#utility.yul\":10289:10297   */\n      dup7\n        /* \"#utility.yul\":10285:10304   */\n      and\n        /* \"#utility.yul\":10278:10283   */\n      dup5\n        /* \"#utility.yul\":10275:10305   */\n      or\n        /* \"#utility.yul\":10265:10305   */\n      swap3\n      pop\n        /* \"#utility.yul\":9994:10311   */\n      pop\n      pop\n        /* \"#utility.yul\":9918:10311   */\n      swap4\n      swap3\n      pop\n      pop\n      pop\n      jump\t// out\n        /* \"#utility.yul\":10317:10377   */\n    tag_118:\n        /* \"#utility.yul\":10345:10348   */\n      0x00\n        /* \"#utility.yul\":10366:10371   */\n      dup2\n        /* \"#utility.yul\":10359:10371   */\n      swap1\n      pop\n        /* \"#utility.yul\":10317:10377   */\n      swap2\n      swap1\n      pop\n      jump\t// out\n        /* \"#utility.yul\":10383:10525   */\n    tag_119:\n        /* \"#utility.yul\":10433:10442   */\n      0x00\n        /* \"#utility.yul\":10466:10519   */\n      tag_239\n        /* \"#utility.yul\":10484:10518   */\n      tag_240\n        /* \"#utility.yul\":10493:10517   */\n      tag_241\n        /* \"#utility.yul\":10511:10516   */\n      dup5\n        /* \"#utility.yul\":10493:10517   */\n      tag_94\n      jump\t// in\n    tag_241:\n        /* \"#utility.yul\":10484:10518   */\n      tag_118\n      jump\t// in\n    tag_240:\n        /* \"#utility.yul\":10466:10519   */\n      tag_94\n      jump\t// in\n    tag_239:\n        /* \"#utility.yul\":10453:10519   */\n      swap1\n      pop\n        /* \"#utility.yul\":10383:10525   */\n      swap2\n      swap1\n      pop\n      jump\t// out\n        /* \"#utility.yul\":10531:10606   */\n    tag_120:\n        /* \"#utility.yul\":10574:10577   */\n      0x00\n        /* \"#utility.yul\":10595:10600   */\n      dup2\n        /* \"#utility.yul\":10588:10600   */\n      swap1\n      pop\n        /* \"#utility.yul\":10531:10606   */\n      swap2\n      swap1\n      pop\n      jump\t// out\n        /* \"#utility.yul\":10612:10881   */\n    tag_121:\n        /* \"#utility.yul\":10722:10761   */\n      tag_244\n        /* \"#utility.yul\":10753:10760   */\n      dup4\n        /* \"#utility.yul\":10722:10761   */\n      tag_119\n      jump\t// in\n    tag_244:\n        /* \"#utility.yul\":10783:10874   */\n      tag_245\n        /* \"#utility.yul\":10832:10873   */\n      tag_246\n        /* \"#utility.yul\":10856:10872   */\n      dup3\n        /* \"#utility.yul\":10832:10873   */\n      tag_120\n      jump\t// in\n    tag_246:\n        /* \"#utility.yul\":10824:10830   */\n      dup5\n        /* \"#utility.yul\":10817:10821   */\n      dup5\n        /* \"#utility.yul\":10811:10822   */\n      sload\n        /* \"#utility.yul\":10783:10874   */\n      tag_117\n      jump\t// in\n    tag_245:\n        /* \"#utility.yul\":10777:10781   */\n      dup3\n        /* \"#utility.yul\":10770:10875   */\n      sstore\n        /* \"#utility.yul\":10688:10881   */\n      pop\n        /* \"#utility.yul\":10612:10881   */\n      pop\n      pop\n      pop\n      jump\t// out\n        /* \"#utility.yul\":10887:10960   */\n    tag_122:\n        /* \"#utility.yul\":10932:10935   */\n      0x00\n        /* \"#utility.yul\":10887:10960   */\n      swap1\n      jump\t// out\n        /* \"#utility.yul\":10966:11155   */\n    tag_123:\n        /* \"#utility.yul\":11043:11075   */\n      tag_249\n      tag_122\n      jump\t// in\n    tag_249:\n        /* \"#utility.yul\":11084:11149   */\n      tag_250\n        /* \"#utility.yul\":11142:11148   */\n      dup2\n        /* \"#utility.yul\":11134:11140   */\n      dup5\n        /* \"#utility.yul\":11128:11132   */\n      dup5\n        /* \"#utility.yul\":11084:11149   */\n      tag_121\n      jump\t// in\n    tag_250:\n        /* \"#utility.yul\":11019:11155   */\n      pop\n        /* \"#utility.yul\":10966:11155   */\n      pop\n      pop\n      jump\t// out\n        /* \"#utility.yul\":11161:11347   */\n    tag_124:\n        /* \"#utility.yul\":11221:11341   */\n    tag_252:\n        /* \"#utility.yul\":11238:11241   */\n      dup2\n        /* \"#utility.yul\":11231:11236   */\n      dup2\n        /* \"#utility.yul\":11228:11242   */\n      lt\n        /* \"#utility.yul\":11221:11341   */\n      iszero\n      tag_254\n      jumpi\n        /* \"#utility.yul\":11292:11331   */\n      tag_255\n        /* \"#utility.yul\":11329:11330   */\n      0x00\n        /* \"#utility.yul\":11322:11327   */\n      dup3\n        /* \"#utility.yul\":11292:11331   */\n      tag_123\n      jump\t// in\n    tag_255:\n        /* \"#utility.yul\":11265:11266   */\n      0x01\n        /* \"#utility.yul\":11258:11263   */\n      dup2\n        /* \"#utility.yul\":11254:11267   */\n      add\n        /* \"#utility.yul\":11245:11267   */\n      swap1\n      pop\n        /* \"#utility.yul\":11221:11341   */\n      jump(tag_252)\n    tag_254:\n        /* \"#utility.yul\":11161:11347   */\n      pop\n      pop\n      jump\t// out\n        /* \"#utility.yul\":11353:11896   */\n    tag_125:\n        /* \"#utility.yul\":11454:11456   */\n      0x1f\n        /* \"#utility.yul\":11449:11452   */\n      dup3\n        /* \"#utility.yul\":11446:11457   */\n      gt\n        /* \"#utility.yul\":11443:11889   */\n      iszero\n      tag_257\n      jumpi\n        /* \"#utility.yul\":11488:11526   */\n      tag_258\n        /* \"#utility.yul\":11520:11525   */\n      dup2\n        /* \"#utility.yul\":11488:11526   */\n      tag_114\n      jump\t// in\n    tag_258:\n        /* \"#utility.yul\":11572:11601   */\n      tag_259\n        /* \"#utility.yul\":11590:11600   */\n      dup5\n        /* \"#utility.yul\":11572:11601   */\n      tag_115\n      jump\t// in\n    tag_259:\n        /* \"#utility.yul\":11562:11570   */\n      dup2\n        /* \"#utility.yul\":11558:11602   */\n      add\n        /* \"#utility.yul\":11755:11757   */\n      0x20\n        /* \"#utility.yul\":11743:11753   */\n      dup6\n        /* \"#utility.yul\":11740:11758   */\n      lt\n        /* \"#utility.yul\":11737:11786   */\n      iszero\n      tag_260\n      jumpi\n        /* \"#utility.yul\":11776:11784   */\n      dup2\n        /* \"#utility.yul\":11761:11784   */\n      swap1\n      pop\n        /* \"#utility.yul\":11737:11786   */\n    tag_260:\n        /* \"#utility.yul\":11799:11879   */\n      tag_261\n        /* \"#utility.yul\":11855:11877   */\n      tag_262\n        /* \"#utility.yul\":11873:11876   */\n      dup6\n        /* \"#utility.yul\":11855:11877   */\n      tag_115\n      jump\t// in\n    tag_262:\n        /* \"#utility.yul\":11845:11853   */\n      dup4\n        /* \"#utility.yul\":11841:11878   */\n      add\n        /* \"#utility.yul\":11828:11839   */\n      dup3\n        /* \"#utility.yul\":11799:11879   */\n      tag_124\n      jump\t// in\n    tag_261:\n        /* \"#utility.yul\":11458:11889   */\n      pop\n      pop\n        /* \"#utility.yul\":11443:11889   */\n    tag_257:\n        /* \"#utility.yul\":11353:11896   */\n      pop\n      pop\n      pop\n      jump\t// out\n        /* \"#utility.yul\":11902:12019   */\n    tag_126:\n        /* \"#utility.yul\":11956:11964   */\n      0x00\n        /* \"#utility.yul\":12006:12011   */\n      dup3\n        /* \"#utility.yul\":12000:12004   */\n      dup3\n        /* \"#utility.yul\":11996:12012   */\n      shr\n        /* \"#utility.yul\":11975:12012   */\n      swap1\n      pop\n        /* \"#utility.yul\":11902:12019   */\n      swap3\n      swap2\n      pop\n      pop\n      jump\t// out\n        /* \"#utility.yul\":12025:12194   */\n    tag_127:\n        /* \"#utility.yul\":12069:12075   */\n      0x00\n        /* \"#utility.yul\":12102:12153   */\n      tag_265\n        /* \"#utility.yul\":12150:12151   */\n      0x00\n        /* \"#utility.yul\":12146:12152   */\n      not\n        /* \"#utility.yul\":12138:12143   */\n      dup5\n        /* \"#utility.yul\":12135:12136   */\n      0x08\n        /* \"#utility.yul\":12131:12144   */\n      mul\n        /* \"#utility.yul\":12102:12153   */\n      tag_126\n      jump\t// in\n    tag_265:\n        /* \"#utility.yul\":12098:12154   */\n      not\n        /* \"#utility.yul\":12183:12187   */\n      dup1\n        /* \"#utility.yul\":12177:12181   */\n      dup4\n        /* \"#utility.yul\":12173:12188   */\n      and\n        /* \"#utility.yul\":12163:12188   */\n      swap2\n      pop\n        /* \"#utility.yul\":12076:12194   */\n      pop\n        /* \"#utility.yul\":12025:12194   */\n      swap3\n      swap2\n      pop\n      pop\n      jump\t// out\n        /* \"#utility.yul\":12199:12494   */\n    tag_128:\n        /* \"#utility.yul\":12275:12279   */\n      0x00\n        /* \"#utility.yul\":12421:12450   */\n      tag_267\n        /* \"#utility.yul\":12446:12449   */\n      dup4\n        /* \"#utility.yul\":12440:12444   */\n      dup4\n        /* \"#utility.yul\":12421:12450   */\n      tag_127\n      jump\t// in\n    tag_267:\n        /* \"#utility.yul\":12413:12450   */\n      swap2\n      pop\n        /* \"#utility.yul\":12483:12486   */\n      dup3\n        /* \"#utility.yul\":12480:12481   */\n      0x02\n        /* \"#utility.yul\":12476:12487   */\n      mul\n        /* \"#utility.yul\":12470:12474   */\n      dup3\n        /* \"#utility.yul\":12467:12488   */\n      or\n        /* \"#utility.yul\":12459:12488   */\n      swap1\n      pop\n        /* \"#utility.yul\":12199:12494   */\n      swap3\n      swap2\n      pop\n      pop\n      jump\t// out\n        /* \"#utility.yul\":12499:13894   */\n    tag_32:\n        /* \"#utility.yul\":12616:12653   */\n      tag_269\n        /* \"#utility.yul\":12649:12652   */\n      dup3\n        /* \"#utility.yul\":12616:12653   */\n      tag_97\n      jump\t// in\n    tag_269:\n        /* \"#utility.yul\":12718:12736   */\n      0xffffffffffffffff\n        /* \"#utility.yul\":12710:12716   */\n      dup2\n        /* \"#utility.yul\":12707:12737   */\n      gt\n        /* \"#utility.yul\":12704:12760   */\n      iszero\n      tag_270\n      jumpi\n        /* \"#utility.yul\":12740:12758   */\n      tag_271\n      tag_87\n      jump\t// in\n    tag_271:\n        /* \"#utility.yul\":12704:12760   */\n    tag_270:\n        /* \"#utility.yul\":12784:12822   */\n      tag_272\n        /* \"#utility.yul\":12816:12820   */\n      dup3\n        /* \"#utility.yul\":12810:12821   */\n      sload\n        /* \"#utility.yul\":12784:12822   */\n      tag_45\n      jump\t// in\n    tag_272:\n        /* \"#utility.yul\":12869:12936   */\n      tag_273\n        /* \"#utility.yul\":12929:12935   */\n      dup3\n        /* \"#utility.yul\":12921:12927   */\n      dup3\n        /* \"#utility.yul\":12915:12919   */\n      dup6\n        /* \"#utility.yul\":12869:12936   */\n      tag_125\n      jump\t// in\n    tag_273:\n        /* \"#utility.yul\":12963:12964   */\n      0x00\n        /* \"#utility.yul\":12987:12991   */\n      0x20\n        /* \"#utility.yul\":12974:12991   */\n      swap1\n      pop\n        /* \"#utility.yul\":13019:13021   */\n      0x1f\n        /* \"#utility.yul\":13011:13017   */\n      dup4\n        /* \"#utility.yul\":13008:13022   */\n      gt\n        /* \"#utility.yul\":13036:13037   */\n      0x01\n        /* \"#utility.yul\":13031:13649   */\n      dup2\n      eq\n      tag_275\n      jumpi\n        /* \"#utility.yul\":13693:13694   */\n      0x00\n        /* \"#utility.yul\":13710:13716   */\n      dup5\n        /* \"#utility.yul\":13707:13784   */\n      iszero\n      tag_276\n      jumpi\n        /* \"#utility.yul\":13759:13768   */\n      dup3\n        /* \"#utility.yul\":13754:13757   */\n      dup8\n        /* \"#utility.yul\":13750:13769   */\n      add\n        /* \"#utility.yul\":13744:13770   */\n      mload\n        /* \"#utility.yul\":13735:13770   */\n      swap1\n      pop\n        /* \"#utility.yul\":13707:13784   */\n    tag_276:\n        /* \"#utility.yul\":13810:13877   */\n      tag_277\n        /* \"#utility.yul\":13870:13876   */\n      dup6\n        /* \"#utility.yul\":13863:13868   */\n      dup3\n        /* \"#utility.yul\":13810:13877   */\n      tag_128\n      jump\t// in\n    tag_277:\n        /* \"#utility.yul\":13804:13808   */\n      dup7\n        /* \"#utility.yul\":13797:13878   */\n      sstore\n        /* \"#utility.yul\":13666:13888   */\n      pop\n        /* \"#utility.yul\":13001:13888   */\n      jump(tag_274)\n        /* \"#utility.yul\":13031:13649   */\n    tag_275:\n        /* \"#utility.yul\":13083:13087   */\n      0x1f\n        /* \"#utility.yul\":13079:13088   */\n      not\n        /* \"#utility.yul\":13071:13077   */\n      dup5\n        /* \"#utility.yul\":13067:13089   */\n      and\n        /* \"#utility.yul\":13117:13154   */\n      tag_278\n        /* \"#utility.yul\":13149:13153   */\n      dup7\n        /* \"#utility.yul\":13117:13154   */\n      tag_114\n      jump\t// in\n    tag_278:\n        /* \"#utility.yul\":13176:13177   */\n      0x00\n        /* \"#utility.yul\":13190:13398   */\n    tag_279:\n        /* \"#utility.yul\":13204:13211   */\n      dup3\n        /* \"#utility.yul\":13201:13202   */\n      dup2\n        /* \"#utility.yul\":13198:13212   */\n      lt\n        /* \"#utility.yul\":13190:13398   */\n      iszero\n      tag_281\n      jumpi\n        /* \"#utility.yul\":13283:13292   */\n      dup5\n        /* \"#utility.yul\":13278:13281   */\n      dup10\n        /* \"#utility.yul\":13274:13293   */\n      add\n        /* \"#utility.yul\":13268:13294   */\n      mload\n        /* \"#utility.yul\":13260:13266   */\n      dup3\n        /* \"#utility.yul\":13253:13295   */\n      sstore\n        /* \"#utility.yul\":13334:13335   */\n      0x01\n        /* \"#utility.yul\":13326:13332   */\n      dup3\n        /* \"#utility.yul\":13322:13336   */\n      add\n        /* \"#utility.yul\":13312:13336   */\n      swap2\n      pop\n        /* \"#utility.yul\":13381:13383   */\n      0x20\n        /* \"#utility.yul\":13370:13379   */\n      dup6\n        /* \"#utility.yul\":13366:13384   */\n      add\n        /* \"#utility.yul\":13353:13384   */\n      swap5\n      pop\n        /* \"#utility.yul\":13227:13231   */\n      0x20\n        /* \"#utility.yul\":13224:13225   */\n      dup2\n        /* \"#utility.yul\":13220:13232   */\n      add\n        /* \"#utility.yul\":13215:13232   */\n      swap1\n      pop\n        /* \"#utility.yul\":13190:13398   */\n      jump(tag_279)\n    tag_281:\n        /* \"#utility.yul\":13426:13432   */\n      dup7\n        /* \"#utility.yul\":13417:13424   */\n      dup4\n        /* \"#utility.yul\":13414:13433   */\n      lt\n        /* \"#utility.yul\":13411:13590   */\n      iszero\n      tag_282\n      jumpi\n        /* \"#utility.yul\":13484:13493   */\n      dup5\n        /* \"#utility.yul\":13479:13482   */\n      dup10\n        /* \"#utility.yul\":13475:13494   */\n      add\n        /* \"#utility.yul\":13469:13495   */\n      mload\n        /* \"#utility.yul\":13527:13575   */\n      tag_283\n        /* \"#utility.yul\":13569:13573   */\n      0x1f\n        /* \"#utility.yul\":13561:13567   */\n      dup10\n        /* \"#utility.yul\":13557:13574   */\n      and\n        /* \"#utility.yul\":13546:13555   */\n      dup3\n        /* \"#utility.yul\":13527:13575   */\n      tag_127\n      jump\t// in\n    tag_283:\n        /* \"#utility.yul\":13519:13525   */\n      dup4\n        /* \"#utility.yul\":13512:13576   */\n      sstore\n        /* \"#utility.yul\":13434:13590   */\n      pop\n        /* \"#utility.yul\":13411:13590   */\n    tag_282:\n        /* \"#utility.yul\":13636:13637   */\n      0x01\n        /* \"#utility.yul\":13632:13633   */\n      0x02\n        /* \"#utility.yul\":13624:13630   */\n      dup9\n        /* \"#utility.yul\":13620:13634   */\n      mul\n        /* \"#utility.yul\":13616:13638   */\n      add\n        /* \"#utility.yul\":13610:13614   */\n      dup9\n        /* \"#utility.yul\":13603:13639   */\n      sstore\n        /* \"#utility.yul\":13038:13649   */\n      pop\n      pop\n      pop\n        /* \"#utility.yul\":13001:13888   */\n    tag_274:\n      pop\n        /* \"#utility.yul\":12591:13894   */\n      pop\n      pop\n      pop\n        /* \"#utility.yul\":12499:13894   */\n      pop\n      pop\n      jump\t// out\n        /* \"#utility.yul\":13900:14068   */\n    tag_129:\n        /* \"#utility.yul\":14040:14060   */\n      0x696e646578206f7574206f662072616e67650000000000000000000000000000\n        /* \"#utility.yul\":14036:14037   */\n      0x00\n        /* \"#utility.yul\":14028:14034   */\n      dup3\n        /* \"#utility.yul\":14024:14038   */\n      add\n        /* \"#utility.yul\":14017:14061   */\n      mstore\n        /* \"#utility.yul\":13900:14068   */\n      pop\n      jump\t// out\n        /* \"#utility.yul\":14074:14440   */\n    tag_130:\n        /* \"#utility.yul\":14216:14219   */\n      0x00\n        /* \"#utility.yul\":14237:14304   */\n      tag_286\n        /* \"#utility.yul\":14301:14303   */\n      0x12\n        /* \"#utility.yul\":14296:14299   */\n      dup4\n        /* \"#utility.yul\":14237:14304   */\n      tag_98\n      jump\t// in\n    tag_286:\n        /* \"#utility.yul\":14230:14304   */\n      swap2\n      pop\n        /* \"#utility.yul\":14313:14406   */\n      tag_287\n        /* \"#utility.yul\":14402:14405   */\n      dup3\n        /* \"#utility.yul\":14313:14406   */\n      tag_129\n      jump\t// in\n    tag_287:\n        /* \"#utility.yul\":14431:14433   */\n      0x20\n        /* \"#utility.yul\":14426:14429   */\n      dup3\n        /* \"#utility.yul\":14422:14434   */\n      add\n        /* \"#utility.yul\":14415:14434   */\n      swap1\n      pop\n        /* \"#utility.yul\":14074:14440   */\n      swap2\n      swap1\n      pop\n      jump\t// out\n        /* \"#utility.yul\":14446:14865   */\n    tag_36:\n        /* \"#utility.yul\":14612:14616   */\n      0x00\n        /* \"#utility.yul\":14650:14652   */\n      0x20\n        /* \"#utility.yul\":14639:14648   */\n      dup3\n        /* \"#utility.yul\":14635:14653   */\n      add\n        /* \"#utility.yul\":14627:14653   */\n      swap1\n      pop\n        /* \"#utility.yul\":14699:14708   */\n      dup2\n        /* \"#utility.yul\":14693:14697   */\n      dup2\n        /* \"#utility.yul\":14689:14709   */\n      sub\n        /* \"#utility.yul\":14685:14686   */\n      0x00\n        /* \"#utility.yul\":14674:14683   */\n      dup4\n        /* \"#utility.yul\":14670:14687   */\n      add\n        /* \"#utility.yul\":14663:14710   */\n      mstore\n        /* \"#utility.yul\":14727:14858   */\n      tag_289\n        /* \"#utility.yul\":14853:14857   */\n      dup2\n        /* \"#utility.yul\":14727:14858   */\n      tag_130\n      jump\t// in\n    tag_289:\n        /* \"#utility.yul\":14719:14858   */\n      swap1\n      pop\n        /* \"#utility.yul\":14446:14865   */\n      swap2\n      swap1\n      pop\n      jump\t// out\n        /* \"#utility.yul\":14871:15051   */\n    tag_39:\n        /* \"#utility.yul\":14919:14996   */\n      0x4e487b7100000000000000000000000000000000000000000000000000000000\n        /* \"#utility.yul\":14916:14917   */\n      0x00\n        /* \"#utility.yul\":14909:14997   */\n      mstore\n        /* \"#utility.yul\":15016:15020   */\n      0x32\n        /* \"#utility.yul\":15013:15014   */\n      0x04\n        /* \"#utility.yul\":15006:15021   */\n      mstore\n        /* \"#utility.yul\":15040:15044   */\n      0x24\n        /* \"#utility.yul\":15037:15038   */\n      0x00\n        /* \"#utility.yul\":15030:15045   */\n      revert\n        /* \"#utility.yul\":15057:15204   */\n    tag_131:\n        /* \"#utility.yul\":15158:15169   */\n      0x00\n        /* \"#utility.yul\":15195:15198   */\n      dup2\n        /* \"#utility.yul\":15180:15198   */\n      swap1\n      pop\n        /* \"#utility.yul\":15057:15204   */\n      swap3\n      swap2\n      pop\n      pop\n      jump\t// out\n        /* \"#utility.yul\":15210:15354   */\n    tag_132:\n        /* \"#utility.yul\":15262:15266   */\n      0x00\n        /* \"#utility.yul\":15285:15288   */\n      dup2\n        /* \"#utility.yul\":15277:15288   */\n      swap1\n      pop\n        /* \"#utility.yul\":15308:15311   */\n      dup2\n        /* \"#utility.yul\":15305:15306   */\n      0x00\n        /* \"#utility.yul\":15298:15312   */\n      mstore\n        /* \"#utility.yul\":15342:15346   */\n      0x20\n        /* \"#utility.yul\":15339:15340   */\n      0x00\n        /* \"#utility.yul\":15329:15347   */\n      keccak256\n        /* \"#utility.yul\":15321:15347   */\n      swap1\n      pop\n        /* \"#utility.yul\":15210:15354   */\n      swap2\n      swap1\n      pop\n      jump\t// out\n        /* \"#utility.yul\":15382:16260   */\n    tag_133:\n        /* \"#utility.yul\":15487:15490   */\n      0x00\n        /* \"#utility.yul\":15524:15529   */\n      dup2\n        /* \"#utility.yul\":15518:15530   */\n      sload\n        /* \"#utility.yul\":15553:15589   */\n      tag_294\n        /* \"#utility.yul\":15579:15588   */\n      dup2\n        /* \"#utility.yul\":15553:15589   */\n      tag_45\n      jump\t// in\n    tag_294:\n        /* \"#utility.yul\":15605:15693   */\n      tag_295\n        /* \"#utility.yul\":15686:15692   */\n      dup2\n        /* \"#utility.yul\":15681:15684   */\n      dup7\n        /* \"#utility.yul\":15605:15693   */\n      tag_131\n      jump\t// in\n    tag_295:\n        /* \"#utility.yul\":15598:15693   */\n      swap5\n      pop\n        /* \"#utility.yul\":15724:15725   */\n      0x01\n        /* \"#utility.yul\":15713:15722   */\n      dup3\n        /* \"#utility.yul\":15709:15726   */\n      and\n        /* \"#utility.yul\":15740:15741   */\n      0x00\n        /* \"#utility.yul\":15735:15901   */\n      dup2\n      eq\n      tag_297\n      jumpi\n        /* \"#utility.yul\":15915:15916   */\n      0x01\n        /* \"#utility.yul\":15910:16254   */\n      dup2\n      eq\n      tag_298\n      jumpi\n        /* \"#utility.yul\":15702:16254   */\n      jump(tag_296)\n        /* \"#utility.yul\":15735:15901   */\n    tag_297:\n        /* \"#utility.yul\":15819:15823   */\n      0xff\n        /* \"#utility.yul\":15815:15824   */\n      not\n        /* \"#utility.yul\":15804:15813   */\n      dup4\n        /* \"#utility.yul\":15800:15825   */\n      and\n        /* \"#utility.yul\":15795:15798   */\n      dup7\n        /* \"#utility.yul\":15788:15826   */\n      mstore\n        /* \"#utility.yul\":15881:15887   */\n      dup2\n        /* \"#utility.yul\":15874:15888   */\n      iszero\n        /* \"#utility.yul\":15867:15889   */\n      iszero\n        /* \"#utility.yul\":15859:15865   */\n      dup3\n        /* \"#utility.yul\":15855:15890   */\n      mul\n        /* \"#utility.yul\":15850:15853   */\n      dup7\n        /* \"#utility.yul\":15846:15891   */\n      add\n        /* \"#utility.yul\":15839:15891   */\n      swap4\n      pop\n        /* \"#utility.yul\":15735:15901   */\n      jump(tag_296)\n        /* \"#utility.yul\":15910:16254   */\n    tag_298:\n        /* \"#utility.yul\":15977:16018   */\n      tag_299\n        /* \"#utility.yul\":16012:16017   */\n      dup6\n        /* \"#utility.yul\":15977:16018   */\n      tag_132\n      jump\t// in\n    tag_299:\n        /* \"#utility.yul\":16040:16041   */\n      0x00\n        /* \"#utility.yul\":16054:16208   */\n    tag_300:\n        /* \"#utility.yul\":16068:16074   */\n      dup4\n        /* \"#utility.yul\":16065:16066   */\n      dup2\n        /* \"#utility.yul\":16062:16075   */\n      lt\n        /* \"#utility.yul\":16054:16208   */\n      iszero\n      tag_302\n      jumpi\n        /* \"#utility.yul\":16142:16149   */\n      dup2\n        /* \"#utility.yul\":16136:16150   */\n      sload\n        /* \"#utility.yul\":16132:16133   */\n      dup2\n        /* \"#utility.yul\":16127:16130   */\n      dup10\n        /* \"#utility.yul\":16123:16134   */\n      add\n        /* \"#utility.yul\":16116:16151   */\n      mstore\n        /* \"#utility.yul\":16192:16193   */\n      0x01\n        /* \"#utility.yul\":16183:16190   */\n      dup3\n        /* \"#utility.yul\":16179:16194   */\n      add\n        /* \"#utility.yul\":16168:16194   */\n      swap2\n      pop\n        /* \"#utility.yul\":16090:16094   */\n      0x20\n        /* \"#utility.yul\":16087:16088   */\n      dup2\n        /* \"#utility.yul\":16083:16095   */\n      add\n        /* \"#utility.yul\":16078:16095   */\n      swap1\n      pop\n        /* \"#utility.yul\":16054:16208   */\n      jump(tag_300)\n    tag_302:\n        /* \"#utility.yul\":16237:16243   */\n      dup4\n        /* \"#utility.yul\":16232:16235   */\n      dup9\n        /* \"#utility.yul\":16228:16244   */\n      add\n        /* \"#utility.yul\":16221:16244   */\n      swap6\n      pop\n        /* \"#utility.yul\":15917:16254   */\n      pop\n      pop\n        /* \"#utility.yul\":15702:16254   */\n    tag_296:\n      pop\n        /* \"#utility.yul\":15491:16260   */\n      pop\n      pop\n        /* \"#utility.yul\":15382:16260   */\n      swap3\n      swap2\n      pop\n      pop\n      jump\t// out\n        /* \"#utility.yul\":16266:16539   */\n    tag_65:\n        /* \"#utility.yul\":16397:16400   */\n      0x00\n        /* \"#utility.yul\":16419:16513   */\n      tag_304\n        /* \"#utility.yul\":16509:16512   */\n      dup3\n        /* \"#utility.yul\":16500:16506   */\n      dup5\n        /* \"#utility.yul\":16419:16513   */\n      tag_133\n      jump\t// in\n    tag_304:\n        /* \"#utility.yul\":16412:16513   */\n      swap2\n      pop\n        /* \"#utility.yul\":16530:16533   */\n      dup2\n        /* \"#utility.yul\":16523:16533   */\n      swap1\n      pop\n        /* \"#utility.yul\":16266:16539   */\n      swap3\n      swap2\n      pop\n      pop\n      jump\t// out\n        /* \"#utility.yul\":16545:16725   */\n    tag_134:\n        /* \"#utility.yul\":16593:16670   */\n      0x4e487b7100000000000000000000000000000000000000000000000000000000\n        /* \"#utility.yul\":16590:16591   */\n      0x00\n        /* \"#utility.yul\":16583:16671   */\n      mstore\n        /* \"#utility.yul\":16690:16694   */\n      0x11\n        /* \"#utility.yul\":16687:16688   */\n      0x04\n        /* \"#utility.yul\":16680:16695   */\n      mstore\n        /* \"#utility.yul\":16714:16718   */\n      0x24\n        /* \"#utility.yul\":16711:16712   */\n      0x00\n        /* \"#utility.yul\":16704:16719   */\n      revert\n        /* \"#utility.yul\":16731:16964   */\n    tag_71:\n        /* \"#utility.yul\":16770:16773   */\n      0x00\n        /* \"#utility.yul\":16793:16817   */\n      tag_307\n        /* \"#utility.yul\":16811:16816   */\n      dup3\n        /* \"#utility.yul\":16793:16817   */\n      tag_94\n      jump\t// in\n    tag_307:\n        /* \"#utility.yul\":16784:16817   */\n      swap2\n      pop\n        /* \"#utility.yul\":16839:16905   */\n      0xffffffffffffffffffffffffffffffffffffffffffffffffffffffffffffffff\n        /* \"#utility.yul\":16832:16837   */\n      dup3\n        /* \"#utility.yul\":16829:16906   */\n      sub\n        /* \"#utility.yul\":16826:16929   */\n      tag_308\n      jumpi\n        /* \"#utility.yul\":16909:16927   */\n      tag_309\n      tag_134\n      jump\t// in\n    tag_309:\n        /* \"#utility.yul\":16826:16929   */\n    tag_308:\n        /* \"#utility.yul\":16956:16957   */\n      0x01\n        /* \"#utility.yul\":16949:16954   */\n      dup3\n        /* \"#utility.yul\":16945:16958   */\n      add\n        /* \"#utility.yul\":16938:16958   */\n      swap1\n      pop\n        /* \"#utility.yul\":16731:16964   */\n      swap2\n      swap1\n      pop\n      jump\t// out\n\n    auxdata: 0xa2646970667358221220fef0a2a94c6477a8e184e55c9ea466c7b81b264d8ccc54a4192ab1bd9c394ee164736f6c63430008110033\n}\n",
				"bytecode": {
					"linkReferences": {},
					"object": "608060405234801561001057600080fd5b50610e78806100206000396000f3fe608060405234801561001057600080fd5b50600436106100575760003560e01c806311456b471461005c578063303a36e2146100785780634622ab03146100a957806353a98ea9146100da578063d504ea1d146100f6575b600080fd5b610076600480360381019061007191906106a8565b610114565b005b610092600480360381019061008d9190610727565b610192565b6040516100a09291906107ee565b60405180910390f35b6100c360048036038101906100be9190610727565b6102c9565b6040516100d19291906107ee565b60405180910390f35b6100f460048036038101906100ef91906106a8565b610392565b005b6100fe610442565b60405161010b9190610976565b60405180910390f35b60006040518060400160405280838152602001600115158152509080600181540180825580915050600190039060005260206000209060020201600090919091909150600082015181600001908161016c9190610ba4565b5060208201518160010160006101000a81548160ff021916908315150217905550505050565b60606000808054905083106101dc576040517f08c379a00000000000000000000000000000000000000000000000000000000081526004016101d390610cc2565b60405180910390fd5b600083815481106101f0576101ef610ce2565b5b90600052602060002090600202016000016000848154811061021557610214610ce2565b5b906000526020600020906002020160010160009054906101000a900460ff16818054610240906109c7565b80601f016020809104026020016040519081016040528092919081815260200182805461026c906109c7565b80156102b95780601f1061028e576101008083540402835291602001916102b9565b820191906000526020600020905b81548152906001019060200180831161029c57829003601f168201915b5050505050915091509150915091565b600081815481106102d957600080fd5b90600052602060002090600202016000915090508060000180546102fc906109c7565b80601f0160208091040260200160405190810160405280929190818152602001828054610328906109c7565b80156103755780601f1061034a57610100808354040283529160200191610375565b820191906000526020600020905b81548152906001019060200180831161035857829003601f168201915b5050505050908060010160009054906101000a900460ff16905082565b60005b60008054905081101561043e578180519060200120600082815481106103be576103bd610ce2565b5b90600052602060002090600202016000016040516103dc9190610db4565b60405180910390200361042b5760008082815481106103fe576103fd610ce2565b5b906000526020600020906002020160010160006101000a81548160ff02191690831515021790555061043e565b808061043690610dfa565b915050610395565b5050565b60606000805480602002602001604051908101604052809291908181526020016000905b828210156105455783829060005260206000209060020201604051806040016040529081600082018054610499906109c7565b80601f01602080910402602001604051908101604052809291908181526020018280546104c5906109c7565b80156105125780601f106104e757610100808354040283529160200191610512565b820191906000526020600020905b8154815290600101906020018083116104f557829003601f168201915b505050505081526020016001820160009054906101000a900460ff16151515158152505081526020019060010190610466565b50505050905090565b6000604051905090565b600080fd5b600080fd5b600080fd5b600080fd5b6000601f19601f8301169050919050565b7f4e487b7100000000000000000000000000000000000000000000000000000000600052604160045260246000fd5b6105b58261056c565b810181811067ffffffffffffffff821117156105d4576105d361057d565b5b80604052505050565b60006105e761054e565b90506105f382826105ac565b919050565b600067ffffffffffffffff8211156106135761061261057d565b5b61061c8261056c565b9050602081019050919050565b82818337600083830152505050565b600061064b610646846105f8565b6105dd565b90508281526020810184848401111561066757610666610567565b5b610672848285610629565b509392505050565b600082601f83011261068f5761068e610562565b5b813561069f848260208601610638565b91505092915050565b6000602082840312156106be576106bd610558565b5b600082013567ffffffffffffffff8111156106dc576106db61055d565b5b6106e88482850161067a565b91505092915050565b6000819050919050565b610704816106f1565b811461070f57600080fd5b50565b600081359050610721816106fb565b92915050565b60006020828403121561073d5761073c610558565b5b600061074b84828501610712565b91505092915050565b600081519050919050565b600082825260208201905092915050565b60005b8381101561078e578082015181840152602081019050610773565b60008484015250505050565b60006107a582610754565b6107af818561075f565b93506107bf818560208601610770565b6107c88161056c565b840191505092915050565b60008115159050919050565b6107e8816107d3565b82525050565b60006040820190508181036000830152610808818561079a565b905061081760208301846107df565b9392505050565b600081519050919050565b600082825260208201905092915050565b6000819050602082019050919050565b600082825260208201905092915050565b600061086682610754565b610870818561084a565b9350610880818560208601610770565b6108898161056c565b840191505092915050565b61089d816107d3565b82525050565b600060408301600083015184820360008601526108c0828261085b565b91505060208301516108d56020860182610894565b508091505092915050565b60006108ec83836108a3565b905092915050565b6000602082019050919050565b600061090c8261081e565b6109168185610829565b9350836020820285016109288561083a565b8060005b85811015610964578484038952815161094585826108e0565b9450610950836108f4565b925060208a0199505060018101905061092c565b50829750879550505050505092915050565b600060208201905081810360008301526109908184610901565b905092915050565b7f4e487b7100000000000000000000000000000000000000000000000000000000600052602260045260246000fd5b600060028204905060018216806109df57607f821691505b6020821081036109f2576109f1610998565b5b50919050565b60008190508160005260206000209050919050565b60006020601f8301049050919050565b600082821b905092915050565b600060088302610a5a7fffffffffffffffffffffffffffffffffffffffffffffffffffffffffffffffff82610a1d565b610a648683610a1d565b95508019841693508086168417925050509392505050565b6000819050919050565b6000610aa1610a9c610a97846106f1565b610a7c565b6106f1565b9050919050565b6000819050919050565b610abb83610a86565b610acf610ac782610aa8565b848454610a2a565b825550505050565b600090565b610ae4610ad7565b610aef818484610ab2565b505050565b5b81811015610b1357610b08600082610adc565b600181019050610af5565b5050565b601f821115610b5857610b29816109f8565b610b3284610a0d565b81016020851015610b41578190505b610b55610b4d85610a0d565b830182610af4565b50505b505050565b600082821c905092915050565b6000610b7b60001984600802610b5d565b1980831691505092915050565b6000610b948383610b6a565b9150826002028217905092915050565b610bad82610754565b67ffffffffffffffff811115610bc657610bc561057d565b5b610bd082546109c7565b610bdb828285610b17565b600060209050601f831160018114610c0e5760008415610bfc578287015190505b610c068582610b88565b865550610c6e565b601f198416610c1c866109f8565b60005b82811015610c4457848901518255600182019150602085019450602081019050610c1f565b86831015610c615784890151610c5d601f891682610b6a565b8355505b6001600288020188555050505b505050505050565b7f696e646578206f7574206f662072616e67650000000000000000000000000000600082015250565b6000610cac60128361075f565b9150610cb782610c76565b602082019050919050565b60006020820190508181036000830152610cdb81610c9f565b9050919050565b7f4e487b7100000000000000000000000000000000000000000000000000000000600052603260045260246000fd5b600081905092915050565b60008190508160005260206000209050919050565b60008154610d3e816109c7565b610d488186610d11565b94506001821660008114610d635760018114610d7857610dab565b60ff1983168652811515820286019350610dab565b610d8185610d1c565b60005b83811015610da357815481890152600182019150602081019050610d84565b838801955050505b50505092915050565b6000610dc08284610d31565b915081905092915050565b7f4e487b7100000000000000000000000000000000000000000000000000000000600052601160045260246000fd5b6000610e05826106f1565b91507fffffffffffffffffffffffffffffffffffffffffffffffffffffffffffffffff8203610e3757610e36610dcb565b5b60018201905091905056fea2646970667358221220fef0a2a94c6477a8e184e55c9ea466c7b81b264d8ccc54a4192ab1bd9c394ee164736f6c63430008110033",
					"opcodes": "PUSH1 0x80 PUSH1 0x40 MSTORE CALLVALUE DUP1 ISZERO PUSH2 0x10 JUMPI PUSH1 0x0 DUP1 REVERT JUMPDEST POP PUSH2 0xE78 DUP1 PUSH2 0x20 PUSH1 0x0 CODECOPY PUSH1 0x0 RETURN INVALID PUSH1 0x80 PUSH1 0x40 MSTORE CALLVALUE DUP1 ISZERO PUSH2 0x10 JUMPI PUSH1 0x0 DUP1 REVERT JUMPDEST POP PUSH1 0x4 CALLDATASIZE LT PUSH2 0x57 JUMPI PUSH1 0x0 CALLDATALOAD PUSH1 0xE0 SHR DUP1 PUSH4 0x11456B47 EQ PUSH2 0x5C JUMPI DUP1 PUSH4 0x303A36E2 EQ PUSH2 0x78 JUMPI DUP1 PUSH4 0x4622AB03 EQ PUSH2 0xA9 JUMPI DUP1 PUSH4 0x53A98EA9 EQ PUSH2 0xDA JUMPI DUP1 PUSH4 0xD504EA1D EQ PUSH2 0xF6 JUMPI JUMPDEST PUSH1 0x0 DUP1 REVERT JUMPDEST PUSH2 0x76 PUSH1 0x4 DUP1 CALLDATASIZE SUB DUP2 ADD SWAP1 PUSH2 0x71 SWAP2 SWAP1 PUSH2 0x6A8 JUMP JUMPDEST PUSH2 0x114 JUMP JUMPDEST STOP JUMPDEST PUSH2 0x92 PUSH1 0x4 DUP1 CALLDATASIZE SUB DUP2 ADD SWAP1 PUSH2 0x8D SWAP2 SWAP1 PUSH2 0x727 JUMP JUMPDEST PUSH2 0x192 JUMP JUMPDEST PUSH1 0x40 MLOAD PUSH2 0xA0 SWAP3 SWAP2 SWAP1 PUSH2 0x7EE JUMP JUMPDEST PUSH1 0x40 MLOAD DUP1 SWAP2 SUB SWAP1 RETURN JUMPDEST PUSH2 0xC3 PUSH1 0x4 DUP1 CALLDATASIZE SUB DUP2 ADD SWAP1 PUSH2 0xBE SWAP2 SWAP1 PUSH2 0x727 JUMP JUMPDEST PUSH2 0x2C9 JUMP JUMPDEST PUSH1 0x40 MLOAD PUSH2 0xD1 SWAP3 SWAP2 SWAP1 PUSH2 0x7EE JUMP JUMPDEST PUSH1 0x40 MLOAD DUP1 SWAP2 SUB SWAP1 RETURN JUMPDEST PUSH2 0xF4 PUSH1 0x4 DUP1 CALLDATASIZE SUB DUP2 ADD SWAP1 PUSH2 0xEF SWAP2 SWAP1 PUSH2 0x6A8 JUMP JUMPDEST PUSH2 0x392 JUMP JUMPDEST STOP JUMPDEST PUSH2 0xFE PUSH2 0x442 JUMP JUMPDEST PUSH1 0x40 MLOAD PUSH2 0x10B SWAP2 SWAP1 PUSH2 0x976 JUMP JUMPDEST PUSH1 0x40 MLOAD DUP1 SWAP2 SUB SWAP1 RETURN JUMPDEST PUSH1 0x0 PUSH1 0x40 MLOAD DUP1 PUSH1 0x40 ADD PUSH1 0x40 MSTORE DUP1 DUP4 DUP2 MSTORE PUSH1 0x20 ADD PUSH1 0x1 ISZERO ISZERO DUP2 MSTORE POP SWAP1 DUP1 PUSH1 0x1 DUP2 SLOAD ADD DUP1 DUP3 SSTORE DUP1 SWAP2 POP POP PUSH1 0x1 SWAP1 SUB SWAP1 PUSH1 0x0 MSTORE PUSH1 0x20 PUSH1 0x0 KECCAK256 SWAP1 PUSH1 0x2 MUL ADD PUSH1 0x0 SWAP1 SWAP2 SWAP1 SWAP2 SWAP1 SWAP2 POP PUSH1 0x0 DUP3 ADD MLOAD DUP2 PUSH1 0x0 ADD SWAP1 DUP2 PUSH2 0x16C SWAP2 SWAP1 PUSH2 0xBA4 JUMP JUMPDEST POP PUSH1 0x20 DUP3 ADD MLOAD DUP2 PUSH1 0x1 ADD PUSH1 0x0 PUSH2 0x100 EXP DUP2 SLOAD DUP2 PUSH1 0xFF MUL NOT AND SWAP1 DUP4 ISZERO ISZERO MUL OR SWAP1 SSTORE POP POP POP POP JUMP JUMPDEST PUSH1 0x60 PUSH1 0x0 DUP1 DUP1 SLOAD SWAP1 POP DUP4 LT PUSH2 0x1DC JUMPI PUSH1 0x40 MLOAD PUSH32 0x8C379A000000000000000000000000000000000000000000000000000000000 DUP2 MSTORE PUSH1 0x4 ADD PUSH2 0x1D3 SWAP1 PUSH2 0xCC2 JUMP JUMPDEST PUSH1 0x40 MLOAD DUP1 SWAP2 SUB SWAP1 REVERT JUMPDEST PUSH1 0x0 DUP4 DUP2 SLOAD DUP2 LT PUSH2 0x1F0 JUMPI PUSH2 0x1EF PUSH2 0xCE2 JUMP JUMPDEST JUMPDEST SWAP1 PUSH1 0x0 MSTORE PUSH1 0x20 PUSH1 0x0 KECCAK256 SWAP1 PUSH1 0x2 MUL ADD PUSH1 0x0 ADD PUSH1 0x0 DUP5 DUP2 SLOAD DUP2 LT PUSH2 0x215 JUMPI PUSH2 0x214 PUSH2 0xCE2 JUMP JUMPDEST JUMPDEST SWAP1 PUSH1 0x0 MSTORE PUSH1 0x20 PUSH1 0x0 KECCAK256 SWAP1 PUSH1 0x2 MUL ADD PUSH1 0x1 ADD PUSH1 0x0 SWAP1 SLOAD SWAP1 PUSH2 0x100 EXP SWAP1 DIV PUSH1 0xFF AND DUP2 DUP1 SLOAD PUSH2 0x240 SWAP1 PUSH2 0x9C7 JUMP JUMPDEST DUP1 PUSH1 0x1F ADD PUSH1 0x20 DUP1 SWAP2 DIV MUL PUSH1 0x20 ADD PUSH1 0x40 MLOAD SWAP1 DUP2 ADD PUSH1 0x40 MSTORE DUP1 SWAP3 SWAP2 SWAP1 DUP2 DUP2 MSTORE PUSH1 0x20 ADD DUP3 DUP1 SLOAD PUSH2 0x26C SWAP1 PUSH2 0x9C7 JUMP JUMPDEST DUP1 ISZERO PUSH2 0x2B9 JUMPI DUP1 PUSH1 0x1F LT PUSH2 0x28E JUMPI PUSH2 0x100 DUP1 DUP4 SLOAD DIV MUL DUP4 MSTORE SWAP2 PUSH1 0x20 ADD SWAP2 PUSH2 0x2B9 JUMP JUMPDEST DUP3 ADD SWAP2 SWAP1 PUSH1 0x0 MSTORE PUSH1 0x20 PUSH1 0x0 KECCAK256 SWAP1 JUMPDEST DUP2 SLOAD DUP2 MSTORE SWAP1 PUSH1 0x1 ADD SWAP1 PUSH1 0x20 ADD DUP1 DUP4 GT PUSH2 0x29C JUMPI DUP3 SWAP1 SUB PUSH1 0x1F AND DUP3 ADD SWAP2 JUMPDEST POP POP POP POP POP SWAP2 POP SWAP2 POP SWAP2 POP SWAP2 POP SWAP2 JUMP JUMPDEST PUSH1 0x0 DUP2 DUP2 SLOAD DUP2 LT PUSH2 0x2D9 JUMPI PUSH1 0x0 DUP1 REVERT JUMPDEST SWAP1 PUSH1 0x0 MSTORE PUSH1 0x20 PUSH1 0x0 KECCAK256 SWAP1 PUSH1 0x2 MUL ADD PUSH1 0x0 SWAP2 POP SWAP1 POP DUP1 PUSH1 0x0 ADD DUP1 SLOAD PUSH2 0x2FC SWAP1 PUSH2 0x9C7 JUMP JUMPDEST DUP1 PUSH1 0x1F ADD PUSH1 0x20 DUP1 SWAP2 DIV MUL PUSH1 0x20 ADD PUSH1 0x40 MLOAD SWAP1 DUP2 ADD PUSH1 0x40 MSTORE DUP1 SWAP3 SWAP2 SWAP1 DUP2 DUP2 MSTORE PUSH1 0x20 ADD DUP3 DUP1 SLOAD PUSH2 0x328 SWAP1 PUSH2 0x9C7 JUMP JUMPDEST DUP1 ISZERO PUSH2 0x375 JUMPI DUP1 PUSH1 0x1F LT PUSH2 0x34A JUMPI PUSH2 0x100 DUP1 DUP4 SLOAD DIV MUL DUP4 MSTORE SWAP2 PUSH1 0x20 ADD SWAP2 PUSH2 0x375 JUMP JUMPDEST DUP3 ADD SWAP2 SWAP1 PUSH1 0x0 MSTORE PUSH1 0x20 PUSH1 0x0 KECCAK256 SWAP1 JUMPDEST DUP2 SLOAD DUP2 MSTORE SWAP1 PUSH1 0x1 ADD SWAP1 PUSH1 0x20 ADD DUP1 DUP4 GT PUSH2 0x358 JUMPI DUP3 SWAP1 SUB PUSH1 0x1F AND DUP3 ADD SWAP2 JUMPDEST POP POP POP POP POP SWAP1 DUP1 PUSH1 0x1 ADD PUSH1 0x0 SWAP1 SLOAD SWAP1 PUSH2 0x100 EXP SWAP1 DIV PUSH1 0xFF AND SWAP1 POP DUP3 JUMP JUMPDEST PUSH1 0x0 JUMPDEST PUSH1 0x0 DUP1 SLOAD SWAP1 POP DUP2 LT ISZERO PUSH2 0x43E JUMPI DUP2 DUP1 MLOAD SWAP1 PUSH1 0x20 ADD KECCAK256 PUSH1 0x0 DUP3 DUP2 SLOAD DUP2 LT PUSH2 0x3BE JUMPI PUSH2 0x3BD PUSH2 0xCE2 JUMP JUMPDEST JUMPDEST SWAP1 PUSH1 0x0 MSTORE PUSH1 0x20 PUSH1 0x0 KECCAK256 SWAP1 PUSH1 0x2 MUL ADD PUSH1 0x0 ADD PUSH1 0x40 MLOAD PUSH2 0x3DC SWAP2 SWAP1 PUSH2 0xDB4 JUMP JUMPDEST PUSH1 0x40 MLOAD DUP1 SWAP2 SUB SWAP1 KECCAK256 SUB PUSH2 0x42B JUMPI PUSH1 0x0 DUP1 DUP3 DUP2 SLOAD DUP2 LT PUSH2 0x3FE JUMPI PUSH2 0x3FD PUSH2 0xCE2 JUMP JUMPDEST JUMPDEST SWAP1 PUSH1 0x0 MSTORE PUSH1 0x20 PUSH1 0x0 KECCAK256 SWAP1 PUSH1 0x2 MUL ADD PUSH1 0x1 ADD PUSH1 0x0 PUSH2 0x100 EXP DUP2 SLOAD DUP2 PUSH1 0xFF MUL NOT AND SWAP1 DUP4 ISZERO ISZERO MUL OR SWAP1 SSTORE POP PUSH2 0x43E JUMP JUMPDEST DUP1 DUP1 PUSH2 0x436 SWAP1 PUSH2 0xDFA JUMP JUMPDEST SWAP2 POP POP PUSH2 0x395 JUMP JUMPDEST POP POP JUMP JUMPDEST PUSH1 0x60 PUSH1 0x0 DUP1 SLOAD DUP1 PUSH1 0x20 MUL PUSH1 0x20 ADD PUSH1 0x40 MLOAD SWAP1 DUP2 ADD PUSH1 0x40 MSTORE DUP1 SWAP3 SWAP2 SWAP1 DUP2 DUP2 MSTORE PUSH1 0x20 ADD PUSH1 0x0 SWAP1 JUMPDEST DUP3 DUP3 LT ISZERO PUSH2 0x545 JUMPI DUP4 DUP3 SWAP1 PUSH1 0x0 MSTORE PUSH1 0x20 PUSH1 0x0 KECCAK256 SWAP1 PUSH1 0x2 MUL ADD PUSH1 0x40 MLOAD DUP1 PUSH1 0x40 ADD PUSH1 0x40 MSTORE SWAP1 DUP2 PUSH1 0x0 DUP3 ADD DUP1 SLOAD PUSH2 0x499 SWAP1 PUSH2 0x9C7 JUMP JUMPDEST DUP1 PUSH1 0x1F ADD PUSH1 0x20 DUP1 SWAP2 DIV MUL PUSH1 0x20 ADD PUSH1 0x40 MLOAD SWAP1 DUP2 ADD PUSH1 0x40 MSTORE DUP1 SWAP3 SWAP2 SWAP1 DUP2 DUP2 MSTORE PUSH1 0x20 ADD DUP3 DUP1 SLOAD PUSH2 0x4C5 SWAP1 PUSH2 0x9C7 JUMP JUMPDEST DUP1 ISZERO PUSH2 0x512 JUMPI DUP1 PUSH1 0x1F LT PUSH2 0x4E7 JUMPI PUSH2 0x100 DUP1 DUP4 SLOAD DIV MUL DUP4 MSTORE SWAP2 PUSH1 0x20 ADD SWAP2 PUSH2 0x512 JUMP JUMPDEST DUP3 ADD SWAP2 SWAP1 PUSH1 0x0 MSTORE PUSH1 0x20 PUSH1 0x0 KECCAK256 SWAP1 JUMPDEST DUP2 SLOAD DUP2 MSTORE SWAP1 PUSH1 0x1 ADD SWAP1 PUSH1 0x20 ADD DUP1 DUP4 GT PUSH2 0x4F5 JUMPI DUP3 SWAP1 SUB PUSH1 0x1F AND DUP3 ADD SWAP2 JUMPDEST POP POP POP POP POP DUP2 MSTORE PUSH1 0x20 ADD PUSH1 0x1 DUP3 ADD PUSH1 0x0 SWAP1 SLOAD SWAP1 PUSH2 0x100 EXP SWAP1 DIV PUSH1 0xFF AND ISZERO ISZERO ISZERO ISZERO DUP2 MSTORE POP POP DUP2 MSTORE PUSH1 0x20 ADD SWAP1 PUSH1 0x1 ADD SWAP1 PUSH2 0x466 JUMP JUMPDEST POP POP POP POP SWAP1 POP SWAP1 JUMP JUMPDEST PUSH1 0x0 PUSH1 0x40 MLOAD SWAP1 POP SWAP1 JUMP JUMPDEST PUSH1 0x0 DUP1 REVERT JUMPDEST PUSH1 0x0 DUP1 REVERT JUMPDEST PUSH1 0x0 DUP1 REVERT JUMPDEST PUSH1 0x0 DUP1 REVERT JUMPDEST PUSH1 0x0 PUSH1 0x1F NOT PUSH1 0x1F DUP4 ADD AND SWAP1 POP SWAP2 SWAP1 POP JUMP JUMPDEST PUSH32 0x4E487B7100000000000000000000000000000000000000000000000000000000 PUSH1 0x0 MSTORE PUSH1 0x41 PUSH1 0x4 MSTORE PUSH1 0x24 PUSH1 0x0 REVERT JUMPDEST PUSH2 0x5B5 DUP3 PUSH2 0x56C JUMP JUMPDEST DUP2 ADD DUP2 DUP2 LT PUSH8 0xFFFFFFFFFFFFFFFF DUP3 GT OR ISZERO PUSH2 0x5D4 JUMPI PUSH2 0x5D3 PUSH2 0x57D JUMP JUMPDEST JUMPDEST DUP1 PUSH1 0x40 MSTORE POP POP POP JUMP JUMPDEST PUSH1 0x0 PUSH2 0x5E7 PUSH2 0x54E JUMP JUMPDEST SWAP1 POP PUSH2 0x5F3 DUP3 DUP3 PUSH2 0x5AC JUMP JUMPDEST SWAP2 SWAP1 POP JUMP JUMPDEST PUSH1 0x0 PUSH8 0xFFFFFFFFFFFFFFFF DUP3 GT ISZERO PUSH2 0x613 JUMPI PUSH2 0x612 PUSH2 0x57D JUMP JUMPDEST JUMPDEST PUSH2 0x61C DUP3 PUSH2 0x56C JUMP JUMPDEST SWAP1 POP PUSH1 0x20 DUP2 ADD SWAP1 POP SWAP2 SWAP1 POP JUMP JUMPDEST DUP3 DUP2 DUP4 CALLDATACOPY PUSH1 0x0 DUP4 DUP4 ADD MSTORE POP POP POP JUMP JUMPDEST PUSH1 0x0 PUSH2 0x64B PUSH2 0x646 DUP5 PUSH2 0x5F8 JUMP JUMPDEST PUSH2 0x5DD JUMP JUMPDEST SWAP1 POP DUP3 DUP2 MSTORE PUSH1 0x20 DUP2 ADD DUP5 DUP5 DUP5 ADD GT ISZERO PUSH2 0x667 JUMPI PUSH2 0x666 PUSH2 0x567 JUMP JUMPDEST JUMPDEST PUSH2 0x672 DUP5 DUP3 DUP6 PUSH2 0x629 JUMP JUMPDEST POP SWAP4 SWAP3 POP POP POP JUMP JUMPDEST PUSH1 0x0 DUP3 PUSH1 0x1F DUP4 ADD SLT PUSH2 0x68F JUMPI PUSH2 0x68E PUSH2 0x562 JUMP JUMPDEST JUMPDEST DUP2 CALLDATALOAD PUSH2 0x69F DUP5 DUP3 PUSH1 0x20 DUP7 ADD PUSH2 0x638 JUMP JUMPDEST SWAP2 POP POP SWAP3 SWAP2 POP POP JUMP JUMPDEST PUSH1 0x0 PUSH1 0x20 DUP3 DUP5 SUB SLT ISZERO PUSH2 0x6BE JUMPI PUSH2 0x6BD PUSH2 0x558 JUMP JUMPDEST JUMPDEST PUSH1 0x0 DUP3 ADD CALLDATALOAD PUSH8 0xFFFFFFFFFFFFFFFF DUP2 GT ISZERO PUSH2 0x6DC JUMPI PUSH2 0x6DB PUSH2 0x55D JUMP JUMPDEST JUMPDEST PUSH2 0x6E8 DUP5 DUP3 DUP6 ADD PUSH2 0x67A JUMP JUMPDEST SWAP2 POP POP SWAP3 SWAP2 POP POP JUMP JUMPDEST PUSH1 0x0 DUP2 SWAP1 POP SWAP2 SWAP1 POP JUMP JUMPDEST PUSH2 0x704 DUP2 PUSH2 0x6F1 JUMP JUMPDEST DUP2 EQ PUSH2 0x70F JUMPI PUSH1 0x0 DUP1 REVERT JUMPDEST POP JUMP JUMPDEST PUSH1 0x0 DUP2 CALLDATALOAD SWAP1 POP PUSH2 0x721 DUP2 PUSH2 0x6FB JUMP JUMPDEST SWAP3 SWAP2 POP POP JUMP JUMPDEST PUSH1 0x0 PUSH1 0x20 DUP3 DUP5 SUB SLT ISZERO PUSH2 0x73D JUMPI PUSH2 0x73C PUSH2 0x558 JUMP JUMPDEST JUMPDEST PUSH1 0x0 PUSH2 0x74B DUP5 DUP3 DUP6 ADD PUSH2 0x712 JUMP JUMPDEST SWAP2 POP POP SWAP3 SWAP2 POP POP JUMP JUMPDEST PUSH1 0x0 DUP2 MLOAD SWAP1 POP SWAP2 SWAP1 POP JUMP JUMPDEST PUSH1 0x0 DUP3 DUP3 MSTORE PUSH1 0x20 DUP3 ADD SWAP1 POP SWAP3 SWAP2 POP POP JUMP JUMPDEST PUSH1 0x0 JUMPDEST DUP4 DUP2 LT ISZERO PUSH2 0x78E JUMPI DUP1 DUP3 ADD MLOAD DUP2 DUP5 ADD MSTORE PUSH1 0x20 DUP2 ADD SWAP1 POP PUSH2 0x773 JUMP JUMPDEST PUSH1 0x0 DUP5 DUP5 ADD MSTORE POP POP POP POP JUMP JUMPDEST PUSH1 0x0 PUSH2 0x7A5 DUP3 PUSH2 0x754 JUMP JUMPDEST PUSH2 0x7AF DUP2 DUP6 PUSH2 0x75F JUMP JUMPDEST SWAP4 POP PUSH2 0x7BF DUP2 DUP6 PUSH1 0x20 DUP7 ADD PUSH2 0x770 JUMP JUMPDEST PUSH2 0x7C8 DUP2 PUSH2 0x56C JUMP JUMPDEST DUP5 ADD SWAP2 POP POP SWAP3 SWAP2 POP POP JUMP JUMPDEST PUSH1 0x0 DUP2 ISZERO ISZERO SWAP1 POP SWAP2 SWAP1 POP JUMP JUMPDEST PUSH2 0x7E8 DUP2 PUSH2 0x7D3 JUMP JUMPDEST DUP3 MSTORE POP POP JUMP JUMPDEST PUSH1 0x0 PUSH1 0x40 DUP3 ADD SWAP1 POP DUP2 DUP2 SUB PUSH1 0x0 DUP4 ADD MSTORE PUSH2 0x808 DUP2 DUP6 PUSH2 0x79A JUMP JUMPDEST SWAP1 POP PUSH2 0x817 PUSH1 0x20 DUP4 ADD DUP5 PUSH2 0x7DF JUMP JUMPDEST SWAP4 SWAP3 POP POP POP JUMP JUMPDEST PUSH1 0x0 DUP2 MLOAD SWAP1 POP SWAP2 SWAP1 POP JUMP JUMPDEST PUSH1 0x0 DUP3 DUP3 MSTORE PUSH1 0x20 DUP3 ADD SWAP1 POP SWAP3 SWAP2 POP POP JUMP JUMPDEST PUSH1 0x0 DUP2 SWAP1 POP PUSH1 0x20 DUP3 ADD SWAP1 POP SWAP2 SWAP1 POP JUMP JUMPDEST PUSH1 0x0 DUP3 DUP3 MSTORE PUSH1 0x20 DUP3 ADD SWAP1 POP SWAP3 SWAP2 POP POP JUMP JUMPDEST PUSH1 0x0 PUSH2 0x866 DUP3 PUSH2 0x754 JUMP JUMPDEST PUSH2 0x870 DUP2 DUP6 PUSH2 0x84A JUMP JUMPDEST SWAP4 POP PUSH2 0x880 DUP2 DUP6 PUSH1 0x20 DUP7 ADD PUSH2 0x770 JUMP JUMPDEST PUSH2 0x889 DUP2 PUSH2 0x56C JUMP JUMPDEST DUP5 ADD SWAP2 POP POP SWAP3 SWAP2 POP POP JUMP JUMPDEST PUSH2 0x89D DUP2 PUSH2 0x7D3 JUMP JUMPDEST DUP3 MSTORE POP POP JUMP JUMPDEST PUSH1 0x0 PUSH1 0x40 DUP4 ADD PUSH1 0x0 DUP4 ADD MLOAD DUP5 DUP3 SUB PUSH1 0x0 DUP7 ADD MSTORE PUSH2 0x8C0 DUP3 DUP3 PUSH2 0x85B JUMP JUMPDEST SWAP2 POP POP PUSH1 0x20 DUP4 ADD MLOAD PUSH2 0x8D5 PUSH1 0x20 DUP7 ADD DUP3 PUSH2 0x894 JUMP JUMPDEST POP DUP1 SWAP2 POP POP SWAP3 SWAP2 POP POP JUMP JUMPDEST PUSH1 0x0 PUSH2 0x8EC DUP4 DUP4 PUSH2 0x8A3 JUMP JUMPDEST SWAP1 POP SWAP3 SWAP2 POP POP JUMP JUMPDEST PUSH1 0x0 PUSH1 0x20 DUP3 ADD SWAP1 POP SWAP2 SWAP1 POP JUMP JUMPDEST PUSH1 0x0 PUSH2 0x90C DUP3 PUSH2 0x81E JUMP JUMPDEST PUSH2 0x916 DUP2 DUP6 PUSH2 0x829 JUMP JUMPDEST SWAP4 POP DUP4 PUSH1 0x20 DUP3 MUL DUP6 ADD PUSH2 0x928 DUP6 PUSH2 0x83A JUMP JUMPDEST DUP1 PUSH1 0x0 JUMPDEST DUP6 DUP2 LT ISZERO PUSH2 0x964 JUMPI DUP5 DUP5 SUB DUP10 MSTORE DUP2 MLOAD PUSH2 0x945 DUP6 DUP3 PUSH2 0x8E0 JUMP JUMPDEST SWAP5 POP PUSH2 0x950 DUP4 PUSH2 0x8F4 JUMP JUMPDEST SWAP3 POP PUSH1 0x20 DUP11 ADD SWAP10 POP POP PUSH1 0x1 DUP2 ADD SWAP1 POP PUSH2 0x92C JUMP JUMPDEST POP DUP3 SWAP8 POP DUP8 SWAP6 POP POP POP POP POP POP SWAP3 SWAP2 POP POP JUMP JUMPDEST PUSH1 0x0 PUSH1 0x20 DUP3 ADD SWAP1 POP DUP2 DUP2 SUB PUSH1 0x0 DUP4 ADD MSTORE PUSH2 0x990 DUP2 DUP5 PUSH2 0x901 JUMP JUMPDEST SWAP1 POP SWAP3 SWAP2 POP POP JUMP JUMPDEST PUSH32 0x4E487B7100000000000000000000000000000000000000000000000000000000 PUSH1 0x0 MSTORE PUSH1 0x22 PUSH1 0x4 MSTORE PUSH1 0x24 PUSH1 0x0 REVERT JUMPDEST PUSH1 0x0 PUSH1 0x2 DUP3 DIV SWAP1 POP PUSH1 0x1 DUP3 AND DUP1 PUSH2 0x9DF JUMPI PUSH1 0x7F DUP3 AND SWAP2 POP JUMPDEST PUSH1 0x20 DUP3 LT DUP2 SUB PUSH2 0x9F2 JUMPI PUSH2 0x9F1 PUSH2 0x998 JUMP JUMPDEST JUMPDEST POP SWAP2 SWAP1 POP JUMP JUMPDEST PUSH1 0x0 DUP2 SWAP1 POP DUP2 PUSH1 0x0 MSTORE PUSH1 0x20 PUSH1 0x0 KECCAK256 SWAP1 POP SWAP2 SWAP1 POP JUMP JUMPDEST PUSH1 0x0 PUSH1 0x20 PUSH1 0x1F DUP4 ADD DIV SWAP1 POP SWAP2 SWAP1 POP JUMP JUMPDEST PUSH1 0x0 DUP3 DUP3 SHL SWAP1 POP SWAP3 SWAP2 POP POP JUMP JUMPDEST PUSH1 0x0 PUSH1 0x8 DUP4 MUL PUSH2 0xA5A PUSH32 0xFFFFFFFFFFFFFFFFFFFFFFFFFFFFFFFFFFFFFFFFFFFFFFFFFFFFFFFFFFFFFFFF DUP3 PUSH2 0xA1D JUMP JUMPDEST PUSH2 0xA64 DUP7 DUP4 PUSH2 0xA1D JUMP JUMPDEST SWAP6 POP DUP1 NOT DUP5 AND SWAP4 POP DUP1 DUP7 AND DUP5 OR SWAP3 POP POP POP SWAP4 SWAP3 POP POP POP JUMP JUMPDEST PUSH1 0x0 DUP2 SWAP1 POP SWAP2 SWAP1 POP JUMP JUMPDEST PUSH1 0x0 PUSH2 0xAA1 PUSH2 0xA9C PUSH2 0xA97 DUP5 PUSH2 0x6F1 JUMP JUMPDEST PUSH2 0xA7C JUMP JUMPDEST PUSH2 0x6F1 JUMP JUMPDEST SWAP1 POP SWAP2 SWAP1 POP JUMP JUMPDEST PUSH1 0x0 DUP2 SWAP1 POP SWAP2 SWAP1 POP JUMP JUMPDEST PUSH2 0xABB DUP4 PUSH2 0xA86 JUMP JUMPDEST PUSH2 0xACF PUSH2 0xAC7 DUP3 PUSH2 0xAA8 JUMP JUMPDEST DUP5 DUP5 SLOAD PUSH2 0xA2A JUMP JUMPDEST DUP3 SSTORE POP POP POP POP JUMP JUMPDEST PUSH1 0x0 SWAP1 JUMP JUMPDEST PUSH2 0xAE4 PUSH2 0xAD7 JUMP JUMPDEST PUSH2 0xAEF DUP2 DUP5 DUP5 PUSH2 0xAB2 JUMP JUMPDEST POP POP POP JUMP JUMPDEST JUMPDEST DUP2 DUP2 LT ISZERO PUSH2 0xB13 JUMPI PUSH2 0xB08 PUSH1 0x0 DUP3 PUSH2 0xADC JUMP JUMPDEST PUSH1 0x1 DUP2 ADD SWAP1 POP PUSH2 0xAF5 JUMP JUMPDEST POP POP JUMP JUMPDEST PUSH1 0x1F DUP3 GT ISZERO PUSH2 0xB58 JUMPI PUSH2 0xB29 DUP2 PUSH2 0x9F8 JUMP JUMPDEST PUSH2 0xB32 DUP5 PUSH2 0xA0D JUMP JUMPDEST DUP2 ADD PUSH1 0x20 DUP6 LT ISZERO PUSH2 0xB41 JUMPI DUP2 SWAP1 POP JUMPDEST PUSH2 0xB55 PUSH2 0xB4D DUP6 PUSH2 0xA0D JUMP JUMPDEST DUP4 ADD DUP3 PUSH2 0xAF4 JUMP JUMPDEST POP POP JUMPDEST POP POP POP JUMP JUMPDEST PUSH1 0x0 DUP3 DUP3 SHR SWAP1 POP SWAP3 SWAP2 POP POP JUMP JUMPDEST PUSH1 0x0 PUSH2 0xB7B PUSH1 0x0 NOT DUP5 PUSH1 0x8 MUL PUSH2 0xB5D JUMP JUMPDEST NOT DUP1 DUP4 AND SWAP2 POP POP SWAP3 SWAP2 POP POP JUMP JUMPDEST PUSH1 0x0 PUSH2 0xB94 DUP4 DUP4 PUSH2 0xB6A JUMP JUMPDEST SWAP2 POP DUP3 PUSH1 0x2 MUL DUP3 OR SWAP1 POP SWAP3 SWAP2 POP POP JUMP JUMPDEST PUSH2 0xBAD DUP3 PUSH2 0x754 JUMP JUMPDEST PUSH8 0xFFFFFFFFFFFFFFFF DUP2 GT ISZERO PUSH2 0xBC6 JUMPI PUSH2 0xBC5 PUSH2 0x57D JUMP JUMPDEST JUMPDEST PUSH2 0xBD0 DUP3 SLOAD PUSH2 0x9C7 JUMP JUMPDEST PUSH2 0xBDB DUP3 DUP3 DUP6 PUSH2 0xB17 JUMP JUMPDEST PUSH1 0x0 PUSH1 0x20 SWAP1 POP PUSH1 0x1F DUP4 GT PUSH1 0x1 DUP2 EQ PUSH2 0xC0E JUMPI PUSH1 0x0 DUP5 ISZERO PUSH2 0xBFC JUMPI DUP3 DUP8 ADD MLOAD SWAP1 POP JUMPDEST PUSH2 0xC06 DUP6 DUP3 PUSH2 0xB88 JUMP JUMPDEST DUP7 SSTORE POP PUSH2 0xC6E JUMP JUMPDEST PUSH1 0x1F NOT DUP5 AND PUSH2 0xC1C DUP7 PUSH2 0x9F8 JUMP JUMPDEST PUSH1 0x0 JUMPDEST DUP3 DUP2 LT ISZERO PUSH2 0xC44 JUMPI DUP5 DUP10 ADD MLOAD DUP3 SSTORE PUSH1 0x1 DUP3 ADD SWAP2 POP PUSH1 0x20 DUP6 ADD SWAP5 POP PUSH1 0x20 DUP2 ADD SWAP1 POP PUSH2 0xC1F JUMP JUMPDEST DUP7 DUP4 LT ISZERO PUSH2 0xC61 JUMPI DUP5 DUP10 ADD MLOAD PUSH2 0xC5D PUSH1 0x1F DUP10 AND DUP3 PUSH2 0xB6A JUMP JUMPDEST DUP4 SSTORE POP JUMPDEST PUSH1 0x1 PUSH1 0x2 DUP9 MUL ADD DUP9 SSTORE POP POP POP JUMPDEST POP POP POP POP POP POP JUMP JUMPDEST PUSH32 0x696E646578206F7574206F662072616E67650000000000000000000000000000 PUSH1 0x0 DUP3 ADD MSTORE POP JUMP JUMPDEST PUSH1 0x0 PUSH2 0xCAC PUSH1 0x12 DUP4 PUSH2 0x75F JUMP JUMPDEST SWAP2 POP PUSH2 0xCB7 DUP3 PUSH2 0xC76 JUMP JUMPDEST PUSH1 0x20 DUP3 ADD SWAP1 POP SWAP2 SWAP1 POP JUMP JUMPDEST PUSH1 0x0 PUSH1 0x20 DUP3 ADD SWAP1 POP DUP2 DUP2 SUB PUSH1 0x0 DUP4 ADD MSTORE PUSH2 0xCDB DUP2 PUSH2 0xC9F JUMP JUMPDEST SWAP1 POP SWAP2 SWAP1 POP JUMP JUMPDEST PUSH32 0x4E487B7100000000000000000000000000000000000000000000000000000000 PUSH1 0x0 MSTORE PUSH1 0x32 PUSH1 0x4 MSTORE PUSH1 0x24 PUSH1 0x0 REVERT JUMPDEST PUSH1 0x0 DUP2 SWAP1 POP SWAP3 SWAP2 POP POP JUMP JUMPDEST PUSH1 0x0 DUP2 SWAP1 POP DUP2 PUSH1 0x0 MSTORE PUSH1 0x20 PUSH1 0x0 KECCAK256 SWAP1 POP SWAP2 SWAP1 POP JUMP JUMPDEST PUSH1 0x0 DUP2 SLOAD PUSH2 0xD3E DUP2 PUSH2 0x9C7 JUMP JUMPDEST PUSH2 0xD48 DUP2 DUP7 PUSH2 0xD11 JUMP JUMPDEST SWAP5 POP PUSH1 0x1 DUP3 AND PUSH1 0x0 DUP2 EQ PUSH2 0xD63 JUMPI PUSH1 0x1 DUP2 EQ PUSH2 0xD78 JUMPI PUSH2 0xDAB JUMP JUMPDEST PUSH1 0xFF NOT DUP4 AND DUP7 MSTORE DUP2 ISZERO ISZERO DUP3 MUL DUP7 ADD SWAP4 POP PUSH2 0xDAB JUMP JUMPDEST PUSH2 0xD81 DUP6 PUSH2 0xD1C JUMP JUMPDEST PUSH1 0x0 JUMPDEST DUP4 DUP2 LT ISZERO PUSH2 0xDA3 JUMPI DUP2 SLOAD DUP2 DUP10 ADD MSTORE PUSH1 0x1 DUP3 ADD SWAP2 POP PUSH1 0x20 DUP2 ADD SWAP1 POP PUSH2 0xD84 JUMP JUMPDEST DUP4 DUP9 ADD SWAP6 POP POP POP JUMPDEST POP POP POP SWAP3 SWAP2 POP POP JUMP JUMPDEST PUSH1 0x0 PUSH2 0xDC0 DUP3 DUP5 PUSH2 0xD31 JUMP JUMPDEST SWAP2 POP DUP2 SWAP1 POP SWAP3 SWAP2 POP POP JUMP JUMPDEST PUSH32 0x4E487B7100000000000000000000000000000000000000000000000000000000 PUSH1 0x0 MSTORE PUSH1 0x11 PUSH1 0x4 MSTORE PUSH1 0x24 PUSH1 0x0 REVERT JUMPDEST PUSH1 0x0 PUSH2 0xE05 DUP3 PUSH2 0x6F1 JUMP JUMPDEST SWAP2 POP PUSH32 0xFFFFFFFFFFFFFFFFFFFFFFFFFFFFFFFFFFFFFFFFFFFFFFFFFFFFFFFFFFFFFFFF DUP3 SUB PUSH2 0xE37 JUMPI PUSH2 0xE36 PUSH2 0xDCB JUMP JUMPDEST JUMPDEST PUSH1 0x1 DUP3 ADD SWAP1 POP SWAP2 SWAP1 POP JUMP INVALID LOG2 PUSH5 0x6970667358 0x22 SLT KECCAK256 INVALID CREATE LOG2 0xA9 0x4C PUSH5 0x77A8E184E5 0x5C SWAP15 LOG4 PUSH7 0xC7B81B264D8CCC SLOAD LOG4 NOT 0x2A 0xB1 0xBD SWAP13 CODECOPY 0x4E 0xE1 PUSH5 0x736F6C6343 STOP ADDMOD GT STOP CALLER "
				},
				"gasEstimates": {
					"creation": {
						"codeDepositCost": "740800",
						"executionCost": "773",
						"totalCost": "741573"
					},
					"external": {
						"addName(string)": "infinite",
						"deleteName(string)": "infinite",
						"getArray()": "infinite",
						"getRow(uint256)": "infinite",
						"names(uint256)": "infinite"
					}
				},
				"methodIdentifiers": {
					"addName(string)": "11456b47",
					"deleteName(string)": "53a98ea9",
					"getArray()": "d504ea1d",
					"getRow(uint256)": "303a36e2",
					"names(uint256)": "4622ab03"
				}
			},
			"storageLayout": {
				"storage": [
					{
						"astId": 10,
						"contract": "contracts/Struct.sol:structArray",
						"label": "names",
						"offset": 0,
						"slot": "0",
						"type": "t_array(t_struct(Name)6_storage)dyn_storage"
					}
				],
				"types": {
					"t_array(t_struct(Name)6_storage)dyn_storage": {
						"base": "t_struct(Name)6_storage",
						"encoding": "dynamic_array",
						"label": "struct structArray.Name[]",
						"numberOfBytes": "32"
					},
					"t_bool": {
						"encoding": "inplace",
						"label": "bool",
						"numberOfBytes": "1"
					},
					"t_string_storage": {
						"encoding": "bytes",
						"label": "string",
						"numberOfBytes": "32"
					},
					"t_struct(Name)6_storage": {
						"encoding": "inplace",
						"label": "struct structArray.Name",
						"members": [
							{
								"astId": 3,
								"contract": "contracts/Struct.sol:structArray",
								"label": "value",
								"offset": 0,
								"slot": "0",
								"type": "t_string_storage"
							},
							{
								"astId": 5,
								"contract": "contracts/Struct.sol:structArray",
								"label": "enable",
								"offset": 0,
								"slot": "1",
								"type": "t_bool"
							}
						],
						"numberOfBytes": "64"
					}
				}
			},
			"userdoc": {
				"kind": "user",
				"methods": {},
				"version": 1
			}
		}
	}
}