{
	"contracts/Array.sol": {
		"simple": {
			"abi": [
				{
					"inputs": [
						{
							"internalType": "string",
							"name": "_newName",
							"type": "string"
						}
					],
					"name": "addName",
					"outputs": [],
					"stateMutability": "nonpayable",
					"type": "function"
				},
				{
					"inputs": [
						{
							"internalType": "string",
							"name": "_deleteName",
							"type": "string"
						}
					],
					"name": "deleteName1",
					"outputs": [],
					"stateMutability": "payable",
					"type": "function"
				},
				{
					"inputs": [
						{
							"internalType": "string",
							"name": "_deleteName",
							"type": "string"
						}
					],
					"name": "deleteName2",
					"outputs": [],
					"stateMutability": "payable",
					"type": "function"
				},
				{
					"inputs": [],
					"name": "getArr",
					"outputs": [
						{
							"internalType": "string[]",
							"name": "",
							"type": "string[]"
						}
					],
					"stateMutability": "view",
					"type": "function"
				},
				{
					"inputs": [],
					"name": "getRow",
					"outputs": [
						{
							"internalType": "uint256[]",
							"name": "",
							"type": "uint256[]"
						},
						{
							"internalType": "string[]",
							"name": "",
							"type": "string[]"
						}
					],
					"stateMutability": "view",
					"type": "function"
				},
				{
					"inputs": [
						{
							"internalType": "uint256",
							"name": "",
							"type": "uint256"
						}
					],
					"name": "row",
					"outputs": [
						{
							"internalType": "string",
							"name": "",
							"type": "string"
						}
					],
					"stateMutability": "view",
					"type": "function"
				}
			],
			"devdoc": {
				"kind": "dev",
				"methods": {},
				"version": 1
			},
			"evm": {
				"assembly": "    /* \"contracts/Array.sol\":62:1518  contract simple {... */\n  mstore(0x40, 0x80)\n  callvalue\n  dup1\n  iszero\n  tag_1\n  jumpi\n  0x00\n  dup1\n  revert\ntag_1:\n  pop\n  dataSize(sub_0)\n  dup1\n  dataOffset(sub_0)\n  0x00\n  codecopy\n  0x00\n  return\nstop\n\nsub_0: assembly {\n        /* \"contracts/Array.sol\":62:1518  contract simple {... */\n      mstore(0x40, 0x80)\n      jumpi(tag_1, lt(calldatasize, 0x04))\n      shr(0xe0, calldataload(0x00))\n      dup1\n      0x11456b47\n      eq\n      tag_2\n      jumpi\n      dup1\n      0x4f348b95\n      eq\n      tag_3\n      jumpi\n      dup1\n      0x52dc3caa\n      eq\n      tag_4\n      jumpi\n      dup1\n      0x6b2f1653\n      eq\n      tag_5\n      jumpi\n      dup1\n      0xc51c06e1\n      eq\n      tag_6\n      jumpi\n      dup1\n      0xfb8cbced\n      eq\n      tag_7\n      jumpi\n    tag_1:\n      0x00\n      dup1\n      revert\n        /* \"contracts/Array.sol\":113:198  function addName(string memory _newName) public {... */\n    tag_2:\n      callvalue\n      dup1\n      iszero\n      tag_8\n      jumpi\n      0x00\n      dup1\n      revert\n    tag_8:\n      pop\n      tag_9\n      0x04\n      dup1\n      calldatasize\n      sub\n      dup2\n      add\n      swap1\n      tag_10\n      swap2\n      swap1\n      tag_11\n      jump\t// in\n    tag_10:\n      tag_12\n      jump\t// in\n    tag_9:\n      stop\n        /* \"contracts/Array.sol\":85:104  string[] public row */\n    tag_3:\n      callvalue\n      dup1\n      iszero\n      tag_13\n      jumpi\n      0x00\n      dup1\n      revert\n    tag_13:\n      pop\n      tag_14\n      0x04\n      dup1\n      calldatasize\n      sub\n      dup2\n      add\n      swap1\n      tag_15\n      swap2\n      swap1\n      tag_16\n      jump\t// in\n    tag_15:\n      tag_17\n      jump\t// in\n    tag_14:\n      mload(0x40)\n      tag_18\n      swap2\n      swap1\n      tag_19\n      jump\t// in\n    tag_18:\n      mload(0x40)\n      dup1\n      swap2\n      sub\n      swap1\n      return\n        /* \"contracts/Array.sol\":866:1422  function getRow() public view returns (uint256[] memory, string[] memory) {... */\n    tag_4:\n      callvalue\n      dup1\n      iszero\n      tag_20\n      jumpi\n      0x00\n      dup1\n      revert\n    tag_20:\n      pop\n      tag_21\n      tag_22\n      jump\t// in\n    tag_21:\n      mload(0x40)\n      tag_23\n      swap3\n      swap2\n      swap1\n      tag_24\n      jump\t// in\n    tag_23:\n      mload(0x40)\n      dup1\n      swap2\n      sub\n      swap1\n      return\n        /* \"contracts/Array.sol\":206:462  function deleteName1(string memory _deleteName) public payable {... */\n    tag_5:\n      tag_25\n      0x04\n      dup1\n      calldatasize\n      sub\n      dup2\n      add\n      swap1\n      tag_26\n      swap2\n      swap1\n      tag_11\n      jump\t// in\n    tag_26:\n      tag_27\n      jump\t// in\n    tag_25:\n      stop\n        /* \"contracts/Array.sol\":470:858  function deleteName2(string memory _deleteName) public payable {... */\n    tag_6:\n      tag_28\n      0x04\n      dup1\n      calldatasize\n      sub\n      dup2\n      add\n      swap1\n      tag_29\n      swap2\n      swap1\n      tag_11\n      jump\t// in\n    tag_29:\n      tag_30\n      jump\t// in\n    tag_28:\n      stop\n        /* \"contracts/Array.sol\":1430:1515  function getArr() public view returns (string[] memory) {... */\n    tag_7:\n      callvalue\n      dup1\n      iszero\n      tag_31\n      jumpi\n      0x00\n      dup1\n      revert\n    tag_31:\n      pop\n      tag_32\n      tag_33\n      jump\t// in\n    tag_32:\n      mload(0x40)\n      tag_34\n      swap2\n      swap1\n      tag_35\n      jump\t// in\n    tag_34:\n      mload(0x40)\n      dup1\n      swap2\n      sub\n      swap1\n      return\n        /* \"contracts/Array.sol\":113:198  function addName(string memory _newName) public {... */\n    tag_12:\n        /* \"contracts/Array.sol\":172:175  row */\n      0x00\n        /* \"contracts/Array.sol\":181:189  _newName */\n      dup2\n        /* \"contracts/Array.sol\":172:190  row.push(_newName) */\n      swap1\n      dup1\n      0x01\n      dup2\n      sload\n      add\n      dup1\n      dup3\n      sstore\n      dup1\n      swap2\n      pop\n      pop\n      0x01\n      swap1\n      sub\n      swap1\n      0x00\n      mstore\n      keccak256(0x00, 0x20)\n      add\n      0x00\n      swap1\n      swap2\n      swap1\n      swap2\n      swap1\n      swap2\n      pop\n      swap1\n      dup2\n      tag_38\n      swap2\n      swap1\n      tag_39\n      jump\t// in\n    tag_38:\n      pop\n        /* \"contracts/Array.sol\":113:198  function addName(string memory _newName) public {... */\n      pop\n      jump\t// out\n        /* \"contracts/Array.sol\":85:104  string[] public row */\n    tag_17:\n      0x00\n      dup2\n      dup2\n      sload\n      dup2\n      lt\n      tag_40\n      jumpi\n      0x00\n      dup1\n      revert\n    tag_40:\n      swap1\n      0x00\n      mstore\n      keccak256(0x00, 0x20)\n      add\n      0x00\n      swap2\n      pop\n      swap1\n      pop\n      dup1\n      sload\n      tag_42\n      swap1\n      tag_43\n      jump\t// in\n    tag_42:\n      dup1\n      0x1f\n      add\n      0x20\n      dup1\n      swap2\n      div\n      mul\n      0x20\n      add\n      mload(0x40)\n      swap1\n      dup2\n      add\n      0x40\n      mstore\n      dup1\n      swap3\n      swap2\n      swap1\n      dup2\n      dup2\n      mstore\n      0x20\n      add\n      dup3\n      dup1\n      sload\n      tag_44\n      swap1\n      tag_43\n      jump\t// in\n    tag_44:\n      dup1\n      iszero\n      tag_45\n      jumpi\n      dup1\n      0x1f\n      lt\n      tag_46\n      jumpi\n      0x0100\n      dup1\n      dup4\n      sload\n      div\n      mul\n      dup4\n      mstore\n      swap2\n      0x20\n      add\n      swap2\n      jump(tag_45)\n    tag_46:\n      dup3\n      add\n      swap2\n      swap1\n      0x00\n      mstore\n      keccak256(0x00, 0x20)\n      swap1\n    tag_47:\n      dup2\n      sload\n      dup2\n      mstore\n      swap1\n      0x01\n      add\n      swap1\n      0x20\n      add\n      dup1\n      dup4\n      gt\n      tag_47\n      jumpi\n      dup3\n      swap1\n      sub\n      0x1f\n      and\n      dup3\n      add\n      swap2\n    tag_45:\n      pop\n      pop\n      pop\n      pop\n      pop\n      dup2\n      jump\t// out\n        /* \"contracts/Array.sol\":866:1422  function getRow() public view returns (uint256[] memory, string[] memory) {... */\n    tag_22:\n        /* \"contracts/Array.sol\":905:921  uint256[] memory */\n      0x60\n        /* \"contracts/Array.sol\":923:938  string[] memory */\n      dup1\n        /* \"contracts/Array.sol\":1027:1051  uint256[] memory indices */\n      0x00\n        /* \"contracts/Array.sol\":1068:1071  row */\n      dup1\n        /* \"contracts/Array.sol\":1068:1078  row.length */\n      dup1\n      sload\n      swap1\n      pop\n        /* \"contracts/Array.sol\":1054:1079  new uint256[](row.length) */\n      0xffffffffffffffff\n      dup2\n      gt\n      iszero\n      tag_49\n      jumpi\n      tag_50\n      tag_51\n      jump\t// in\n    tag_50:\n    tag_49:\n      mload(0x40)\n      swap1\n      dup1\n      dup3\n      mstore\n      dup1\n      0x20\n      mul\n      0x20\n      add\n      dup3\n      add\n      0x40\n      mstore\n      dup1\n      iszero\n      tag_52\n      jumpi\n      dup2\n      0x20\n      add\n      0x20\n      dup3\n      mul\n      dup1\n      calldatasize\n      dup4\n      calldatacopy\n      dup1\n      dup3\n      add\n      swap2\n      pop\n      pop\n      swap1\n      pop\n    tag_52:\n      pop\n        /* \"contracts/Array.sol\":1027:1079  uint256[] memory indices = new uint256[](row.length) */\n      swap1\n      pop\n        /* \"contracts/Array.sol\":1090:1112  string[] memory values */\n      0x00\n        /* \"contracts/Array.sol\":1128:1131  row */\n      dup1\n        /* \"contracts/Array.sol\":1128:1138  row.length */\n      dup1\n      sload\n      swap1\n      pop\n        /* \"contracts/Array.sol\":1115:1139  new string[](row.length) */\n      0xffffffffffffffff\n      dup2\n      gt\n      iszero\n      tag_53\n      jumpi\n      tag_54\n      tag_51\n      jump\t// in\n    tag_54:\n    tag_53:\n      mload(0x40)\n      swap1\n      dup1\n      dup3\n      mstore\n      dup1\n      0x20\n      mul\n      0x20\n      add\n      dup3\n      add\n      0x40\n      mstore\n      dup1\n      iszero\n      tag_55\n      jumpi\n      dup2\n      0x20\n      add\n    tag_56:\n      0x60\n      dup2\n      mstore\n      0x20\n      add\n      swap1\n      0x01\n      swap1\n      sub\n      swap1\n      dup2\n      tag_56\n      jumpi\n      swap1\n      pop\n    tag_55:\n      pop\n        /* \"contracts/Array.sol\":1090:1139  string[] memory values = new string[](row.length) */\n      swap1\n      pop\n        /* \"contracts/Array.sol\":1269:1278  uint256 i */\n      0x00\n        /* \"contracts/Array.sol\":1265:1378  for(uint256 i = 0; i < row.length; i++){... */\n    tag_57:\n        /* \"contracts/Array.sol\":1288:1291  row */\n      0x00\n        /* \"contracts/Array.sol\":1288:1298  row.length */\n      dup1\n      sload\n      swap1\n      pop\n        /* \"contracts/Array.sol\":1284:1285  i */\n      dup2\n        /* \"contracts/Array.sol\":1284:1298  i < row.length */\n      lt\n        /* \"contracts/Array.sol\":1265:1378  for(uint256 i = 0; i < row.length; i++){... */\n      iszero\n      tag_58\n      jumpi\n        /* \"contracts/Array.sol\":1332:1333  i */\n      dup1\n        /* \"contracts/Array.sol\":1319:1326  indices */\n      dup4\n        /* \"contracts/Array.sol\":1327:1328  i */\n      dup3\n        /* \"contracts/Array.sol\":1319:1329  indices[i] */\n      dup2\n      mload\n      dup2\n      lt\n      tag_60\n      jumpi\n      tag_61\n      tag_62\n      jump\t// in\n    tag_61:\n    tag_60:\n      0x20\n      mul\n      0x20\n      add\n      add\n        /* \"contracts/Array.sol\":1319:1333  indices[i] = i */\n      dup2\n      dup2\n      mstore\n      pop\n      pop\n        /* \"contracts/Array.sol\":1360:1363  row */\n      0x00\n        /* \"contracts/Array.sol\":1364:1365  i */\n      dup2\n        /* \"contracts/Array.sol\":1360:1366  row[i] */\n      dup2\n      sload\n      dup2\n      lt\n      tag_63\n      jumpi\n      tag_64\n      tag_62\n      jump\t// in\n    tag_64:\n    tag_63:\n      swap1\n      0x00\n      mstore\n      keccak256(0x00, 0x20)\n      add\n        /* \"contracts/Array.sol\":1348:1366  values[i] = row[i] */\n      dup1\n      sload\n      tag_66\n      swap1\n      tag_43\n      jump\t// in\n    tag_66:\n      dup1\n      0x1f\n      add\n      0x20\n      dup1\n      swap2\n      div\n      mul\n      0x20\n      add\n      mload(0x40)\n      swap1\n      dup2\n      add\n      0x40\n      mstore\n      dup1\n      swap3\n      swap2\n      swap1\n      dup2\n      dup2\n      mstore\n      0x20\n      add\n      dup3\n      dup1\n      sload\n      tag_67\n      swap1\n      tag_43\n      jump\t// in\n    tag_67:\n      dup1\n      iszero\n      tag_68\n      jumpi\n      dup1\n      0x1f\n      lt\n      tag_69\n      jumpi\n      0x0100\n      dup1\n      dup4\n      sload\n      div\n      mul\n      dup4\n      mstore\n      swap2\n      0x20\n      add\n      swap2\n      jump(tag_68)\n    tag_69:\n      dup3\n      add\n      swap2\n      swap1\n      0x00\n      mstore\n      keccak256(0x00, 0x20)\n      swap1\n    tag_70:\n      dup2\n      sload\n      dup2\n      mstore\n      swap1\n      0x01\n      add\n      swap1\n      0x20\n      add\n      dup1\n      dup4\n      gt\n      tag_70\n      jumpi\n      dup3\n      swap1\n      sub\n      0x1f\n      and\n      dup3\n      add\n      swap2\n    tag_68:\n      pop\n      pop\n      pop\n      pop\n      pop\n        /* \"contracts/Array.sol\":1348:1354  values */\n      dup3\n        /* \"contracts/Array.sol\":1355:1356  i */\n      dup3\n        /* \"contracts/Array.sol\":1348:1357  values[i] */\n      dup2\n      mload\n      dup2\n      lt\n      tag_71\n      jumpi\n      tag_72\n      tag_62\n      jump\t// in\n    tag_72:\n    tag_71:\n      0x20\n      mul\n      0x20\n      add\n      add\n        /* \"contracts/Array.sol\":1348:1366  values[i] = row[i] */\n      dup2\n      swap1\n      mstore\n      pop\n        /* \"contracts/Array.sol\":1300:1303  i++ */\n      dup1\n      dup1\n      tag_73\n      swap1\n      tag_74\n      jump\t// in\n    tag_73:\n      swap2\n      pop\n      pop\n        /* \"contracts/Array.sol\":1265:1378  for(uint256 i = 0; i < row.length; i++){... */\n      jump(tag_57)\n    tag_58:\n      pop\n        /* \"contracts/Array.sol\":1398:1405  indices */\n      dup2\n        /* \"contracts/Array.sol\":1407:1413  values */\n      dup2\n        /* \"contracts/Array.sol\":1390:1414  return (indices, values) */\n      swap4\n      pop\n      swap4\n      pop\n      pop\n      pop\n        /* \"contracts/Array.sol\":866:1422  function getRow() public view returns (uint256[] memory, string[] memory) {... */\n      swap1\n      swap2\n      jump\t// out\n        /* \"contracts/Array.sol\":206:462  function deleteName1(string memory _deleteName) public payable {... */\n    tag_27:\n        /* \"contracts/Array.sol\":284:293  uint256 i */\n      0x00\n        /* \"contracts/Array.sol\":280:455  for(uint256 i = 0;i <= row.length; i++){... */\n    tag_76:\n        /* \"contracts/Array.sol\":303:306  row */\n      0x00\n        /* \"contracts/Array.sol\":303:313  row.length */\n      dup1\n      sload\n      swap1\n      pop\n        /* \"contracts/Array.sol\":298:299  i */\n      dup2\n        /* \"contracts/Array.sol\":298:313  i <= row.length */\n      gt\n        /* \"contracts/Array.sol\":280:455  for(uint256 i = 0;i <= row.length; i++){... */\n      tag_77\n      jumpi\n        /* \"contracts/Array.sol\":382:393  _deleteName */\n      dup2\n        /* \"contracts/Array.sol\":366:395  keccak256(bytes(_deleteName)) */\n      dup1\n      mload\n      swap1\n      0x20\n      add\n      keccak256\n        /* \"contracts/Array.sol\":354:357  row */\n      0x00\n        /* \"contracts/Array.sol\":358:359  i */\n      dup3\n        /* \"contracts/Array.sol\":354:360  row[i] */\n      dup2\n      sload\n      dup2\n      lt\n      tag_79\n      jumpi\n      tag_80\n      tag_62\n      jump\t// in\n    tag_80:\n    tag_79:\n      swap1\n      0x00\n      mstore\n      keccak256(0x00, 0x20)\n      add\n        /* \"contracts/Array.sol\":338:362  keccak256(bytes(row[i])) */\n      mload(0x40)\n      tag_82\n      swap2\n      swap1\n      tag_83\n      jump\t// in\n    tag_82:\n      mload(0x40)\n      dup1\n      swap2\n      sub\n      swap1\n      keccak256\n        /* \"contracts/Array.sol\":338:395  keccak256(bytes(row[i])) == keccak256(bytes(_deleteName)) */\n      sub\n        /* \"contracts/Array.sol\":334:444  if (keccak256(bytes(row[i])) == keccak256(bytes(_deleteName))){... */\n      tag_84\n      jumpi\n        /* \"contracts/Array.sol\":422:425  row */\n      0x00\n        /* \"contracts/Array.sol\":426:427  i */\n      dup2\n        /* \"contracts/Array.sol\":422:428  row[i] */\n      dup2\n      sload\n      dup2\n      lt\n      tag_85\n      jumpi\n      tag_86\n      tag_62\n      jump\t// in\n    tag_86:\n    tag_85:\n      swap1\n      0x00\n      mstore\n      keccak256(0x00, 0x20)\n      add\n      0x00\n        /* \"contracts/Array.sol\":415:428  delete row[i] */\n      tag_88\n      swap2\n      swap1\n      tag_89\n      jump\t// in\n    tag_88:\n        /* \"contracts/Array.sol\":334:444  if (keccak256(bytes(row[i])) == keccak256(bytes(_deleteName))){... */\n    tag_84:\n        /* \"contracts/Array.sol\":315:318  i++ */\n      dup1\n      dup1\n      tag_90\n      swap1\n      tag_74\n      jump\t// in\n    tag_90:\n      swap2\n      pop\n      pop\n        /* \"contracts/Array.sol\":280:455  for(uint256 i = 0;i <= row.length; i++){... */\n      jump(tag_76)\n    tag_77:\n      pop\n        /* \"contracts/Array.sol\":206:462  function deleteName1(string memory _deleteName) public payable {... */\n      pop\n      jump\t// out\n        /* \"contracts/Array.sol\":470:858  function deleteName2(string memory _deleteName) public payable {... */\n    tag_30:\n        /* \"contracts/Array.sol\":548:557  uint256 i */\n      0x00\n        /* \"contracts/Array.sol\":544:851  for(uint256 i = 0;i <= row.length; i++){... */\n    tag_92:\n        /* \"contracts/Array.sol\":567:570  row */\n      0x00\n        /* \"contracts/Array.sol\":567:577  row.length */\n      dup1\n      sload\n      swap1\n      pop\n        /* \"contracts/Array.sol\":562:563  i */\n      dup2\n        /* \"contracts/Array.sol\":562:577  i <= row.length */\n      gt\n        /* \"contracts/Array.sol\":544:851  for(uint256 i = 0;i <= row.length; i++){... */\n      tag_93\n      jumpi\n        /* \"contracts/Array.sol\":646:657  _deleteName */\n      dup2\n        /* \"contracts/Array.sol\":630:659  keccak256(bytes(_deleteName)) */\n      dup1\n      mload\n      swap1\n      0x20\n      add\n      keccak256\n        /* \"contracts/Array.sol\":618:621  row */\n      0x00\n        /* \"contracts/Array.sol\":622:623  i */\n      dup3\n        /* \"contracts/Array.sol\":618:624  row[i] */\n      dup2\n      sload\n      dup2\n      lt\n      tag_95\n      jumpi\n      tag_96\n      tag_62\n      jump\t// in\n    tag_96:\n    tag_95:\n      swap1\n      0x00\n      mstore\n      keccak256(0x00, 0x20)\n      add\n        /* \"contracts/Array.sol\":602:626  keccak256(bytes(row[i])) */\n      mload(0x40)\n      tag_98\n      swap2\n      swap1\n      tag_83\n      jump\t// in\n    tag_98:\n      mload(0x40)\n      dup1\n      swap2\n      sub\n      swap1\n      keccak256\n        /* \"contracts/Array.sol\":602:659  keccak256(bytes(row[i])) == keccak256(bytes(_deleteName)) */\n      sub\n        /* \"contracts/Array.sol\":598:840  if (keccak256(bytes(row[i])) == keccak256(bytes(_deleteName))){... */\n      tag_99\n      jumpi\n        /* \"contracts/Array.sol\":700:701  1 */\n      0x01\n        /* \"contracts/Array.sol\":687:690  row */\n      0x00\n        /* \"contracts/Array.sol\":687:697  row.length */\n      dup1\n      sload\n      swap1\n      pop\n        /* \"contracts/Array.sol\":687:701  row.length - 1 */\n      tag_100\n      swap2\n      swap1\n      tag_101\n      jump\t// in\n    tag_100:\n        /* \"contracts/Array.sol\":682:683  i */\n      dup2\n        /* \"contracts/Array.sol\":682:701  i != row.length - 1 */\n      eq\n        /* \"contracts/Array.sol\":679:773  if(i != row.length - 1){... */\n      tag_102\n      jumpi\n        /* \"contracts/Array.sol\":734:737  row */\n      0x00\n        /* \"contracts/Array.sol\":751:752  1 */\n      0x01\n        /* \"contracts/Array.sol\":738:741  row */\n      0x00\n        /* \"contracts/Array.sol\":738:748  row.length */\n      dup1\n      sload\n      swap1\n      pop\n        /* \"contracts/Array.sol\":738:752  row.length - 1 */\n      tag_103\n      swap2\n      swap1\n      tag_101\n      jump\t// in\n    tag_103:\n        /* \"contracts/Array.sol\":734:753  row[row.length - 1] */\n      dup2\n      sload\n      dup2\n      lt\n      tag_104\n      jumpi\n      tag_105\n      tag_62\n      jump\t// in\n    tag_105:\n    tag_104:\n      swap1\n      0x00\n      mstore\n      keccak256(0x00, 0x20)\n      add\n        /* \"contracts/Array.sol\":725:728  row */\n      0x00\n        /* \"contracts/Array.sol\":729:730  i */\n      dup3\n        /* \"contracts/Array.sol\":725:731  row[i] */\n      dup2\n      sload\n      dup2\n      lt\n      tag_107\n      jumpi\n      tag_108\n      tag_62\n      jump\t// in\n    tag_108:\n    tag_107:\n      swap1\n      0x00\n      mstore\n      keccak256(0x00, 0x20)\n      add\n        /* \"contracts/Array.sol\":725:753  row[i] = row[row.length - 1] */\n      swap1\n      dup2\n      tag_110\n      swap2\n      swap1\n      tag_111\n      jump\t// in\n    tag_110:\n      pop\n        /* \"contracts/Array.sol\":679:773  if(i != row.length - 1){... */\n    tag_102:\n        /* \"contracts/Array.sol\":791:794  row */\n      0x00\n        /* \"contracts/Array.sol\":791:800  row.pop() */\n      dup1\n      sload\n      dup1\n      tag_112\n      jumpi\n      tag_113\n      tag_114\n      jump\t// in\n    tag_113:\n    tag_112:\n      0x01\n      swap1\n      sub\n      dup2\n      dup2\n      swap1\n      0x00\n      mstore\n      keccak256(0x00, 0x20)\n      add\n      0x00\n      tag_116\n      swap2\n      swap1\n      tag_89\n      jump\t// in\n    tag_116:\n      swap1\n      sstore\n        /* \"contracts/Array.sol\":819:824  break */\n      jump(tag_93)\n        /* \"contracts/Array.sol\":598:840  if (keccak256(bytes(row[i])) == keccak256(bytes(_deleteName))){... */\n    tag_99:\n        /* \"contracts/Array.sol\":579:582  i++ */\n      dup1\n      dup1\n      tag_117\n      swap1\n      tag_74\n      jump\t// in\n    tag_117:\n      swap2\n      pop\n      pop\n        /* \"contracts/Array.sol\":544:851  for(uint256 i = 0;i <= row.length; i++){... */\n      jump(tag_92)\n    tag_93:\n      pop\n        /* \"contracts/Array.sol\":470:858  function deleteName2(string memory _deleteName) public payable {... */\n      pop\n      jump\t// out\n        /* \"contracts/Array.sol\":1430:1515  function getArr() public view returns (string[] memory) {... */\n    tag_33:\n        /* \"contracts/Array.sol\":1469:1484  string[] memory */\n      0x60\n        /* \"contracts/Array.sol\":1504:1507  row */\n      0x00\n        /* \"contracts/Array.sol\":1497:1507  return row */\n      dup1\n      sload\n      dup1\n      0x20\n      mul\n      0x20\n      add\n      mload(0x40)\n      swap1\n      dup2\n      add\n      0x40\n      mstore\n      dup1\n      swap3\n      swap2\n      swap1\n      dup2\n      dup2\n      mstore\n      0x20\n      add\n      0x00\n      swap1\n    tag_119:\n      dup3\n      dup3\n      lt\n      iszero\n      tag_120\n      jumpi\n      dup4\n      dup3\n      swap1\n      0x00\n      mstore\n      keccak256(0x00, 0x20)\n      add\n      dup1\n      sload\n      tag_122\n      swap1\n      tag_43\n      jump\t// in\n    tag_122:\n      dup1\n      0x1f\n      add\n      0x20\n      dup1\n      swap2\n      div\n      mul\n      0x20\n      add\n      mload(0x40)\n      swap1\n      dup2\n      add\n      0x40\n      mstore\n      dup1\n      swap3\n      swap2\n      swap1\n      dup2\n      dup2\n      mstore\n      0x20\n      add\n      dup3\n      dup1\n      sload\n      tag_123\n      swap1\n      tag_43\n      jump\t// in\n    tag_123:\n      dup1\n      iszero\n      tag_124\n      jumpi\n      dup1\n      0x1f\n      lt\n      tag_125\n      jumpi\n      0x0100\n      dup1\n      dup4\n      sload\n      div\n      mul\n      dup4\n      mstore\n      swap2\n      0x20\n      add\n      swap2\n      jump(tag_124)\n    tag_125:\n      dup3\n      add\n      swap2\n      swap1\n      0x00\n      mstore\n      keccak256(0x00, 0x20)\n      swap1\n    tag_126:\n      dup2\n      sload\n      dup2\n      mstore\n      swap1\n      0x01\n      add\n      swap1\n      0x20\n      add\n      dup1\n      dup4\n      gt\n      tag_126\n      jumpi\n      dup3\n      swap1\n      sub\n      0x1f\n      and\n      dup3\n      add\n      swap2\n    tag_124:\n      pop\n      pop\n      pop\n      pop\n      pop\n      dup2\n      mstore\n      0x20\n      add\n      swap1\n      0x01\n      add\n      swap1\n      jump(tag_119)\n    tag_120:\n      pop\n      pop\n      pop\n      pop\n      swap1\n      pop\n        /* \"contracts/Array.sol\":1430:1515  function getArr() public view returns (string[] memory) {... */\n      swap1\n      jump\t// out\n    tag_89:\n      pop\n      dup1\n      sload\n      tag_127\n      swap1\n      tag_43\n      jump\t// in\n    tag_127:\n      0x00\n      dup3\n      sstore\n      dup1\n      0x1f\n      lt\n      tag_129\n      jumpi\n      pop\n      jump(tag_128)\n    tag_129:\n      0x1f\n      add\n      0x20\n      swap1\n      div\n      swap1\n      0x00\n      mstore\n      keccak256(0x00, 0x20)\n      swap1\n      dup2\n      add\n      swap1\n      tag_130\n      swap2\n      swap1\n      tag_131\n      jump\t// in\n    tag_130:\n    tag_128:\n      pop\n      jump\t// out\n    tag_131:\n    tag_132:\n      dup1\n      dup3\n      gt\n      iszero\n      tag_133\n      jumpi\n      0x00\n      dup2\n      0x00\n      swap1\n      sstore\n      pop\n      0x01\n      add\n      jump(tag_132)\n    tag_133:\n      pop\n      swap1\n      jump\t// out\n        /* \"#utility.yul\":7:82   */\n    tag_134:\n        /* \"#utility.yul\":40:46   */\n      0x00\n        /* \"#utility.yul\":73:75   */\n      0x40\n        /* \"#utility.yul\":67:76   */\n      mload\n        /* \"#utility.yul\":57:76   */\n      swap1\n      pop\n        /* \"#utility.yul\":7:82   */\n      swap1\n      jump\t// out\n        /* \"#utility.yul\":88:205   */\n    tag_135:\n        /* \"#utility.yul\":197:198   */\n      0x00\n        /* \"#utility.yul\":194:195   */\n      dup1\n        /* \"#utility.yul\":187:199   */\n      revert\n        /* \"#utility.yul\":211:328   */\n    tag_136:\n        /* \"#utility.yul\":320:321   */\n      0x00\n        /* \"#utility.yul\":317:318   */\n      dup1\n        /* \"#utility.yul\":310:322   */\n      revert\n        /* \"#utility.yul\":334:451   */\n    tag_137:\n        /* \"#utility.yul\":443:444   */\n      0x00\n        /* \"#utility.yul\":440:441   */\n      dup1\n        /* \"#utility.yul\":433:445   */\n      revert\n        /* \"#utility.yul\":457:574   */\n    tag_138:\n        /* \"#utility.yul\":566:567   */\n      0x00\n        /* \"#utility.yul\":563:564   */\n      dup1\n        /* \"#utility.yul\":556:568   */\n      revert\n        /* \"#utility.yul\":580:682   */\n    tag_139:\n        /* \"#utility.yul\":621:627   */\n      0x00\n        /* \"#utility.yul\":672:674   */\n      0x1f\n        /* \"#utility.yul\":668:675   */\n      not\n        /* \"#utility.yul\":663:665   */\n      0x1f\n        /* \"#utility.yul\":656:661   */\n      dup4\n        /* \"#utility.yul\":652:666   */\n      add\n        /* \"#utility.yul\":648:676   */\n      and\n        /* \"#utility.yul\":638:676   */\n      swap1\n      pop\n        /* \"#utility.yul\":580:682   */\n      swap2\n      swap1\n      pop\n      jump\t// out\n        /* \"#utility.yul\":688:868   */\n    tag_51:\n        /* \"#utility.yul\":736:813   */\n      0x4e487b7100000000000000000000000000000000000000000000000000000000\n        /* \"#utility.yul\":733:734   */\n      0x00\n        /* \"#utility.yul\":726:814   */\n      mstore\n        /* \"#utility.yul\":833:837   */\n      0x41\n        /* \"#utility.yul\":830:831   */\n      0x04\n        /* \"#utility.yul\":823:838   */\n      mstore\n        /* \"#utility.yul\":857:861   */\n      0x24\n        /* \"#utility.yul\":854:855   */\n      0x00\n        /* \"#utility.yul\":847:862   */\n      revert\n        /* \"#utility.yul\":874:1155   */\n    tag_140:\n        /* \"#utility.yul\":957:984   */\n      tag_199\n        /* \"#utility.yul\":979:983   */\n      dup3\n        /* \"#utility.yul\":957:984   */\n      tag_139\n      jump\t// in\n    tag_199:\n        /* \"#utility.yul\":949:955   */\n      dup2\n        /* \"#utility.yul\":945:985   */\n      add\n        /* \"#utility.yul\":1087:1093   */\n      dup2\n        /* \"#utility.yul\":1075:1085   */\n      dup2\n        /* \"#utility.yul\":1072:1094   */\n      lt\n        /* \"#utility.yul\":1051:1069   */\n      0xffffffffffffffff\n        /* \"#utility.yul\":1039:1049   */\n      dup3\n        /* \"#utility.yul\":1036:1070   */\n      gt\n        /* \"#utility.yul\":1033:1095   */\n      or\n        /* \"#utility.yul\":1030:1118   */\n      iszero\n      tag_200\n      jumpi\n        /* \"#utility.yul\":1098:1116   */\n      tag_201\n      tag_51\n      jump\t// in\n    tag_201:\n        /* \"#utility.yul\":1030:1118   */\n    tag_200:\n        /* \"#utility.yul\":1138:1148   */\n      dup1\n        /* \"#utility.yul\":1134:1136   */\n      0x40\n        /* \"#utility.yul\":1127:1149   */\n      mstore\n        /* \"#utility.yul\":917:1155   */\n      pop\n        /* \"#utility.yul\":874:1155   */\n      pop\n      pop\n      jump\t// out\n        /* \"#utility.yul\":1161:1290   */\n    tag_141:\n        /* \"#utility.yul\":1195:1201   */\n      0x00\n        /* \"#utility.yul\":1222:1242   */\n      tag_203\n      tag_134\n      jump\t// in\n    tag_203:\n        /* \"#utility.yul\":1212:1242   */\n      swap1\n      pop\n        /* \"#utility.yul\":1251:1284   */\n      tag_204\n        /* \"#utility.yul\":1279:1283   */\n      dup3\n        /* \"#utility.yul\":1271:1277   */\n      dup3\n        /* \"#utility.yul\":1251:1284   */\n      tag_140\n      jump\t// in\n    tag_204:\n        /* \"#utility.yul\":1161:1290   */\n      swap2\n      swap1\n      pop\n      jump\t// out\n        /* \"#utility.yul\":1296:1604   */\n    tag_142:\n        /* \"#utility.yul\":1358:1362   */\n      0x00\n        /* \"#utility.yul\":1448:1466   */\n      0xffffffffffffffff\n        /* \"#utility.yul\":1440:1446   */\n      dup3\n        /* \"#utility.yul\":1437:1467   */\n      gt\n        /* \"#utility.yul\":1434:1490   */\n      iszero\n      tag_206\n      jumpi\n        /* \"#utility.yul\":1470:1488   */\n      tag_207\n      tag_51\n      jump\t// in\n    tag_207:\n        /* \"#utility.yul\":1434:1490   */\n    tag_206:\n        /* \"#utility.yul\":1508:1537   */\n      tag_208\n        /* \"#utility.yul\":1530:1536   */\n      dup3\n        /* \"#utility.yul\":1508:1537   */\n      tag_139\n      jump\t// in\n    tag_208:\n        /* \"#utility.yul\":1500:1537   */\n      swap1\n      pop\n        /* \"#utility.yul\":1592:1596   */\n      0x20\n        /* \"#utility.yul\":1586:1590   */\n      dup2\n        /* \"#utility.yul\":1582:1597   */\n      add\n        /* \"#utility.yul\":1574:1597   */\n      swap1\n      pop\n        /* \"#utility.yul\":1296:1604   */\n      swap2\n      swap1\n      pop\n      jump\t// out\n        /* \"#utility.yul\":1610:1756   */\n    tag_143:\n        /* \"#utility.yul\":1707:1713   */\n      dup3\n        /* \"#utility.yul\":1702:1705   */\n      dup2\n        /* \"#utility.yul\":1697:1700   */\n      dup4\n        /* \"#utility.yul\":1684:1714   */\n      calldatacopy\n        /* \"#utility.yul\":1748:1749   */\n      0x00\n        /* \"#utility.yul\":1739:1745   */\n      dup4\n        /* \"#utility.yul\":1734:1737   */\n      dup4\n        /* \"#utility.yul\":1730:1746   */\n      add\n        /* \"#utility.yul\":1723:1750   */\n      mstore\n        /* \"#utility.yul\":1610:1756   */\n      pop\n      pop\n      pop\n      jump\t// out\n        /* \"#utility.yul\":1762:2187   */\n    tag_144:\n        /* \"#utility.yul\":1840:1845   */\n      0x00\n        /* \"#utility.yul\":1865:1931   */\n      tag_211\n        /* \"#utility.yul\":1881:1930   */\n      tag_212\n        /* \"#utility.yul\":1923:1929   */\n      dup5\n        /* \"#utility.yul\":1881:1930   */\n      tag_142\n      jump\t// in\n    tag_212:\n        /* \"#utility.yul\":1865:1931   */\n      tag_141\n      jump\t// in\n    tag_211:\n        /* \"#utility.yul\":1856:1931   */\n      swap1\n      pop\n        /* \"#utility.yul\":1954:1960   */\n      dup3\n        /* \"#utility.yul\":1947:1952   */\n      dup2\n        /* \"#utility.yul\":1940:1961   */\n      mstore\n        /* \"#utility.yul\":1992:1996   */\n      0x20\n        /* \"#utility.yul\":1985:1990   */\n      dup2\n        /* \"#utility.yul\":1981:1997   */\n      add\n        /* \"#utility.yul\":2030:2033   */\n      dup5\n        /* \"#utility.yul\":2021:2027   */\n      dup5\n        /* \"#utility.yul\":2016:2019   */\n      dup5\n        /* \"#utility.yul\":2012:2028   */\n      add\n        /* \"#utility.yul\":2009:2034   */\n      gt\n        /* \"#utility.yul\":2006:2118   */\n      iszero\n      tag_213\n      jumpi\n        /* \"#utility.yul\":2037:2116   */\n      tag_214\n      tag_138\n      jump\t// in\n    tag_214:\n        /* \"#utility.yul\":2006:2118   */\n    tag_213:\n        /* \"#utility.yul\":2127:2181   */\n      tag_215\n        /* \"#utility.yul\":2174:2180   */\n      dup5\n        /* \"#utility.yul\":2169:2172   */\n      dup3\n        /* \"#utility.yul\":2164:2167   */\n      dup6\n        /* \"#utility.yul\":2127:2181   */\n      tag_143\n      jump\t// in\n    tag_215:\n        /* \"#utility.yul\":1846:2187   */\n      pop\n        /* \"#utility.yul\":1762:2187   */\n      swap4\n      swap3\n      pop\n      pop\n      pop\n      jump\t// out\n        /* \"#utility.yul\":2207:2547   */\n    tag_145:\n        /* \"#utility.yul\":2263:2268   */\n      0x00\n        /* \"#utility.yul\":2312:2315   */\n      dup3\n        /* \"#utility.yul\":2305:2309   */\n      0x1f\n        /* \"#utility.yul\":2297:2303   */\n      dup4\n        /* \"#utility.yul\":2293:2310   */\n      add\n        /* \"#utility.yul\":2289:2316   */\n      slt\n        /* \"#utility.yul\":2279:2401   */\n      tag_217\n      jumpi\n        /* \"#utility.yul\":2320:2399   */\n      tag_218\n      tag_137\n      jump\t// in\n    tag_218:\n        /* \"#utility.yul\":2279:2401   */\n    tag_217:\n        /* \"#utility.yul\":2437:2443   */\n      dup2\n        /* \"#utility.yul\":2424:2444   */\n      calldataload\n        /* \"#utility.yul\":2462:2541   */\n      tag_219\n        /* \"#utility.yul\":2537:2540   */\n      dup5\n        /* \"#utility.yul\":2529:2535   */\n      dup3\n        /* \"#utility.yul\":2522:2526   */\n      0x20\n        /* \"#utility.yul\":2514:2520   */\n      dup7\n        /* \"#utility.yul\":2510:2527   */\n      add\n        /* \"#utility.yul\":2462:2541   */\n      tag_144\n      jump\t// in\n    tag_219:\n        /* \"#utility.yul\":2453:2541   */\n      swap2\n      pop\n        /* \"#utility.yul\":2269:2547   */\n      pop\n        /* \"#utility.yul\":2207:2547   */\n      swap3\n      swap2\n      pop\n      pop\n      jump\t// out\n        /* \"#utility.yul\":2553:3062   */\n    tag_11:\n        /* \"#utility.yul\":2622:2628   */\n      0x00\n        /* \"#utility.yul\":2671:2673   */\n      0x20\n        /* \"#utility.yul\":2659:2668   */\n      dup3\n        /* \"#utility.yul\":2650:2657   */\n      dup5\n        /* \"#utility.yul\":2646:2669   */\n      sub\n        /* \"#utility.yul\":2642:2674   */\n      slt\n        /* \"#utility.yul\":2639:2758   */\n      iszero\n      tag_221\n      jumpi\n        /* \"#utility.yul\":2677:2756   */\n      tag_222\n      tag_135\n      jump\t// in\n    tag_222:\n        /* \"#utility.yul\":2639:2758   */\n    tag_221:\n        /* \"#utility.yul\":2825:2826   */\n      0x00\n        /* \"#utility.yul\":2814:2823   */\n      dup3\n        /* \"#utility.yul\":2810:2827   */\n      add\n        /* \"#utility.yul\":2797:2828   */\n      calldataload\n        /* \"#utility.yul\":2855:2873   */\n      0xffffffffffffffff\n        /* \"#utility.yul\":2847:2853   */\n      dup2\n        /* \"#utility.yul\":2844:2874   */\n      gt\n        /* \"#utility.yul\":2841:2958   */\n      iszero\n      tag_223\n      jumpi\n        /* \"#utility.yul\":2877:2956   */\n      tag_224\n      tag_136\n      jump\t// in\n    tag_224:\n        /* \"#utility.yul\":2841:2958   */\n    tag_223:\n        /* \"#utility.yul\":2982:3045   */\n      tag_225\n        /* \"#utility.yul\":3037:3044   */\n      dup5\n        /* \"#utility.yul\":3028:3034   */\n      dup3\n        /* \"#utility.yul\":3017:3026   */\n      dup6\n        /* \"#utility.yul\":3013:3035   */\n      add\n        /* \"#utility.yul\":2982:3045   */\n      tag_145\n      jump\t// in\n    tag_225:\n        /* \"#utility.yul\":2972:3045   */\n      swap2\n      pop\n        /* \"#utility.yul\":2768:3055   */\n      pop\n        /* \"#utility.yul\":2553:3062   */\n      swap3\n      swap2\n      pop\n      pop\n      jump\t// out\n        /* \"#utility.yul\":3068:3145   */\n    tag_146:\n        /* \"#utility.yul\":3105:3112   */\n      0x00\n        /* \"#utility.yul\":3134:3139   */\n      dup2\n        /* \"#utility.yul\":3123:3139   */\n      swap1\n      pop\n        /* \"#utility.yul\":3068:3145   */\n      swap2\n      swap1\n      pop\n      jump\t// out\n        /* \"#utility.yul\":3151:3273   */\n    tag_147:\n        /* \"#utility.yul\":3224:3248   */\n      tag_228\n        /* \"#utility.yul\":3242:3247   */\n      dup2\n        /* \"#utility.yul\":3224:3248   */\n      tag_146\n      jump\t// in\n    tag_228:\n        /* \"#utility.yul\":3217:3222   */\n      dup2\n        /* \"#utility.yul\":3214:3249   */\n      eq\n        /* \"#utility.yul\":3204:3267   */\n      tag_229\n      jumpi\n        /* \"#utility.yul\":3263:3264   */\n      0x00\n        /* \"#utility.yul\":3260:3261   */\n      dup1\n        /* \"#utility.yul\":3253:3265   */\n      revert\n        /* \"#utility.yul\":3204:3267   */\n    tag_229:\n        /* \"#utility.yul\":3151:3273   */\n      pop\n      jump\t// out\n        /* \"#utility.yul\":3279:3418   */\n    tag_148:\n        /* \"#utility.yul\":3325:3330   */\n      0x00\n        /* \"#utility.yul\":3363:3369   */\n      dup2\n        /* \"#utility.yul\":3350:3370   */\n      calldataload\n        /* \"#utility.yul\":3341:3370   */\n      swap1\n      pop\n        /* \"#utility.yul\":3379:3412   */\n      tag_231\n        /* \"#utility.yul\":3406:3411   */\n      dup2\n        /* \"#utility.yul\":3379:3412   */\n      tag_147\n      jump\t// in\n    tag_231:\n        /* \"#utility.yul\":3279:3418   */\n      swap3\n      swap2\n      pop\n      pop\n      jump\t// out\n        /* \"#utility.yul\":3424:3753   */\n    tag_16:\n        /* \"#utility.yul\":3483:3489   */\n      0x00\n        /* \"#utility.yul\":3532:3534   */\n      0x20\n        /* \"#utility.yul\":3520:3529   */\n      dup3\n        /* \"#utility.yul\":3511:3518   */\n      dup5\n        /* \"#utility.yul\":3507:3530   */\n      sub\n        /* \"#utility.yul\":3503:3535   */\n      slt\n        /* \"#utility.yul\":3500:3619   */\n      iszero\n      tag_233\n      jumpi\n        /* \"#utility.yul\":3538:3617   */\n      tag_234\n      tag_135\n      jump\t// in\n    tag_234:\n        /* \"#utility.yul\":3500:3619   */\n    tag_233:\n        /* \"#utility.yul\":3658:3659   */\n      0x00\n        /* \"#utility.yul\":3683:3736   */\n      tag_235\n        /* \"#utility.yul\":3728:3735   */\n      dup5\n        /* \"#utility.yul\":3719:3725   */\n      dup3\n        /* \"#utility.yul\":3708:3717   */\n      dup6\n        /* \"#utility.yul\":3704:3726   */\n      add\n        /* \"#utility.yul\":3683:3736   */\n      tag_148\n      jump\t// in\n    tag_235:\n        /* \"#utility.yul\":3673:3736   */\n      swap2\n      pop\n        /* \"#utility.yul\":3629:3746   */\n      pop\n        /* \"#utility.yul\":3424:3753   */\n      swap3\n      swap2\n      pop\n      pop\n      jump\t// out\n        /* \"#utility.yul\":3759:3858   */\n    tag_149:\n        /* \"#utility.yul\":3811:3817   */\n      0x00\n        /* \"#utility.yul\":3845:3850   */\n      dup2\n        /* \"#utility.yul\":3839:3851   */\n      mload\n        /* \"#utility.yul\":3829:3851   */\n      swap1\n      pop\n        /* \"#utility.yul\":3759:3858   */\n      swap2\n      swap1\n      pop\n      jump\t// out\n        /* \"#utility.yul\":3864:4033   */\n    tag_150:\n        /* \"#utility.yul\":3948:3959   */\n      0x00\n        /* \"#utility.yul\":3982:3988   */\n      dup3\n        /* \"#utility.yul\":3977:3980   */\n      dup3\n        /* \"#utility.yul\":3970:3989   */\n      mstore\n        /* \"#utility.yul\":4022:4026   */\n      0x20\n        /* \"#utility.yul\":4017:4020   */\n      dup3\n        /* \"#utility.yul\":4013:4027   */\n      add\n        /* \"#utility.yul\":3998:4027   */\n      swap1\n      pop\n        /* \"#utility.yul\":3864:4033   */\n      swap3\n      swap2\n      pop\n      pop\n      jump\t// out\n        /* \"#utility.yul\":4039:4285   */\n    tag_151:\n        /* \"#utility.yul\":4120:4121   */\n      0x00\n        /* \"#utility.yul\":4130:4243   */\n    tag_239:\n        /* \"#utility.yul\":4144:4150   */\n      dup4\n        /* \"#utility.yul\":4141:4142   */\n      dup2\n        /* \"#utility.yul\":4138:4151   */\n      lt\n        /* \"#utility.yul\":4130:4243   */\n      iszero\n      tag_241\n      jumpi\n        /* \"#utility.yul\":4229:4230   */\n      dup1\n        /* \"#utility.yul\":4224:4227   */\n      dup3\n        /* \"#utility.yul\":4220:4231   */\n      add\n        /* \"#utility.yul\":4214:4232   */\n      mload\n        /* \"#utility.yul\":4210:4211   */\n      dup2\n        /* \"#utility.yul\":4205:4208   */\n      dup5\n        /* \"#utility.yul\":4201:4212   */\n      add\n        /* \"#utility.yul\":4194:4233   */\n      mstore\n        /* \"#utility.yul\":4166:4168   */\n      0x20\n        /* \"#utility.yul\":4163:4164   */\n      dup2\n        /* \"#utility.yul\":4159:4169   */\n      add\n        /* \"#utility.yul\":4154:4169   */\n      swap1\n      pop\n        /* \"#utility.yul\":4130:4243   */\n      jump(tag_239)\n    tag_241:\n        /* \"#utility.yul\":4277:4278   */\n      0x00\n        /* \"#utility.yul\":4268:4274   */\n      dup5\n        /* \"#utility.yul\":4263:4266   */\n      dup5\n        /* \"#utility.yul\":4259:4275   */\n      add\n        /* \"#utility.yul\":4252:4279   */\n      mstore\n        /* \"#utility.yul\":4101:4285   */\n      pop\n        /* \"#utility.yul\":4039:4285   */\n      pop\n      pop\n      pop\n      jump\t// out\n        /* \"#utility.yul\":4291:4668   */\n    tag_152:\n        /* \"#utility.yul\":4379:4382   */\n      0x00\n        /* \"#utility.yul\":4407:4446   */\n      tag_243\n        /* \"#utility.yul\":4440:4445   */\n      dup3\n        /* \"#utility.yul\":4407:4446   */\n      tag_149\n      jump\t// in\n    tag_243:\n        /* \"#utility.yul\":4462:4533   */\n      tag_244\n        /* \"#utility.yul\":4526:4532   */\n      dup2\n        /* \"#utility.yul\":4521:4524   */\n      dup6\n        /* \"#utility.yul\":4462:4533   */\n      tag_150\n      jump\t// in\n    tag_244:\n        /* \"#utility.yul\":4455:4533   */\n      swap4\n      pop\n        /* \"#utility.yul\":4542:4607   */\n      tag_245\n        /* \"#utility.yul\":4600:4606   */\n      dup2\n        /* \"#utility.yul\":4595:4598   */\n      dup6\n        /* \"#utility.yul\":4588:4592   */\n      0x20\n        /* \"#utility.yul\":4581:4586   */\n      dup7\n        /* \"#utility.yul\":4577:4593   */\n      add\n        /* \"#utility.yul\":4542:4607   */\n      tag_151\n      jump\t// in\n    tag_245:\n        /* \"#utility.yul\":4632:4661   */\n      tag_246\n        /* \"#utility.yul\":4654:4660   */\n      dup2\n        /* \"#utility.yul\":4632:4661   */\n      tag_139\n      jump\t// in\n    tag_246:\n        /* \"#utility.yul\":4627:4630   */\n      dup5\n        /* \"#utility.yul\":4623:4662   */\n      add\n        /* \"#utility.yul\":4616:4662   */\n      swap2\n      pop\n        /* \"#utility.yul\":4383:4668   */\n      pop\n        /* \"#utility.yul\":4291:4668   */\n      swap3\n      swap2\n      pop\n      pop\n      jump\t// out\n        /* \"#utility.yul\":4674:4987   */\n    tag_19:\n        /* \"#utility.yul\":4787:4791   */\n      0x00\n        /* \"#utility.yul\":4825:4827   */\n      0x20\n        /* \"#utility.yul\":4814:4823   */\n      dup3\n        /* \"#utility.yul\":4810:4828   */\n      add\n        /* \"#utility.yul\":4802:4828   */\n      swap1\n      pop\n        /* \"#utility.yul\":4874:4883   */\n      dup2\n        /* \"#utility.yul\":4868:4872   */\n      dup2\n        /* \"#utility.yul\":4864:4884   */\n      sub\n        /* \"#utility.yul\":4860:4861   */\n      0x00\n        /* \"#utility.yul\":4849:4858   */\n      dup4\n        /* \"#utility.yul\":4845:4862   */\n      add\n        /* \"#utility.yul\":4838:4885   */\n      mstore\n        /* \"#utility.yul\":4902:4980   */\n      tag_248\n        /* \"#utility.yul\":4975:4979   */\n      dup2\n        /* \"#utility.yul\":4966:4972   */\n      dup5\n        /* \"#utility.yul\":4902:4980   */\n      tag_152\n      jump\t// in\n    tag_248:\n        /* \"#utility.yul\":4894:4980   */\n      swap1\n      pop\n        /* \"#utility.yul\":4674:4987   */\n      swap3\n      swap2\n      pop\n      pop\n      jump\t// out\n        /* \"#utility.yul\":4993:5107   */\n    tag_153:\n        /* \"#utility.yul\":5060:5066   */\n      0x00\n        /* \"#utility.yul\":5094:5099   */\n      dup2\n        /* \"#utility.yul\":5088:5100   */\n      mload\n        /* \"#utility.yul\":5078:5100   */\n      swap1\n      pop\n        /* \"#utility.yul\":4993:5107   */\n      swap2\n      swap1\n      pop\n      jump\t// out\n        /* \"#utility.yul\":5113:5297   */\n    tag_154:\n        /* \"#utility.yul\":5212:5223   */\n      0x00\n        /* \"#utility.yul\":5246:5252   */\n      dup3\n        /* \"#utility.yul\":5241:5244   */\n      dup3\n        /* \"#utility.yul\":5234:5253   */\n      mstore\n        /* \"#utility.yul\":5286:5290   */\n      0x20\n        /* \"#utility.yul\":5281:5284   */\n      dup3\n        /* \"#utility.yul\":5277:5291   */\n      add\n        /* \"#utility.yul\":5262:5291   */\n      swap1\n      pop\n        /* \"#utility.yul\":5113:5297   */\n      swap3\n      swap2\n      pop\n      pop\n      jump\t// out\n        /* \"#utility.yul\":5303:5435   */\n    tag_155:\n        /* \"#utility.yul\":5370:5374   */\n      0x00\n        /* \"#utility.yul\":5393:5396   */\n      dup2\n        /* \"#utility.yul\":5385:5396   */\n      swap1\n      pop\n        /* \"#utility.yul\":5423:5427   */\n      0x20\n        /* \"#utility.yul\":5418:5421   */\n      dup3\n        /* \"#utility.yul\":5414:5428   */\n      add\n        /* \"#utility.yul\":5406:5428   */\n      swap1\n      pop\n        /* \"#utility.yul\":5303:5435   */\n      swap2\n      swap1\n      pop\n      jump\t// out\n        /* \"#utility.yul\":5441:5549   */\n    tag_156:\n        /* \"#utility.yul\":5518:5542   */\n      tag_253\n        /* \"#utility.yul\":5536:5541   */\n      dup2\n        /* \"#utility.yul\":5518:5542   */\n      tag_146\n      jump\t// in\n    tag_253:\n        /* \"#utility.yul\":5513:5516   */\n      dup3\n        /* \"#utility.yul\":5506:5543   */\n      mstore\n        /* \"#utility.yul\":5441:5549   */\n      pop\n      pop\n      jump\t// out\n        /* \"#utility.yul\":5555:5734   */\n    tag_157:\n        /* \"#utility.yul\":5624:5634   */\n      0x00\n        /* \"#utility.yul\":5645:5691   */\n      tag_255\n        /* \"#utility.yul\":5687:5690   */\n      dup4\n        /* \"#utility.yul\":5679:5685   */\n      dup4\n        /* \"#utility.yul\":5645:5691   */\n      tag_156\n      jump\t// in\n    tag_255:\n        /* \"#utility.yul\":5723:5727   */\n      0x20\n        /* \"#utility.yul\":5718:5721   */\n      dup4\n        /* \"#utility.yul\":5714:5728   */\n      add\n        /* \"#utility.yul\":5700:5728   */\n      swap1\n      pop\n        /* \"#utility.yul\":5555:5734   */\n      swap3\n      swap2\n      pop\n      pop\n      jump\t// out\n        /* \"#utility.yul\":5740:5853   */\n    tag_158:\n        /* \"#utility.yul\":5810:5814   */\n      0x00\n        /* \"#utility.yul\":5842:5846   */\n      0x20\n        /* \"#utility.yul\":5837:5840   */\n      dup3\n        /* \"#utility.yul\":5833:5847   */\n      add\n        /* \"#utility.yul\":5825:5847   */\n      swap1\n      pop\n        /* \"#utility.yul\":5740:5853   */\n      swap2\n      swap1\n      pop\n      jump\t// out\n        /* \"#utility.yul\":5889:6621   */\n    tag_159:\n        /* \"#utility.yul\":6008:6011   */\n      0x00\n        /* \"#utility.yul\":6037:6091   */\n      tag_258\n        /* \"#utility.yul\":6085:6090   */\n      dup3\n        /* \"#utility.yul\":6037:6091   */\n      tag_153\n      jump\t// in\n    tag_258:\n        /* \"#utility.yul\":6107:6193   */\n      tag_259\n        /* \"#utility.yul\":6186:6192   */\n      dup2\n        /* \"#utility.yul\":6181:6184   */\n      dup6\n        /* \"#utility.yul\":6107:6193   */\n      tag_154\n      jump\t// in\n    tag_259:\n        /* \"#utility.yul\":6100:6193   */\n      swap4\n      pop\n        /* \"#utility.yul\":6217:6273   */\n      tag_260\n        /* \"#utility.yul\":6267:6272   */\n      dup4\n        /* \"#utility.yul\":6217:6273   */\n      tag_155\n      jump\t// in\n    tag_260:\n        /* \"#utility.yul\":6296:6303   */\n      dup1\n        /* \"#utility.yul\":6327:6328   */\n      0x00\n        /* \"#utility.yul\":6312:6596   */\n    tag_261:\n        /* \"#utility.yul\":6337:6343   */\n      dup4\n        /* \"#utility.yul\":6334:6335   */\n      dup2\n        /* \"#utility.yul\":6331:6344   */\n      lt\n        /* \"#utility.yul\":6312:6596   */\n      iszero\n      tag_263\n      jumpi\n        /* \"#utility.yul\":6413:6419   */\n      dup2\n        /* \"#utility.yul\":6407:6420   */\n      mload\n        /* \"#utility.yul\":6440:6503   */\n      tag_264\n        /* \"#utility.yul\":6499:6502   */\n      dup9\n        /* \"#utility.yul\":6484:6497   */\n      dup3\n        /* \"#utility.yul\":6440:6503   */\n      tag_157\n      jump\t// in\n    tag_264:\n        /* \"#utility.yul\":6433:6503   */\n      swap8\n      pop\n        /* \"#utility.yul\":6526:6586   */\n      tag_265\n        /* \"#utility.yul\":6579:6585   */\n      dup4\n        /* \"#utility.yul\":6526:6586   */\n      tag_158\n      jump\t// in\n    tag_265:\n        /* \"#utility.yul\":6516:6586   */\n      swap3\n      pop\n        /* \"#utility.yul\":6372:6596   */\n      pop\n        /* \"#utility.yul\":6359:6360   */\n      0x01\n        /* \"#utility.yul\":6356:6357   */\n      dup2\n        /* \"#utility.yul\":6352:6361   */\n      add\n        /* \"#utility.yul\":6347:6361   */\n      swap1\n      pop\n        /* \"#utility.yul\":6312:6596   */\n      jump(tag_261)\n    tag_263:\n        /* \"#utility.yul\":6316:6330   */\n      pop\n        /* \"#utility.yul\":6612:6615   */\n      dup6\n        /* \"#utility.yul\":6605:6615   */\n      swap4\n      pop\n        /* \"#utility.yul\":6013:6621   */\n      pop\n      pop\n      pop\n        /* \"#utility.yul\":5889:6621   */\n      swap3\n      swap2\n      pop\n      pop\n      jump\t// out\n        /* \"#utility.yul\":6627:6751   */\n    tag_160:\n        /* \"#utility.yul\":6704:6710   */\n      0x00\n        /* \"#utility.yul\":6738:6743   */\n      dup2\n        /* \"#utility.yul\":6732:6744   */\n      mload\n        /* \"#utility.yul\":6722:6744   */\n      swap1\n      pop\n        /* \"#utility.yul\":6627:6751   */\n      swap2\n      swap1\n      pop\n      jump\t// out\n        /* \"#utility.yul\":6757:6951   */\n    tag_161:\n        /* \"#utility.yul\":6866:6877   */\n      0x00\n        /* \"#utility.yul\":6900:6906   */\n      dup3\n        /* \"#utility.yul\":6895:6898   */\n      dup3\n        /* \"#utility.yul\":6888:6907   */\n      mstore\n        /* \"#utility.yul\":6940:6944   */\n      0x20\n        /* \"#utility.yul\":6935:6938   */\n      dup3\n        /* \"#utility.yul\":6931:6945   */\n      add\n        /* \"#utility.yul\":6916:6945   */\n      swap1\n      pop\n        /* \"#utility.yul\":6757:6951   */\n      swap3\n      swap2\n      pop\n      pop\n      jump\t// out\n        /* \"#utility.yul\":6957:7099   */\n    tag_162:\n        /* \"#utility.yul\":7034:7038   */\n      0x00\n        /* \"#utility.yul\":7057:7060   */\n      dup2\n        /* \"#utility.yul\":7049:7060   */\n      swap1\n      pop\n        /* \"#utility.yul\":7087:7091   */\n      0x20\n        /* \"#utility.yul\":7082:7085   */\n      dup3\n        /* \"#utility.yul\":7078:7092   */\n      add\n        /* \"#utility.yul\":7070:7092   */\n      swap1\n      pop\n        /* \"#utility.yul\":6957:7099   */\n      swap2\n      swap1\n      pop\n      jump\t// out\n        /* \"#utility.yul\":7105:7264   */\n    tag_163:\n        /* \"#utility.yul\":7179:7190   */\n      0x00\n        /* \"#utility.yul\":7213:7219   */\n      dup3\n        /* \"#utility.yul\":7208:7211   */\n      dup3\n        /* \"#utility.yul\":7201:7220   */\n      mstore\n        /* \"#utility.yul\":7253:7257   */\n      0x20\n        /* \"#utility.yul\":7248:7251   */\n      dup3\n        /* \"#utility.yul\":7244:7258   */\n      add\n        /* \"#utility.yul\":7229:7258   */\n      swap1\n      pop\n        /* \"#utility.yul\":7105:7264   */\n      swap3\n      swap2\n      pop\n      pop\n      jump\t// out\n        /* \"#utility.yul\":7270:7627   */\n    tag_164:\n        /* \"#utility.yul\":7348:7351   */\n      0x00\n        /* \"#utility.yul\":7376:7415   */\n      tag_271\n        /* \"#utility.yul\":7409:7414   */\n      dup3\n        /* \"#utility.yul\":7376:7415   */\n      tag_149\n      jump\t// in\n    tag_271:\n        /* \"#utility.yul\":7431:7492   */\n      tag_272\n        /* \"#utility.yul\":7485:7491   */\n      dup2\n        /* \"#utility.yul\":7480:7483   */\n      dup6\n        /* \"#utility.yul\":7431:7492   */\n      tag_163\n      jump\t// in\n    tag_272:\n        /* \"#utility.yul\":7424:7492   */\n      swap4\n      pop\n        /* \"#utility.yul\":7501:7566   */\n      tag_273\n        /* \"#utility.yul\":7559:7565   */\n      dup2\n        /* \"#utility.yul\":7554:7557   */\n      dup6\n        /* \"#utility.yul\":7547:7551   */\n      0x20\n        /* \"#utility.yul\":7540:7545   */\n      dup7\n        /* \"#utility.yul\":7536:7552   */\n      add\n        /* \"#utility.yul\":7501:7566   */\n      tag_151\n      jump\t// in\n    tag_273:\n        /* \"#utility.yul\":7591:7620   */\n      tag_274\n        /* \"#utility.yul\":7613:7619   */\n      dup2\n        /* \"#utility.yul\":7591:7620   */\n      tag_139\n      jump\t// in\n    tag_274:\n        /* \"#utility.yul\":7586:7589   */\n      dup5\n        /* \"#utility.yul\":7582:7621   */\n      add\n        /* \"#utility.yul\":7575:7621   */\n      swap2\n      pop\n        /* \"#utility.yul\":7352:7627   */\n      pop\n        /* \"#utility.yul\":7270:7627   */\n      swap3\n      swap2\n      pop\n      pop\n      jump\t// out\n        /* \"#utility.yul\":7633:7829   */\n    tag_165:\n        /* \"#utility.yul\":7722:7732   */\n      0x00\n        /* \"#utility.yul\":7757:7823   */\n      tag_276\n        /* \"#utility.yul\":7819:7822   */\n      dup4\n        /* \"#utility.yul\":7811:7817   */\n      dup4\n        /* \"#utility.yul\":7757:7823   */\n      tag_164\n      jump\t// in\n    tag_276:\n        /* \"#utility.yul\":7743:7823   */\n      swap1\n      pop\n        /* \"#utility.yul\":7633:7829   */\n      swap3\n      swap2\n      pop\n      pop\n      jump\t// out\n        /* \"#utility.yul\":7835:7958   */\n    tag_166:\n        /* \"#utility.yul\":7915:7919   */\n      0x00\n        /* \"#utility.yul\":7947:7951   */\n      0x20\n        /* \"#utility.yul\":7942:7945   */\n      dup3\n        /* \"#utility.yul\":7938:7952   */\n      add\n        /* \"#utility.yul\":7930:7952   */\n      swap1\n      pop\n        /* \"#utility.yul\":7835:7958   */\n      swap2\n      swap1\n      pop\n      jump\t// out\n        /* \"#utility.yul\":7992:8983   */\n    tag_167:\n        /* \"#utility.yul\":8131:8134   */\n      0x00\n        /* \"#utility.yul\":8160:8224   */\n      tag_279\n        /* \"#utility.yul\":8218:8223   */\n      dup3\n        /* \"#utility.yul\":8160:8224   */\n      tag_160\n      jump\t// in\n    tag_279:\n        /* \"#utility.yul\":8240:8336   */\n      tag_280\n        /* \"#utility.yul\":8329:8335   */\n      dup2\n        /* \"#utility.yul\":8324:8327   */\n      dup6\n        /* \"#utility.yul\":8240:8336   */\n      tag_161\n      jump\t// in\n    tag_280:\n        /* \"#utility.yul\":8233:8336   */\n      swap4\n      pop\n        /* \"#utility.yul\":8362:8365   */\n      dup4\n        /* \"#utility.yul\":8407:8411   */\n      0x20\n        /* \"#utility.yul\":8399:8405   */\n      dup3\n        /* \"#utility.yul\":8395:8412   */\n      mul\n        /* \"#utility.yul\":8390:8393   */\n      dup6\n        /* \"#utility.yul\":8386:8413   */\n      add\n        /* \"#utility.yul\":8437:8503   */\n      tag_281\n        /* \"#utility.yul\":8497:8502   */\n      dup6\n        /* \"#utility.yul\":8437:8503   */\n      tag_162\n      jump\t// in\n    tag_281:\n        /* \"#utility.yul\":8526:8533   */\n      dup1\n        /* \"#utility.yul\":8557:8558   */\n      0x00\n        /* \"#utility.yul\":8542:8938   */\n    tag_282:\n        /* \"#utility.yul\":8567:8573   */\n      dup6\n        /* \"#utility.yul\":8564:8565   */\n      dup2\n        /* \"#utility.yul\":8561:8574   */\n      lt\n        /* \"#utility.yul\":8542:8938   */\n      iszero\n      tag_284\n      jumpi\n        /* \"#utility.yul\":8638:8647   */\n      dup5\n        /* \"#utility.yul\":8632:8636   */\n      dup5\n        /* \"#utility.yul\":8628:8648   */\n      sub\n        /* \"#utility.yul\":8623:8626   */\n      dup10\n        /* \"#utility.yul\":8616:8649   */\n      mstore\n        /* \"#utility.yul\":8689:8695   */\n      dup2\n        /* \"#utility.yul\":8683:8696   */\n      mload\n        /* \"#utility.yul\":8717:8801   */\n      tag_285\n        /* \"#utility.yul\":8796:8800   */\n      dup6\n        /* \"#utility.yul\":8781:8794   */\n      dup3\n        /* \"#utility.yul\":8717:8801   */\n      tag_165\n      jump\t// in\n    tag_285:\n        /* \"#utility.yul\":8709:8801   */\n      swap5\n      pop\n        /* \"#utility.yul\":8824:8894   */\n      tag_286\n        /* \"#utility.yul\":8887:8893   */\n      dup4\n        /* \"#utility.yul\":8824:8894   */\n      tag_166\n      jump\t// in\n    tag_286:\n        /* \"#utility.yul\":8814:8894   */\n      swap3\n      pop\n        /* \"#utility.yul\":8923:8927   */\n      0x20\n        /* \"#utility.yul\":8918:8921   */\n      dup11\n        /* \"#utility.yul\":8914:8928   */\n      add\n        /* \"#utility.yul\":8907:8928   */\n      swap10\n      pop\n        /* \"#utility.yul\":8602:8938   */\n      pop\n        /* \"#utility.yul\":8589:8590   */\n      0x01\n        /* \"#utility.yul\":8586:8587   */\n      dup2\n        /* \"#utility.yul\":8582:8591   */\n      add\n        /* \"#utility.yul\":8577:8591   */\n      swap1\n      pop\n        /* \"#utility.yul\":8542:8938   */\n      jump(tag_282)\n    tag_284:\n        /* \"#utility.yul\":8546:8560   */\n      pop\n        /* \"#utility.yul\":8954:8958   */\n      dup3\n        /* \"#utility.yul\":8947:8958   */\n      swap8\n      pop\n        /* \"#utility.yul\":8974:8977   */\n      dup8\n        /* \"#utility.yul\":8967:8977   */\n      swap6\n      pop\n        /* \"#utility.yul\":8136:8983   */\n      pop\n      pop\n      pop\n      pop\n      pop\n        /* \"#utility.yul\":7992:8983   */\n      swap3\n      swap2\n      pop\n      pop\n      jump\t// out\n        /* \"#utility.yul\":8989:9663   */\n    tag_24:\n        /* \"#utility.yul\":9230:9234   */\n      0x00\n        /* \"#utility.yul\":9268:9270   */\n      0x40\n        /* \"#utility.yul\":9257:9266   */\n      dup3\n        /* \"#utility.yul\":9253:9271   */\n      add\n        /* \"#utility.yul\":9245:9271   */\n      swap1\n      pop\n        /* \"#utility.yul\":9317:9326   */\n      dup2\n        /* \"#utility.yul\":9311:9315   */\n      dup2\n        /* \"#utility.yul\":9307:9327   */\n      sub\n        /* \"#utility.yul\":9303:9304   */\n      0x00\n        /* \"#utility.yul\":9292:9301   */\n      dup4\n        /* \"#utility.yul\":9288:9305   */\n      add\n        /* \"#utility.yul\":9281:9328   */\n      mstore\n        /* \"#utility.yul\":9345:9453   */\n      tag_288\n        /* \"#utility.yul\":9448:9452   */\n      dup2\n        /* \"#utility.yul\":9439:9445   */\n      dup6\n        /* \"#utility.yul\":9345:9453   */\n      tag_159\n      jump\t// in\n    tag_288:\n        /* \"#utility.yul\":9337:9453   */\n      swap1\n      pop\n        /* \"#utility.yul\":9500:9509   */\n      dup2\n        /* \"#utility.yul\":9494:9498   */\n      dup2\n        /* \"#utility.yul\":9490:9510   */\n      sub\n        /* \"#utility.yul\":9485:9487   */\n      0x20\n        /* \"#utility.yul\":9474:9483   */\n      dup4\n        /* \"#utility.yul\":9470:9488   */\n      add\n        /* \"#utility.yul\":9463:9511   */\n      mstore\n        /* \"#utility.yul\":9528:9656   */\n      tag_289\n        /* \"#utility.yul\":9651:9655   */\n      dup2\n        /* \"#utility.yul\":9642:9648   */\n      dup5\n        /* \"#utility.yul\":9528:9656   */\n      tag_167\n      jump\t// in\n    tag_289:\n        /* \"#utility.yul\":9520:9656   */\n      swap1\n      pop\n        /* \"#utility.yul\":8989:9663   */\n      swap4\n      swap3\n      pop\n      pop\n      pop\n      jump\t// out\n        /* \"#utility.yul\":9669:10082   */\n    tag_35:\n        /* \"#utility.yul\":9832:9836   */\n      0x00\n        /* \"#utility.yul\":9870:9872   */\n      0x20\n        /* \"#utility.yul\":9859:9868   */\n      dup3\n        /* \"#utility.yul\":9855:9873   */\n      add\n        /* \"#utility.yul\":9847:9873   */\n      swap1\n      pop\n        /* \"#utility.yul\":9919:9928   */\n      dup2\n        /* \"#utility.yul\":9913:9917   */\n      dup2\n        /* \"#utility.yul\":9909:9929   */\n      sub\n        /* \"#utility.yul\":9905:9906   */\n      0x00\n        /* \"#utility.yul\":9894:9903   */\n      dup4\n        /* \"#utility.yul\":9890:9907   */\n      add\n        /* \"#utility.yul\":9883:9930   */\n      mstore\n        /* \"#utility.yul\":9947:10075   */\n      tag_291\n        /* \"#utility.yul\":10070:10074   */\n      dup2\n        /* \"#utility.yul\":10061:10067   */\n      dup5\n        /* \"#utility.yul\":9947:10075   */\n      tag_167\n      jump\t// in\n    tag_291:\n        /* \"#utility.yul\":9939:10075   */\n      swap1\n      pop\n        /* \"#utility.yul\":9669:10082   */\n      swap3\n      swap2\n      pop\n      pop\n      jump\t// out\n        /* \"#utility.yul\":10088:10268   */\n    tag_168:\n        /* \"#utility.yul\":10136:10213   */\n      0x4e487b7100000000000000000000000000000000000000000000000000000000\n        /* \"#utility.yul\":10133:10134   */\n      0x00\n        /* \"#utility.yul\":10126:10214   */\n      mstore\n        /* \"#utility.yul\":10233:10237   */\n      0x22\n        /* \"#utility.yul\":10230:10231   */\n      0x04\n        /* \"#utility.yul\":10223:10238   */\n      mstore\n        /* \"#utility.yul\":10257:10261   */\n      0x24\n        /* \"#utility.yul\":10254:10255   */\n      0x00\n        /* \"#utility.yul\":10247:10262   */\n      revert\n        /* \"#utility.yul\":10274:10594   */\n    tag_43:\n        /* \"#utility.yul\":10318:10324   */\n      0x00\n        /* \"#utility.yul\":10355:10356   */\n      0x02\n        /* \"#utility.yul\":10349:10353   */\n      dup3\n        /* \"#utility.yul\":10345:10357   */\n      div\n        /* \"#utility.yul\":10335:10357   */\n      swap1\n      pop\n        /* \"#utility.yul\":10402:10403   */\n      0x01\n        /* \"#utility.yul\":10396:10400   */\n      dup3\n        /* \"#utility.yul\":10392:10404   */\n      and\n        /* \"#utility.yul\":10423:10441   */\n      dup1\n        /* \"#utility.yul\":10413:10494   */\n      tag_294\n      jumpi\n        /* \"#utility.yul\":10479:10483   */\n      0x7f\n        /* \"#utility.yul\":10471:10477   */\n      dup3\n        /* \"#utility.yul\":10467:10484   */\n      and\n        /* \"#utility.yul\":10457:10484   */\n      swap2\n      pop\n        /* \"#utility.yul\":10413:10494   */\n    tag_294:\n        /* \"#utility.yul\":10541:10543   */\n      0x20\n        /* \"#utility.yul\":10533:10539   */\n      dup3\n        /* \"#utility.yul\":10530:10544   */\n      lt\n        /* \"#utility.yul\":10510:10528   */\n      dup2\n        /* \"#utility.yul\":10507:10545   */\n      sub\n        /* \"#utility.yul\":10504:10588   */\n      tag_295\n      jumpi\n        /* \"#utility.yul\":10560:10578   */\n      tag_296\n      tag_168\n      jump\t// in\n    tag_296:\n        /* \"#utility.yul\":10504:10588   */\n    tag_295:\n        /* \"#utility.yul\":10325:10594   */\n      pop\n        /* \"#utility.yul\":10274:10594   */\n      swap2\n      swap1\n      pop\n      jump\t// out\n        /* \"#utility.yul\":10600:10741   */\n    tag_169:\n        /* \"#utility.yul\":10649:10653   */\n      0x00\n        /* \"#utility.yul\":10672:10675   */\n      dup2\n        /* \"#utility.yul\":10664:10675   */\n      swap1\n      pop\n        /* \"#utility.yul\":10695:10698   */\n      dup2\n        /* \"#utility.yul\":10692:10693   */\n      0x00\n        /* \"#utility.yul\":10685:10699   */\n      mstore\n        /* \"#utility.yul\":10729:10733   */\n      0x20\n        /* \"#utility.yul\":10726:10727   */\n      0x00\n        /* \"#utility.yul\":10716:10734   */\n      keccak256\n        /* \"#utility.yul\":10708:10734   */\n      swap1\n      pop\n        /* \"#utility.yul\":10600:10741   */\n      swap2\n      swap1\n      pop\n      jump\t// out\n        /* \"#utility.yul\":10747:10840   */\n    tag_170:\n        /* \"#utility.yul\":10784:10790   */\n      0x00\n        /* \"#utility.yul\":10831:10833   */\n      0x20\n        /* \"#utility.yul\":10826:10828   */\n      0x1f\n        /* \"#utility.yul\":10819:10824   */\n      dup4\n        /* \"#utility.yul\":10815:10829   */\n      add\n        /* \"#utility.yul\":10811:10834   */\n      div\n        /* \"#utility.yul\":10801:10834   */\n      swap1\n      pop\n        /* \"#utility.yul\":10747:10840   */\n      swap2\n      swap1\n      pop\n      jump\t// out\n        /* \"#utility.yul\":10846:10953   */\n    tag_171:\n        /* \"#utility.yul\":10890:10898   */\n      0x00\n        /* \"#utility.yul\":10940:10945   */\n      dup3\n        /* \"#utility.yul\":10934:10938   */\n      dup3\n        /* \"#utility.yul\":10930:10946   */\n      shl\n        /* \"#utility.yul\":10909:10946   */\n      swap1\n      pop\n        /* \"#utility.yul\":10846:10953   */\n      swap3\n      swap2\n      pop\n      pop\n      jump\t// out\n        /* \"#utility.yul\":10959:11352   */\n    tag_172:\n        /* \"#utility.yul\":11028:11034   */\n      0x00\n        /* \"#utility.yul\":11078:11079   */\n      0x08\n        /* \"#utility.yul\":11066:11076   */\n      dup4\n        /* \"#utility.yul\":11062:11080   */\n      mul\n        /* \"#utility.yul\":11101:11198   */\n      tag_301\n        /* \"#utility.yul\":11131:11197   */\n      0xffffffffffffffffffffffffffffffffffffffffffffffffffffffffffffffff\n        /* \"#utility.yul\":11120:11129   */\n      dup3\n        /* \"#utility.yul\":11101:11198   */\n      tag_171\n      jump\t// in\n    tag_301:\n        /* \"#utility.yul\":11219:11258   */\n      tag_302\n        /* \"#utility.yul\":11249:11257   */\n      dup7\n        /* \"#utility.yul\":11238:11247   */\n      dup4\n        /* \"#utility.yul\":11219:11258   */\n      tag_171\n      jump\t// in\n    tag_302:\n        /* \"#utility.yul\":11207:11258   */\n      swap6\n      pop\n        /* \"#utility.yul\":11291:11295   */\n      dup1\n        /* \"#utility.yul\":11287:11296   */\n      not\n        /* \"#utility.yul\":11280:11285   */\n      dup5\n        /* \"#utility.yul\":11276:11297   */\n      and\n        /* \"#utility.yul\":11267:11297   */\n      swap4\n      pop\n        /* \"#utility.yul\":11340:11344   */\n      dup1\n        /* \"#utility.yul\":11330:11338   */\n      dup7\n        /* \"#utility.yul\":11326:11345   */\n      and\n        /* \"#utility.yul\":11319:11324   */\n      dup5\n        /* \"#utility.yul\":11316:11346   */\n      or\n        /* \"#utility.yul\":11306:11346   */\n      swap3\n      pop\n        /* \"#utility.yul\":11035:11352   */\n      pop\n      pop\n        /* \"#utility.yul\":10959:11352   */\n      swap4\n      swap3\n      pop\n      pop\n      pop\n      jump\t// out\n        /* \"#utility.yul\":11358:11418   */\n    tag_173:\n        /* \"#utility.yul\":11386:11389   */\n      0x00\n        /* \"#utility.yul\":11407:11412   */\n      dup2\n        /* \"#utility.yul\":11400:11412   */\n      swap1\n      pop\n        /* \"#utility.yul\":11358:11418   */\n      swap2\n      swap1\n      pop\n      jump\t// out\n        /* \"#utility.yul\":11424:11566   */\n    tag_174:\n        /* \"#utility.yul\":11474:11483   */\n      0x00\n        /* \"#utility.yul\":11507:11560   */\n      tag_305\n        /* \"#utility.yul\":11525:11559   */\n      tag_306\n        /* \"#utility.yul\":11534:11558   */\n      tag_307\n        /* \"#utility.yul\":11552:11557   */\n      dup5\n        /* \"#utility.yul\":11534:11558   */\n      tag_146\n      jump\t// in\n    tag_307:\n        /* \"#utility.yul\":11525:11559   */\n      tag_173\n      jump\t// in\n    tag_306:\n        /* \"#utility.yul\":11507:11560   */\n      tag_146\n      jump\t// in\n    tag_305:\n        /* \"#utility.yul\":11494:11560   */\n      swap1\n      pop\n        /* \"#utility.yul\":11424:11566   */\n      swap2\n      swap1\n      pop\n      jump\t// out\n        /* \"#utility.yul\":11572:11647   */\n    tag_175:\n        /* \"#utility.yul\":11615:11618   */\n      0x00\n        /* \"#utility.yul\":11636:11641   */\n      dup2\n        /* \"#utility.yul\":11629:11641   */\n      swap1\n      pop\n        /* \"#utility.yul\":11572:11647   */\n      swap2\n      swap1\n      pop\n      jump\t// out\n        /* \"#utility.yul\":11653:11922   */\n    tag_176:\n        /* \"#utility.yul\":11763:11802   */\n      tag_310\n        /* \"#utility.yul\":11794:11801   */\n      dup4\n        /* \"#utility.yul\":11763:11802   */\n      tag_174\n      jump\t// in\n    tag_310:\n        /* \"#utility.yul\":11824:11915   */\n      tag_311\n        /* \"#utility.yul\":11873:11914   */\n      tag_312\n        /* \"#utility.yul\":11897:11913   */\n      dup3\n        /* \"#utility.yul\":11873:11914   */\n      tag_175\n      jump\t// in\n    tag_312:\n        /* \"#utility.yul\":11865:11871   */\n      dup5\n        /* \"#utility.yul\":11858:11862   */\n      dup5\n        /* \"#utility.yul\":11852:11863   */\n      sload\n        /* \"#utility.yul\":11824:11915   */\n      tag_172\n      jump\t// in\n    tag_311:\n        /* \"#utility.yul\":11818:11822   */\n      dup3\n        /* \"#utility.yul\":11811:11916   */\n      sstore\n        /* \"#utility.yul\":11729:11922   */\n      pop\n        /* \"#utility.yul\":11653:11922   */\n      pop\n      pop\n      pop\n      jump\t// out\n        /* \"#utility.yul\":11928:12001   */\n    tag_177:\n        /* \"#utility.yul\":11973:11976   */\n      0x00\n        /* \"#utility.yul\":11928:12001   */\n      swap1\n      jump\t// out\n        /* \"#utility.yul\":12007:12196   */\n    tag_178:\n        /* \"#utility.yul\":12084:12116   */\n      tag_315\n      tag_177\n      jump\t// in\n    tag_315:\n        /* \"#utility.yul\":12125:12190   */\n      tag_316\n        /* \"#utility.yul\":12183:12189   */\n      dup2\n        /* \"#utility.yul\":12175:12181   */\n      dup5\n        /* \"#utility.yul\":12169:12173   */\n      dup5\n        /* \"#utility.yul\":12125:12190   */\n      tag_176\n      jump\t// in\n    tag_316:\n        /* \"#utility.yul\":12060:12196   */\n      pop\n        /* \"#utility.yul\":12007:12196   */\n      pop\n      pop\n      jump\t// out\n        /* \"#utility.yul\":12202:12388   */\n    tag_179:\n        /* \"#utility.yul\":12262:12382   */\n    tag_318:\n        /* \"#utility.yul\":12279:12282   */\n      dup2\n        /* \"#utility.yul\":12272:12277   */\n      dup2\n        /* \"#utility.yul\":12269:12283   */\n      lt\n        /* \"#utility.yul\":12262:12382   */\n      iszero\n      tag_320\n      jumpi\n        /* \"#utility.yul\":12333:12372   */\n      tag_321\n        /* \"#utility.yul\":12370:12371   */\n      0x00\n        /* \"#utility.yul\":12363:12368   */\n      dup3\n        /* \"#utility.yul\":12333:12372   */\n      tag_178\n      jump\t// in\n    tag_321:\n        /* \"#utility.yul\":12306:12307   */\n      0x01\n        /* \"#utility.yul\":12299:12304   */\n      dup2\n        /* \"#utility.yul\":12295:12308   */\n      add\n        /* \"#utility.yul\":12286:12308   */\n      swap1\n      pop\n        /* \"#utility.yul\":12262:12382   */\n      jump(tag_318)\n    tag_320:\n        /* \"#utility.yul\":12202:12388   */\n      pop\n      pop\n      jump\t// out\n        /* \"#utility.yul\":12394:12937   */\n    tag_180:\n        /* \"#utility.yul\":12495:12497   */\n      0x1f\n        /* \"#utility.yul\":12490:12493   */\n      dup3\n        /* \"#utility.yul\":12487:12498   */\n      gt\n        /* \"#utility.yul\":12484:12930   */\n      iszero\n      tag_323\n      jumpi\n        /* \"#utility.yul\":12529:12567   */\n      tag_324\n        /* \"#utility.yul\":12561:12566   */\n      dup2\n        /* \"#utility.yul\":12529:12567   */\n      tag_169\n      jump\t// in\n    tag_324:\n        /* \"#utility.yul\":12613:12642   */\n      tag_325\n        /* \"#utility.yul\":12631:12641   */\n      dup5\n        /* \"#utility.yul\":12613:12642   */\n      tag_170\n      jump\t// in\n    tag_325:\n        /* \"#utility.yul\":12603:12611   */\n      dup2\n        /* \"#utility.yul\":12599:12643   */\n      add\n        /* \"#utility.yul\":12796:12798   */\n      0x20\n        /* \"#utility.yul\":12784:12794   */\n      dup6\n        /* \"#utility.yul\":12781:12799   */\n      lt\n        /* \"#utility.yul\":12778:12827   */\n      iszero\n      tag_326\n      jumpi\n        /* \"#utility.yul\":12817:12825   */\n      dup2\n        /* \"#utility.yul\":12802:12825   */\n      swap1\n      pop\n        /* \"#utility.yul\":12778:12827   */\n    tag_326:\n        /* \"#utility.yul\":12840:12920   */\n      tag_327\n        /* \"#utility.yul\":12896:12918   */\n      tag_328\n        /* \"#utility.yul\":12914:12917   */\n      dup6\n        /* \"#utility.yul\":12896:12918   */\n      tag_170\n      jump\t// in\n    tag_328:\n        /* \"#utility.yul\":12886:12894   */\n      dup4\n        /* \"#utility.yul\":12882:12919   */\n      add\n        /* \"#utility.yul\":12869:12880   */\n      dup3\n        /* \"#utility.yul\":12840:12920   */\n      tag_179\n      jump\t// in\n    tag_327:\n        /* \"#utility.yul\":12499:12930   */\n      pop\n      pop\n        /* \"#utility.yul\":12484:12930   */\n    tag_323:\n        /* \"#utility.yul\":12394:12937   */\n      pop\n      pop\n      pop\n      jump\t// out\n        /* \"#utility.yul\":12943:13060   */\n    tag_181:\n        /* \"#utility.yul\":12997:13005   */\n      0x00\n        /* \"#utility.yul\":13047:13052   */\n      dup3\n        /* \"#utility.yul\":13041:13045   */\n      dup3\n        /* \"#utility.yul\":13037:13053   */\n      shr\n        /* \"#utility.yul\":13016:13053   */\n      swap1\n      pop\n        /* \"#utility.yul\":12943:13060   */\n      swap3\n      swap2\n      pop\n      pop\n      jump\t// out\n        /* \"#utility.yul\":13066:13235   */\n    tag_182:\n        /* \"#utility.yul\":13110:13116   */\n      0x00\n        /* \"#utility.yul\":13143:13194   */\n      tag_331\n        /* \"#utility.yul\":13191:13192   */\n      0x00\n        /* \"#utility.yul\":13187:13193   */\n      not\n        /* \"#utility.yul\":13179:13184   */\n      dup5\n        /* \"#utility.yul\":13176:13177   */\n      0x08\n        /* \"#utility.yul\":13172:13185   */\n      mul\n        /* \"#utility.yul\":13143:13194   */\n      tag_181\n      jump\t// in\n    tag_331:\n        /* \"#utility.yul\":13139:13195   */\n      not\n        /* \"#utility.yul\":13224:13228   */\n      dup1\n        /* \"#utility.yul\":13218:13222   */\n      dup4\n        /* \"#utility.yul\":13214:13229   */\n      and\n        /* \"#utility.yul\":13204:13229   */\n      swap2\n      pop\n        /* \"#utility.yul\":13117:13235   */\n      pop\n        /* \"#utility.yul\":13066:13235   */\n      swap3\n      swap2\n      pop\n      pop\n      jump\t// out\n        /* \"#utility.yul\":13240:13535   */\n    tag_183:\n        /* \"#utility.yul\":13316:13320   */\n      0x00\n        /* \"#utility.yul\":13462:13491   */\n      tag_333\n        /* \"#utility.yul\":13487:13490   */\n      dup4\n        /* \"#utility.yul\":13481:13485   */\n      dup4\n        /* \"#utility.yul\":13462:13491   */\n      tag_182\n      jump\t// in\n    tag_333:\n        /* \"#utility.yul\":13454:13491   */\n      swap2\n      pop\n        /* \"#utility.yul\":13524:13527   */\n      dup3\n        /* \"#utility.yul\":13521:13522   */\n      0x02\n        /* \"#utility.yul\":13517:13528   */\n      mul\n        /* \"#utility.yul\":13511:13515   */\n      dup3\n        /* \"#utility.yul\":13508:13529   */\n      or\n        /* \"#utility.yul\":13500:13529   */\n      swap1\n      pop\n        /* \"#utility.yul\":13240:13535   */\n      swap3\n      swap2\n      pop\n      pop\n      jump\t// out\n        /* \"#utility.yul\":13540:14935   */\n    tag_39:\n        /* \"#utility.yul\":13657:13694   */\n      tag_335\n        /* \"#utility.yul\":13690:13693   */\n      dup3\n        /* \"#utility.yul\":13657:13694   */\n      tag_149\n      jump\t// in\n    tag_335:\n        /* \"#utility.yul\":13759:13777   */\n      0xffffffffffffffff\n        /* \"#utility.yul\":13751:13757   */\n      dup2\n        /* \"#utility.yul\":13748:13778   */\n      gt\n        /* \"#utility.yul\":13745:13801   */\n      iszero\n      tag_336\n      jumpi\n        /* \"#utility.yul\":13781:13799   */\n      tag_337\n      tag_51\n      jump\t// in\n    tag_337:\n        /* \"#utility.yul\":13745:13801   */\n    tag_336:\n        /* \"#utility.yul\":13825:13863   */\n      tag_338\n        /* \"#utility.yul\":13857:13861   */\n      dup3\n        /* \"#utility.yul\":13851:13862   */\n      sload\n        /* \"#utility.yul\":13825:13863   */\n      tag_43\n      jump\t// in\n    tag_338:\n        /* \"#utility.yul\":13910:13977   */\n      tag_339\n        /* \"#utility.yul\":13970:13976   */\n      dup3\n        /* \"#utility.yul\":13962:13968   */\n      dup3\n        /* \"#utility.yul\":13956:13960   */\n      dup6\n        /* \"#utility.yul\":13910:13977   */\n      tag_180\n      jump\t// in\n    tag_339:\n        /* \"#utility.yul\":14004:14005   */\n      0x00\n        /* \"#utility.yul\":14028:14032   */\n      0x20\n        /* \"#utility.yul\":14015:14032   */\n      swap1\n      pop\n        /* \"#utility.yul\":14060:14062   */\n      0x1f\n        /* \"#utility.yul\":14052:14058   */\n      dup4\n        /* \"#utility.yul\":14049:14063   */\n      gt\n        /* \"#utility.yul\":14077:14078   */\n      0x01\n        /* \"#utility.yul\":14072:14690   */\n      dup2\n      eq\n      tag_341\n      jumpi\n        /* \"#utility.yul\":14734:14735   */\n      0x00\n        /* \"#utility.yul\":14751:14757   */\n      dup5\n        /* \"#utility.yul\":14748:14825   */\n      iszero\n      tag_342\n      jumpi\n        /* \"#utility.yul\":14800:14809   */\n      dup3\n        /* \"#utility.yul\":14795:14798   */\n      dup8\n        /* \"#utility.yul\":14791:14810   */\n      add\n        /* \"#utility.yul\":14785:14811   */\n      mload\n        /* \"#utility.yul\":14776:14811   */\n      swap1\n      pop\n        /* \"#utility.yul\":14748:14825   */\n    tag_342:\n        /* \"#utility.yul\":14851:14918   */\n      tag_343\n        /* \"#utility.yul\":14911:14917   */\n      dup6\n        /* \"#utility.yul\":14904:14909   */\n      dup3\n        /* \"#utility.yul\":14851:14918   */\n      tag_183\n      jump\t// in\n    tag_343:\n        /* \"#utility.yul\":14845:14849   */\n      dup7\n        /* \"#utility.yul\":14838:14919   */\n      sstore\n        /* \"#utility.yul\":14707:14929   */\n      pop\n        /* \"#utility.yul\":14042:14929   */\n      jump(tag_340)\n        /* \"#utility.yul\":14072:14690   */\n    tag_341:\n        /* \"#utility.yul\":14124:14128   */\n      0x1f\n        /* \"#utility.yul\":14120:14129   */\n      not\n        /* \"#utility.yul\":14112:14118   */\n      dup5\n        /* \"#utility.yul\":14108:14130   */\n      and\n        /* \"#utility.yul\":14158:14195   */\n      tag_344\n        /* \"#utility.yul\":14190:14194   */\n      dup7\n        /* \"#utility.yul\":14158:14195   */\n      tag_169\n      jump\t// in\n    tag_344:\n        /* \"#utility.yul\":14217:14218   */\n      0x00\n        /* \"#utility.yul\":14231:14439   */\n    tag_345:\n        /* \"#utility.yul\":14245:14252   */\n      dup3\n        /* \"#utility.yul\":14242:14243   */\n      dup2\n        /* \"#utility.yul\":14239:14253   */\n      lt\n        /* \"#utility.yul\":14231:14439   */\n      iszero\n      tag_347\n      jumpi\n        /* \"#utility.yul\":14324:14333   */\n      dup5\n        /* \"#utility.yul\":14319:14322   */\n      dup10\n        /* \"#utility.yul\":14315:14334   */\n      add\n        /* \"#utility.yul\":14309:14335   */\n      mload\n        /* \"#utility.yul\":14301:14307   */\n      dup3\n        /* \"#utility.yul\":14294:14336   */\n      sstore\n        /* \"#utility.yul\":14375:14376   */\n      0x01\n        /* \"#utility.yul\":14367:14373   */\n      dup3\n        /* \"#utility.yul\":14363:14377   */\n      add\n        /* \"#utility.yul\":14353:14377   */\n      swap2\n      pop\n        /* \"#utility.yul\":14422:14424   */\n      0x20\n        /* \"#utility.yul\":14411:14420   */\n      dup6\n        /* \"#utility.yul\":14407:14425   */\n      add\n        /* \"#utility.yul\":14394:14425   */\n      swap5\n      pop\n        /* \"#utility.yul\":14268:14272   */\n      0x20\n        /* \"#utility.yul\":14265:14266   */\n      dup2\n        /* \"#utility.yul\":14261:14273   */\n      add\n        /* \"#utility.yul\":14256:14273   */\n      swap1\n      pop\n        /* \"#utility.yul\":14231:14439   */\n      jump(tag_345)\n    tag_347:\n        /* \"#utility.yul\":14467:14473   */\n      dup7\n        /* \"#utility.yul\":14458:14465   */\n      dup4\n        /* \"#utility.yul\":14455:14474   */\n      lt\n        /* \"#utility.yul\":14452:14631   */\n      iszero\n      tag_348\n      jumpi\n        /* \"#utility.yul\":14525:14534   */\n      dup5\n        /* \"#utility.yul\":14520:14523   */\n      dup10\n        /* \"#utility.yul\":14516:14535   */\n      add\n        /* \"#utility.yul\":14510:14536   */\n      mload\n        /* \"#utility.yul\":14568:14616   */\n      tag_349\n        /* \"#utility.yul\":14610:14614   */\n      0x1f\n        /* \"#utility.yul\":14602:14608   */\n      dup10\n        /* \"#utility.yul\":14598:14615   */\n      and\n        /* \"#utility.yul\":14587:14596   */\n      dup3\n        /* \"#utility.yul\":14568:14616   */\n      tag_182\n      jump\t// in\n    tag_349:\n        /* \"#utility.yul\":14560:14566   */\n      dup4\n        /* \"#utility.yul\":14553:14617   */\n      sstore\n        /* \"#utility.yul\":14475:14631   */\n      pop\n        /* \"#utility.yul\":14452:14631   */\n    tag_348:\n        /* \"#utility.yul\":14677:14678   */\n      0x01\n        /* \"#utility.yul\":14673:14674   */\n      0x02\n        /* \"#utility.yul\":14665:14671   */\n      dup9\n        /* \"#utility.yul\":14661:14675   */\n      mul\n        /* \"#utility.yul\":14657:14679   */\n      add\n        /* \"#utility.yul\":14651:14655   */\n      dup9\n        /* \"#utility.yul\":14644:14680   */\n      sstore\n        /* \"#utility.yul\":14079:14690   */\n      pop\n      pop\n      pop\n        /* \"#utility.yul\":14042:14929   */\n    tag_340:\n      pop\n        /* \"#utility.yul\":13632:14935   */\n      pop\n      pop\n      pop\n        /* \"#utility.yul\":13540:14935   */\n      pop\n      pop\n      jump\t// out\n        /* \"#utility.yul\":14941:15121   */\n    tag_62:\n        /* \"#utility.yul\":14989:15066   */\n      0x4e487b7100000000000000000000000000000000000000000000000000000000\n        /* \"#utility.yul\":14986:14987   */\n      0x00\n        /* \"#utility.yul\":14979:15067   */\n      mstore\n        /* \"#utility.yul\":15086:15090   */\n      0x32\n        /* \"#utility.yul\":15083:15084   */\n      0x04\n        /* \"#utility.yul\":15076:15091   */\n      mstore\n        /* \"#utility.yul\":15110:15114   */\n      0x24\n        /* \"#utility.yul\":15107:15108   */\n      0x00\n        /* \"#utility.yul\":15100:15115   */\n      revert\n        /* \"#utility.yul\":15127:15307   */\n    tag_184:\n        /* \"#utility.yul\":15175:15252   */\n      0x4e487b7100000000000000000000000000000000000000000000000000000000\n        /* \"#utility.yul\":15172:15173   */\n      0x00\n        /* \"#utility.yul\":15165:15253   */\n      mstore\n        /* \"#utility.yul\":15272:15276   */\n      0x11\n        /* \"#utility.yul\":15269:15270   */\n      0x04\n        /* \"#utility.yul\":15262:15277   */\n      mstore\n        /* \"#utility.yul\":15296:15300   */\n      0x24\n        /* \"#utility.yul\":15293:15294   */\n      0x00\n        /* \"#utility.yul\":15286:15301   */\n      revert\n        /* \"#utility.yul\":15313:15546   */\n    tag_74:\n        /* \"#utility.yul\":15352:15355   */\n      0x00\n        /* \"#utility.yul\":15375:15399   */\n      tag_353\n        /* \"#utility.yul\":15393:15398   */\n      dup3\n        /* \"#utility.yul\":15375:15399   */\n      tag_146\n      jump\t// in\n    tag_353:\n        /* \"#utility.yul\":15366:15399   */\n      swap2\n      pop\n        /* \"#utility.yul\":15421:15487   */\n      0xffffffffffffffffffffffffffffffffffffffffffffffffffffffffffffffff\n        /* \"#utility.yul\":15414:15419   */\n      dup3\n        /* \"#utility.yul\":15411:15488   */\n      sub\n        /* \"#utility.yul\":15408:15511   */\n      tag_354\n      jumpi\n        /* \"#utility.yul\":15491:15509   */\n      tag_355\n      tag_184\n      jump\t// in\n    tag_355:\n        /* \"#utility.yul\":15408:15511   */\n    tag_354:\n        /* \"#utility.yul\":15538:15539   */\n      0x01\n        /* \"#utility.yul\":15531:15536   */\n      dup3\n        /* \"#utility.yul\":15527:15540   */\n      add\n        /* \"#utility.yul\":15520:15540   */\n      swap1\n      pop\n        /* \"#utility.yul\":15313:15546   */\n      swap2\n      swap1\n      pop\n      jump\t// out\n        /* \"#utility.yul\":15552:15699   */\n    tag_185:\n        /* \"#utility.yul\":15653:15664   */\n      0x00\n        /* \"#utility.yul\":15690:15693   */\n      dup2\n        /* \"#utility.yul\":15675:15693   */\n      swap1\n      pop\n        /* \"#utility.yul\":15552:15699   */\n      swap3\n      swap2\n      pop\n      pop\n      jump\t// out\n        /* \"#utility.yul\":15705:15849   */\n    tag_186:\n        /* \"#utility.yul\":15757:15761   */\n      0x00\n        /* \"#utility.yul\":15780:15783   */\n      dup2\n        /* \"#utility.yul\":15772:15783   */\n      swap1\n      pop\n        /* \"#utility.yul\":15803:15806   */\n      dup2\n        /* \"#utility.yul\":15800:15801   */\n      0x00\n        /* \"#utility.yul\":15793:15807   */\n      mstore\n        /* \"#utility.yul\":15837:15841   */\n      0x20\n        /* \"#utility.yul\":15834:15835   */\n      0x00\n        /* \"#utility.yul\":15824:15842   */\n      keccak256\n        /* \"#utility.yul\":15816:15842   */\n      swap1\n      pop\n        /* \"#utility.yul\":15705:15849   */\n      swap2\n      swap1\n      pop\n      jump\t// out\n        /* \"#utility.yul\":15877:16755   */\n    tag_187:\n        /* \"#utility.yul\":15982:15985   */\n      0x00\n        /* \"#utility.yul\":16019:16024   */\n      dup2\n        /* \"#utility.yul\":16013:16025   */\n      sload\n        /* \"#utility.yul\":16048:16084   */\n      tag_359\n        /* \"#utility.yul\":16074:16083   */\n      dup2\n        /* \"#utility.yul\":16048:16084   */\n      tag_43\n      jump\t// in\n    tag_359:\n        /* \"#utility.yul\":16100:16188   */\n      tag_360\n        /* \"#utility.yul\":16181:16187   */\n      dup2\n        /* \"#utility.yul\":16176:16179   */\n      dup7\n        /* \"#utility.yul\":16100:16188   */\n      tag_185\n      jump\t// in\n    tag_360:\n        /* \"#utility.yul\":16093:16188   */\n      swap5\n      pop\n        /* \"#utility.yul\":16219:16220   */\n      0x01\n        /* \"#utility.yul\":16208:16217   */\n      dup3\n        /* \"#utility.yul\":16204:16221   */\n      and\n        /* \"#utility.yul\":16235:16236   */\n      0x00\n        /* \"#utility.yul\":16230:16396   */\n      dup2\n      eq\n      tag_362\n      jumpi\n        /* \"#utility.yul\":16410:16411   */\n      0x01\n        /* \"#utility.yul\":16405:16749   */\n      dup2\n      eq\n      tag_363\n      jumpi\n        /* \"#utility.yul\":16197:16749   */\n      jump(tag_361)\n        /* \"#utility.yul\":16230:16396   */\n    tag_362:\n        /* \"#utility.yul\":16314:16318   */\n      0xff\n        /* \"#utility.yul\":16310:16319   */\n      not\n        /* \"#utility.yul\":16299:16308   */\n      dup4\n        /* \"#utility.yul\":16295:16320   */\n      and\n        /* \"#utility.yul\":16290:16293   */\n      dup7\n        /* \"#utility.yul\":16283:16321   */\n      mstore\n        /* \"#utility.yul\":16376:16382   */\n      dup2\n        /* \"#utility.yul\":16369:16383   */\n      iszero\n        /* \"#utility.yul\":16362:16384   */\n      iszero\n        /* \"#utility.yul\":16354:16360   */\n      dup3\n        /* \"#utility.yul\":16350:16385   */\n      mul\n        /* \"#utility.yul\":16345:16348   */\n      dup7\n        /* \"#utility.yul\":16341:16386   */\n      add\n        /* \"#utility.yul\":16334:16386   */\n      swap4\n      pop\n        /* \"#utility.yul\":16230:16396   */\n      jump(tag_361)\n        /* \"#utility.yul\":16405:16749   */\n    tag_363:\n        /* \"#utility.yul\":16472:16513   */\n      tag_364\n        /* \"#utility.yul\":16507:16512   */\n      dup6\n        /* \"#utility.yul\":16472:16513   */\n      tag_186\n      jump\t// in\n    tag_364:\n        /* \"#utility.yul\":16535:16536   */\n      0x00\n        /* \"#utility.yul\":16549:16703   */\n    tag_365:\n        /* \"#utility.yul\":16563:16569   */\n      dup4\n        /* \"#utility.yul\":16560:16561   */\n      dup2\n        /* \"#utility.yul\":16557:16570   */\n      lt\n        /* \"#utility.yul\":16549:16703   */\n      iszero\n      tag_367\n      jumpi\n        /* \"#utility.yul\":16637:16644   */\n      dup2\n        /* \"#utility.yul\":16631:16645   */\n      sload\n        /* \"#utility.yul\":16627:16628   */\n      dup2\n        /* \"#utility.yul\":16622:16625   */\n      dup10\n        /* \"#utility.yul\":16618:16629   */\n      add\n        /* \"#utility.yul\":16611:16646   */\n      mstore\n        /* \"#utility.yul\":16687:16688   */\n      0x01\n        /* \"#utility.yul\":16678:16685   */\n      dup3\n        /* \"#utility.yul\":16674:16689   */\n      add\n        /* \"#utility.yul\":16663:16689   */\n      swap2\n      pop\n        /* \"#utility.yul\":16585:16589   */\n      0x20\n        /* \"#utility.yul\":16582:16583   */\n      dup2\n        /* \"#utility.yul\":16578:16590   */\n      add\n        /* \"#utility.yul\":16573:16590   */\n      swap1\n      pop\n        /* \"#utility.yul\":16549:16703   */\n      jump(tag_365)\n    tag_367:\n        /* \"#utility.yul\":16732:16738   */\n      dup4\n        /* \"#utility.yul\":16727:16730   */\n      dup9\n        /* \"#utility.yul\":16723:16739   */\n      add\n        /* \"#utility.yul\":16716:16739   */\n      swap6\n      pop\n        /* \"#utility.yul\":16412:16749   */\n      pop\n      pop\n        /* \"#utility.yul\":16197:16749   */\n    tag_361:\n      pop\n        /* \"#utility.yul\":15986:16755   */\n      pop\n      pop\n        /* \"#utility.yul\":15877:16755   */\n      swap3\n      swap2\n      pop\n      pop\n      jump\t// out\n        /* \"#utility.yul\":16761:17034   */\n    tag_83:\n        /* \"#utility.yul\":16892:16895   */\n      0x00\n        /* \"#utility.yul\":16914:17008   */\n      tag_369\n        /* \"#utility.yul\":17004:17007   */\n      dup3\n        /* \"#utility.yul\":16995:17001   */\n      dup5\n        /* \"#utility.yul\":16914:17008   */\n      tag_187\n      jump\t// in\n    tag_369:\n        /* \"#utility.yul\":16907:17008   */\n      swap2\n      pop\n        /* \"#utility.yul\":17025:17028   */\n      dup2\n        /* \"#utility.yul\":17018:17028   */\n      swap1\n      pop\n        /* \"#utility.yul\":16761:17034   */\n      swap3\n      swap2\n      pop\n      pop\n      jump\t// out\n        /* \"#utility.yul\":17040:17234   */\n    tag_101:\n        /* \"#utility.yul\":17080:17084   */\n      0x00\n        /* \"#utility.yul\":17100:17120   */\n      tag_371\n        /* \"#utility.yul\":17118:17119   */\n      dup3\n        /* \"#utility.yul\":17100:17120   */\n      tag_146\n      jump\t// in\n    tag_371:\n        /* \"#utility.yul\":17095:17120   */\n      swap2\n      pop\n        /* \"#utility.yul\":17134:17154   */\n      tag_372\n        /* \"#utility.yul\":17152:17153   */\n      dup4\n        /* \"#utility.yul\":17134:17154   */\n      tag_146\n      jump\t// in\n    tag_372:\n        /* \"#utility.yul\":17129:17154   */\n      swap3\n      pop\n        /* \"#utility.yul\":17178:17179   */\n      dup3\n        /* \"#utility.yul\":17175:17176   */\n      dup3\n        /* \"#utility.yul\":17171:17180   */\n      sub\n        /* \"#utility.yul\":17163:17180   */\n      swap1\n      pop\n        /* \"#utility.yul\":17202:17203   */\n      dup2\n        /* \"#utility.yul\":17196:17200   */\n      dup2\n        /* \"#utility.yul\":17193:17204   */\n      gt\n        /* \"#utility.yul\":17190:17227   */\n      iszero\n      tag_373\n      jumpi\n        /* \"#utility.yul\":17207:17225   */\n      tag_374\n      tag_184\n      jump\t// in\n    tag_374:\n        /* \"#utility.yul\":17190:17227   */\n    tag_373:\n        /* \"#utility.yul\":17040:17234   */\n      swap3\n      swap2\n      pop\n      pop\n      jump\t// out\n        /* \"#utility.yul\":17240:17393   */\n    tag_188:\n        /* \"#utility.yul\":17293:17299   */\n      0x00\n        /* \"#utility.yul\":17327:17332   */\n      dup2\n        /* \"#utility.yul\":17321:17333   */\n      sload\n        /* \"#utility.yul\":17311:17333   */\n      swap1\n      pop\n        /* \"#utility.yul\":17353:17386   */\n      tag_376\n        /* \"#utility.yul\":17379:17385   */\n      dup2\n        /* \"#utility.yul\":17353:17386   */\n      tag_43\n      jump\t// in\n    tag_376:\n        /* \"#utility.yul\":17343:17386   */\n      swap1\n      pop\n        /* \"#utility.yul\":17240:17393   */\n      swap2\n      swap1\n      pop\n      jump\t// out\n        /* \"#utility.yul\":17399:17544   */\n    tag_189:\n        /* \"#utility.yul\":17452:17456   */\n      0x00\n        /* \"#utility.yul\":17475:17478   */\n      dup2\n        /* \"#utility.yul\":17467:17478   */\n      swap1\n      pop\n        /* \"#utility.yul\":17498:17501   */\n      dup2\n        /* \"#utility.yul\":17495:17496   */\n      0x00\n        /* \"#utility.yul\":17488:17502   */\n      mstore\n        /* \"#utility.yul\":17532:17536   */\n      0x20\n        /* \"#utility.yul\":17529:17530   */\n      0x00\n        /* \"#utility.yul\":17519:17537   */\n      keccak256\n        /* \"#utility.yul\":17511:17537   */\n      swap1\n      pop\n        /* \"#utility.yul\":17399:17544   */\n      swap2\n      swap1\n      pop\n      jump\t// out\n        /* \"#utility.yul\":17550:19013   */\n    tag_111:\n        /* \"#utility.yul\":17665:17668   */\n      dup2\n        /* \"#utility.yul\":17659:17663   */\n      dup2\n        /* \"#utility.yul\":17656:17669   */\n      sub\n        /* \"#utility.yul\":17653:17679   */\n      tag_379\n      jumpi\n        /* \"#utility.yul\":17672:17677   */\n      pop\n      pop\n      jump(tag_378)\n        /* \"#utility.yul\":17653:17679   */\n    tag_379:\n        /* \"#utility.yul\":17703:17741   */\n      tag_380\n        /* \"#utility.yul\":17737:17740   */\n      dup3\n        /* \"#utility.yul\":17703:17741   */\n      tag_188\n      jump\t// in\n    tag_380:\n        /* \"#utility.yul\":17806:17824   */\n      0xffffffffffffffff\n        /* \"#utility.yul\":17798:17804   */\n      dup2\n        /* \"#utility.yul\":17795:17825   */\n      gt\n        /* \"#utility.yul\":17792:17848   */\n      iszero\n      tag_381\n      jumpi\n        /* \"#utility.yul\":17828:17846   */\n      tag_382\n      tag_51\n      jump\t// in\n    tag_382:\n        /* \"#utility.yul\":17792:17848   */\n    tag_381:\n        /* \"#utility.yul\":17872:17910   */\n      tag_383\n        /* \"#utility.yul\":17904:17908   */\n      dup3\n        /* \"#utility.yul\":17898:17909   */\n      sload\n        /* \"#utility.yul\":17872:17910   */\n      tag_43\n      jump\t// in\n    tag_383:\n        /* \"#utility.yul\":17957:18024   */\n      tag_384\n        /* \"#utility.yul\":18017:18023   */\n      dup3\n        /* \"#utility.yul\":18009:18015   */\n      dup3\n        /* \"#utility.yul\":18003:18007   */\n      dup6\n        /* \"#utility.yul\":17957:18024   */\n      tag_180\n      jump\t// in\n    tag_384:\n        /* \"#utility.yul\":18051:18052   */\n      0x00\n        /* \"#utility.yul\":18080:18082   */\n      0x1f\n        /* \"#utility.yul\":18072:18078   */\n      dup4\n        /* \"#utility.yul\":18069:18083   */\n      gt\n        /* \"#utility.yul\":18097:18098   */\n      0x01\n        /* \"#utility.yul\":18092:18768   */\n      dup2\n      eq\n      tag_386\n      jumpi\n        /* \"#utility.yul\":18812:18813   */\n      0x00\n        /* \"#utility.yul\":18829:18835   */\n      dup5\n        /* \"#utility.yul\":18826:18903   */\n      iszero\n      tag_387\n      jumpi\n        /* \"#utility.yul\":18878:18887   */\n      dup3\n        /* \"#utility.yul\":18873:18876   */\n      dup8\n        /* \"#utility.yul\":18869:18888   */\n      add\n        /* \"#utility.yul\":18863:18889   */\n      sload\n        /* \"#utility.yul\":18854:18889   */\n      swap1\n      pop\n        /* \"#utility.yul\":18826:18903   */\n    tag_387:\n        /* \"#utility.yul\":18929:18996   */\n      tag_388\n        /* \"#utility.yul\":18989:18995   */\n      dup6\n        /* \"#utility.yul\":18982:18987   */\n      dup3\n        /* \"#utility.yul\":18929:18996   */\n      tag_183\n      jump\t// in\n    tag_388:\n        /* \"#utility.yul\":18923:18927   */\n      dup7\n        /* \"#utility.yul\":18916:18997   */\n      sstore\n        /* \"#utility.yul\":18785:19007   */\n      pop\n        /* \"#utility.yul\":18062:19007   */\n      jump(tag_385)\n        /* \"#utility.yul\":18092:18768   */\n    tag_386:\n        /* \"#utility.yul\":18144:18148   */\n      0x1f\n        /* \"#utility.yul\":18140:18149   */\n      not\n        /* \"#utility.yul\":18132:18138   */\n      dup5\n        /* \"#utility.yul\":18128:18150   */\n      and\n        /* \"#utility.yul\":18170:18210   */\n      tag_389\n        /* \"#utility.yul\":18206:18209   */\n      dup8\n        /* \"#utility.yul\":18170:18210   */\n      tag_189\n      jump\t// in\n    tag_389:\n        /* \"#utility.yul\":18163:18210   */\n      swap7\n      pop\n        /* \"#utility.yul\":18237:18274   */\n      tag_390\n        /* \"#utility.yul\":18269:18273   */\n      dup7\n        /* \"#utility.yul\":18237:18274   */\n      tag_169\n      jump\t// in\n    tag_390:\n        /* \"#utility.yul\":18296:18297   */\n      0x00\n        /* \"#utility.yul\":18310:18517   */\n    tag_391:\n        /* \"#utility.yul\":18324:18331   */\n      dup3\n        /* \"#utility.yul\":18321:18322   */\n      dup2\n        /* \"#utility.yul\":18318:18332   */\n      lt\n        /* \"#utility.yul\":18310:18517   */\n      iszero\n      tag_393\n      jumpi\n        /* \"#utility.yul\":18403:18412   */\n      dup5\n        /* \"#utility.yul\":18398:18401   */\n      dup10\n        /* \"#utility.yul\":18394:18413   */\n      add\n        /* \"#utility.yul\":18388:18414   */\n      sload\n        /* \"#utility.yul\":18380:18386   */\n      dup3\n        /* \"#utility.yul\":18373:18415   */\n      sstore\n        /* \"#utility.yul\":18454:18455   */\n      0x01\n        /* \"#utility.yul\":18446:18452   */\n      dup3\n        /* \"#utility.yul\":18442:18456   */\n      add\n        /* \"#utility.yul\":18432:18456   */\n      swap2\n      pop\n        /* \"#utility.yul\":18501:18502   */\n      0x01\n        /* \"#utility.yul\":18490:18499   */\n      dup6\n        /* \"#utility.yul\":18486:18503   */\n      add\n        /* \"#utility.yul\":18473:18503   */\n      swap5\n      pop\n        /* \"#utility.yul\":18347:18351   */\n      0x20\n        /* \"#utility.yul\":18344:18345   */\n      dup2\n        /* \"#utility.yul\":18340:18352   */\n      add\n        /* \"#utility.yul\":18335:18352   */\n      swap1\n      pop\n        /* \"#utility.yul\":18310:18517   */\n      jump(tag_391)\n    tag_393:\n        /* \"#utility.yul\":18545:18551   */\n      dup7\n        /* \"#utility.yul\":18536:18543   */\n      dup4\n        /* \"#utility.yul\":18533:18552   */\n      lt\n        /* \"#utility.yul\":18530:18709   */\n      iszero\n      tag_394\n      jumpi\n        /* \"#utility.yul\":18603:18612   */\n      dup5\n        /* \"#utility.yul\":18598:18601   */\n      dup10\n        /* \"#utility.yul\":18594:18613   */\n      add\n        /* \"#utility.yul\":18588:18614   */\n      sload\n        /* \"#utility.yul\":18646:18694   */\n      tag_395\n        /* \"#utility.yul\":18688:18692   */\n      0x1f\n        /* \"#utility.yul\":18680:18686   */\n      dup10\n        /* \"#utility.yul\":18676:18693   */\n      and\n        /* \"#utility.yul\":18665:18674   */\n      dup3\n        /* \"#utility.yul\":18646:18694   */\n      tag_182\n      jump\t// in\n    tag_395:\n        /* \"#utility.yul\":18638:18644   */\n      dup4\n        /* \"#utility.yul\":18631:18695   */\n      sstore\n        /* \"#utility.yul\":18553:18709   */\n      pop\n        /* \"#utility.yul\":18530:18709   */\n    tag_394:\n        /* \"#utility.yul\":18755:18756   */\n      0x01\n        /* \"#utility.yul\":18751:18752   */\n      0x02\n        /* \"#utility.yul\":18743:18749   */\n      dup9\n        /* \"#utility.yul\":18739:18753   */\n      mul\n        /* \"#utility.yul\":18735:18757   */\n      add\n        /* \"#utility.yul\":18729:18733   */\n      dup9\n        /* \"#utility.yul\":18722:18758   */\n      sstore\n        /* \"#utility.yul\":18099:18768   */\n      pop\n      pop\n      pop\n        /* \"#utility.yul\":18062:19007   */\n    tag_385:\n      pop\n        /* \"#utility.yul\":17643:19013   */\n      pop\n      pop\n      pop\n        /* \"#utility.yul\":17550:19013   */\n      pop\n      pop\n    tag_378:\n      jump\t// out\n        /* \"#utility.yul\":19019:19199   */\n    tag_114:\n        /* \"#utility.yul\":19067:19144   */\n      0x4e487b7100000000000000000000000000000000000000000000000000000000\n        /* \"#utility.yul\":19064:19065   */\n      0x00\n        /* \"#utility.yul\":19057:19145   */\n      mstore\n        /* \"#utility.yul\":19164:19168   */\n      0x31\n        /* \"#utility.yul\":19161:19162   */\n      0x04\n        /* \"#utility.yul\":19154:19169   */\n      mstore\n        /* \"#utility.yul\":19188:19192   */\n      0x24\n        /* \"#utility.yul\":19185:19186   */\n      0x00\n        /* \"#utility.yul\":19178:19193   */\n      revert\n\n    auxdata: 0xa264697066735822122025d84777d98f280ec3cbe75ee9cedb4ae3ba36e49324608d071d5c2a9b66ecd464736f6c63430008110033\n}\n",
				"bytecode": {
					"linkReferences": {},
					"object": "608060405234801561001057600080fd5b5061117b806100206000396000f3fe6080604052600436106100555760003560e01c806311456b471461005a5780634f348b951461008357806352dc3caa146100c05780636b2f1653146100ec578063c51c06e114610108578063fb8cbced14610124575b600080fd5b34801561006657600080fd5b50610081600480360381019061007c9190610821565b61014f565b005b34801561008f57600080fd5b506100aa60048036038101906100a591906108a0565b610187565b6040516100b7919061094c565b60405180910390f35b3480156100cc57600080fd5b506100d5610233565b6040516100e3929190610b38565b60405180910390f35b61010660048036038101906101019190610821565b6103f2565b005b610122600480360381019061011d9190610821565b610483565b005b34801561013057600080fd5b50610139610591565b6040516101469190610b6f565b60405180910390f35b6000819080600181540180825580915050600190039060005260206000200160009091909190915090816101839190610d9d565b5050565b6000818154811061019757600080fd5b9060005260206000200160009150905080546101b290610bc0565b80601f01602080910402602001604051908101604052809291908181526020018280546101de90610bc0565b801561022b5780601f106102005761010080835404028352916020019161022b565b820191906000526020600020905b81548152906001019060200180831161020e57829003601f168201915b505050505081565b6060806000808054905067ffffffffffffffff811115610256576102556106f6565b5b6040519080825280602002602001820160405280156102845781602001602082028036833780820191505090505b5090506000808054905067ffffffffffffffff8111156102a7576102a66106f6565b5b6040519080825280602002602001820160405280156102da57816020015b60608152602001906001900390816102c55790505b50905060005b6000805490508110156103e5578083828151811061030157610300610e6f565b5b6020026020010181815250506000818154811061032157610320610e6f565b5b90600052602060002001805461033690610bc0565b80601f016020809104026020016040519081016040528092919081815260200182805461036290610bc0565b80156103af5780601f10610384576101008083540402835291602001916103af565b820191906000526020600020905b81548152906001019060200180831161039257829003601f168201915b50505050508282815181106103c7576103c6610e6f565b5b602002602001018190525080806103dd90610ecd565b9150506102e0565b5081819350935050509091565b60005b600080549050811161047f5781805190602001206000828154811061041d5761041c610e6f565b5b906000526020600020016040516104349190610fb8565b60405180910390200361046c576000818154811061045557610454610e6f565b5b90600052602060002001600061046b919061066a565b5b808061047790610ecd565b9150506103f5565b5050565b60005b600080549050811161058d578180519060200120600082815481106104ae576104ad610e6f565b5b906000526020600020016040516104c59190610fb8565b60405180910390200361057a5760016000805490506104e49190610fcf565b811461054557600060016000805490506104fe9190610fcf565b8154811061050f5761050e610e6f565b5b906000526020600020016000828154811061052d5761052c610e6f565b5b906000526020600020019081610543919061102e565b505b600080548061055757610556611116565b5b600190038181906000526020600020016000610573919061066a565b905561058d565b808061058590610ecd565b915050610486565b5050565b60606000805480602002602001604051908101604052809291908181526020016000905b828210156106615783829060005260206000200180546105d490610bc0565b80601f016020809104026020016040519081016040528092919081815260200182805461060090610bc0565b801561064d5780601f106106225761010080835404028352916020019161064d565b820191906000526020600020905b81548152906001019060200180831161063057829003601f168201915b5050505050815260200190600101906105b5565b50505050905090565b50805461067690610bc0565b6000825580601f1061068857506106a7565b601f0160209004906000526020600020908101906106a691906106aa565b5b50565b5b808211156106c35760008160009055506001016106ab565b5090565b6000604051905090565b600080fd5b600080fd5b600080fd5b600080fd5b6000601f19601f8301169050919050565b7f4e487b7100000000000000000000000000000000000000000000000000000000600052604160045260246000fd5b61072e826106e5565b810181811067ffffffffffffffff8211171561074d5761074c6106f6565b5b80604052505050565b60006107606106c7565b905061076c8282610725565b919050565b600067ffffffffffffffff82111561078c5761078b6106f6565b5b610795826106e5565b9050602081019050919050565b82818337600083830152505050565b60006107c46107bf84610771565b610756565b9050828152602081018484840111156107e0576107df6106e0565b5b6107eb8482856107a2565b509392505050565b600082601f830112610808576108076106db565b5b81356108188482602086016107b1565b91505092915050565b600060208284031215610837576108366106d1565b5b600082013567ffffffffffffffff811115610855576108546106d6565b5b610861848285016107f3565b91505092915050565b6000819050919050565b61087d8161086a565b811461088857600080fd5b50565b60008135905061089a81610874565b92915050565b6000602082840312156108b6576108b56106d1565b5b60006108c48482850161088b565b91505092915050565b600081519050919050565b600082825260208201905092915050565b60005b838110156109075780820151818401526020810190506108ec565b60008484015250505050565b600061091e826108cd565b61092881856108d8565b93506109388185602086016108e9565b610941816106e5565b840191505092915050565b600060208201905081810360008301526109668184610913565b905092915050565b600081519050919050565b600082825260208201905092915050565b6000819050602082019050919050565b6109a38161086a565b82525050565b60006109b5838361099a565b60208301905092915050565b6000602082019050919050565b60006109d98261096e565b6109e38185610979565b93506109ee8361098a565b8060005b83811015610a1f578151610a0688826109a9565b9750610a11836109c1565b9250506001810190506109f2565b5085935050505092915050565b600081519050919050565b600082825260208201905092915050565b6000819050602082019050919050565b600082825260208201905092915050565b6000610a74826108cd565b610a7e8185610a58565b9350610a8e8185602086016108e9565b610a97816106e5565b840191505092915050565b6000610aae8383610a69565b905092915050565b6000602082019050919050565b6000610ace82610a2c565b610ad88185610a37565b935083602082028501610aea85610a48565b8060005b85811015610b265784840389528151610b078582610aa2565b9450610b1283610ab6565b925060208a01995050600181019050610aee565b50829750879550505050505092915050565b60006040820190508181036000830152610b5281856109ce565b90508181036020830152610b668184610ac3565b90509392505050565b60006020820190508181036000830152610b898184610ac3565b905092915050565b7f4e487b7100000000000000000000000000000000000000000000000000000000600052602260045260246000fd5b60006002820490506001821680610bd857607f821691505b602082108103610beb57610bea610b91565b5b50919050565b60008190508160005260206000209050919050565b60006020601f8301049050919050565b600082821b905092915050565b600060088302610c537fffffffffffffffffffffffffffffffffffffffffffffffffffffffffffffffff82610c16565b610c5d8683610c16565b95508019841693508086168417925050509392505050565b6000819050919050565b6000610c9a610c95610c908461086a565b610c75565b61086a565b9050919050565b6000819050919050565b610cb483610c7f565b610cc8610cc082610ca1565b848454610c23565b825550505050565b600090565b610cdd610cd0565b610ce8818484610cab565b505050565b5b81811015610d0c57610d01600082610cd5565b600181019050610cee565b5050565b601f821115610d5157610d2281610bf1565b610d2b84610c06565b81016020851015610d3a578190505b610d4e610d4685610c06565b830182610ced565b50505b505050565b600082821c905092915050565b6000610d7460001984600802610d56565b1980831691505092915050565b6000610d8d8383610d63565b9150826002028217905092915050565b610da6826108cd565b67ffffffffffffffff811115610dbf57610dbe6106f6565b5b610dc98254610bc0565b610dd4828285610d10565b600060209050601f831160018114610e075760008415610df5578287015190505b610dff8582610d81565b865550610e67565b601f198416610e1586610bf1565b60005b82811015610e3d57848901518255600182019150602085019450602081019050610e18565b86831015610e5a5784890151610e56601f891682610d63565b8355505b6001600288020188555050505b505050505050565b7f4e487b7100000000000000000000000000000000000000000000000000000000600052603260045260246000fd5b7f4e487b7100000000000000000000000000000000000000000000000000000000600052601160045260246000fd5b6000610ed88261086a565b91507fffffffffffffffffffffffffffffffffffffffffffffffffffffffffffffffff8203610f0a57610f09610e9e565b5b600182019050919050565b600081905092915050565b60008190508160005260206000209050919050565b60008154610f4281610bc0565b610f4c8186610f15565b94506001821660008114610f675760018114610f7c57610faf565b60ff1983168652811515820286019350610faf565b610f8585610f20565b60005b83811015610fa757815481890152600182019150602081019050610f88565b838801955050505b50505092915050565b6000610fc48284610f35565b915081905092915050565b6000610fda8261086a565b9150610fe58361086a565b9250828203905081811115610ffd57610ffc610e9e565b5b92915050565b60008154905061101281610bc0565b9050919050565b60008190508160005260206000209050919050565b81810361103c575050611114565b61104582611003565b67ffffffffffffffff81111561105e5761105d6106f6565b5b6110688254610bc0565b611073828285610d10565b6000601f8311600181146110a25760008415611090578287015490505b61109a8582610d81565b86555061110d565b601f1984166110b087611019565b96506110bb86610bf1565b60005b828110156110e3578489015482556001820191506001850194506020810190506110be565b8683101561110057848901546110fc601f891682610d63565b8355505b6001600288020188555050505b5050505050505b565b7f4e487b7100000000000000000000000000000000000000000000000000000000600052603160045260246000fdfea264697066735822122025d84777d98f280ec3cbe75ee9cedb4ae3ba36e49324608d071d5c2a9b66ecd464736f6c63430008110033",
					"opcodes": "PUSH1 0x80 PUSH1 0x40 MSTORE CALLVALUE DUP1 ISZERO PUSH2 0x10 JUMPI PUSH1 0x0 DUP1 REVERT JUMPDEST POP PUSH2 0x117B DUP1 PUSH2 0x20 PUSH1 0x0 CODECOPY PUSH1 0x0 RETURN INVALID PUSH1 0x80 PUSH1 0x40 MSTORE PUSH1 0x4 CALLDATASIZE LT PUSH2 0x55 JUMPI PUSH1 0x0 CALLDATALOAD PUSH1 0xE0 SHR DUP1 PUSH4 0x11456B47 EQ PUSH2 0x5A JUMPI DUP1 PUSH4 0x4F348B95 EQ PUSH2 0x83 JUMPI DUP1 PUSH4 0x52DC3CAA EQ PUSH2 0xC0 JUMPI DUP1 PUSH4 0x6B2F1653 EQ PUSH2 0xEC JUMPI DUP1 PUSH4 0xC51C06E1 EQ PUSH2 0x108 JUMPI DUP1 PUSH4 0xFB8CBCED EQ PUSH2 0x124 JUMPI JUMPDEST PUSH1 0x0 DUP1 REVERT JUMPDEST CALLVALUE DUP1 ISZERO PUSH2 0x66 JUMPI PUSH1 0x0 DUP1 REVERT JUMPDEST POP PUSH2 0x81 PUSH1 0x4 DUP1 CALLDATASIZE SUB DUP2 ADD SWAP1 PUSH2 0x7C SWAP2 SWAP1 PUSH2 0x821 JUMP JUMPDEST PUSH2 0x14F JUMP JUMPDEST STOP JUMPDEST CALLVALUE DUP1 ISZERO PUSH2 0x8F JUMPI PUSH1 0x0 DUP1 REVERT JUMPDEST POP PUSH2 0xAA PUSH1 0x4 DUP1 CALLDATASIZE SUB DUP2 ADD SWAP1 PUSH2 0xA5 SWAP2 SWAP1 PUSH2 0x8A0 JUMP JUMPDEST PUSH2 0x187 JUMP JUMPDEST PUSH1 0x40 MLOAD PUSH2 0xB7 SWAP2 SWAP1 PUSH2 0x94C JUMP JUMPDEST PUSH1 0x40 MLOAD DUP1 SWAP2 SUB SWAP1 RETURN JUMPDEST CALLVALUE DUP1 ISZERO PUSH2 0xCC JUMPI PUSH1 0x0 DUP1 REVERT JUMPDEST POP PUSH2 0xD5 PUSH2 0x233 JUMP JUMPDEST PUSH1 0x40 MLOAD PUSH2 0xE3 SWAP3 SWAP2 SWAP1 PUSH2 0xB38 JUMP JUMPDEST PUSH1 0x40 MLOAD DUP1 SWAP2 SUB SWAP1 RETURN JUMPDEST PUSH2 0x106 PUSH1 0x4 DUP1 CALLDATASIZE SUB DUP2 ADD SWAP1 PUSH2 0x101 SWAP2 SWAP1 PUSH2 0x821 JUMP JUMPDEST PUSH2 0x3F2 JUMP JUMPDEST STOP JUMPDEST PUSH2 0x122 PUSH1 0x4 DUP1 CALLDATASIZE SUB DUP2 ADD SWAP1 PUSH2 0x11D SWAP2 SWAP1 PUSH2 0x821 JUMP JUMPDEST PUSH2 0x483 JUMP JUMPDEST STOP JUMPDEST CALLVALUE DUP1 ISZERO PUSH2 0x130 JUMPI PUSH1 0x0 DUP1 REVERT JUMPDEST POP PUSH2 0x139 PUSH2 0x591 JUMP JUMPDEST PUSH1 0x40 MLOAD PUSH2 0x146 SWAP2 SWAP1 PUSH2 0xB6F JUMP JUMPDEST PUSH1 0x40 MLOAD DUP1 SWAP2 SUB SWAP1 RETURN JUMPDEST PUSH1 0x0 DUP2 SWAP1 DUP1 PUSH1 0x1 DUP2 SLOAD ADD DUP1 DUP3 SSTORE DUP1 SWAP2 POP POP PUSH1 0x1 SWAP1 SUB SWAP1 PUSH1 0x0 MSTORE PUSH1 0x20 PUSH1 0x0 KECCAK256 ADD PUSH1 0x0 SWAP1 SWAP2 SWAP1 SWAP2 SWAP1 SWAP2 POP SWAP1 DUP2 PUSH2 0x183 SWAP2 SWAP1 PUSH2 0xD9D JUMP JUMPDEST POP POP JUMP JUMPDEST PUSH1 0x0 DUP2 DUP2 SLOAD DUP2 LT PUSH2 0x197 JUMPI PUSH1 0x0 DUP1 REVERT JUMPDEST SWAP1 PUSH1 0x0 MSTORE PUSH1 0x20 PUSH1 0x0 KECCAK256 ADD PUSH1 0x0 SWAP2 POP SWAP1 POP DUP1 SLOAD PUSH2 0x1B2 SWAP1 PUSH2 0xBC0 JUMP JUMPDEST DUP1 PUSH1 0x1F ADD PUSH1 0x20 DUP1 SWAP2 DIV MUL PUSH1 0x20 ADD PUSH1 0x40 MLOAD SWAP1 DUP2 ADD PUSH1 0x40 MSTORE DUP1 SWAP3 SWAP2 SWAP1 DUP2 DUP2 MSTORE PUSH1 0x20 ADD DUP3 DUP1 SLOAD PUSH2 0x1DE SWAP1 PUSH2 0xBC0 JUMP JUMPDEST DUP1 ISZERO PUSH2 0x22B JUMPI DUP1 PUSH1 0x1F LT PUSH2 0x200 JUMPI PUSH2 0x100 DUP1 DUP4 SLOAD DIV MUL DUP4 MSTORE SWAP2 PUSH1 0x20 ADD SWAP2 PUSH2 0x22B JUMP JUMPDEST DUP3 ADD SWAP2 SWAP1 PUSH1 0x0 MSTORE PUSH1 0x20 PUSH1 0x0 KECCAK256 SWAP1 JUMPDEST DUP2 SLOAD DUP2 MSTORE SWAP1 PUSH1 0x1 ADD SWAP1 PUSH1 0x20 ADD DUP1 DUP4 GT PUSH2 0x20E JUMPI DUP3 SWAP1 SUB PUSH1 0x1F AND DUP3 ADD SWAP2 JUMPDEST POP POP POP POP POP DUP2 JUMP JUMPDEST PUSH1 0x60 DUP1 PUSH1 0x0 DUP1 DUP1 SLOAD SWAP1 POP PUSH8 0xFFFFFFFFFFFFFFFF DUP2 GT ISZERO PUSH2 0x256 JUMPI PUSH2 0x255 PUSH2 0x6F6 JUMP JUMPDEST JUMPDEST PUSH1 0x40 MLOAD SWAP1 DUP1 DUP3 MSTORE DUP1 PUSH1 0x20 MUL PUSH1 0x20 ADD DUP3 ADD PUSH1 0x40 MSTORE DUP1 ISZERO PUSH2 0x284 JUMPI DUP2 PUSH1 0x20 ADD PUSH1 0x20 DUP3 MUL DUP1 CALLDATASIZE DUP4 CALLDATACOPY DUP1 DUP3 ADD SWAP2 POP POP SWAP1 POP JUMPDEST POP SWAP1 POP PUSH1 0x0 DUP1 DUP1 SLOAD SWAP1 POP PUSH8 0xFFFFFFFFFFFFFFFF DUP2 GT ISZERO PUSH2 0x2A7 JUMPI PUSH2 0x2A6 PUSH2 0x6F6 JUMP JUMPDEST JUMPDEST PUSH1 0x40 MLOAD SWAP1 DUP1 DUP3 MSTORE DUP1 PUSH1 0x20 MUL PUSH1 0x20 ADD DUP3 ADD PUSH1 0x40 MSTORE DUP1 ISZERO PUSH2 0x2DA JUMPI DUP2 PUSH1 0x20 ADD JUMPDEST PUSH1 0x60 DUP2 MSTORE PUSH1 0x20 ADD SWAP1 PUSH1 0x1 SWAP1 SUB SWAP1 DUP2 PUSH2 0x2C5 JUMPI SWAP1 POP JUMPDEST POP SWAP1 POP PUSH1 0x0 JUMPDEST PUSH1 0x0 DUP1 SLOAD SWAP1 POP DUP2 LT ISZERO PUSH2 0x3E5 JUMPI DUP1 DUP4 DUP3 DUP2 MLOAD DUP2 LT PUSH2 0x301 JUMPI PUSH2 0x300 PUSH2 0xE6F JUMP JUMPDEST JUMPDEST PUSH1 0x20 MUL PUSH1 0x20 ADD ADD DUP2 DUP2 MSTORE POP POP PUSH1 0x0 DUP2 DUP2 SLOAD DUP2 LT PUSH2 0x321 JUMPI PUSH2 0x320 PUSH2 0xE6F JUMP JUMPDEST JUMPDEST SWAP1 PUSH1 0x0 MSTORE PUSH1 0x20 PUSH1 0x0 KECCAK256 ADD DUP1 SLOAD PUSH2 0x336 SWAP1 PUSH2 0xBC0 JUMP JUMPDEST DUP1 PUSH1 0x1F ADD PUSH1 0x20 DUP1 SWAP2 DIV MUL PUSH1 0x20 ADD PUSH1 0x40 MLOAD SWAP1 DUP2 ADD PUSH1 0x40 MSTORE DUP1 SWAP3 SWAP2 SWAP1 DUP2 DUP2 MSTORE PUSH1 0x20 ADD DUP3 DUP1 SLOAD PUSH2 0x362 SWAP1 PUSH2 0xBC0 JUMP JUMPDEST DUP1 ISZERO PUSH2 0x3AF JUMPI DUP1 PUSH1 0x1F LT PUSH2 0x384 JUMPI PUSH2 0x100 DUP1 DUP4 SLOAD DIV MUL DUP4 MSTORE SWAP2 PUSH1 0x20 ADD SWAP2 PUSH2 0x3AF JUMP JUMPDEST DUP3 ADD SWAP2 SWAP1 PUSH1 0x0 MSTORE PUSH1 0x20 PUSH1 0x0 KECCAK256 SWAP1 JUMPDEST DUP2 SLOAD DUP2 MSTORE SWAP1 PUSH1 0x1 ADD SWAP1 PUSH1 0x20 ADD DUP1 DUP4 GT PUSH2 0x392 JUMPI DUP3 SWAP1 SUB PUSH1 0x1F AND DUP3 ADD SWAP2 JUMPDEST POP POP POP POP POP DUP3 DUP3 DUP2 MLOAD DUP2 LT PUSH2 0x3C7 JUMPI PUSH2 0x3C6 PUSH2 0xE6F JUMP JUMPDEST JUMPDEST PUSH1 0x20 MUL PUSH1 0x20 ADD ADD DUP2 SWAP1 MSTORE POP DUP1 DUP1 PUSH2 0x3DD SWAP1 PUSH2 0xECD JUMP JUMPDEST SWAP2 POP POP PUSH2 0x2E0 JUMP JUMPDEST POP DUP2 DUP2 SWAP4 POP SWAP4 POP POP POP SWAP1 SWAP2 JUMP JUMPDEST PUSH1 0x0 JUMPDEST PUSH1 0x0 DUP1 SLOAD SWAP1 POP DUP2 GT PUSH2 0x47F JUMPI DUP2 DUP1 MLOAD SWAP1 PUSH1 0x20 ADD KECCAK256 PUSH1 0x0 DUP3 DUP2 SLOAD DUP2 LT PUSH2 0x41D JUMPI PUSH2 0x41C PUSH2 0xE6F JUMP JUMPDEST JUMPDEST SWAP1 PUSH1 0x0 MSTORE PUSH1 0x20 PUSH1 0x0 KECCAK256 ADD PUSH1 0x40 MLOAD PUSH2 0x434 SWAP2 SWAP1 PUSH2 0xFB8 JUMP JUMPDEST PUSH1 0x40 MLOAD DUP1 SWAP2 SUB SWAP1 KECCAK256 SUB PUSH2 0x46C JUMPI PUSH1 0x0 DUP2 DUP2 SLOAD DUP2 LT PUSH2 0x455 JUMPI PUSH2 0x454 PUSH2 0xE6F JUMP JUMPDEST JUMPDEST SWAP1 PUSH1 0x0 MSTORE PUSH1 0x20 PUSH1 0x0 KECCAK256 ADD PUSH1 0x0 PUSH2 0x46B SWAP2 SWAP1 PUSH2 0x66A JUMP JUMPDEST JUMPDEST DUP1 DUP1 PUSH2 0x477 SWAP1 PUSH2 0xECD JUMP JUMPDEST SWAP2 POP POP PUSH2 0x3F5 JUMP JUMPDEST POP POP JUMP JUMPDEST PUSH1 0x0 JUMPDEST PUSH1 0x0 DUP1 SLOAD SWAP1 POP DUP2 GT PUSH2 0x58D JUMPI DUP2 DUP1 MLOAD SWAP1 PUSH1 0x20 ADD KECCAK256 PUSH1 0x0 DUP3 DUP2 SLOAD DUP2 LT PUSH2 0x4AE JUMPI PUSH2 0x4AD PUSH2 0xE6F JUMP JUMPDEST JUMPDEST SWAP1 PUSH1 0x0 MSTORE PUSH1 0x20 PUSH1 0x0 KECCAK256 ADD PUSH1 0x40 MLOAD PUSH2 0x4C5 SWAP2 SWAP1 PUSH2 0xFB8 JUMP JUMPDEST PUSH1 0x40 MLOAD DUP1 SWAP2 SUB SWAP1 KECCAK256 SUB PUSH2 0x57A JUMPI PUSH1 0x1 PUSH1 0x0 DUP1 SLOAD SWAP1 POP PUSH2 0x4E4 SWAP2 SWAP1 PUSH2 0xFCF JUMP JUMPDEST DUP2 EQ PUSH2 0x545 JUMPI PUSH1 0x0 PUSH1 0x1 PUSH1 0x0 DUP1 SLOAD SWAP1 POP PUSH2 0x4FE SWAP2 SWAP1 PUSH2 0xFCF JUMP JUMPDEST DUP2 SLOAD DUP2 LT PUSH2 0x50F JUMPI PUSH2 0x50E PUSH2 0xE6F JUMP JUMPDEST JUMPDEST SWAP1 PUSH1 0x0 MSTORE PUSH1 0x20 PUSH1 0x0 KECCAK256 ADD PUSH1 0x0 DUP3 DUP2 SLOAD DUP2 LT PUSH2 0x52D JUMPI PUSH2 0x52C PUSH2 0xE6F JUMP JUMPDEST JUMPDEST SWAP1 PUSH1 0x0 MSTORE PUSH1 0x20 PUSH1 0x0 KECCAK256 ADD SWAP1 DUP2 PUSH2 0x543 SWAP2 SWAP1 PUSH2 0x102E JUMP JUMPDEST POP JUMPDEST PUSH1 0x0 DUP1 SLOAD DUP1 PUSH2 0x557 JUMPI PUSH2 0x556 PUSH2 0x1116 JUMP JUMPDEST JUMPDEST PUSH1 0x1 SWAP1 SUB DUP2 DUP2 SWAP1 PUSH1 0x0 MSTORE PUSH1 0x20 PUSH1 0x0 KECCAK256 ADD PUSH1 0x0 PUSH2 0x573 SWAP2 SWAP1 PUSH2 0x66A JUMP JUMPDEST SWAP1 SSTORE PUSH2 0x58D JUMP JUMPDEST DUP1 DUP1 PUSH2 0x585 SWAP1 PUSH2 0xECD JUMP JUMPDEST SWAP2 POP POP PUSH2 0x486 JUMP JUMPDEST POP POP JUMP JUMPDEST PUSH1 0x60 PUSH1 0x0 DUP1 SLOAD DUP1 PUSH1 0x20 MUL PUSH1 0x20 ADD PUSH1 0x40 MLOAD SWAP1 DUP2 ADD PUSH1 0x40 MSTORE DUP1 SWAP3 SWAP2 SWAP1 DUP2 DUP2 MSTORE PUSH1 0x20 ADD PUSH1 0x0 SWAP1 JUMPDEST DUP3 DUP3 LT ISZERO PUSH2 0x661 JUMPI DUP4 DUP3 SWAP1 PUSH1 0x0 MSTORE PUSH1 0x20 PUSH1 0x0 KECCAK256 ADD DUP1 SLOAD PUSH2 0x5D4 SWAP1 PUSH2 0xBC0 JUMP JUMPDEST DUP1 PUSH1 0x1F ADD PUSH1 0x20 DUP1 SWAP2 DIV MUL PUSH1 0x20 ADD PUSH1 0x40 MLOAD SWAP1 DUP2 ADD PUSH1 0x40 MSTORE DUP1 SWAP3 SWAP2 SWAP1 DUP2 DUP2 MSTORE PUSH1 0x20 ADD DUP3 DUP1 SLOAD PUSH2 0x600 SWAP1 PUSH2 0xBC0 JUMP JUMPDEST DUP1 ISZERO PUSH2 0x64D JUMPI DUP1 PUSH1 0x1F LT PUSH2 0x622 JUMPI PUSH2 0x100 DUP1 DUP4 SLOAD DIV MUL DUP4 MSTORE SWAP2 PUSH1 0x20 ADD SWAP2 PUSH2 0x64D JUMP JUMPDEST DUP3 ADD SWAP2 SWAP1 PUSH1 0x0 MSTORE PUSH1 0x20 PUSH1 0x0 KECCAK256 SWAP1 JUMPDEST DUP2 SLOAD DUP2 MSTORE SWAP1 PUSH1 0x1 ADD SWAP1 PUSH1 0x20 ADD DUP1 DUP4 GT PUSH2 0x630 JUMPI DUP3 SWAP1 SUB PUSH1 0x1F AND DUP3 ADD SWAP2 JUMPDEST POP POP POP POP POP DUP2 MSTORE PUSH1 0x20 ADD SWAP1 PUSH1 0x1 ADD SWAP1 PUSH2 0x5B5 JUMP JUMPDEST POP POP POP POP SWAP1 POP SWAP1 JUMP JUMPDEST POP DUP1 SLOAD PUSH2 0x676 SWAP1 PUSH2 0xBC0 JUMP JUMPDEST PUSH1 0x0 DUP3 SSTORE DUP1 PUSH1 0x1F LT PUSH2 0x688 JUMPI POP PUSH2 0x6A7 JUMP JUMPDEST PUSH1 0x1F ADD PUSH1 0x20 SWAP1 DIV SWAP1 PUSH1 0x0 MSTORE PUSH1 0x20 PUSH1 0x0 KECCAK256 SWAP1 DUP2 ADD SWAP1 PUSH2 0x6A6 SWAP2 SWAP1 PUSH2 0x6AA JUMP JUMPDEST JUMPDEST POP JUMP JUMPDEST JUMPDEST DUP1 DUP3 GT ISZERO PUSH2 0x6C3 JUMPI PUSH1 0x0 DUP2 PUSH1 0x0 SWAP1 SSTORE POP PUSH1 0x1 ADD PUSH2 0x6AB JUMP JUMPDEST POP SWAP1 JUMP JUMPDEST PUSH1 0x0 PUSH1 0x40 MLOAD SWAP1 POP SWAP1 JUMP JUMPDEST PUSH1 0x0 DUP1 REVERT JUMPDEST PUSH1 0x0 DUP1 REVERT JUMPDEST PUSH1 0x0 DUP1 REVERT JUMPDEST PUSH1 0x0 DUP1 REVERT JUMPDEST PUSH1 0x0 PUSH1 0x1F NOT PUSH1 0x1F DUP4 ADD AND SWAP1 POP SWAP2 SWAP1 POP JUMP JUMPDEST PUSH32 0x4E487B7100000000000000000000000000000000000000000000000000000000 PUSH1 0x0 MSTORE PUSH1 0x41 PUSH1 0x4 MSTORE PUSH1 0x24 PUSH1 0x0 REVERT JUMPDEST PUSH2 0x72E DUP3 PUSH2 0x6E5 JUMP JUMPDEST DUP2 ADD DUP2 DUP2 LT PUSH8 0xFFFFFFFFFFFFFFFF DUP3 GT OR ISZERO PUSH2 0x74D JUMPI PUSH2 0x74C PUSH2 0x6F6 JUMP JUMPDEST JUMPDEST DUP1 PUSH1 0x40 MSTORE POP POP POP JUMP JUMPDEST PUSH1 0x0 PUSH2 0x760 PUSH2 0x6C7 JUMP JUMPDEST SWAP1 POP PUSH2 0x76C DUP3 DUP3 PUSH2 0x725 JUMP JUMPDEST SWAP2 SWAP1 POP JUMP JUMPDEST PUSH1 0x0 PUSH8 0xFFFFFFFFFFFFFFFF DUP3 GT ISZERO PUSH2 0x78C JUMPI PUSH2 0x78B PUSH2 0x6F6 JUMP JUMPDEST JUMPDEST PUSH2 0x795 DUP3 PUSH2 0x6E5 JUMP JUMPDEST SWAP1 POP PUSH1 0x20 DUP2 ADD SWAP1 POP SWAP2 SWAP1 POP JUMP JUMPDEST DUP3 DUP2 DUP4 CALLDATACOPY PUSH1 0x0 DUP4 DUP4 ADD MSTORE POP POP POP JUMP JUMPDEST PUSH1 0x0 PUSH2 0x7C4 PUSH2 0x7BF DUP5 PUSH2 0x771 JUMP JUMPDEST PUSH2 0x756 JUMP JUMPDEST SWAP1 POP DUP3 DUP2 MSTORE PUSH1 0x20 DUP2 ADD DUP5 DUP5 DUP5 ADD GT ISZERO PUSH2 0x7E0 JUMPI PUSH2 0x7DF PUSH2 0x6E0 JUMP JUMPDEST JUMPDEST PUSH2 0x7EB DUP5 DUP3 DUP6 PUSH2 0x7A2 JUMP JUMPDEST POP SWAP4 SWAP3 POP POP POP JUMP JUMPDEST PUSH1 0x0 DUP3 PUSH1 0x1F DUP4 ADD SLT PUSH2 0x808 JUMPI PUSH2 0x807 PUSH2 0x6DB JUMP JUMPDEST JUMPDEST DUP2 CALLDATALOAD PUSH2 0x818 DUP5 DUP3 PUSH1 0x20 DUP7 ADD PUSH2 0x7B1 JUMP JUMPDEST SWAP2 POP POP SWAP3 SWAP2 POP POP JUMP JUMPDEST PUSH1 0x0 PUSH1 0x20 DUP3 DUP5 SUB SLT ISZERO PUSH2 0x837 JUMPI PUSH2 0x836 PUSH2 0x6D1 JUMP JUMPDEST JUMPDEST PUSH1 0x0 DUP3 ADD CALLDATALOAD PUSH8 0xFFFFFFFFFFFFFFFF DUP2 GT ISZERO PUSH2 0x855 JUMPI PUSH2 0x854 PUSH2 0x6D6 JUMP JUMPDEST JUMPDEST PUSH2 0x861 DUP5 DUP3 DUP6 ADD PUSH2 0x7F3 JUMP JUMPDEST SWAP2 POP POP SWAP3 SWAP2 POP POP JUMP JUMPDEST PUSH1 0x0 DUP2 SWAP1 POP SWAP2 SWAP1 POP JUMP JUMPDEST PUSH2 0x87D DUP2 PUSH2 0x86A JUMP JUMPDEST DUP2 EQ PUSH2 0x888 JUMPI PUSH1 0x0 DUP1 REVERT JUMPDEST POP JUMP JUMPDEST PUSH1 0x0 DUP2 CALLDATALOAD SWAP1 POP PUSH2 0x89A DUP2 PUSH2 0x874 JUMP JUMPDEST SWAP3 SWAP2 POP POP JUMP JUMPDEST PUSH1 0x0 PUSH1 0x20 DUP3 DUP5 SUB SLT ISZERO PUSH2 0x8B6 JUMPI PUSH2 0x8B5 PUSH2 0x6D1 JUMP JUMPDEST JUMPDEST PUSH1 0x0 PUSH2 0x8C4 DUP5 DUP3 DUP6 ADD PUSH2 0x88B JUMP JUMPDEST SWAP2 POP POP SWAP3 SWAP2 POP POP JUMP JUMPDEST PUSH1 0x0 DUP2 MLOAD SWAP1 POP SWAP2 SWAP1 POP JUMP JUMPDEST PUSH1 0x0 DUP3 DUP3 MSTORE PUSH1 0x20 DUP3 ADD SWAP1 POP SWAP3 SWAP2 POP POP JUMP JUMPDEST PUSH1 0x0 JUMPDEST DUP4 DUP2 LT ISZERO PUSH2 0x907 JUMPI DUP1 DUP3 ADD MLOAD DUP2 DUP5 ADD MSTORE PUSH1 0x20 DUP2 ADD SWAP1 POP PUSH2 0x8EC JUMP JUMPDEST PUSH1 0x0 DUP5 DUP5 ADD MSTORE POP POP POP POP JUMP JUMPDEST PUSH1 0x0 PUSH2 0x91E DUP3 PUSH2 0x8CD JUMP JUMPDEST PUSH2 0x928 DUP2 DUP6 PUSH2 0x8D8 JUMP JUMPDEST SWAP4 POP PUSH2 0x938 DUP2 DUP6 PUSH1 0x20 DUP7 ADD PUSH2 0x8E9 JUMP JUMPDEST PUSH2 0x941 DUP2 PUSH2 0x6E5 JUMP JUMPDEST DUP5 ADD SWAP2 POP POP SWAP3 SWAP2 POP POP JUMP JUMPDEST PUSH1 0x0 PUSH1 0x20 DUP3 ADD SWAP1 POP DUP2 DUP2 SUB PUSH1 0x0 DUP4 ADD MSTORE PUSH2 0x966 DUP2 DUP5 PUSH2 0x913 JUMP JUMPDEST SWAP1 POP SWAP3 SWAP2 POP POP JUMP JUMPDEST PUSH1 0x0 DUP2 MLOAD SWAP1 POP SWAP2 SWAP1 POP JUMP JUMPDEST PUSH1 0x0 DUP3 DUP3 MSTORE PUSH1 0x20 DUP3 ADD SWAP1 POP SWAP3 SWAP2 POP POP JUMP JUMPDEST PUSH1 0x0 DUP2 SWAP1 POP PUSH1 0x20 DUP3 ADD SWAP1 POP SWAP2 SWAP1 POP JUMP JUMPDEST PUSH2 0x9A3 DUP2 PUSH2 0x86A JUMP JUMPDEST DUP3 MSTORE POP POP JUMP JUMPDEST PUSH1 0x0 PUSH2 0x9B5 DUP4 DUP4 PUSH2 0x99A JUMP JUMPDEST PUSH1 0x20 DUP4 ADD SWAP1 POP SWAP3 SWAP2 POP POP JUMP JUMPDEST PUSH1 0x0 PUSH1 0x20 DUP3 ADD SWAP1 POP SWAP2 SWAP1 POP JUMP JUMPDEST PUSH1 0x0 PUSH2 0x9D9 DUP3 PUSH2 0x96E JUMP JUMPDEST PUSH2 0x9E3 DUP2 DUP6 PUSH2 0x979 JUMP JUMPDEST SWAP4 POP PUSH2 0x9EE DUP4 PUSH2 0x98A JUMP JUMPDEST DUP1 PUSH1 0x0 JUMPDEST DUP4 DUP2 LT ISZERO PUSH2 0xA1F JUMPI DUP2 MLOAD PUSH2 0xA06 DUP9 DUP3 PUSH2 0x9A9 JUMP JUMPDEST SWAP8 POP PUSH2 0xA11 DUP4 PUSH2 0x9C1 JUMP JUMPDEST SWAP3 POP POP PUSH1 0x1 DUP2 ADD SWAP1 POP PUSH2 0x9F2 JUMP JUMPDEST POP DUP6 SWAP4 POP POP POP POP SWAP3 SWAP2 POP POP JUMP JUMPDEST PUSH1 0x0 DUP2 MLOAD SWAP1 POP SWAP2 SWAP1 POP JUMP JUMPDEST PUSH1 0x0 DUP3 DUP3 MSTORE PUSH1 0x20 DUP3 ADD SWAP1 POP SWAP3 SWAP2 POP POP JUMP JUMPDEST PUSH1 0x0 DUP2 SWAP1 POP PUSH1 0x20 DUP3 ADD SWAP1 POP SWAP2 SWAP1 POP JUMP JUMPDEST PUSH1 0x0 DUP3 DUP3 MSTORE PUSH1 0x20 DUP3 ADD SWAP1 POP SWAP3 SWAP2 POP POP JUMP JUMPDEST PUSH1 0x0 PUSH2 0xA74 DUP3 PUSH2 0x8CD JUMP JUMPDEST PUSH2 0xA7E DUP2 DUP6 PUSH2 0xA58 JUMP JUMPDEST SWAP4 POP PUSH2 0xA8E DUP2 DUP6 PUSH1 0x20 DUP7 ADD PUSH2 0x8E9 JUMP JUMPDEST PUSH2 0xA97 DUP2 PUSH2 0x6E5 JUMP JUMPDEST DUP5 ADD SWAP2 POP POP SWAP3 SWAP2 POP POP JUMP JUMPDEST PUSH1 0x0 PUSH2 0xAAE DUP4 DUP4 PUSH2 0xA69 JUMP JUMPDEST SWAP1 POP SWAP3 SWAP2 POP POP JUMP JUMPDEST PUSH1 0x0 PUSH1 0x20 DUP3 ADD SWAP1 POP SWAP2 SWAP1 POP JUMP JUMPDEST PUSH1 0x0 PUSH2 0xACE DUP3 PUSH2 0xA2C JUMP JUMPDEST PUSH2 0xAD8 DUP2 DUP6 PUSH2 0xA37 JUMP JUMPDEST SWAP4 POP DUP4 PUSH1 0x20 DUP3 MUL DUP6 ADD PUSH2 0xAEA DUP6 PUSH2 0xA48 JUMP JUMPDEST DUP1 PUSH1 0x0 JUMPDEST DUP6 DUP2 LT ISZERO PUSH2 0xB26 JUMPI DUP5 DUP5 SUB DUP10 MSTORE DUP2 MLOAD PUSH2 0xB07 DUP6 DUP3 PUSH2 0xAA2 JUMP JUMPDEST SWAP5 POP PUSH2 0xB12 DUP4 PUSH2 0xAB6 JUMP JUMPDEST SWAP3 POP PUSH1 0x20 DUP11 ADD SWAP10 POP POP PUSH1 0x1 DUP2 ADD SWAP1 POP PUSH2 0xAEE JUMP JUMPDEST POP DUP3 SWAP8 POP DUP8 SWAP6 POP POP POP POP POP POP SWAP3 SWAP2 POP POP JUMP JUMPDEST PUSH1 0x0 PUSH1 0x40 DUP3 ADD SWAP1 POP DUP2 DUP2 SUB PUSH1 0x0 DUP4 ADD MSTORE PUSH2 0xB52 DUP2 DUP6 PUSH2 0x9CE JUMP JUMPDEST SWAP1 POP DUP2 DUP2 SUB PUSH1 0x20 DUP4 ADD MSTORE PUSH2 0xB66 DUP2 DUP5 PUSH2 0xAC3 JUMP JUMPDEST SWAP1 POP SWAP4 SWAP3 POP POP POP JUMP JUMPDEST PUSH1 0x0 PUSH1 0x20 DUP3 ADD SWAP1 POP DUP2 DUP2 SUB PUSH1 0x0 DUP4 ADD MSTORE PUSH2 0xB89 DUP2 DUP5 PUSH2 0xAC3 JUMP JUMPDEST SWAP1 POP SWAP3 SWAP2 POP POP JUMP JUMPDEST PUSH32 0x4E487B7100000000000000000000000000000000000000000000000000000000 PUSH1 0x0 MSTORE PUSH1 0x22 PUSH1 0x4 MSTORE PUSH1 0x24 PUSH1 0x0 REVERT JUMPDEST PUSH1 0x0 PUSH1 0x2 DUP3 DIV SWAP1 POP PUSH1 0x1 DUP3 AND DUP1 PUSH2 0xBD8 JUMPI PUSH1 0x7F DUP3 AND SWAP2 POP JUMPDEST PUSH1 0x20 DUP3 LT DUP2 SUB PUSH2 0xBEB JUMPI PUSH2 0xBEA PUSH2 0xB91 JUMP JUMPDEST JUMPDEST POP SWAP2 SWAP1 POP JUMP JUMPDEST PUSH1 0x0 DUP2 SWAP1 POP DUP2 PUSH1 0x0 MSTORE PUSH1 0x20 PUSH1 0x0 KECCAK256 SWAP1 POP SWAP2 SWAP1 POP JUMP JUMPDEST PUSH1 0x0 PUSH1 0x20 PUSH1 0x1F DUP4 ADD DIV SWAP1 POP SWAP2 SWAP1 POP JUMP JUMPDEST PUSH1 0x0 DUP3 DUP3 SHL SWAP1 POP SWAP3 SWAP2 POP POP JUMP JUMPDEST PUSH1 0x0 PUSH1 0x8 DUP4 MUL PUSH2 0xC53 PUSH32 0xFFFFFFFFFFFFFFFFFFFFFFFFFFFFFFFFFFFFFFFFFFFFFFFFFFFFFFFFFFFFFFFF DUP3 PUSH2 0xC16 JUMP JUMPDEST PUSH2 0xC5D DUP7 DUP4 PUSH2 0xC16 JUMP JUMPDEST SWAP6 POP DUP1 NOT DUP5 AND SWAP4 POP DUP1 DUP7 AND DUP5 OR SWAP3 POP POP POP SWAP4 SWAP3 POP POP POP JUMP JUMPDEST PUSH1 0x0 DUP2 SWAP1 POP SWAP2 SWAP1 POP JUMP JUMPDEST PUSH1 0x0 PUSH2 0xC9A PUSH2 0xC95 PUSH2 0xC90 DUP5 PUSH2 0x86A JUMP JUMPDEST PUSH2 0xC75 JUMP JUMPDEST PUSH2 0x86A JUMP JUMPDEST SWAP1 POP SWAP2 SWAP1 POP JUMP JUMPDEST PUSH1 0x0 DUP2 SWAP1 POP SWAP2 SWAP1 POP JUMP JUMPDEST PUSH2 0xCB4 DUP4 PUSH2 0xC7F JUMP JUMPDEST PUSH2 0xCC8 PUSH2 0xCC0 DUP3 PUSH2 0xCA1 JUMP JUMPDEST DUP5 DUP5 SLOAD PUSH2 0xC23 JUMP JUMPDEST DUP3 SSTORE POP POP POP POP JUMP JUMPDEST PUSH1 0x0 SWAP1 JUMP JUMPDEST PUSH2 0xCDD PUSH2 0xCD0 JUMP JUMPDEST PUSH2 0xCE8 DUP2 DUP5 DUP5 PUSH2 0xCAB JUMP JUMPDEST POP POP POP JUMP JUMPDEST JUMPDEST DUP2 DUP2 LT ISZERO PUSH2 0xD0C JUMPI PUSH2 0xD01 PUSH1 0x0 DUP3 PUSH2 0xCD5 JUMP JUMPDEST PUSH1 0x1 DUP2 ADD SWAP1 POP PUSH2 0xCEE JUMP JUMPDEST POP POP JUMP JUMPDEST PUSH1 0x1F DUP3 GT ISZERO PUSH2 0xD51 JUMPI PUSH2 0xD22 DUP2 PUSH2 0xBF1 JUMP JUMPDEST PUSH2 0xD2B DUP5 PUSH2 0xC06 JUMP JUMPDEST DUP2 ADD PUSH1 0x20 DUP6 LT ISZERO PUSH2 0xD3A JUMPI DUP2 SWAP1 POP JUMPDEST PUSH2 0xD4E PUSH2 0xD46 DUP6 PUSH2 0xC06 JUMP JUMPDEST DUP4 ADD DUP3 PUSH2 0xCED JUMP JUMPDEST POP POP JUMPDEST POP POP POP JUMP JUMPDEST PUSH1 0x0 DUP3 DUP3 SHR SWAP1 POP SWAP3 SWAP2 POP POP JUMP JUMPDEST PUSH1 0x0 PUSH2 0xD74 PUSH1 0x0 NOT DUP5 PUSH1 0x8 MUL PUSH2 0xD56 JUMP JUMPDEST NOT DUP1 DUP4 AND SWAP2 POP POP SWAP3 SWAP2 POP POP JUMP JUMPDEST PUSH1 0x0 PUSH2 0xD8D DUP4 DUP4 PUSH2 0xD63 JUMP JUMPDEST SWAP2 POP DUP3 PUSH1 0x2 MUL DUP3 OR SWAP1 POP SWAP3 SWAP2 POP POP JUMP JUMPDEST PUSH2 0xDA6 DUP3 PUSH2 0x8CD JUMP JUMPDEST PUSH8 0xFFFFFFFFFFFFFFFF DUP2 GT ISZERO PUSH2 0xDBF JUMPI PUSH2 0xDBE PUSH2 0x6F6 JUMP JUMPDEST JUMPDEST PUSH2 0xDC9 DUP3 SLOAD PUSH2 0xBC0 JUMP JUMPDEST PUSH2 0xDD4 DUP3 DUP3 DUP6 PUSH2 0xD10 JUMP JUMPDEST PUSH1 0x0 PUSH1 0x20 SWAP1 POP PUSH1 0x1F DUP4 GT PUSH1 0x1 DUP2 EQ PUSH2 0xE07 JUMPI PUSH1 0x0 DUP5 ISZERO PUSH2 0xDF5 JUMPI DUP3 DUP8 ADD MLOAD SWAP1 POP JUMPDEST PUSH2 0xDFF DUP6 DUP3 PUSH2 0xD81 JUMP JUMPDEST DUP7 SSTORE POP PUSH2 0xE67 JUMP JUMPDEST PUSH1 0x1F NOT DUP5 AND PUSH2 0xE15 DUP7 PUSH2 0xBF1 JUMP JUMPDEST PUSH1 0x0 JUMPDEST DUP3 DUP2 LT ISZERO PUSH2 0xE3D JUMPI DUP5 DUP10 ADD MLOAD DUP3 SSTORE PUSH1 0x1 DUP3 ADD SWAP2 POP PUSH1 0x20 DUP6 ADD SWAP5 POP PUSH1 0x20 DUP2 ADD SWAP1 POP PUSH2 0xE18 JUMP JUMPDEST DUP7 DUP4 LT ISZERO PUSH2 0xE5A JUMPI DUP5 DUP10 ADD MLOAD PUSH2 0xE56 PUSH1 0x1F DUP10 AND DUP3 PUSH2 0xD63 JUMP JUMPDEST DUP4 SSTORE POP JUMPDEST PUSH1 0x1 PUSH1 0x2 DUP9 MUL ADD DUP9 SSTORE POP POP POP JUMPDEST POP POP POP POP POP POP JUMP JUMPDEST PUSH32 0x4E487B7100000000000000000000000000000000000000000000000000000000 PUSH1 0x0 MSTORE PUSH1 0x32 PUSH1 0x4 MSTORE PUSH1 0x24 PUSH1 0x0 REVERT JUMPDEST PUSH32 0x4E487B7100000000000000000000000000000000000000000000000000000000 PUSH1 0x0 MSTORE PUSH1 0x11 PUSH1 0x4 MSTORE PUSH1 0x24 PUSH1 0x0 REVERT JUMPDEST PUSH1 0x0 PUSH2 0xED8 DUP3 PUSH2 0x86A JUMP JUMPDEST SWAP2 POP PUSH32 0xFFFFFFFFFFFFFFFFFFFFFFFFFFFFFFFFFFFFFFFFFFFFFFFFFFFFFFFFFFFFFFFF DUP3 SUB PUSH2 0xF0A JUMPI PUSH2 0xF09 PUSH2 0xE9E JUMP JUMPDEST JUMPDEST PUSH1 0x1 DUP3 ADD SWAP1 POP SWAP2 SWAP1 POP JUMP JUMPDEST PUSH1 0x0 DUP2 SWAP1 POP SWAP3 SWAP2 POP POP JUMP JUMPDEST PUSH1 0x0 DUP2 SWAP1 POP DUP2 PUSH1 0x0 MSTORE PUSH1 0x20 PUSH1 0x0 KECCAK256 SWAP1 POP SWAP2 SWAP1 POP JUMP JUMPDEST PUSH1 0x0 DUP2 SLOAD PUSH2 0xF42 DUP2 PUSH2 0xBC0 JUMP JUMPDEST PUSH2 0xF4C DUP2 DUP7 PUSH2 0xF15 JUMP JUMPDEST SWAP5 POP PUSH1 0x1 DUP3 AND PUSH1 0x0 DUP2 EQ PUSH2 0xF67 JUMPI PUSH1 0x1 DUP2 EQ PUSH2 0xF7C JUMPI PUSH2 0xFAF JUMP JUMPDEST PUSH1 0xFF NOT DUP4 AND DUP7 MSTORE DUP2 ISZERO ISZERO DUP3 MUL DUP7 ADD SWAP4 POP PUSH2 0xFAF JUMP JUMPDEST PUSH2 0xF85 DUP6 PUSH2 0xF20 JUMP JUMPDEST PUSH1 0x0 JUMPDEST DUP4 DUP2 LT ISZERO PUSH2 0xFA7 JUMPI DUP2 SLOAD DUP2 DUP10 ADD MSTORE PUSH1 0x1 DUP3 ADD SWAP2 POP PUSH1 0x20 DUP2 ADD SWAP1 POP PUSH2 0xF88 JUMP JUMPDEST DUP4 DUP9 ADD SWAP6 POP POP POP JUMPDEST POP POP POP SWAP3 SWAP2 POP POP JUMP JUMPDEST PUSH1 0x0 PUSH2 0xFC4 DUP3 DUP5 PUSH2 0xF35 JUMP JUMPDEST SWAP2 POP DUP2 SWAP1 POP SWAP3 SWAP2 POP POP JUMP JUMPDEST PUSH1 0x0 PUSH2 0xFDA DUP3 PUSH2 0x86A JUMP JUMPDEST SWAP2 POP PUSH2 0xFE5 DUP4 PUSH2 0x86A JUMP JUMPDEST SWAP3 POP DUP3 DUP3 SUB SWAP1 POP DUP2 DUP2 GT ISZERO PUSH2 0xFFD JUMPI PUSH2 0xFFC PUSH2 0xE9E JUMP JUMPDEST JUMPDEST SWAP3 SWAP2 POP POP JUMP JUMPDEST PUSH1 0x0 DUP2 SLOAD SWAP1 POP PUSH2 0x1012 DUP2 PUSH2 0xBC0 JUMP JUMPDEST SWAP1 POP SWAP2 SWAP1 POP JUMP JUMPDEST PUSH1 0x0 DUP2 SWAP1 POP DUP2 PUSH1 0x0 MSTORE PUSH1 0x20 PUSH1 0x0 KECCAK256 SWAP1 POP SWAP2 SWAP1 POP JUMP JUMPDEST DUP2 DUP2 SUB PUSH2 0x103C JUMPI POP POP PUSH2 0x1114 JUMP JUMPDEST PUSH2 0x1045 DUP3 PUSH2 0x1003 JUMP JUMPDEST PUSH8 0xFFFFFFFFFFFFFFFF DUP2 GT ISZERO PUSH2 0x105E JUMPI PUSH2 0x105D PUSH2 0x6F6 JUMP JUMPDEST JUMPDEST PUSH2 0x1068 DUP3 SLOAD PUSH2 0xBC0 JUMP JUMPDEST PUSH2 0x1073 DUP3 DUP3 DUP6 PUSH2 0xD10 JUMP JUMPDEST PUSH1 0x0 PUSH1 0x1F DUP4 GT PUSH1 0x1 DUP2 EQ PUSH2 0x10A2 JUMPI PUSH1 0x0 DUP5 ISZERO PUSH2 0x1090 JUMPI DUP3 DUP8 ADD SLOAD SWAP1 POP JUMPDEST PUSH2 0x109A DUP6 DUP3 PUSH2 0xD81 JUMP JUMPDEST DUP7 SSTORE POP PUSH2 0x110D JUMP JUMPDEST PUSH1 0x1F NOT DUP5 AND PUSH2 0x10B0 DUP8 PUSH2 0x1019 JUMP JUMPDEST SWAP7 POP PUSH2 0x10BB DUP7 PUSH2 0xBF1 JUMP JUMPDEST PUSH1 0x0 JUMPDEST DUP3 DUP2 LT ISZERO PUSH2 0x10E3 JUMPI DUP5 DUP10 ADD SLOAD DUP3 SSTORE PUSH1 0x1 DUP3 ADD SWAP2 POP PUSH1 0x1 DUP6 ADD SWAP5 POP PUSH1 0x20 DUP2 ADD SWAP1 POP PUSH2 0x10BE JUMP JUMPDEST DUP7 DUP4 LT ISZERO PUSH2 0x1100 JUMPI DUP5 DUP10 ADD SLOAD PUSH2 0x10FC PUSH1 0x1F DUP10 AND DUP3 PUSH2 0xD63 JUMP JUMPDEST DUP4 SSTORE POP JUMPDEST PUSH1 0x1 PUSH1 0x2 DUP9 MUL ADD DUP9 SSTORE POP POP POP JUMPDEST POP POP POP POP POP POP JUMPDEST JUMP JUMPDEST PUSH32 0x4E487B7100000000000000000000000000000000000000000000000000000000 PUSH1 0x0 MSTORE PUSH1 0x31 PUSH1 0x4 MSTORE PUSH1 0x24 PUSH1 0x0 REVERT INVALID LOG2 PUSH5 0x6970667358 0x22 SLT KECCAK256 0x25 0xD8 SELFBALANCE PUSH24 0xD98F280EC3CBE75EE9CEDB4AE3BA36E49324608D071D5C2A SWAP12 PUSH7 0xECD464736F6C63 NUMBER STOP ADDMOD GT STOP CALLER "
				},
				"gasEstimates": {
					"creation": {
						"codeDepositCost": "895000",
						"executionCost": "929",
						"totalCost": "895929"
					},
					"external": {
						"addName(string)": "infinite",
						"deleteName1(string)": "infinite",
						"deleteName2(string)": "infinite",
						"getArr()": "infinite",
						"getRow()": "infinite",
						"row(uint256)": "infinite"
					}
				},
				"methodIdentifiers": {
					"addName(string)": "11456b47",
					"deleteName1(string)": "6b2f1653",
					"deleteName2(string)": "c51c06e1",
					"getArr()": "fb8cbced",
					"getRow()": "52dc3caa",
					"row(uint256)": "4f348b95"
				}
			},
			"storageLayout": {
				"storage": [
					{
						"astId": 4,
						"contract": "contracts/Array.sol:simple",
						"label": "row",
						"offset": 0,
						"slot": "0",
						"type": "t_array(t_string_storage)dyn_storage"
					}
				],
				"types": {
					"t_array(t_string_storage)dyn_storage": {
						"base": "t_string_storage",
						"encoding": "dynamic_array",
						"label": "string[]",
						"numberOfBytes": "32"
					},
					"t_string_storage": {
						"encoding": "bytes",
						"label": "string",
						"numberOfBytes": "32"
					}
				}
			},
			"userdoc": {
				"kind": "user",
				"methods": {},
				"version": 1
			}
		}
	}
}